:020000040800F2
:10000000A00C0020F10100082F3B0008733200080B
:100010002D3B0008BD040008A148000800000000B6
:10002000000000000000000000000000333B00085A
:100030006305000800000000313B0008853C000813
:100040000B0200080B0200080B0200080B0200085C
:100050000B0200080B0200080B0200080B0200084C
:100060000B0200080B0200080B0200080B0200083C
:100070000B0200080B0200080B0200080B0200082C
:100080000B0200080B0200080B0200080B0200081C
:100090000B0200080B0200080B0200080B0200080C
:1000A0000B0200080B0200080B0200080B020008FC
:1000B000053D00080B0200080B0200080B020008B7
:1000C0000B0200080B0200080B0200080B020008DC
:1000D0000B0200080B0200080B0200080B020008CC
:1000E0000B0200080B0200080B0200080B020008BC
:1000F0000B0200080B0200080B0200080B020008AC
:100100000B0200080B020008853D00080B020008E6
:100110000B0200080B0200080B0200080B0200088B
:100120000B0200080B0200080B0200080B0200087B
:100130000B0200080B0200080B0200080B0200086B
:100140000B0200080B0200080B0200080000000070
:10015000000000000000000000000000000000009F
:100160000000000000000000000000000B0200087A
:100170000B0200080B0200080B0200080B0200082B
:100180000B0200080B0200080B0200080B0200081B
:100190000B020008000000000B0200080B02000820
:1001A0000B0200080B0200080B0200080B020008FB
:1001B0000B0200080B0200080B0200080B020008EB
:1001C0000B0200080B0200080B0200080B020008DB
:1001D0000B0200080B020008DFF810D000F07CF8DA
:1001E00000480047E1480008AFF30080A00C002061
:1001F0000648804706480047FEE7FEE7FEE7FEE7C1
:10020000FEE7FEE7FEE7FEE7FEE7FEE7F53C000857
:10021000D90100082DE9F05F0546002092469B4673
:1002200088460646814640241BE02846414647460C
:10023000224600F041F853465A46C01A914110D365
:1002400011461846224600F028F82D1A67EB0108DF
:100250004F4622460120002100F01FF817EB00094D
:100260004E41201EA4F10104DFDC484631462A46F7
:100270004346BDE8F09FD2B201E000F8012B491ED1
:10028000FBD270470022F6E710B513460A46044633
:100290001946FFF7F0FF204610BD202A04DB203A64
:1002A00000FA02F1002070479140C2F1200320FAC9
:1002B00003F3194390407047202A04DB203A21FAC7
:1002C00002F00021704721FA02F3D040C2F120026F
:1002D0009140084319467047064C074D06E0E06818
:1002E00040F0010394E8070098471034AC42F6D37D
:1002F000FFF776FF404C0008604C000810B5846A98
:10030000E16D11F0500F06D0E16DC90625D52046EC
:1003100000F05CFC10BDE06D40F40070E06520680A
:100320000168090716D502F0B7FF78B12068C068E8
:10033000800400280ADBE06D20F48070E065E06D49
:10034000C00403D4E06D40F00100E065204600F0F9
:100350003BFC10BDC0688007EBE7616D496BBDE8F1
:100360001040084710B5806AC16D41F04001C16579
:10037000016E41F00401016600F028FC10BD10B5CB
:10038000806A00F022FC10BD70B5044600688168E8
:100390008268C1F3400112F0010F28D039BB816897
:1003A00001F00D01012914D18168124A1140891C04
:1003B000816021680320086001F076FA054612E0AA
:1003C00001F072FA401B02280DD920688068C0072E
:1003D00009D0E06D40F01000E065206E40F00100B3
:1003E0002066012070BD20688068C007E8D1002029
:1003F00070BD0000C0FFFF7FF8B5044600200090EC
:100400002068816811F0010F4AD18168254A1142A4
:1004100037D18168D5432940491C81602068B0F1FB
:10042000A04F02D02049884201D1204800E0204856
:10043000806800F0E07000020DD51E481E4900687B
:10044000B0FBF1F0401C00EB4000800000E0401EDB
:1004500000900028FBD101F027FA06461BE08168D6
:1004600011F0010F03D181682940491C816001F01E
:100470001BFA801B02280ED920680068C043C00701
:1004800009D0E06D40F01000E065206E40F0010002
:1004900020660120F8BD20680168C943C907DED184
:1004A0000020F8BD3F000080000100500003005014
:1004B000000700502C000020400D0300FEE7000064
:1004C0000D4902688A4201D20C4901E00B492031F2
:1004D000D2B21423083AB2FBF3F2436C02F01F02CB
:1004E00023F003031944816404498031C16401216C
:1004F0009140016570470000080402400008024076
:100500000179074A02EB81024265054A4432491EDD
:10051000826501F01F0201219140C1657047000012
:10052000FC08024030B5D0E913456560446D14B154
:10053000D0E91645656090F8444004F01F05012499
:10054000AC40056C6C60046863608368102B0368C2
:1005500003D099600068C26030BD9A600068C160D5
:1005600030BD704772B6FEE7F8B500260446009627
:1005700090F858000D4601280BD0012084F858004F
:100580002046FFF701FF0100E06D04D040F01000AD
:100590002AE00220F8BD20F4885040F00200E06517
:1005A00020688268134B1A4005F080431A4342F0DA
:1005B00000428260104A20680EE0009B5B1C0093A2
:1005C000934209D3E06D20F0020040F01000E06596
:1005D00084F858600120F8BD8368DB0FEDD1E06D31
:1005E00020F0020040F00100E06584F85860084601
:1005F000F8BD0000C0FFFF3F02DE04002DE9F04F10
:10060000044690F858009BB00F464FF0000B0128AD
:1006100012D0012084F858000026179618962068FA
:100620004FF0A048DFF81C91DFF81CA1474D404572
:1006300006D12846009508E002201BB0BDE8F08FE7
:1006400048450AD15046CDF800A002F021FE0090A6
:10065000206802F01DFE40B109E0E06D40F020008E
:10066000E06584F858600120E7E7009850B1E06D3C
:1006700040F02000E0654FF0010B00BF84F85860A7
:100680005846DAE720684146884201D0A84201D1A5
:100690002F4800E02F48D7F800C02F4B40F61F72BC
:1006A000BCF1000F2DD0D0F808C094F838802CF49D
:1006B000604C4CEA483CD7F804804CEA080CC0F87F
:1006C00008C0D4F800C08C4501D0AC4504D189687D
:1006D000AB6801F0010109E0D9F80810DAF8085018
:1006E00001F0010105F001059B68294303F00103B6
:1006F0001943C3D1BB6839681943836893431943CD
:100700001DE0876827F46047876027688F4201D023
:10071000AF4204D18968AB6801F0010109E0D9F862
:100720000810DAF8085001F0010105F001059B6896
:10073000294303F001031943A0D1816891438160EB
:100740009CE700000004005000050050000100502C
:100750000003005000070050000600502DE9F84F3C
:1007600000270446009790F85800DFF81C840D46D7
:10077000B946012811D0012684F85860206802F09B
:1007800083FD60B1E06D40F02000E0655FF001079F
:1007900084F858903846BDE8F88F0220FBE7D5E989
:1007A00000210C23206803EA91131844036B01F025
:1007B0001F014FF01F0C0CFA01FCC2F3846223EA04
:1007C0000C038A4013430363206802F05DFD8246F8
:1007D000206802F055FD5AEA00003CD1AA68296859
:1007E0002068B2F1004F37D002F05EFD2068416909
:1007F00021F00041416120686969C268C2F3C10209
:10080000520091402A69042A31D000EB82002B6803
:10081000026EDFF878C303F0F84302EA0C020B43E0
:100820001A4342F00041016622682869A96902EB77
:100830008000026E22F080720A430266297F2268DD
:100840002869012910D0002102EB8000026E22F0FD
:1008500000720A4302667DE0002202F025FD206856
:10086000416941F00041C5E74FF00071ECE700211C
:1008700002F000FD400320684FF0000172D002F04A
:10088000F9FC90FAA0F0B0FA80F1286842036ED02B
:1008900090FAA0F0B0FA80F0814204D10022114613
:1008A000206802F010FD0121206802F0E3FC400303
:1008B00020684FF001015DD002F0DCFC90FAA0F05E
:1008C000B0FA80F12868420359D090FAA0F0B0FA4B
:1008D00080F0814204D100220121206802F0F3FC63
:1008E0000221206802F0C6FC400320684FF002019C
:1008F00048D002F0BFFC90FAA0F0B0FA80F128686E
:10090000420344D090FAA0F0B0FA80F0814204D1C2
:1009100000220221206802F0D6FC0321206802F0A8
:10092000A9FC400320684FF0030133D002F0A2FC81
:1009300090FAA0F0B0FA80F1286842032FD090FA24
:10094000A0F0B0FA80F0814204D100220321206897
:1009500002F0B9FC2068816811F0010F22D0ACE0F0
:1009600000E004E002F086FCC0F384618DE7C0F390
:10097000846091E702F07EFCC0F38461A2E7C0F3DB
:100980008460A6E702F076FCC0F38461B7E7C0F3A9
:100990008460BBE702F06EFCC0F38461CCE7C0F377
:1009A0008460D0E72A7B296850F8B03FC1F3120C6D
:1009B00023EA0C0302F0180C754A22FA0CF20A40E2
:1009C00013430360E968414577D1286841031CD08F
:1009D00090FAA0F1B1FA81F1491C01F01F01092937
:1009E0004FEA403132D8002912D000BF90FAA0F16E
:1009F000B1FA81F101F1010101F01F0106FA01F6DE
:100A000009D100BFC0F3846109E0C0F38461E3E76A
:100A1000C0F38461EEE790FAA0F1B1FA81F101F13F
:100A2000010101F01F0146EA816102D1C0F3846037
:100A300003E090FAA0F0B0FA80F000F1010000F0BD
:100A40001F0000EB400041EA005132E000290ED0C7
:100A500090FAA0F1B1FA81F101F1010101F01F0159
:100A600006FA01F606D100BFC0F3846106E0C0F3C8
:100A70008461F1E790FAA0F1B1FA81F101F101018D
:100A800001F01F0146EA816102D1C0F3846003E0F6
:100A900090FAA0F0B0FA80F000F1010000F01F0021
:100AA0003C4A00EB400002EB005041EA000141F0FB
:100AB0000071AA68206802F0F7FB37482B680342F0
:100AC0003FF466AE21684FF0A04C3448344E354DAB
:100AD000614501D0A94201D1024600E03246926848
:100AE000DFF8C48002F0E072434503D0DFF8BC8039
:100AF000434521D15FEA02281ED4614506D02C4B24
:100B000099427FF445AEA94200D0304642F400013C
:100B1000826822F0E0720A43826026482649006813
:100B2000B0FBF1F0401C00EB4000800000E0401EF4
:100B300000900028FBD12BE6DFF8808043450FD1E1
:100B40005FEAC2180CD4A94202D11D4B9942F2D0DF
:100B5000614502D0A94200D0304642F080710CE0DD
:100B6000DFF860804345E6D15302E4D4A942E2D0E5
:100B7000614500D0304642F48001826822F0E07284
:100B80000A43826004E6000000007F4000F0FF039B
:100B9000FFFF0700000020FE000008800003005057
:100BA0000007005000010050000021C31000C09059
:100BB000000600502C000020400D0300000052C72A
:100BC00000050050000084CB70477047704700005C
:100BD000F8B54FF0000504002E46009502D0E06DF8
:100BE00010B107E00120F8BD204600F009F92666A3
:100BF00084F8586020688168C1F3407119B1816838
:100C0000734A1140816020688168C1F3007189B91D
:100C10008168704A114041F0805181606E486F498F
:100C20000068B0FBF1F04000801C00E0401E009026
:100C30000028FBD120688168C1F3007141B9E16DE2
:100C400041F01001E165216E41F0010121660125AD
:100C500002F01AFBE16DC90600D430B1E06D40F03E
:100C60001000E06501252846F8BDE06D20F4807095
:100C700040F00200E0652068816811F0010F27D183
:100C80004FF0A043564A984201D0904204D199684F
:100C9000966801F001010AE052498968524E01F05C
:100CA0000101B66806F001063143504EB66806F001
:100CB000010631430CD1984201D0904201D14C48F9
:100CC00000E04C486168826822F47C120A4382602A
:100CD000E168E06B627F0843A16841EA4231084362
:100CE00094F8241040EA0140012904D1218D424AA0
:100CF00002EB41410843E16A29B101F47871226BAA
:100D0000014342EA01002268D1683C4B194001438B
:100D1000D16020680169626B21F04061114301617B
:100D2000206802F0ADFA70BB207F94F8381022687A
:100D3000800340EA4100D16844F202039943014331
:100D4000D16020690028206801690AD041F480310F
:100D50000161206850F8C01F22696FF30D01114333
:100D600007E021F480310161206850F8C01F6FF363
:100D70000D01016094F8400001280CD02068016941
:100D800021F001010161606901282068016B21F0F7
:100D90000F0111D013E0D4E911010843D4E9131273
:100DA0001143084321680A6940F2FC739A431043D7
:100DB00040F001000861E6E7226A521E1143016318
:100DC000E06D20F0020040F00100E0654BE700001C
:100DD000C0FFFF5FC0FFFF7F2C000020400D03001D
:100DE00000010050000400500005005000060050B3
:100DF00000030050000700500000FEFF0740F0FF16
:100E00002DE9F04F9BB00746142115A8FFF73AFAD9
:100E100054216846FFF736FA4FF400413868002540
:100E20008A03B24EB24C4FF003084FF0800B4FF4E0
:100E300080794FF0200AB0F1A04F10D0AD4B98420E
:100E40007ED168461192009100F02CFE08B1FFF7A8
:100E500089FB3068401C3060012839D040E068468A
:100E60001192009100F01EFE08B1FFF77BFB306885
:100E7000401C3060012807D1E06C40F40050E06471
:100E8000E06C00F400501A90E06C40F00100E06467
:100E9000E06CCDF8548000F00100CDE916851A9081
:100EA00015A94FF0904000F0D5FB944C924820607B
:100EB0000520C4E90105C4E9035B4FF48060C4E97F
:100EC00005902046DCE07C65A7621BB0BDE8F08F92
:100ED000E06C40F40050E064E06C00F400501A90C4
:100EE000E06C40F00100E064E06C00F001001A905A
:100EF000E06C40F00400E064E06C00F004001A9044
:100F0000E06C40F00200E064E06C179500F0020035
:100F10001A90CDE915A85446464615A94FF09040C1
:100F200000F098FB1795CDE9154615A9744800F017
:100F300091FB04201795CDE9150615A9714800E02D
:100F40001BE000F087FB6D4E6F48603606F118011C
:100F500030602420C6E90105C6F81490C6E9035B99
:100F60004FF4806081E83100304600F071F908B13B
:100F7000FFF7F8FA7E65B762A7E7644B9901CA03E9
:100F8000984235D168461292009100F08BFD08B16D
:100F9000FFF7E8FA7068401C7060012807D1E06C28
:100FA00040F48040E064E06C00F480401A90E06C13
:100FB00040F01000E064E06C179500F010001A900B
:100FC0004FF46070CDE9150815A9514800F042FBB7
:100FD0004D484A4C1430C03420602520C4E9010536
:100FE000C4E9035B4FF48060C4E90590204647E004
:100FF000484B98424ED168461292009100F052FD43
:1010000008B1FFF7AFFA7068401C7060012807D183
:10101000E06C40F48040E064E06C00F480401A90A2
:10102000E06C40F00200E064E06C00F002001A9016
:10103000E06C40F00800E064E06C15A900F00800E6
:101040001A904FF48050444681E831002D4800F05A
:1010500001FB4E4615A93048CDF85490CDE9164510
:1010600000F0F8FA28482D4C283020602620C4E9EA
:101070000105C4E9035B4FF48060C4E905602046C4
:10108000C4E907A500F0E4F800283FF41CAFFFF71F
:1010900069FA18E7224B98427FF46EAF68461292C5
:1010A000009100F0FFFC08B1FFF75CFA7068401C8B
:1010B0007060012807D1E06C40F48040E064E06C8F
:1010C00000F480401A90E06C40F00100E064E06CB5
:1010D000CDF8549000F00100CDE916851A9015A9BD
:1010E0004FF0904000F0B6FAEFE600001800002044
:1010F0000010024000010050080402408403002058
:1011000000080048000400480800024000040050A5
:101110000010004800050050000C0048A404002006
:10112000000600502DE9F047044600684FF0A04843
:101130003D4F91468A46404501D0B84201D13B49D6
:1011400000E03B49896801F01F0502F09DF8002886
:1011500068D194F85800012864D0012084F8580020
:1011600034492068884201D1012000E00020401E5F
:1011700028424FF0000605D0052D03D0092D01D0DF
:10118000012003E02046FFF737F918B184F85860D2
:10119000BDE8F087E06D40F60161884340F480705F
:1011A000E0652068B84201D1414605E02249884205
:1011B00001D1224900E00146814200D01DB9E06D15
:1011C00020F48010E065E06DC00404D5206E20F0AE
:1011D0000600206600E02666616D1948C862616DF0
:1011E00018480863616D1848486321681C2008602E
:1011F00084F858602068416841F01001416020681F
:10120000C16841F00101C16021684B46524640313E
:10121000606D00F07DF821688A680C4B1A40121D41
:101220008A60B5E70220B3E70001005000030050D8
:101230000007005000060050000500500004005058
:10124000FD0200087F03000865030008C0FFFF7F60
:1012500070B504000CD02B4A21681420914209D2A9
:10126000294A0A44B2FBF0F08000606427480AE093
:10127000012070BD234A52420A44B2FBF0F08000C4
:101280006064204808382064022084F825000A6839
:1012900047F6F0708243D4E902031843D4E90435D9
:1012A0002B431843A3691843E3691843236A18437F
:1012B000104308602046FFF703F9A0680025B0F549
:1012C000804F00D16560A16C20790860D4E91301DA
:1012D00041606068401E032808D82046FFF710F9D7
:1012E000606D0560D4E91601416002E06565A565A1
:1012F000E565E563012084F8250084F8245000208A
:1013000070BD000008040240F8FFFDBF000002406D
:1013100070B5044690F82400002501280CD0012067
:1013200084F8240094F825600020012E06D084F86B
:1013300024000225284670BD022070BD022684F8D4
:101340002560E0632068066826F0010606602046F6
:10135000FFF7E8F8206B00282068016802D041F010
:101360000E0106E021F0040101602068016841F0EF
:101370000A010160A06C0168C90303D5016841F44A
:1013800080710160606D18B1016841F48071016085
:101390002068016841F001010160CBE770B50446A7
:1013A00000F082FA0546601C02D0044840680444FC
:1013B00000F07AFA401BA042FAD370BD2000002052
:1013C0002DE9F041040006D0DFF8F48194F85C00C8
:1013D000002518B107E00120BDE8F08184F85D50D8
:1013E000204600F0F9F82068816921F01001816140
:1013F00000F05AFA0646032705E000BF00F054FA51
:10140000801B0A2811D8206880690007F6D420685C
:10141000816941F00101816100F046FA06460BE066
:1014200000F042FA801B0A2806D9206E40F0010025
:10143000206684F85C70CEE720688069C007EFD032
:101440002068816941F0020181612168414502D132
:101450005C4960680860207C01282068816937D079
:1014600041F040018161607C01282068816932D0AF
:1014700021F480418161A07C0128206881692DD000
:1014800041F48051816120688169A26821F4407132
:10149000114381612068816921F0A4018161206884
:1014A000016921F010010161E068012819D010B331
:1014B00002281BD02068816941F080018161206889
:1014C000016941F010010161E06803280ED012E0CB
:1014D00021F04001C6E741F48041CBE721F480517F
:1014E000D0E72068816941F0040103E02068816948
:1014F00041F020018161207EE26940066FF0FF012A
:1015000001EB0222A0F100701043226AA38A521E4E
:1015100010430A0202EB034318432368D861A06812
:10152000B0F5407F10D1D4E90A0301EB0321401E3E
:101530000843216B131303EB01110843A18C02EB49
:10154000014108432168C860206850F8C01FE26B61
:10155000114301601D4A21681B48914200D11C487B
:101560001C4A914201D100F5D460206451F8802FCB
:10157000A38E22F4F81242EA03420A6000F17001DD
:101580006164216851F8802F94F8383022F070623D
:1015900042EA03620A6000F1B001A164D831E1645B
:1015A000D831216518316165D83100E020C088420A
:1015B000FCD3A5652566012084F85C0000200BE7BC
:1015C000006400400065004000A400400068004046
:1015D00050A70040006C004010B59CB00446142198
:1015E00015A8FEF74FFE54216846FEF74BFE17493B
:1015F0002068884228D18014009040030E906846ED
:1016000000F050FA08B1FEF7ADFF1148816D41F0CE
:1016100000718165816D01F000711A91C16C41F01A
:101620000101C164C06C15A900F001001A904FF4CB
:10163000C050159002201690002017901890092095
:101640001990C00600F006F81CB010BD0064004000
:10165000001002402DE9F04FDFF820920023012610
:101660000324A9F1040B85B00F2709F1040AABF19B
:10167000040EFAE006FA03F52A407CD091F804C083
:101680000CF0030CBCF1010F02D0BCF1020F26D10B
:10169000D0F808C0CDF800C04FEA430C04FA0CF8AB
:1016A000CDF810C0DDF800C02CEA080CCDF800C061
:1016B000D1F80C80DDF810C008FA0CF8DDF800C095
:1016C00048EA0C08C0F80880D0F804C02CEA050CE1
:1016D0000D79C5F300159D4045EA0C0545600D796F
:1016E000ED43AD070ED0C5684FEA430804FA08FC85
:1016F00025EA0C05D1F808C00CFA08FC4CEA050CE8
:10170000C0F80CC00D7905F00305022D16D1DD08D7
:1017100000EB850CCDF808C0DCF820805D074FEAAF
:10172000D56C07FA0CF528EA05080D6905FA0CF5E1
:10173000DDF808C045EA0805CCF8205005684FEAF6
:10174000430CCDF808C004FA0CFC25EA0C0591F80E
:1017500004C00CF00308DDF808C008FA0CF848EAE9
:101760000508C0F800804D6815F4403F7CD0444D1A
:10177000D5F860C000E077E04CF0010CC5F860C01F
:101780002D6E23F0030C05F0010500953D4D6544D9
:101790000295AD684FEA837C4FEA1C7807FA08FC93
:1017A00025EA0C05B0F1904F06D0DFF8DCC06045AB
:1017B00005D14FF0010C20E04FF0000C1DE0DFF8E8
:1017C000CCC0604502D14FF0020C16E0DFF8C0C07B
:1017D000604502D14FF0030C0FE0DFF8B8C0604560
:1017E00002D14FF0040C08E0DFF8ACC0604502D134
:1017F0004FF0050C01E04FF0060C0CFA08FC4CEA27
:10180000050C029DC5F808C0D9F80050CC46D1F8A7
:10181000048095435FEAC82800D51543CCF80050F2
:10182000DAF80050D446D1F8048095435FEA88285E
:1018300000D51543CCF80050DBF80050DC46D1F859
:10184000048095435FEA883800D51543CCF80050F2
:10185000DEF80050F446D1F8048095435FEAC838BA
:1018600000D51543CCF800505B1C0A6832FA03F52A
:101870007FF400AF05B0BDE8F08F00000804014020
:101880000010024000000140000400480008004829
:10189000000C004800100048001400480AB18161A3
:1018A00070478162704700000148806870470000FF
:1018B000200000200248816842681144816070471E
:1018C0002000002010B50024032000F073F80F2042
:1018D00000F008F808B1012401E000F025F82046E6
:1018E00010BD000070B50E4E05460024706898B11A
:1018F0004FF47A71B1FBF0F00A490968B1FBF0F0DE
:1019000000F09CFD40B9102D06D200222946501E41
:1019100000F030F8356000E00124204670BD000082
:10192000200000202C0000200A4882B0016E41F007
:1019300001010166016E01F001010091816D41F02C
:1019400080518165806D00F08050009002B000F001
:10195000A1B8000000100240002809DB00F01F02BF
:10196000012191404009800000F1E020C0F8001101
:1019700070470000F0B40E4B1B680C46C3F3022303
:10198000C3F10705042D00D90425191D072901D22B
:10199000002300E0DB1E012606FA05F1491E214066
:1019A00099409E40761E16403143F0BC02F079BF4C
:1019B0000CED00E0064900F0070208684FF6FF034F
:1019C000184040EA0220034A1043086070470000B4
:1019D0000CED00E00000FA052B492C4B0A6832217F
:1019E0004A432B4940B1B0F5007F086829D020F464
:1019F000C06040F480602CE00868C0F341200228F9
:101A000004D051F8800F20F4807022E0D1F88000DB
:101A100020F48070C1F88000086820F4C06040F4B1
:101A200000700860B2FBF3F0401C00E0401E4A6901
:101A3000520501D50028F9D1486940050AD503208F
:101A40007047C0F34120022806D051F8800F40F4BF
:101A50008070086000207047D1F8800040F48070EA
:101A6000C1F88000086820F4C06040F4007008608D
:101A7000B2FBF3F0401C00E0401E4A695205DBD582
:101A80000028F9D1D8E700002C00002040420F00C8
:101A9000007000400248816841F4804181607047D5
:101AA000007000402DE9F843044600680026BB4D55
:101AB00000035ED5A86D0027C00008D4A86D40F0D3
:101AC0008050A865A86D012700F080500090DFF8D5
:101AD000D092D9F8001041F48071C9F80010FFF7D6
:101AE000E3FE804606E000BFFFF7DEFEA0EB080045
:101AF00002282BD8D9F80000C005F5D5D5F89000FC
:101B000010F4407014D0216D814211D0D5F89000AE
:101B1000D5F8901020F4407041F48031C5F8901051
:101B2000D5F8901021F48031C5F89010C5F89000D8
:101B3000C00711D0FFF7B8FE804641F2883907E0B0
:101B4000FFF7B2FEA0EB0801494501D903260BE0DF
:101B5000D5F890008007F3D5D5F89000216D20F4DA
:101B600040700843C5F890001FB1A86D20F0805068
:101B7000A8652078C00707D0D5F88800616820F0F4
:101B800003000843C5F888002078800707D5D5F8FA
:101B90008800A16820F00C000843C5F88800207870
:101BA000400707D5D5F88800E16820F030000843E9
:101BB000C5F888002078000707D5D5F88800216986
:101BC00020F0C0000843C5F888002078C00607D57B
:101BD000D5F88800616920F440700843C5F8880092
:101BE0002078800607D5D5F88800A16920F44060E8
:101BF0000843C5F888002078400607D5D5F8880046
:101C0000E16920F440500843C5F8880020780006B8
:101C100007D5D5F88800216A20F440400843C5F86C
:101C200088002088C00507D5D5F88800616A20F4AF
:101C300040300843C5F888002068800307D5D5F8F0
:101C40009C00A16A20F003000843C5F89C0020888E
:101C5000800507D5D5F88800E16A20F440200843C4
:101C6000C5F88800208840050FD5D5F88800216B7D
:101C700020F440100843C5F88800206BB0F5801FA1
:101C800003D1E86840F48010E860208800050FD593
:101C9000D5F88800616B20F440000843C5F888003F
:101CA000606BB0F5800F03D1E86840F48010E86005
:101CB0002088C0040FD5D5F88800A16B20F04070B3
:101CC0000843C5F88800A06BB0F1807F03D1E868B5
:101CD00040F48010E86020884FF0006180040ED549
:101CE000D5F88800E26B20F040601043C5F888000A
:101CF000E06B884203D1E86840F48010E8602088F7
:101D000040040ED5D5F88800226C20F040601043C6
:101D1000C5F88800206C884203D1E86840F4801040
:101D2000E860208800040FD5D5F88800616C20F0A9
:101D300040500843C5F88800606CB0F1805F03D163
:101D4000E86840F48030E8602068C0030FD5D5F81B
:101D50008800A16C20F040400843C5F88800A06CC2
:101D6000B0F1804F03D1E86840F48030E86020682B
:101D700040030FD5D5F89C00E16C20F440100843D7
:101D8000C5F89C00E06CB0F5001F03D1E86840F492
:101D90008010E8603046BDE8F88300000010024083
:101DA000007000402DE9F0470E4605004FF0000797
:101DB00025D0DFF8AC81D8F8000000F00F00B04269
:101DC0000CD2D8F8001021F00F013143C8F80010F0
:101DD000D8F8000000F00F00B04210D12968614C23
:101DE000C80741F2883A5AD06868DFF87C91032826
:101DF00008D0022820682DD0400500282CDB0120C7
:101E0000BDE8F08720688001F9D5E06800F00302A2
:101E1000E068C0F30310401C032A19D0534A00BFE6
:101E2000B2FBF0F0E268C2F306225043E268C2F36C
:101E30004162521C5200B0FBF2F0484517D9A0682D
:101E400010F0F00F0CD0880711D5A86840B10EE053
:101E5000474AE5E78003D0E700F0B6F8484506D9E1
:101E6000A06820F0F00040F08000A0608027A0680B
:101E7000696820F003000843A060FFF715FD814664
:101E800006E000BFFFF710FDA0EB090151453AD86D
:101E9000A068696800F00C00B0EB810FF2D12868EF
:101EA000810714D5400703D5A06840F4E060A06026
:101EB0002878000705D5A06820F4605040F4E06061
:101EC000A060A068A96820F0F000084304E0802F1B
:101ED00003D1A06820F0F000A060D8F800104046C0
:101EE00001F00F01B14216D9016821F00F01314311
:101EF0000160FFF7D9FC074607E000BFFFF7D4FCFD
:101F0000C11B514501D903207AE7D8F8000000F041
:101F10000F00B042F2D12878400705D5A068E968E3
:101F200020F4E0600843A0602878000706D5A06888
:101F3000296920F4605040EAC100A06000F044F834
:101F4000A1680C4AC1F30311515C01F01F01C840A4
:101F50000949086009480068BDE8F047FFF7C2BCBE
:101F6000002002400010024000B4C4040024F40029
:101F7000006CDC02284C00082C000020200000200F
:101F80000548064900688968054AC1F30221515C89
:101F900001F01F01C84070472C00002000100240D3
:101FA000384C00080548064900688968054AC1F3AD
:101FB000C221515C01F01F01C84070472C00002075
:101FC00000100240384C0008184910B58868C0F36A
:101FD00081021748012A0BD08A68164BC2F381028E
:101FE000022A06D08A68C2F38102032A03D00020A5
:101FF00010BD184610BDCA6802F00304CA68C2F3D7
:102000000312521C032C02D0B0FBF2F001E0B3FB30
:10201000F2F0CA68C968C2F306225043C1F34161B5
:10202000491C4900B0FBF1F010BD00000010024057
:102030000024F400006CDC022DE9F84304007AD09F
:102040002078F84DC00747D0A868E96800F00C0078
:1020500001F003010C2802D0082817D001E0032961
:1020600014D06068B0F5803F17D0B0F5A02F286875
:1020700017D020F480302860286820F48020286061
:102080006068E0B1FFF710FC064614E028688003A2
:1020900022D560680028D2D01EE0286840F4803045
:1020A000EDE740F480202860F7E700BFFFF7FCFB76
:1020B000801B642870D828688003F7D50CE0FFF7F0
:1020C000F3FB064605E000BFFFF7EEFB801B64282C
:1020D000F0D828688003F7D4207880074CD5A8680A
:1020E000E96800F00C0001F003010C2802D004287C
:1020F0000DD001E002290AD0E068002828682BD022
:1021000040F480702860FFF7CFFB064619E028688E
:10211000400502D5E068002891D06868217C20F055
:10212000FE4040EA01606860BF480068FFF7DAFBE4
:10213000002800D120E072E1FFF7B6FB801B0228E7
:10214000B8D828684005F7D56868217C20F0FE40A3
:1021500040EA016068600FE020F480702860FFF7BB
:10216000A3FB064605E000BFFFF79EFB801B02288D
:10217000A0D828684005F7D42078000729D56069E1
:102180000028D5F8940013D040F00100C5F8940061
:10219000FFF78AFB064606E090E000BFFFF784FBEE
:1021A000801B022886D8D5F894008007F6D510E069
:1021B00020F00100C5F89400FFF776FB064604E026
:1021C000FFF772FB801B022878D8D5F894008007AF
:1021D000F6D42078400761D5A86D0026C00008D449
:1021E000A86D40F08050A865A86D012600F08050D1
:1021F00000908E480168C90511D40168804641F4F9
:1022000080710160FFF750FB074604E0FFF74CFBCD
:10221000C01B022852D8D8F80000C005F6D5A06827
:10222000012815D00528D5F8900016D020F001001F
:10223000C5F89000D5F8900020F00400C5F8900093
:10224000A06841F28838B8B1FFF72EFB07460EE0D0
:10225000D5F8900040F00100F0E740F00400C5F828
:102260009000F5E7FFF720FBC11B414526D8D5F8C4
:1022700090008007F6D50CE0FFF716FB074604E058
:10228000FFF712FBC11B414518D8D5F89000800715
:10229000F6D41EB1A86D20F08050A8652078800685
:1022A00029D5A0690028D5F8980013D040F0010086
:1022B000C5F89800FFF7F8FA064606E075E000BF9B
:1022C000FFF7F2FA801B02286FD8D5F89800800734
:1022D000F6D510E020F00100C5F89800FFF7E4FA09
:1022E000064604E0FFF7E0FA801B02285DD8D5F827
:1022F00098008007F6D4E069F0B3A968C1F38101C2
:1023000003295DD00228286820F08070286003D05F
:10231000FFF7CAFA04464BE0FFF7C6FA064604E0A8
:10232000FFF7C2FA801B02283FD828688001F7D443
:10233000F4E908016FF00F0202EB01110843218A52
:102340005204490802EB4151A26841EA02210843C4
:10235000217D4FF07E42490802EB41610843217B19
:1023600040EAC160E968324A11400843E8602868E1
:1023700040F08070286000E05EE0E86840F0807027
:10238000E860FFF791FA044605E000BFFFF78CFA1A
:10239000001B022809D828688001F7D54CE000BF4F
:1023A000FFF782FA001B022802D90320BDE8F88358
:1023B00028688001F4D4E8681E490840E8603BE0E2
:1023C0000128F3D0E868226A00F00301914226D187
:1023D000616A00F0F0020901103991421FD1A26A2E
:1023E00000F4FE41B1EB022F19D194F82C2000F03B
:1023F0007841B1EBC26F12D1218E00F4C0024908BE
:102400004905A1F50011914209D194F8341000F06A
:10241000C06049084906A1F1007181420CD0012039
:10242000C4E70000001002402000002000700040BF
:102430000C809F01FCFFEEFE0020B7E710B5401EA8
:10244000B0F1807F01D3012010BD4FF0E024606126
:102450000F21601702F025FA0020A06107202061FB
:10246000002010BD704770477047000030B590F8ED
:102470003C20012A45D0012280F83C20CA688B68A4
:1024800022F440721A434B6822F480621A430B68AC
:1024900022F400621A430B6922F480521A434B69FA
:1024A00022F400521A430B6B22F480421A430B8B26
:1024B00022F4702242EA0342CB6922F080521A438E
:1024C000114D03680024AB4205D0104DAB4202D041
:1024D0000F4DAB4210D10D8D22F4700242EA05522D
:1024E0000D6A22F080722A434D6A22F000722A435C
:1024F000C96A22F000520A435A6480F83C40002026
:1025000030BD022030BD0000002C014000340140ED
:10251000005001407047704770470000F0B590F8D8
:102520003C20012A43D0012580F83C50022280F84B
:102530003D2003685A689C681E4E1F4FDFF87CC020
:10254000B34203D0BB4201D0634504D122F4700EE4
:102550004A6842EA0E02DFF868E002EA0E02D1F8A9
:1025600000E04EEA020EC3F804E00268B24212D064
:10257000B2F1804F0FD0134B9A420CD0124B9A42BB
:1025800009D0124B9A4206D0BA4204D0104B9A425C
:1025900001D0624504D1896824F080031943916019
:1025A00080F83D50002180F83C100846F0BD022024
:1025B000F0BD0000002C01400034014000500140FB
:1025C0008FFFFFFD0004004000080040000C0040A9
:1025D0000040014010B50446022249B104290ED042
:1025E000082913D094F84700012816D0012010BD07
:1025F00094F844000128F9D184F844200FE094F8BD
:1026000045000128F2D184F8452008E094F84600FE
:102610000128EBD184F8462001E084F84720042209
:10262000206801F09CFC2068416C41F40041416449
:1026300013492068884214D0B0F1804F11D011495D
:1026400088420ED0104988420BD01049884208D0E9
:102650000F49884205D00F49884202D00E4988426E
:1026600007D181680D4A1140062906D0B1F5803F97
:1026700003D0016841F001010160002010BD00009D
:10268000002C01400004004000080040000C004005
:1026900000340140004001400050014007000100AB
:1026A000704710B5040003D094F83D0010B107E066
:1026B000012010BD002084F83C00204600F022F8E4
:1026C000022084F83D00211D206801F0C9FB012093
:1026D00084F8480084F83E0084F83F0084F8400005
:1026E00084F8410084F8420084F8430084F84400F0
:1026F00084F8450084F8460084F8470084F83D00DB
:10270000002010BD08B501681448B1F1804F14D005
:10271000134A914220D1816D41F008018165806D9D
:10272000002200F00800009011463220FFF722F945
:102730003220BDE80840FFF70FB9816D41F001017B
:102740008165806D002200F00100009011461C2080
:10275000FFF710F91C20ECE708BD00000010024054
:10276000000C004090F83D10012901D00120704775
:10277000022180F83D1000681249884214D0B0F15F
:10278000804F11D0104988420ED0104988420BD09A
:102790000F49884208D00F49884205D00E49884227
:1027A00002D00E49884207D181680D4A114006299E
:1027B00006D0B1F5803F03D0016841F0010101600E
:1027C00000207047002C0140000400400008004039
:1027D000000C004000340140004001400050014026
:1027E0000700010090F83D10012901D00120704739
:1027F000022180F83D100168CA6842F00102CA60F7
:1028000000681349884214D0B0F1804F11D01149AB
:1028100088420ED0104988420BD01049884208D017
:102820000F49884205D00F49884202D00E4988429C
:1028300007D181680D4A1140062906D0B1F5803FC5
:1028400003D0016841F001010160002070470000E1
:10285000002C01400004004000080040000C004033
:1028600000340140004001400050014007000100D9
:1028700070B5044690F83C000025012815D00126CB
:1028800084F83C60022084F83D0022689068384B50
:10289000184020F47F4090600868B0F5805F2BD02E
:1028A00010DC10F00F0F03D025E04FF0020070BDD8
:1028B0004FEA2012082A1ED2DFE802F0565656567A
:1028C0004E3C44252B4BC21A98424DD00DDCB0F53E
:1028D000005F23D0B0F5801F46D0B0F1101F43D069
:1028E000A0F58011203906D13EE0102A3CD0202AE4
:1028F0003AD0402A38D0012584F83D60002084F881
:102900003C00284670BDCB68D1E90121206801F068
:1029100033FB2068816841F0770109E0CB68D1E999
:102920000121206801F028FB2068816841F4804182
:102930008160E1E7CA684968206801F0F1FC502134
:10294000206806E0CA684968206801F0FAFC602146
:10295000206801F01BFBCFE7CA684968206801F0D6
:10296000DFFC40212068F4E7226801461046F0E7CA
:1029700088FFCEFF3000100070472DE9F04104467B
:102980000068C66805694FF00007A90713D5B107AD
:1029900011D5F91E01610120207720688069800728
:1029A000204602D0FFF7E8FF04E000F039F92046A6
:1029B00000F028FA2777680716D5700714D5216824
:1029C0006FF004000861022020772068806910F40D
:1029D000407F204602D0FFF7CFFF04E000F020F94F
:1029E000204600F00FFA2777280715D5300713D5B2
:1029F00021686FF008000861042020772068C06912
:102A00008007204602D0FFF7B7FF04E000F008F986
:102A1000204600F0F7F92777E80616D5F00614D51A
:102A200021686FF010000861082020772068C069D5
:102A300010F4407F204602D0FFF79EFF04E000F034
:102A4000EFF8204600F0DEF92777E80708D0F00716
:102A500006D021686FF001000861204600F05EFAA0
:102A6000280601D4A80408D5300606D521686FF4DD
:102A7000025008612046FFF7F6FCE80508D530064D
:102A800006D521686FF4807008612046FFF7EAFCE4
:102A9000680608D5700606D521686FF04000086109
:102AA000204600F061FAA80608D5B00606D52168D0
:102AB0006FF0200008612046FFF7D6FCE80208D539
:102AC000F00206D521686FF4801008612046FFF7F8
:102AD00022FDA80208D5B00206D521686FF40010C7
:102AE00008612046FFF716FD680208D5700206D57A
:102AF00021686FF4800008612046FFF70DFD280271
:102B00000AD5300208D521686FF40000086120461C
:102B1000BDE8F041FFF7C4BDBDE8F081F0B587B076
:102B2000044614216846FDF7ADFB364A20680024B0
:102B300035490225354E904239D1C86C40F0040029
:102B4000C864C86C00F004000590C86C40F0100028
:102B5000C864C86C2E4F00F010000590501400900F
:102B6000CDE901540420CDE9034069463846FEF71B
:102B700071FD01200090CDE9015469463846CDE948
:102B80000345FEF767FD68030090CDE901546946EF
:102B90003046CDE90345FEF75DFDA8030090CDE981
:102BA00001540620CDE903406946304611E0194A38
:102BB000904212D1C86C40F01000C864C86C6946DD
:102BC00000F0100005901C200090CDE90154304623
:102BD00015E0FEF73FFD07B0F0BD0F4A9042FAD175
:102BE000C86C40F00800C864C86C694600F0080072
:102BF00005904FF440500090CDE901540748CDE9CD
:102C00000345E6E7002C0140001002400010004898
:102C1000000800480004004000080040000C004884
:102C2000704770B5044690F83C0000260D46012818
:102C30000BD0012084F83C000C2A4AD007DC82B17A
:102C4000042A20D0082A06D131E0022070BD102AC3
:102C500053D0142A63D00126002084F83C0030466B
:102C600070BD206801F09CF92068816941F008017D
:102C700081612068816921F0040181612068816996
:102C80002A69114311E0206801F0E0F920688169A8
:102C900041F4006181612068816921F48061816172
:102CA000206881692A6941EA02218161D4E72068AC
:102CB00001F01CFA2068C16941F00801C161206877
:102CC000C16921F00401C1612068C1692A69114309
:102CD00011E0206801F05AFA2068C16941F40061EE
:102CE000C1612068C16921F48061C1612068C16946
:102CF0002A6941EA0221C161AEE7206801F096FA33
:102D00002068016D41F0080101652068016D21F026
:102D1000040101652068016D2A69114311E02068F2
:102D200001F0C0FA2068016D41F40061016520687E
:102D3000016D21F4806101652068016D2A6941EA15
:102D40000221016588E710B5040003D094F83D0026
:102D500010B107E0012010BD002084F83C0020469F
:102D600000F022F8022084F83D00211D206801F0C7
:102D700077F8012084F8480084F83E0084F83F008A
:102D800084F8400084F8410084F8420084F843004D
:102D900084F8440084F8450084F8460084F847002D
:102DA00084F83D00002010BD08B5124A01681248A1
:102DB000914207D1016E41F400610166006E00F49A
:102DC000006009E00D4A914208D1816D41F0020195
:102DD0008165806D00F00200009008BD084A9142B4
:102DE000FBD1816D41F004018165806D00F004002C
:102DF000F2E70000002C01400010024000040040F7
:102E0000000800407047000070B50446022269B116
:102E1000042912D0082917D00C291CD0102921D040
:102E200094F84300012824D0012070BD94F83E009E
:102E30000128F9D184F83E201DE094F83F000128D4
:102E4000F2D184F83F2016E094F840000128EBD13D
:102E500084F840200FE094F841000128E4D184F880
:102E6000412008E094F842000128DDD184F8422096
:102E700001E084F843200122206801F063F81D4935
:102E800020681D4A1D4B1E4D88420BD0904209D030
:102E9000984207D01B4EB04204D01B4EB04201D026
:102EA000A84203D1466C46F4004646642068884236
:102EB00011D0B0F1804F0ED0144988420BD0144984
:102EC000884208D01349884205D0904203D09842E6
:102ED00001D0A84207D181680F4A1140062906D0C7
:102EE000B1F5803F03D0016841F00101016000208D
:102EF00070BD0000002C0140003401400040014042
:102F000000500140004401400048014000040040DE
:102F100000080040000C00400700010070B5104997
:102F20000068CD130F4C884207D101222946204664
:102F3000FEF7B4FC00F02CFF09E0B0F1804F0DD19A
:102F4000012229462046FEF7A9FC00F0E1FE2946B1
:102F50002046BDE870400022FEF7A0BC70BD000016
:102F6000000C004000040048704790F884100129CC
:102F700018D0012180F884102421C0F8881001683D
:102F80000A680B6823F001030B6022F00051002255
:102F90004266036819602021C0F8881080F88420F8
:102FA000104670470220704770B5044690F88400C0
:102FB00001281DD0012084F884002420C4F8880052
:102FC00020680568026822F00102026020688268B9
:102FD00022F060620A438260204601F0C5F9206851
:102FE00005602020C4F88800002084F8840070BDAB
:102FF000022070BD70B5044690F8840001281DD0F1
:10300000012084F884002420C4F888002068056822
:10301000026822F0010202602068826822F06042A9
:103020000A438260204601F09FF920680560202055
:10303000C4F88800002084F8840070BD022070BDB0
:1030400010B5040003D0D4F8880010B107E00120C7
:1030500010BD002084F88400204600F027F82420CA
:10306000C4F888002068016821F001010160A06AAD
:1030700010B1204601F09AF9204601F07BFA0128B0
:10308000E6D02068416821F4904141602068816861
:1030900021F02A0181602068016841F0010101608E
:1030A0002046BDE8104001F0E5B90000F0B59BB046
:1030B0000446142115A8FDF7E5F854216846FDF7EC
:1030C000E1F83A4920683A4C072702260025884251
:1030D00021D10120CDE900056846FEF7E3FC08B1E7
:1030E000FDF740FA206E40F480402066206E00F428
:1030F00080401A90E06C40F00100E064E06CCDE9A3
:10310000166500F001001A904FF4C060159015A9E3
:103110004FF0904020E02749884223D1684600962E
:103120000295FEF7BFFC08B1FDF71CFAA06D40F454
:103130000030A065A06D00F400301A90E06C40F003
:103140000800E064E06CCDE9166500F008001A9014
:1031500060201590184815A9CDE91857FEF77AFA9E
:103160001BB0F0BD15498842FAD1042000900395A8
:103170006846FEF797FC08B1FDF7F4F9A06D40F43E
:103180008020A065A06D00F480201A90E06C40F0D3
:103190000400E064E06CCDE9166500F004001A90CC
:1031A0004FF44060159015A90548D5E70038014057
:1031B0000010024000440040000C0048004800405D
:1031C000000800482DE9F8430446D0F888009846E6
:1031D00016460D46202802D00220BDE8F883A5B18E
:1031E0009EB10020C4F890002120C4F88800183453
:1031F000FEF75AFBA6878146E68754F8100C202775
:10320000183CB0F5805F02D003E00120E5E72069BB
:1032100010B12E46002510E000260EE08021204649
:1032200001F0F4FAC0B9DEB116F8010B216888622A
:10323000B4F85600401EA4F85600B4F856004B46A9
:103240004FF00002CDF800800028E7D14FF0400198
:10325000204601F0DBFA40B1C4F888700320BCE7D7
:1032600035F8020BC0F30800E0E7C4F888700020CE
:10327000B3E7FEE700EB8100006E00F0F840704716
:103280008068C0F3C00070478068C0F3800070475A
:103290008068C0F380007047C06810F4406F01D0B0
:1032A0000020704701207047042303EAD15310B572
:1032B00018444369C1F3045107248C40A3438A4056
:1032C0001343436110BD00EB8100016E21F000410A
:1032D000114301667047000070B58CB0002408945B
:1032E0000994202168460A94FCF7CCFF22484FF04D
:1032F000A041042501604FF40021C0E9011485615B
:103300000121C460C0E904410477417702260662C6
:1033100080F82440C462046380F83810C46380F8E5
:103320004040FDF755FC08B1FDF71CF908A912480B
:103330000894FDF763F908B1FDF714F90F48009000
:103340000620CDE901067F200594CDE903056946F5
:103350000948FDF703FA08B1FDF704F908480090A1
:103360000C20019069460448FDF7F8F9002801D0C7
:10337000FDF7F8F80CB070BD6801002002003004C1
:103380000400600830B589B020216846FCF77AFF58
:103390002548244900240160C902C0E9011404251C
:1033A00085610121C460C0E90441047741770322AB
:1033B000026280F82440C462046380F83810C46359
:1033C00080F84040FDF704FC08B1FDF7CBF8174842
:1033D000009006200190022002907F200594CDE904
:1033E000030569461048FDF7B9F908B1FDF7BAF8C9
:1033F0000F4800900C20019069460B48FDF7AEF98C
:1034000008B1FDF7AFF80B48009012200190694613
:103410000548FDF7A3F9002801D0FDF7A3F809B08E
:1034200030BD000000010050D40100200008302E03
:10343000002090360010603270B58CB000240894E3
:103440000994202168460A94FCF71CFF2848274964
:10345000012501604902C0E9011400F110010426B0
:10346000C46081E87000047745770321016280F829
:103470002440C462046380F83850C46380F840403C
:10348000FDF7A6FB08B1FDF76DF808A918480894E8
:10349000FDF7B4F808B1FDF765F81648009006206E
:1034A000CDE901057F200594CDE903066946104862
:1034B000FDF754F908B1FDF755F80F4800900C20BE
:1034C000019069460A48FDF749F908B1FDF74AF845
:1034D0000A4800901220019069460548FDF73EF920
:1034E000002801D0FDF73EF80CB070BD000400507C
:1034F000400200201000C0104000201904006008A5
:1035000070B588B020216846FCF7BCFE1F481E49F4
:10351000002401604FF40021C0E9011404258561F5
:103520000121C460C0E904410477417702260662A4
:1035300080F82440C462046380F83810C46380F8C3
:103540004040FDF745FB08B1FDF70CF8104800902E
:103550000620CDE901067F200594CDE903056946E3
:103560000A48FDF7FBF808B1FCF7FCFF094800909A
:103570000C20019069460548FDF7F0F8002801D0BD
:10358000FCF7F0FF08B070BD00050050AC02002051
:103590000800900C0010603230B589B020216846D8
:1035A000FCF770FE1A481949002401604FF400210D
:1035B000C0E90114C46004250461C0E9054504772D
:1035C00044770121016280F82440C462046380F8DA
:1035D0003840C46380F84040FDF7FAFA08B1FCF7C0
:1035E000C1FF0C48009006200190022002907F202D
:1035F0000594CDE9030569460548FDF7AFF80028B5
:1036000001D0FCF7AFFF09B030BD0000000600504C
:1036100018030020020030040D4808B5816C41F009
:1036200004018164816C01F004010091816C41F01E
:1036300001018164816C01F001010091816C41F014
:1036400002018164806C00F00200009008BD00005F
:1036500000100240124810B510490160002141607D
:103660008160C1600174417481740F224261012242
:103670000523C0E906230423C0E908328262C2623E
:10368000C0E90C218163C163FDF79AFE002803D0D5
:10369000BDE81040FCF766BF10BD000000640040AC
:1036A0000405002030B587B014216846FCF7EAFD18
:1036B0002248C16C41F01001C164C16C01F01001DD
:1036C0000591C16C41F00401C164C16C01F00401B9
:1036D0000591C16C41F02001C164C16C01F0200171
:1036E0000591C16C41F00101C164C16C01F001019F
:1036F0000591C16C41F00201C164C16C01F002018D
:103700000591C16C41F00801C164C06C0C4D00F022
:1037100008004FF440440590002221462846FEF759
:10372000BDF8012000210094CDE901010391694613
:103730002846FDF78FFF07B030BD000000100240A3
:103740000004004830B597B00024149415941C214F
:103750000DA81694FCF796FD34216846FCF792FDFF
:10376000284827494FF49675C0E90014C0E902457E
:10377000046144618461FFF7E6FA08B1FCF7F2FEE8
:103780001494159414A91F481694FEF7C7FE08B1A7
:10379000FCF7E8FE6020CDE90D040F94109411941D
:1037A000129400220DA917481394FFF73AFA08B1B2
:1037B000FCF7D8FE0C220DA912480E95FFF731FA3E
:1037C00008B1FCF7CFFE1320CDE9024000944FF47E
:1037D0000050CDE904400003CDE90840019406946F
:1037E00007940A940B94694606480C94FEF73EFE33
:1037F00008B1FCF7B7FE0348FFF790F917B030BDEA
:10380000002C01406805002010B588B0002417483E
:103810000094019402940394049405944FF0804121
:103820000694C0E900144FF4FA71C0E90241802106
:1038300004618161FEF735FF08B1FCF793FE4FF498
:103840008050009069460948FFF712F808B1FCF76C
:1038500089FE049404A905480694FEF75FFE00283B
:1038600001D0FCF77FFE08B010BD0000B4050020B9
:1038700010B58AB00024079408941C216846099466
:10388000FCF700FD1F481E4901600821C0E9011432
:103890004BF67F31C0E903148461FFF754FA08B195
:1038A000FCF760FE079407A916480994FEF736FE58
:1038B00008B1FCF757FE6020CDE900040294002215
:1038C000694610480494FFF7ACF908B1FCF74AFECA
:1038D0005A200190042269460A48FFF7A2F908B16C
:1038E000FCF740FE082269460648FFF79AF908B13E
:1038F000FCF738FE0348FFF711F90AB010BD0000CD
:10390000000400400006002010B58AB0002407948F
:1039100008941C2168460994FCF7B4FC1A4819491C
:1039200001600A21C0E901144BF68031C0E903149B
:103930008461FFF708FA08B1FCF714FE079407A9A1
:1039400011480994FEF7EAFD08B1FCF70BFE602070
:1039500000905A20CDE90104002269460A480494E7
:10396000FFF75FF908B1FCF7FDFD04226946064840
:10397000FFF757F908B1FCF7F5FD0348FFF7CEF85C
:103980000AB010BD000800404C06002010B588B0F9
:10399000002417480094019402940394049405941D
:1039A00012490694C0E9001440F2DC51C0E902411A
:1039B000802104618161FEF774FE08B1FCF7D2FD3D
:1039C0004FF48050009069460948FEF751FF08B156
:1039D000FCF7C8FD049404A905480694FEF79EFD73
:1039E000002801D0FCF7BEFD08B010BD000C00405F
:1039F00098060020184810B5164901604FF461215F
:103A00004160002181600C22C160C0E90412816123
:103A1000C161016241628162FFF712FB08B1FCF7EC
:103A2000A1FD00210C48FFF7E5FA08B1FCF79AFD6B
:103A300000210948FFF7B8FA08B1FCF793FD0648E2
:103A4000FFF793FA002803D0BDE81040FCF78ABDC9
:103A500010BD000000380140E4060020184810B5F1
:103A6000164901604FF461214160002181600C2200
:103A7000C160C0E904128161C16101624162816279
:103A8000FFF7DEFA08B1FCF76DFD00210C48FFF7E7
:103A9000B1FA08B1FCF766FD00210948FFF784FA86
:103AA00008B1FCF75FFD0648FFF75FFA002803D076
:103AB000BDE81040FCF756BD10BD000000440040BA
:103AC00078070020174810B5154901601649416074
:103AD000002181600C22C160C0E904128161C161D2
:103AE000016241628162FFF7ABFA08B1FCF73AFD6F
:103AF00000210C48FFF77EFA08B1FCF733FD0021E6
:103B00000848FFF751FA08B1FCF72CFD0548FFF70C
:103B10002CFA002803D0BDE81040FCF723BD10BDEF
:103B2000004800400C08002000941100FEE7FEE76A
:103B300070477047401A00EE100ADFED030AB8EE36
:103B4000C00A20EE200A70476F40D33B00EE100AF7
:103B5000DFED070A9FED071AB8EE400A20EE200AB3
:103B6000C0EE010AB2EE060A20EE800A704700009D
:103B70003333534000F07F45884201DB90420CDD37
:103B8000884201DC904208DA814201DB914203DD88
:103B9000814203DC914201DB0846704710467047C2
:103BA000828922FA01F3D31A02681288CA4099184E
:103BB0008181704701680988818170478989511A1C
:103BC00009B201EE101A8181D0ED040AB8EEC11AD3
:103BD000D0ED011A41EE210AC0ED040AB0F91A2015
:103BE00001EE102AB8EEC11AF4EEC10AF1EE10FA95
:103BF00009DC524201EE102AB8EEC11AF4EEC10AF5
:103C0000F1EE10FA05D200EE902AF8EEE00AC0EDCF
:103C1000040AB0EE601A00EE901AD0ED001AB0F966
:103C20000E20F8EEE00A8A1A01EEA01A00EE902AA1
:103C3000D0ED021AF8EEE00A01EEA01A31EE000A09
:103C4000BDEEC00A10EE102A12B28282C181B0F914
:103C500016108A4203DCB0F918108A4200DA818219
:103C6000704780EC030AC1820283438370470000DF
:103C700003490A6850630968162008647047000009
:103C800068050020FDF716BE00B593B038216846E0
:103C9000FCF7F8FA14210EA8FCF7F4FA4FF40070C0
:103CA000FDF79AFE0220C1010391402104910421F5
:103CB000CDE9080100904B21CDE90A1007900C9046
:103CC0000D906846FEF7B8F908B172B6FEE70F200E
:103CD0000E9003200F90002010901190129004215C
:103CE0000EA8FEF75FF8002801D072B6FEE713B009
:103CF00000BD00000248016841F470010160704796
:103D000088ED00E00148FEF738BE0000B405002051
:103D100000B506211248FFF743FF04211148FFF7C1
:103D20003FFF02211048FFF73BFF02210F48FFF73A
:103D300037FF04210E48FFF733FF04210D48FFF73A
:103D40002FFF04210C48FFF72BFF04210B48FFF73E
:103D500027FF04210A485DF804EBFFF721BF0000AC
:103D60004400002058000020E4000020A8000020AB
:103D700094000020BC000020800000206C00002087
:103D8000300000200148FEF7F8BD00009806002032
:103D9000284800B580899FED291A00EE100A2648B0
:103DA00040F63812B8EE400A8089234900EE900AA6
:103DB0002348F8EE600A71EE600AB1EE041A00EED4
:103DC000810AFFF7FBFE9FED1F0A40F2C23219493C
:103DD0001D48FFF7F3FE1D4840F6932181821A48E3
:103DE000B0F914201648B0F91400FFF7C5FE00EE34
:103DF000100A174B0F49F8EEC00A9FED160AC3EDE3
:103E0000000A20EE800AFDEEE00A10EE900A02B2EF
:103E10001148FFF7D3FE93ED000ADFED100A5DF8BD
:103E200004EB20EE200ABDEEC00A10EE100A00B22C
:103E3000FFF71EBF940000204400002000801345BF
:103E4000F8000020000000003001002014010020D4
:103E500008000020295C8F3D4C0100208FC2F53DF9
:103E60002DE9F04F02682E4B2E4E2F4FDFF8BCC0CD
:103E70002F4C304D4FF0804B98420BD0584509D015
:103E8000B04207D0B84205D0604503D0A04201D06F
:103E9000A84204D122F070084A6842EA0802DFF81A
:103EA0009880DFF89890DFF898A0984211D0584594
:103EB0000FD0B0420DD0B8420BD0604509D0A0421F
:103EC00007D0404505D0484503D0504501D0A84211
:103ED00003D122F44076CA6832434E6922F0800250
:103EE000324302608A68C2620A688262984209D0DC
:103EF000A04207D0404505D0484503D0504501D0E9
:103F0000A84201D109690163012141610169C90721
:103F100003D0016921F001010161BDE8F08F0000CB
:103F2000002C01400004004000080040000C00404C
:103F30000034014000500140004001400044014075
:103F40000048014010B501F01F030121046A9940A7
:103F50008C430462016A9A401143016210BD10B59E
:103F600001F00F030421046A99408C430462016A42
:103F70009A401143016210BD10B5846842EA0322E1
:103F800024F47F440A432243826010BD8268034BBD
:103F90001A400A4342F00701816070478FFFCFFF4C
:103FA0002DE9F047056A026A22F0010202624368C5
:103FB00082691F4C25F0020522400C6822F00302A2
:103FC00014438A681C4E2A431A4D1C4FDFF870C0F8
:103FD000DFF87090DFF870A0A84209D0B04207D097
:103FE000B84205D0604503D0484501D0504506D1C0
:103FF00022F00808CA6842EA080222F00402A84235
:1040000009D0B04207D0B84205D0604503D048453A
:1040100001D0504505D14D6923F440731D438B6990
:104020002B4343608461496841630262BDE8F087C5
:104030008FFFFEFF002C0140003401400040014092
:10404000004401400048014000500140F0B5056ABD
:10405000026A22F010020262426883691C4C1E4E02
:1040600023400C6823F4407343EA042425F0200322
:104070008D681A4F43EA0513164DA84203D0B0428B
:1040800001D0B84207D1D1F80CC023F0800343EA35
:104090000C1323F04003A8420CD0B0420AD0104DBC
:1040A000A84207D00F4DA84204D00F4DA84201D01E
:1040B000B84207D14D6922F4406242EA85028D6917
:1040C00042EA850242608461496881630362F0BD0F
:1040D000FF8FFFFE002C01400034014000500140E2
:1040E000004001400044014000480140F0B5056A2D
:1040F000026A22F4807202624368C2691C4C1E4E3E
:1041000022400C6822F00302144325F400728D68EB
:104110001A4F42EA0522174DA84203D0B04201D0FF
:10412000B84207D1D1F80CC022F4006242EA0C2256
:1041300022F48062A8420CD0B0420AD0104DA842AE
:1041400007D0104DA84204D00F4DA84201D0B8426C
:1041500007D14D6923F4405343EA05138D6943EABF
:1041600005134360C4614968C1630262F0BD000089
:104170008FFFFEFF002C0140003401400050014041
:10418000004001400044014000480140F0B5056A8C
:10419000026A22F4805202624268C3691C4C1E4EBD
:1041A00023400C6823F4407343EA042425F40053AD
:1041B0008D681A4F43EA0533164DA84203D0B0422A
:1041C00001D0B84207D1D1F80CC023F4004343EA30
:1041D0000C3323F48043A8420CD0B0420AD0104DD7
:1041E000A84207D00F4DA84204D00F4DA84201D0DD
:1041F000B84207D14D6922F4404242EA85128D69E6
:1042000042EA85124260C461496801640362F0BDFC
:10421000FF8FFFFE002C01400034014000500140A0
:1042200000400140004401400048014030B5056AAB
:10423000026A22F4803202624268036D124C23400B
:104240000C681C4325F400330D8943EA05430F4DE8
:10425000A8420ED00E4DA8420BD00E4DA84208D059
:104260000D4DA84205D00D4DA84202D00C4DA842DC
:1042700004D14D6922F4803242EA0522426004658D
:1042800049688164036230BD8FFFFEFF002C01404E
:10429000003401400040014000440140004801401A
:1042A0000050014030B5046A026A22F480120262B2
:1042B0004268036D134D24F400142B400D6843EA4B
:1042C00005230D8944EA05540F4DA8420ED00F4D29
:1042D000A8420BD00E4DA84208D00E4DA84205D0E2
:1042E0000D4DA84202D00D4DA84204D14D6922F4D3
:1042F000802242EA8522426003654968C164046203
:1043000030BD0000FF8FFFFE002C01400034014053
:10431000004001400044014000480140005001407D
:1043200010B5036A046A24F001040462846924F06D
:10433000F00444EA021423F00A020A438461026290
:1043400010BD10B5036A046A24F010040462846985
:1043500023F0A00324F4704444EA023243EA01113A
:104360008261016210BD000030B5416EB9B10268D2
:1043700091689268C1F342610B4B520F9C5CE5005F
:1043800003F10804A25CB5FBF2F2A0F86A205A5CC3
:10439000615CD200B2FBF1F1A0F8681030BD0121E0
:1043A000A0F86A10F8E70000184C000890F82810F0
:1043B000090706D501684A68836B22F400421A4354
:1043C0004A6090F82810C90706D001684A68C36A95
:1043D00022F400321A434A6090F82810890706D563
:1043E00001684A68036B22F480321A434A6090F8ED
:1043F0002810490706D501684A68436B22F48022D9
:104400001A434A6090F82810C90606D501688A68E0
:10441000C36B22F480521A438A6090F828108906F0
:1044200006D501688A68036C22F400521A438A6038
:1044300090F82810490611D501684A68436C22F4A7
:1044400080121A434A60416CB1F5801F06D10168A1
:104450004A68836C22F4C0021A434A6090F828101C
:10446000090606D501684A68C06C22F4002202439E
:104470004A6070472DE9F84300260446C0F8906072
:10448000FDF712FA8046206800684FF0200500070B
:104490006FF07E4713D5434600222904204600973B
:1044A00000F0B4F958B1216851E8000F20F0800005
:1044B00041E80002002AF6D1C4F8885021E02068C3
:1044C0000068400722D5434600224FF48001204671
:1044D000009700F09BF9C8B1216851E8000F20F463
:1044E000907041E80002002AF6D12068083050E8B8
:1044F000001F21F0010140E80012002AF5D1C4F8A4
:104500008C5084F884600320BDE8F883C4F8885098
:10451000C4F88C5044F86C6F666026760020F3E790
:1045200010B5026852E8001F21F4907142E80013B0
:10453000002BF6D10E4B0268083252E8001F1940DA
:1045400042E80014002CF6D1C16E012908D101689F
:1045500051E8002F22F0100241E80023002BF6D191
:104560002021C0F88C100021C166416710BD0000F9
:10457000FEFFFFEF2DE9F0410446016880682269E3
:10458000E3691043626900251A431043DFF84CC207
:104590000A68934B1A4002430A6020684168E26847
:1045A00021F44051114341602168A069614501D067
:1045B000226A10438A688B4B1A4002438A60206843
:1045C000C16A626A21F00F011143C1628649236802
:1045D00086488B420DD1D0F8880010F0030006D039
:1045E000012867D0022854D0032851D164E001206B
:1045F0004FE07F498B420BD1D0F8880010F00C00BF
:1046000047D0042845D0082852D00C2840D153E088
:1046100078498B420BD1D0F8880010F0300038D0A8
:10462000102847D0202843D0302831D144E07249A7
:104630008B420BD1D0F8880010F0C00029D0402860
:1046400038D0802834D0C02822D135E06B498B4245
:104650000ED1D0F8880010F440701AD0B0F5807FE9
:1046600028D0B0F5007F23D0B0F5407F10D123E0F3
:1046700063450DD1D0F8880010F4406009D0B0F542
:10468000806F17D0B0F5006F12D0B0F5406F13D027
:1046900010205B4A5B4F00264FF40041634539D13F
:1046A00060B102280DD004280DD0082831D10EE0C9
:1046B0000220EEE70420ECE70820EAE7FDF760FCC3
:1046C00003E0114603E0FDF77FFC01007BD0606A48
:1046D00037F810206768B1FBF2F007EB470383421D
:1046E00069D8B0EB073F66D8002308461946FBF7A8
:1046F00091FD090241EA1061020278081018714127
:104700003A460023FBF786FD3F4AA0F540719142EF
:1047100057D950E0E3694FF6EF788B422BD1092847
:1047200049D2DFE800F005080D48254848480E004A
:10473000FDF726FC01E0FDF735FC010001D142E068
:104740001146606A37F81000B1FBF0F04100606874
:1047500001EB5001B1FBF0F1A1F1100040452AD866
:104760004FF6F07201EA0200C1F34201084328E06B
:10477000FDF72AFCE1E709281DD2DFE800F0050873
:104780000D1C1E1C1C1C0E00FDF7FAFB01E0FDF7C2
:1047900009FC010001D116E01146606A37F81000EB
:1047A000B1FBF0F1606801EB5001B1FBF0F0A0F15A
:1047B0001001414504D9012505E0FDF705FCE8E7B6
:1047C00080B22168C8600120A4F86A0024F8680F4C
:1047D0002846E6602661BDE8F081000000800040C8
:1047E000F369FFCFFFF4FF110038014000100240D1
:1047F0000044004000480040004C00400050004091
:104800000024F400004C0008FFFC0F002DE9F047E5
:10481000994617460D4604464FF00008089E33E0BF
:10482000701C31D0FDF740F8A0EB0900B04218D859
:10483000BEB120680168490726D5802D24D0402DBF
:1048400022D0C169C94309070DD408250562204655
:10485000FFF766FEC4F8905084F884800120BDE81C
:10486000F0870320FBE7C069C04300050CD4216832
:104870004FF4006008622046FFF752FE2020C4F883
:10488000900084F88480ECE72068C06935EA000075
:1048900004D00020B842C3D00020E0E70120F9E7AF
:1048A000FEE70907090E002804DB00F1E02080F88C
:1048B0000014704700F00F0000F1E02080F8141D94
:1048C000704702E008C8121F08C1002AFAD17047D9
:1048D0007047002001E001C1121F002AFBD1704780
:1048E0002DED028BB2A082B0B34900680190B148AF
:1048F000086001F11405801C286001F128061430BD
:1049000030603C310A3808601431801C086001F1C5
:104910001407801C38602831801C08601431801C0A
:1049200008601431103808601431801C0860FCF7EE
:10493000C9FFFFF7A9F9FEF7B5FEFEF76DFEFEF71A
:10494000CBFCFEF71FFDFEF7FDFEFFF753F8FFF768
:1049500085F8FFF7B7F8FEF78BFFFEF7D5FFFEF7F8
:10496000CFFDFEF777FEFEF717FEFEF765FDFEF7BB
:104970004BFFFFF70BF87F219048FBF7F5FD7F21F8
:104980008F48FBF7F1FD7F218E48FBF7EDFD7F217E
:104990008D48FBF7E9FD022286498848FCF7C2FBF7
:1049A000844903220C318648FCF7BCFB8149032271
:1049B00012318448FCF7B6FB7E490222091D824869
:1049C000FCF7B0FB8148FDF7CDFE00217F48FEF7E4
:1049D0001BFA00217D48FDF7FDFD0C217B48FEF709
:1049E00013FA0C217948FDF7F5FD04217848FEF70C
:1049F0000BFA08217648FEF707FA00217548FEF702
:104A000003FA04217348FEF7FFF92846FFF7D2F8AE
:104A10003046FFF7CFF805F1A000FFF7CBF805F11E
:104A20006400FFF7C7F83846FFF7C4F840F6C4142F
:104A300040F68C282346002241469FED678AB0EE5F
:104A4000481ADFED660A9FED660A05F1B400FFF72C
:104A500008F9234600224146B0EE481AF0EE480A13
:104A6000B7EE000A05F1D000FFF7FBF8234600225D
:104A70004146B0EE481AF0EE480AB7EE000A05F1DA
:104A8000EC00FFF7EEF81E2300224FF48B719FED30
:104A9000551ADFED550A9FED550A05F58470FFF7AD
:104AA000E0F80020FFF7E4F85148FDF79BFE4FF4D3
:104AB0007A742046FCF772FCB146B8463D4E05F1CB
:104AC000B40A05F1EC0B40F2FF779FED4A8AA88902
:104AD0003946FFF72FF88DED000A23460422694678
:104AE0004548FEF76FFBB9F80C003946FFF722F88E
:104AF0008DED000A2346042269463F48FEF762FB1B
:104B0000B8F80C00FFF722F88DED000A23460422C6
:104B100069463948FEF756FBBBF81400FFF716F854
:104B20008DED000A2346042269463348FEF74AFB0E
:104B3000BAF81400FFF70AF88DED000A23460422A4
:104B400069462D48FEF73EFB96ED020ABCEEC00A10
:104B500010EE100A80B2FEF7F9FF8DED000A234631
:104B6000042269462448FEF72DFB96ED020A2346EF
:104B7000042220EE080A69461F488DED000AFEF760
:104B800021FB1E4823460422B0F91400694600EEBA
:104B9000100A1948B8EEC00A8DED000AFEF712FBA4
:104BA0002346042201A91448FEF70CFB8FE70000FE
:104BB0000000807F000000203000002068010020FD
:104BC000D401002040020020AC0200206805002033
:104BD000000600204C0600200000000017B7D13866
:104BE0006F12833ACDCC4C3DBD378635ACC52737E7
:104BF000B4050020CDCCCC3D0C0800204C01002099
:104C0000010002000400060008000A000C00100069
:104C100020004000800000010101010307010000A5
:104C20000804020408010101000000000000000067
:104C30000102030406070809000000000102030442
:104C4000604C00080000002030000000C24800084E
:104C5000904C000830000020700C0000D248000882
:104C60000000000000000000000000000000000044
:104C70000000000000000000000000000000000034
:104C80001000000001000000000000000024F400FB
:04000005080001D915
:00000001FF
