:020000040800F2
:10000000C80C00207902000813350008612D000893
:1000100011350008C1050008553F00080000000028
:10002000000000000000000000000000173500087C
:1000300067060008000000001535000819350008A3
:10004000930200089302000893020008930200083C
:10005000930200089302000893020008930200082C
:10006000930200089302000893020008930200081C
:10007000930200089302000893020008930200080C
:1000800093020008930200089302000893020008FC
:1000900093020008930200089302000893020008EC
:1000A00093020008930200089302000893020008DC
:1000B00093020008930200089302000893020008CC
:1000C00093020008930200089302000893020008BC
:1000D00093020008930200089302000893020008AC
:1000E000930200089302000893020008930200089C
:1000F000930200089302000893020008930200088C
:10010000930200089302000893020008930200087B
:10011000930200089302000893020008930200086B
:10012000930200089302000893020008930200085B
:10013000930200089302000893020008930200084B
:1001400093020008930200089302000800000000D8
:10015000000000000000000000000000000000009F
:1001600000000000000000000000000093020008F2
:10017000930200089302000893020008930200080B
:1001800093020008930200089302000893020008FB
:100190009302000800000000930200089302000888
:1001A00093020008930200089302000893020008DB
:1001B00093020008930200089302000893020008CB
:1001C00093020008930200089302000893020008BB
:1001D000930200089302000800F002F800F03CF8D7
:1001E0000AA090E8000C82448344AAF10107DA4592
:1001F00001D100F031F8AFF2090EBAE80F0013F0A8
:10020000010F18BFFB1A43F001031847803E00009E
:10021000A03E0000103A24BF78C878C1FAD852072F
:1002200024BF30C830C144BF04680C607047000070
:100230000023002400250026103A28BF78C1FBD8EF
:10024000520728BF30C148BF0B6070471FB503F08D
:10025000F7FE1FBD10B510BD00F0CFF81146FFF737
:10026000F5FF03F089FE00F0EDF803B4FFF7F2FFAD
:1002700003BC00F0F5F80000094880470948004732
:10028000FEE7FEE7FEE7FEE7FEE7FEE7FEE7FEE746
:10029000FEE7FEE704480549054A064B70470000A3
:1002A00075350008D9010008C8060020C80C0020D8
:1002B000C8080020C808002053EA020C00F069803A
:1002C0002DE9F04B4FF00006002B1FBFB3FA83F56A
:1002D00003FA05F424FA05F65E4012BF1643B2FA9B
:1002E00082F502FA05F4C5F120051EBF22FA05FCCD
:1002F00044EA0C04203556EA044C4FEA144418BF73
:10030000641C4FF000084FF00009904271EB030CA1
:1003100039D3002919BFB1FA81F701FA07F6B0FA0B
:1003200080F700FA07F6C7F120071EBF20FA07FC86
:1003300046EA0C062037B6FBF4FCA7EB0507103F96
:1003400007F01F0BCBF120060CFA0BFB2CFA06F67C
:1003500044BFB3460026202FA4BF5E464FF0000BDB
:100360005BEA060C08BF4FF0010B19EB0B09ABFB66
:10037000027C48EB0608C01B06FB02CC0BFB03CC3F
:1003800071EB0C01C1E70B46024641464846BDE809
:10039000F08B13B54FF000004FF00001AFF3008079
:1003A000BDE81C4070474FF0000200B5134694466C
:1003B0009646203922BFA0E80C50A0E80C50B1F1BD
:1003C0002001BFF4F7AF090728BFA0E80C5048BFD1
:1003D0000CC05DF804EB890028BF40F8042B08BF6F
:1003E000704748BF20F8022B11F0804F18BF00F86B
:1003F000012B7047704770477047754600F02CF826
:10040000AE4605006946534620F00700854618B001
:1004100020B5FFF73FFFBDE820404FF000064FF04A
:1004200000074FF000084FF0000B21F00701AC4629
:10043000ACE8C009ACE8C009ACE8C009ACE8C00948
:100440008D46704710B50446AFF300802046BDE8E6
:100450001040FFF70ABF0000004870476806002000
:1004600001491820ABBEFEE726000200704710B518
:10047000846AE16D11F0500F06D0E16DC90625D5F3
:10048000204600F0DBFB10BDE06D40F40070E0653D
:1004900020680168090716D502F075FC78B120685C
:1004A000C068800400280ADBE06D20F48070E065FD
:1004B000E06DC00403D4E06D40F00100E06520462B
:1004C00000F0BAFB10BDC0688007EBE7616D496BB7
:1004D000BDE81040084710B5806AC16D41F0400189
:1004E000C165016E41F00401016600F0A7FB10BD7B
:1004F00010B5806A00F0A1FB10BD0000F8B50446FD
:10050000002000902068816811F0010F4AD18168B5
:10051000254A114237D18168D5432940491C816061
:100520002068B0F1A04F02D02049884201D1204874
:1005300000E02048806800F0E07000020DD51E4801
:100540001E490068B0FBF1F0401C00EB4000800049
:1005500000E0401E00900028FBD101F0B1F90646F2
:100560001BE0816811F0010F03D181682940491C0B
:10057000816001F0A5F9801B02280ED9206800686F
:10058000C043C00709D0E06D40F01000E065206E68
:1005900040F0010020660120F8BD20680168C943D1
:1005A000C907DED10020F8BD3F00008000010050E7
:1005B000000300500007005024000020400D0300FD
:1005C000FEE700000D4902688A4201D20C4901E0B1
:1005D0000B492031D2B21423083AB2FBF3F2436C38
:1005E00002F01F0223F0030319448164044980319F
:1005F000C164012191400165704700000804024078
:10060000000802400179074A02EB81024265054A6F
:100610004432491E826501F01F0201219140C165EB
:1006200070470000FC08024030B5D0E91345656012
:10063000446D14B1D0E91645656090F8444004F06B
:100640001F050124AC40056C6C600468636083681E
:10065000102B036803D099600068C26030BD9A60B7
:100660000068C16030BD704772B6FEE72DE9F04FFB
:10067000044690F858009BB00F464FF0000B01283D
:1006800012D0012084F8580000261796189620688A
:100690004FF0A048DFF81C91DFF81CA1474D404502
:1006A00006D12846009508E002201BB0BDE8F08F77
:1006B00048450AD15046CDF800A002F060FB0090FA
:1006C000206802F05CFB40B109E0E06D40F02000E2
:1006D000E06584F858600120E7E7009850B1E06DCC
:1006E00040F02000E0654FF0010B00BF84F8586037
:1006F0005846DAE720684146884201D0A84201D135
:100700002F4800E02F48D7F800C02F4B40F61F724B
:10071000BCF1000F2DD0D0F808C094F838802CF42C
:10072000604C4CEA483CD7F804804CEA080CC0F80E
:1007300008C0D4F800C08C4501D0AC4504D189680C
:10074000AB6801F0010109E0D9F80810DAF80850A7
:1007500001F0010105F001059B68294303F0010345
:100760001943C3D1BB68396819438368934319435C
:100770001DE0876827F46047876027688F4201D0B3
:10078000AF4204D18968AB6801F0010109E0D9F8F2
:100790000810DAF8085001F0010105F001059B6826
:1007A000294303F001031943A0D18168914381607B
:1007B0009CE70000000400500005005000010050BC
:1007C0000003005000070050000600502DE9F84FCC
:1007D00000270446009790F85800DFF81C840D4667
:1007E000B946012811D0012684F85860206802F02B
:1007F000C2FA60B1E06D40F02000E0655FF00107F3
:1008000084F858903846BDE8F88F0220FBE7D5E918
:1008100000210C23206803EA91131844036B01F0B4
:100820001F014FF01F0C0CFA01FCC2F3846223EA93
:100830000C038A4013430363206802F09CFA82464B
:10084000206802F094FA5AEA00003CD1AA682968AC
:100850002068B2F1004F37D002F09DFA206841695C
:1008600021F00041416120686969C268C2F3C10298
:10087000520091402A69042A31D000EB82002B6893
:10088000026EDFF878C303F0F84302EA0C020B4370
:100890001A4342F00041016622682869A96902EB07
:1008A0008000026E22F080720A430266297F22686D
:1008B0002869012910D0002102EB8000026E22F08D
:1008C00000720A4302667DE0002202F064FA2068AA
:1008D000416941F00041C5E74FF00071ECE70021AC
:1008E00002F03FFA400320684FF0000172D002F09E
:1008F00038FA90FAA0F0B0FA80F1286842036ED07E
:1009000090FAA0F0B0FA80F0814204D100221146A2
:10091000206802F04FFA0121206802F022FA400319
:1009200020684FF001015DD002F01BFA90FAA0F0B0
:10093000B0FA80F12868420359D090FAA0F0B0FADA
:1009400080F0814204D100220121206802F032FAB5
:100950000221206802F005FA400320684FF00201EE
:1009600048D002F0FEF990FAA0F0B0FA80F12868C1
:10097000420344D090FAA0F0B0FA80F0814204D152
:1009800000220221206802F015FA0321206802F0FB
:10099000E8F9400320684FF0030133D002F0E1F999
:1009A00090FAA0F0B0FA80F1286842032FD090FAB4
:1009B000A0F0B0FA80F0814204D100220321206827
:1009C00002F0F8F92068816811F0010F22D0ACE044
:1009D00000E004E002F0C5F9C0F384618DE7C0F3E4
:1009E000846091E702F0BDF9C0F38461A2E7C0F32F
:1009F0008460A6E702F0B5F9C0F38461B7E7C0F3FD
:100A00008460BBE702F0ADF9C0F38461CCE7C0F3CA
:100A10008460D0E72A7B296850F8B03FC1F3120CFC
:100A200023EA0C0302F0180C754A22FA0CF20A4071
:100A300013430360E968414577D1286841031CD01E
:100A400090FAA0F1B1FA81F1491C01F01F010929C6
:100A50004FEA403132D8002912D000BF90FAA0F1FD
:100A6000B1FA81F101F1010101F01F0106FA01F66D
:100A700009D100BFC0F3846109E0C0F38461E3E7FA
:100A8000C0F38461EEE790FAA0F1B1FA81F101F1CF
:100A9000010101F01F0146EA816102D1C0F38460C7
:100AA00003E090FAA0F0B0FA80F000F1010000F04D
:100AB0001F0000EB400041EA005132E000290ED057
:100AC00090FAA0F1B1FA81F101F1010101F01F01E9
:100AD00006FA01F606D100BFC0F3846106E0C0F358
:100AE0008461F1E790FAA0F1B1FA81F101F101011D
:100AF00001F01F0146EA816102D1C0F3846003E086
:100B000090FAA0F0B0FA80F000F1010000F01F00B0
:100B10003C4A00EB400002EB005041EA000141F08A
:100B20000071AA68206802F036F937482B68034242
:100B30003FF466AE21684FF0A04C3448344E354D3A
:100B4000614501D0A94201D1024600E032469268D7
:100B5000DFF8C48002F0E072434503D0DFF8BC80C8
:100B6000434521D15FEA02281ED4614506D02C4BB3
:100B700099427FF445AEA94200D0304642F40001CC
:100B8000826822F0E0720A438260264826490068A3
:100B9000B0FBF1F0401C00EB4000800000E0401E84
:100BA00000900028FBD12BE6DFF8808043450FD171
:100BB0005FEAC2180CD4A94202D11D4B9942F2D06F
:100BC000614502D0A94200D0304642F080710CE06D
:100BD000DFF860804345E6D15302E4D4A942E2D075
:100BE000614500D0304642F48001826822F0E07214
:100BF0000A43826004E6000000007F4000F0FF032B
:100C0000FFFF0700000020FE0000088000030050E6
:100C10000007005000010050000021C31000C090E8
:100C20000006005024000020400D0300000052C7C1
:100C300000050050000084CB7047704770470000EB
:100C4000F8B54FF0000504002E46009502D0E06D87
:100C500010B107E00120F8BD204600F009F9266632
:100C600084F8586020688168C1F3407119B18168C7
:100C7000734A1140816020688168C1F3007189B9AD
:100C80008168704A114041F0805181606E486F491F
:100C90000068B0FBF1F04000801C00E0401E0090B6
:100CA0000028FBD120688168C1F3007141B9E16D72
:100CB00041F01001E165216E41F00101216601253D
:100CC00002F059F8E16DC90600D430B1E06D40F092
:100CD0001000E06501252846F8BDE06D20F4807025
:100CE00040F00200E0652068816811F0010F27D113
:100CF0004FF0A043564A984201D0904204D19968DF
:100D0000966801F001010AE052498968524E01F0EB
:100D10000101B66806F001063143504EB66806F090
:100D2000010631430CD1984201D0904201D14C4888
:100D300000E04C486168826822F47C120A438260B9
:100D4000E168E06B627F0843A16841EA42310843F1
:100D500094F8241040EA0140012904D1218D424A2F
:100D600002EB41410843E16A29B101F47871226B39
:100D7000014342EA01002268D1683C4B194001431B
:100D8000D16020680169626B21F04061114301610B
:100D9000206801F0ECFF70BB207F94F838102268C7
:100DA000800340EA4100D16844F2020399430143C1
:100DB000D16020690028206801690AD041F480319F
:100DC0000161206850F8C01F22696FF30D011143C3
:100DD00007E021F480310161206850F8C01F6FF3F3
:100DE0000D01016094F8400001280CD020680169D1
:100DF00021F001010161606901282068016B21F087
:100E00000F0111D013E0D4E911010843D4E9131202
:100E10001143084321680A6940F2FC739A43104366
:100E200040F001000861E6E7226A521E11430163A7
:100E3000E06D20F0020040F00100E0654BE70000AB
:100E4000C0FFFF5FC0FFFF7F24000020400D0300B4
:100E50000001005000040050000500500006005042
:100E600000030050000700500000FEFF0740F0FFA5
:100E70002DE9F04F9BB00746142115A8FFF793FA10
:100E800054216846FFF78FFA4FF400413868002577
:100E90008A03A94EA94C4FF003084FF0800B4FF482
:100EA00080794FF0200AB0F1A04F10D0A44B9842A7
:100EB0007ED168461192009100F0F2FD08B1FFF773
:100EC000D3FB3068401C3060012839D040E06846D0
:100ED0001192009100F0E4FD08B1FFF7C5FB306806
:100EE000401C3060012807D1E06C40F40050E06401
:100EF000E06C00F400501A90E06C40F00100E064F7
:100F0000E06CCDF8548000F00100CDE916851A9010
:100F100015A94FF0904000F0AFFB8B4C8948206042
:100F20000520C4E90105C4E9035B4FF48060C4E90E
:100F30000590204693E07C65A7621BB0BDE8F08F6A
:100F4000E06C40F40050E064E06C00F400501A9053
:100F5000E06C40F00100E064E06C00F001001A90E9
:100F6000E06C40F00400E064E06C00F004001A90D3
:100F7000E06C40F00200E064E06C179500F00200C5
:100F80001A90CDE915A85446464615A94FF0904051
:100F900000F072FB1795CDE9154615A96B4800F0D6
:100FA0006BFB04201795CDE9150615A9684800E0EC
:100FB0001BE000F061FB644E6648603606F11801E4
:100FC00030602420C6E90105C6F81490C6E9035B29
:100FD0004FF4806081E83100304600F05DF908B1DF
:100FE000FFF742FB7E65B762A7E75B4B9A01D1032F
:100FF00098423ED168460092129100F051FD08B12E
:10100000FFF732FB7068401C7060012807D1E06C6C
:1010100040F48040E064E06C00F480401A90E06CA2
:1010200040F01000E064E06C179500F010001A909A
:101030004FF46070CDE9150815A9484800F01CFB75
:101040004448414C1430C03420602520C4E90105D7
:10105000C4E9035B4FF48060C4E905902046C4E90D
:1010600007A500F019F900283FF465AFFFF7FCFA77
:1010700061E73B4B984234D168460092129100F0F0
:101080000FFD08B1FFF7F0FA7068401C706001288E
:1010900007D1E06C40F48040E064E06C00F48040F4
:1010A0001A90E06C40F00200E064E06C00F0020096
:1010B0001A90E06C40F00800E064E06C15A900F0C4
:1010C00008001A904FF48050444681E831002048CF
:1010D00000F0D2FA15A92348CDF85490CDE9164571
:1010E00027E0214B98427FF47FAF6846009212912F
:1010F00000F0D6FC08B1FFF7B7FA7068401C7060CA
:10110000012807D1E06C40F48040E064E06C00F41A
:1011100080401A90E06C40F00100E064E06CCDF893
:10112000549000F00100CDE916851A9015A94FF0F2
:10113000904000F0A1FA00E71000002000100240EB
:10114000000100500804024044020020000800484A
:10115000000400480800024000040050001000484D
:1011600000050050000C0048000600502DE9F04733
:10117000044600684FF0A0483D4F91468A464045DE
:1011800001D0B84201D13B4900E03B49896801F0F8
:101190001F0501F0F0FD002868D194F858000128DF
:1011A00064D0012084F8580034492068884201D175
:1011B000012000E00020401E28424FF0000605D02C
:1011C000052D03D0092D01D0012003E02046FFF7B3
:1011D00095F918B184F85860BDE8F087E06D40F6E5
:1011E0000161884340F48070E0652068B84201D115
:1011F000414605E02249884201D1224900E00146EA
:10120000814200D01DB9E06D20F48010E065E06DF2
:10121000C00404D5206E20F00600206600E026669B
:10122000616D1948C862616D18480863616D18489E
:10123000486321681C20086084F858602068416871
:1012400041F0100141602068C16841F00101C160B6
:1012500021684B4652464031606D00F07DF82168B0
:101260008A680C4B1A40121D8A60B5E70220B3E76A
:10127000000100500003005000070050000600501D
:1012800000050050000400506F040008F10400083D
:10129000D7040008C0FFFF7F70B504000CD02B4AB4
:1012A00021681420914209D2294A0A44B2FBF0F085
:1012B0008000606427480AE0012070BD234A524242
:1012C0000A44B2FBF0F080006064204808382064D3
:1012D000022084F825000A6847F6F0708243D4E9BA
:1012E00002031843D4E904352B431843A369184378
:1012F000E3691843236A1843104308602046FFF748
:1013000061F9A0680025B0F5804F00D16560A16C3F
:1013100020790860D4E9130141606068401E032809
:1013200008D82046FFF76EF9606D0560D4E9160114
:10133000416002E06565A565E565E563012084F827
:10134000250084F82450002070BD000008040240ED
:10135000F8FFFDBF0000024070B5044690F824007D
:10136000002501280CD0012084F8240094F8256081
:101370000020012E06D084F824000225284670BDE6
:10138000022070BD022684F82560E06320680668AC
:1013900026F0010606602046FFF746F9206B00287C
:1013A0002068016802D041F00E0106E021F004013E
:1013B00001602068016841F00A010160A06C0168C9
:1013C000C90303D5016841F480710160606D18B1F3
:1013D000016841F4807101602068016841F00101F9
:1013E0000160CBE72DE9F041040006D0DFF8F4817D
:1013F00094F85C00002518B107E00120BDE8F081F9
:1014000084F85D50204600F0F9F82068816921F0E9
:101410001001816100F054FA0646032705E000BF81
:1014200000F04EFA801B0A2811D820688069000756
:10143000F6D42068816941F00101816100F040FA31
:1014400006460BE000F03CFA801B0A2806D9206E05
:1014500040F00100206684F85C70CEE72068806967
:10146000C007EFD02068816941F0020181612168E5
:10147000414502D15C4960680860207C01282068F1
:10148000816937D041F040018161607C012820688A
:10149000816932D021F480418161A07C01282068DB
:1014A00081692DD041F48051816120688169A268F1
:1014B00021F44071114381612068816921F0A40108
:1014C00081612068016921F010010161E068012853
:1014D00019D010B302281BD02068816941F0800127
:1014E00081612068016941F010010161E068032811
:1014F0000ED012E021F04001C6E741F48041CBE775
:1015000021F48051D0E72068816941F0040103E0B3
:101510002068816941F020018161207EE2694006F6
:101520006FF0FF0101EB0222A0F100701043226A6C
:10153000A38A521E10430A0202EB03431843236896
:10154000D861A068B0F5407F10D1D4E90A0301EB5F
:101550000321401E0843216B131303EB01110843C1
:10156000A18C02EB014108432168C860206850F853
:10157000C01FE26B114301601D4A21681B48914264
:1015800000D11C481C4A914201D100F5D46020646E
:1015900051F8802FA38E22F4F81242EA03420A6027
:1015A00000F170016164216851F8802F94F838309F
:1015B00022F0706242EA03620A6000F1B001A164A5
:1015C000D831E164D831216518316165D83100E046
:1015D00020C08842FCD3A5652566012084F85C0004
:1015E00000200BE7006400400065004000A40040BC
:1015F0000068004050A70040006C004010B59CB04F
:101600000446142115A8FEF7CEFE54216846FEF7C5
:10161000CAFE17492068884228D1801400904003F0
:101620000E90684600F03CFA08B1FFF71DF811482B
:10163000816D41F000718165816D01F000711A9139
:10164000C16C41F00101C164C06C15A900F001003A
:101650001A904FF4C0501590022016900020179059
:10166000189009201990C00600F006F81CB010BDB3
:1016700000640040001002402DE9F04FDFF8209296
:10168000002301260324A9F1040B85B00F2709F1DB
:10169000040AABF1040EFAE006FA03F52A407CD006
:1016A00091F804C00CF0030CBCF1010F02D0BCF1A6
:1016B000020F26D1D0F808C0CDF800C04FEA430C85
:1016C00004FA0CF8CDF810C0DDF800C02CEA080CC4
:1016D000CDF800C0D1F80C80DDF810C008FA0CF885
:1016E000DDF800C048EA0C08C0F80880D0F804C053
:1016F0002CEA050C0D79C5F300159D4045EA0C0553
:1017000045600D79ED43AD070ED0C5684FEA43083B
:1017100004FA08FC25EA0C05D1F808C00CFA08FC0C
:101720004CEA050CC0F80CC00D7905F00305022D3C
:1017300016D1DD0800EB850CCDF808C0DCF8208060
:101740005D074FEAD56C07FA0CF528EA05080D6924
:1017500005FA0CF5DDF808C045EA0805CCF820507C
:1017600005684FEA430CCDF808C004FA0CFC25EAE2
:101770000C0591F804C00CF00308DDF808C008FA65
:101780000CF848EA0508C0F800804D6815F4403FA1
:101790007CD0444DD5F860C000E077E04CF0010CFF
:1017A000C5F860C02D6E23F0030C05F0010500950F
:1017B0003D4D65440295AD684FEA837C4FEA1C7845
:1017C00007FA08FC25EA0C05B0F1904F06D0DFF8C7
:1017D000DCC0604505D14FF0010C20E04FF0000C5B
:1017E0001DE0DFF8CCC0604502D14FF0020C16E0DE
:1017F000DFF8C0C0604502D14FF0030C0FE0DFF806
:10180000B8C0604502D14FF0040C08E0DFF8ACC06E
:10181000604502D14FF0050C01E04FF0060C0CFAC8
:1018200008FC4CEA050C029DC5F808C0D9F8005028
:10183000CC46D1F8048095435FEAC82800D515430B
:10184000CCF80050DAF80050D446D1F80480954323
:101850005FEA882800D51543CCF80050DBF800502B
:10186000DC46D1F8048095435FEA883800D51543FB
:10187000CCF80050DEF80050F446D1F804809543CF
:101880005FEAC83800D51543CCF800505B1C0A68E5
:1018900032FA03F57FF400AF05B0BDE8F08F000029
:1018A000080401400010024000000140000400480C
:1018B00000080048000C00480010004800140048D0
:1018C00001488068704700001800002002488168C5
:1018D00042681144816070471800002010B5002450
:1018E000032000F065F80F2000F008F808B101248B
:1018F00001E000F025F8204610BD000070B50E4E46
:1019000005460024706898B14FF47A71B1FBF0F08D
:101910000A490968B1FBF0F000F08EFD40B9102DC6
:1019200006D200222946501E00F022F8356000E061
:101930000124204670BD0000180000202400002073
:101940000A4882B0016E41F001010166016E01F0AA
:1019500001010091816D41F080518165806D00F041
:101960008050009002B000F093B8000000100240D8
:10197000F0B40E4B1B680C46C3F30223C3F10705FA
:10198000042D00D90425191D072901D2002300E0E8
:10199000DB1E012606FA05F1491E214099409E40B2
:1019A000761E16403143F0BC02F0D5BA0CED00E0D3
:1019B000064900F0070208684FF6FF03184040EAA6
:1019C0000220034A10430860704700000CED00E05D
:1019D0000000FA052B492C4B0A6832214A432B4957
:1019E00040B1B0F5007F086829D020F4C06040F411
:1019F00080602CE00868C0F34120022804D051F830
:101A0000800F20F4807022E0D1F8800020F48070F4
:101A1000C1F88000086820F4C06040F400700860DD
:101A2000B2FBF3F0401C00E0401E4A69520501D5AC
:101A30000028F9D1486940050AD503207047C0F352
:101A40004120022806D051F8800F40F480700860D1
:101A500000207047D1F8800040F48070C1F8800009
:101A6000086820F4C06040F400700860B2FBF3F036
:101A7000401C00E0401E4A695205DBD50028F9D120
:101A8000D8E700002400002040420F000070004012
:101A90000248816841F480418160704700700040D5
:101AA0002DE9F843044600680026BB4D00035ED5CF
:101AB000A86D0027C00008D4A86D40F08050A8652C
:101AC000A86D012700F080500090DFF8D092D9F87F
:101AD000001041F48071C9F80010FFF7F1FE804654
:101AE00006E000BFFFF7ECFEA0EB080002282BD8B1
:101AF000D9F80000C005F5D5D5F8900010F4407075
:101B000014D0216D814211D0D5F89000D5F89010F5
:101B100020F4407041F48031C5F89010D5F8901051
:101B200021F48031C5F89010C5F89000C00711D09D
:101B3000FFF7C6FE804641F2883907E0FFF7C0FE96
:101B4000A0EB0801494501D903260BE0D5F8900028
:101B50008007F3D5D5F89000216D20F4407008433C
:101B6000C5F890001FB1A86D20F08050A8652078BE
:101B7000C00707D0D5F88800616820F0030008434B
:101B8000C5F888002078800707D5D5F88800A168B7
:101B900020F00C000843C5F888002078400707D5DE
:101BA000D5F88800E16820F030000843C5F88800C7
:101BB0002078000707D5D5F88800216920F0C000FB
:101BC0000843C5F888002078C00607D5D5F88800F6
:101BD000616920F440700843C5F8880020788006C9
:101BE00007D5D5F88800A16920F440600843C5F8FE
:101BF00088002078400607D5D5F88800E16920F4F0
:101C000040500843C5F888002078000607D5D5F86D
:101C10008800216A20F440400843C5F888002088E5
:101C2000C00507D5D5F88800616A20F44030084324
:101C3000C5F888002068800307D5D5F89C00A16A04
:101C400020F003000843C5F89C002088800507D5D4
:101C5000D5F88800E16A20F440200843C5F88800E0
:101C6000208840050FD5D5F88800216B20F440105E
:101C70000843C5F88800206BB0F5801F03D1E868E1
:101C800040F48010E860208800050FD5D5F8880062
:101C9000616B20F440000843C5F88800606BB0F524
:101CA000800F03D1E86840F48010E8602088C00409
:101CB0000FD5D5F88800A16B20F040700843C5F817
:101CC0008800A06BB0F1807F03D1E86840F48010F9
:101CD000E86020884FF0006180040ED5D5F88800B8
:101CE000E26B20F040601043C5F88800E06B88424A
:101CF00003D1E86840F48010E860208840040ED5E5
:101D0000D5F88800226C20F040601043C5F88800A8
:101D1000206C884203D1E86840F48010E860208895
:101D200000040FD5D5F88800616C20F040500843BE
:101D3000C5F88800606CB0F1805F03D1E86840F4BA
:101D40008030E8602068C0030FD5D5F88800A16C0A
:101D500020F040400843C5F88800A06CB0F1804FE7
:101D600003D1E86840F48030E860206840030FD574
:101D7000D5F89C00E16C20F440100843C5F89C00A5
:101D8000E06CB0F5001F03D1E86840F48010E86013
:101D90003046BDE8F88300000010024000700040AB
:101DA0002DE9F0470E4605004FF0000725D0DFF87B
:101DB000AC81D8F8000000F00F00B0420CD2D8F887
:101DC000001021F00F013143C8F80010D8F80000CE
:101DD00000F00F00B04210D12968614CC80741F2F1
:101DE000883A5AD06868DFF87C91032808D0022826
:101DF00020682DD0400500282CDB0120BDE8F087AD
:101E000020688001F9D5E06800F00302E068C0F3C3
:101E10000310401C032A19D0534A00BFB2FBF0F054
:101E2000E268C2F306225043E268C2F34162521CE8
:101E30005200B0FBF2F0484517D9A06810F0F00F3F
:101E40000CD0880711D5A86840B10EE0474AE5E7F5
:101E50008003D0E700F0B6F8484506D9A06820F026
:101E6000F00040F08000A0608027A068696820F042
:101E700003000843A060FFF723FD814606E000BF92
:101E8000FFF71EFDA0EB090151453AD8A06869682B
:101E900000F00C00B0EB810FF2D12868810714D557
:101EA000400703D5A06840F4E060A06028780007F0
:101EB00005D5A06820F4605040F4E060A060A06800
:101EC000A96820F0F000084304E0802F03D1A06847
:101ED00020F0F000A060D8F80010404601F00F019B
:101EE000B14216D9016821F00F0131430160FFF7BB
:101EF000E7FC074607E000BFFFF7E2FCC11B5145C6
:101F000001D903207AE7D8F8000000F00F00B042B2
:101F1000F2D12878400705D5A068E96820F4E06090
:101F20000843A0602878000706D5A068296920F436
:101F3000605040EAC100A06000F044F8A1680C4A7B
:101F4000C1F30311515C01F01F01C8400949086049
:101F500009480068BDE8F047FFF7D0BC0020024008
:101F60000010024000B4C4040024F400006CDC0241
:101F7000724000082400002018000020054806498F
:101F800000688968054AC1F30221515C01F01F0114
:101F9000C840704724000020001002408240000822
:101FA0000548064900688968054AC1F3C221515CA9
:101FB00001F01F01C84070472400002000100240BB
:101FC00082400008184910B58868C0F3810217489C
:101FD000012A0BD08A68164BC2F38102022A06D06E
:101FE0008A68C2F38102032A03D0002010BD18467C
:101FF00010BDCA6802F00304CA68C2F30312521C7F
:10200000032C02D0B0FBF2F001E0B3FBF2F0CA689F
:10201000C968C2F306225043C1F34161491C49001B
:10202000B0FBF1F010BD0000001002400024F400ED
:10203000006CDC022DE9F84304007AD02078F84DDA
:10204000C00747D0A868E96800F00C0001F0030160
:102050000C2802D0082817D001E0032914D06068AA
:10206000B0F5803F17D0B0F5A02F286817D020F426
:1020700080302860286820F4802028606068E0B103
:10208000FFF71EFC064614E02868800322D560682E
:102090000028D2D01EE0286840F48030EDE740F4FC
:1020A00080202860F7E700BFFFF70AFC801B642848
:1020B00070D828688003F7D50CE0FFF701FC0646CE
:1020C00005E000BFFFF7FCFB801B6428F0D8286800
:1020D0008003F7D4207880074CD5A868E96800F021
:1020E0000C0001F003010C2802D004280DD001E0FF
:1020F00002290AD0E068002828682BD040F48070BC
:102100002860FFF7DDFB064619E02868400502D588
:10211000E068002891D06868217C20F0FE4040EA09
:1021200001606860BF480068FFF7E8FB002800D145
:1021300020E072E1FFF7C4FB801B0228B8D82868B2
:102140004005F7D56868217C20F0FE4040EA016038
:1021500068600FE020F480702860FFF7B1FB06464E
:1021600005E000BFFFF7ACFB801B0228A0D8286861
:102170004005F7D42078000729D560690028D5F8F4
:10218000940013D040F00100C5F89400FFF798FBCD
:10219000064606E090E000BFFFF792FB801B022896
:1021A00086D8D5F894008007F6D510E020F001001D
:1021B000C5F89400FFF784FB064604E0FFF780FBB8
:1021C000801B022878D8D5F894008007F6D42078B0
:1021D000400761D5A86D0026C00008D4A86D40F066
:1021E0008050A865A86D012600F0805000908E48B0
:1021F0000168C90511D40168804641F4807101600D
:10220000FFF75EFB074604E0FFF75AFBC01B0228FE
:1022100052D8D8F80000C005F6D5A068012815D01E
:102220000528D5F8900016D020F00100C5F89000E0
:10223000D5F8900020F00400C5F89000A06841F2A5
:102240008838B8B1FFF73CFB07460EE0D5F89000A0
:1022500040F00100F0E740F00400C5F89000F5E719
:10226000FFF72EFBC11B414526D8D5F8900080070B
:10227000F6D50CE0FFF724FB074604E0FFF720FB50
:10228000C11B414518D8D5F890008007F6D41EB17F
:10229000A86D20F08050A8652078800629D5A06917
:1022A0000028D5F8980013D040F00100C5F8980038
:1022B000FFF706FB064606E075E000BFFFF700FBF0
:1022C000801B02286FD8D5F898008007F6D510E05B
:1022D00020F00100C5F89800FFF7F2FA064604E086
:1022E000FFF7EEFA801B02285DD8D5F8980080072A
:1022F000F6D4E069F0B3A968C1F3810103295DD088
:102300000228286820F08070286003D0FFF7D8FAF0
:1023100004464BE0FFF7D4FA064604E0FFF7D0FA94
:10232000801B02283FD828688001F7D4F4E908010F
:102330006FF00F0202EB01110843218A5204490891
:1023400002EB4151A26841EA02210843217D4FF08E
:102350007E42490802EB41610843217B40EAC160AB
:10236000E968324A11400843E860286840F080700C
:10237000286000E05EE0E86840F08070E860FFF709
:102380009FFA044605E000BFFFF79AFA001B0228F7
:1023900009D828688001F7D54CE000BFFFF790FA14
:1023A000001B022802D90320BDE8F88328688001B9
:1023B000F4D4E8681E490840E8603BE00128F3D007
:1023C000E868226A00F00301914226D1616A00F0B8
:1023D000F0020901103991421FD1A26A00F4FE41B6
:1023E000B1EB022F19D194F82C2000F07841B1EB19
:1023F000C26F12D1218E00F4C00249084905A1F52F
:102400000011914209D194F8341000F0C0604908DD
:102410004906A1F1007181420CD00120C4E70000FF
:102420000010024018000020007000400C809F0146
:10243000FCFFEEFE0020B7E710B5401EB0F1807F34
:1024400001D3012010BD4FF0E02460610F2160171F
:1024500001F081FD0020A06107202061002010BD57
:1024600030B590F83C20012A45D0012280F83C206C
:10247000CA688B6822F440721A434B6822F4806267
:102480001A430B6822F400621A430B6922F480524B
:102490001A434B6922F400521A430B6B22F4804218
:1024A0001A430B8B22F4702242EA0342CB6922F0DA
:1024B00080521A43114D03680024AB4205D0104DE1
:1024C000AB4202D00F4DAB4210D10D8D22F4700201
:1024D00042EA05520D6A22F080722A434D6A22F0C8
:1024E00000722A43C96A22F000520A435A6480F8F3
:1024F0003C40002030BD022030BD0000002C0140D7
:102500000034014000500140F0B590F83C20012A11
:1025100043D0012580F83C50022280F83D2003681A
:102520005A689C681E4E1F4FDFF87CC0B34203D030
:10253000BB4201D0634504D122F4700E4A6842EADE
:102540000E02DFF868E002EA0E02D1F800E04EEA7F
:10255000020EC3F804E00268B24212D0B2F1804F1A
:102560000FD0134B9A420CD0124B9A4209D0124B07
:102570009A4206D0BA4204D0104B9A4201D062452A
:1025800004D1896824F080031943916080F83D509C
:10259000002180F83C100846F0BD0220F0BD00008C
:1025A000002C014000340140005001408FFFFFFD2E
:1025B0000004004000080040000C004000400140C2
:1025C00010B50446022249B104290ED0082913D0BF
:1025D00094F84700012816D0012010BD94F844005B
:1025E0000128F9D184F844200FE094F8450001282F
:1025F000F2D184F8452008E094F846000128EBD198
:1026000084F8462001E084F847200422206801F085
:1026100038F82068416C41F4004141641349206856
:10262000884214D0B0F1804F11D0114988420ED0A9
:10263000104988420BD01049884208D00F4988427F
:1026400005D00F49884202D00E49884207D18168DF
:102650000D4A1140062906D0B1F5803F03D001682C
:1026600041F001010160002010BD0000002C01407C
:102670000004004000080040000C0040003401400D
:1026800000400140005001400700010090F83D105B
:10269000012901D001207047022180F83D10006817
:1026A0001249884214D0B0F1804F11D010498842AD
:1026B0000ED0104988420BD00F49884208D00F49EC
:1026C000884205D00E49884202D00E49884207D17F
:1026D00081680D4A1140062906D0B1F5803F03D02C
:1026E000016841F00101016000207047002C0140A9
:1026F0000004004000080040000C0040003401408D
:10270000004001400050014007000100F0B587B0D3
:10271000044614216846FDF746FE364A2068002428
:1027200035490225354E904239D1C86C40F004003D
:10273000C864C86C00F004000590C86C40F010003C
:10274000C864C86C2E4F00F0100005905014009023
:10275000CDE901540420CDE9034069463846FEF72F
:102760008BFF01200090CDE9015469463846CDE940
:102770000345FEF781FF68030090CDE901546946E7
:102780003046CDE90345FEF777FFA8030090CDE979
:1027900001540620CDE903406946304611E0194A4C
:1027A000904212D1C86C40F01000C864C86C6946F1
:1027B00000F0100005901C200090CDE90154304637
:1027C00015E0FEF759FF07B0F0BD0F4A9042FAD16D
:1027D000C86C40F00800C864C86C694600F0080086
:1027E00005904FF440500090CDE901540748CDE9E1
:1027F0000345E6E7002C01400010024000100048AD
:10280000000800480004004000080040000C004898
:1028100070B5044690F83C0000260D4601280BD008
:10282000012084F83C000C2A4AD007DC82B1042A3B
:1028300020D0082A06D131E0022070BD102A53D0E2
:10284000142A63D00126002084F83C00304670BD75
:10285000206800F023FF2068816941F00801816150
:102860002068816921F004018161206881692A69F9
:10287000114311E0206800F067FF2068816941F48E
:10288000006181612068816921F480618161206833
:1028900081692A6941EA02218161D4E7206800F058
:1028A000A3FF2068C16941F00801C1612068C169C6
:1028B00021F00401C1612068C1692A69114311E056
:1028C000206800F0E1FF2068C16941F40061C16146
:1028D0002068C16921F48061C1612068C1692A69E9
:1028E00041EA0221C161AEE7206801F01DF82068CD
:1028F000016D41F0080101652068016D21F00401BE
:1029000001652068016D2A69114311E0206801F01A
:1029100047F82068016D41F4006101652068016D90
:1029200021F4806101652068016D2A6941EA022174
:10293000016588E710B5040003D094F83D0010B19C
:1029400007E0012010BD002084F83C00204600F084
:1029500023F8022084F83D00211D206800F012FEBB
:10296000012084F8480084F83E0084F83F0084F891
:10297000400084F8410084F8420084F8430084F861
:10298000440084F8450084F8460084F8470084F841
:102990003D00002010BD000008B5124A0168124831
:1029A000914207D1016E41F400610166006E00F4AE
:1029B000006009E00D4A914208D1816D41F00201A9
:1029C0008165806D00F00200009008BD084A9142C8
:1029D000FBD1816D41F004018165806D00F0040040
:1029E000F2E70000002C014000100240000400400B
:1029F0000008004070B50446022269B1042912D0D3
:102A0000082917D00C291CD0102921D094F8430094
:102A1000012824D0012070BD94F83E000128F9D18E
:102A200084F83E201DE094F83F000128F2D184F89C
:102A30003F2016E094F840000128EBD184F84020B4
:102A40000FE094F841000128E4D184F8412008E027
:102A500094F842000128DDD184F8422001E084F896
:102A600043200122206800F0FFFD1D4920681D4A17
:102A70001D4B1E4D88420BD0904209D0984207D082
:102A80001B4EB04204D01B4EB04201D0A84203D12D
:102A9000466C46F4004646642068884211D0B0F186
:102AA000804F0ED0144988420BD01449884208D078
:102AB0001349884205D0904203D0984201D0A842E1
:102AC00007D181680F4A1140062906D0B1F5803F31
:102AD00003D0016841F001010160002070BD0000D9
:102AE000002C0140003401400040014000500140F2
:102AF000004401400048014000040040000800403C
:102B0000000C00400700010090F88410012918D043
:102B1000012180F884102421C0F8881001680A6817
:102B20000B6823F001030B6022F000510022426683
:102B3000036819602021C0F8881080F884201046AE
:102B400070470220704770B5044690F88400012851
:102B50001DD0012084F884002420C4F88800206857
:102B60000568026822F0010202602068826822F093
:102B700060620A438260204600F050FF20680560D2
:102B80002020C4F88800002084F8840070BD022052
:102B900070BD70B5044690F8840001281DD0012056
:102BA00084F884002420C4F888002068056802683E
:102BB00022F0010202602068826822F060420A432B
:102BC0008260204600F02AFF206805602020C4F8BB
:102BD0008800002084F8840070BD022070BD10B50C
:102BE000040003D0D4F8880010B107E0012010BD24
:102BF000002084F88400204600F026F82420C4F841
:102C000088002068016821F001010160A06A10B10C
:102C1000204600F025FF204601F006F80128E6D006
:102C20002068416821F4904141602068816821F06A
:102C30002A0181602068016841F00101016020469D
:102C4000BDE8104000F070BFF0B59BB00446142101
:102C500015A8FDF7A8FB54216846FDF7A4FB3A49E7
:102C600020683A4C072702260025884221D10120FE
:102C7000CDE900056846FEF713FF08B1FDF7F4FC47
:102C8000206E40F480402066206E00F480401A9050
:102C9000E06C40F00100E064E06CCDE9166500F006
:102CA00001001A904FF4C060159015A94FF09040A4
:102CB00020E02749884223D1684600960295FEF716
:102CC000EFFE08B1FDF7D0FCA06D40F40030A06528
:102CD000A06D00F400301A90E06C40F00800E06451
:102CE000E06CCDE9166500F008001A9060201590A0
:102CF000184815A9CDE91857FEF7BEFC1BB0F0BD6A
:102D000015498842FAD10420009003956846FEF7E1
:102D1000C7FE08B1FDF7A8FCA06D40F48020A065B7
:102D2000A06D00F480201A90E06C40F00400E06494
:102D3000E06CCDE9166500F004001A904FF4406095
:102D4000159015A90548D5E700380140001002404C
:102D500000440040000C00480048004000080048C3
:102D6000FEE700EB8100006E00F0F84070478068DD
:102D7000C0F3C00070478068C0F38000704780686F
:102D8000C0F380007047C06810F4406F01D000208D
:102D9000704701207047042303EAD15310B518444B
:102DA0004369C1F3045107248C40A3438A40134371
:102DB000436110BD00EB8100016E21F00041114321
:102DC0000166704730B58BB0002408940994202127
:102DD00068460A94FDF7E7FA22484FF0A04104251F
:102DE00001604FF48021C0E9011485610121C460B4
:102DF000C0E90441047741770222026280F824404E
:102E0000C462046380F83810C46380F84040FDF762
:102E100017FF08B1FDF728FC08A912480894FDF730
:102E200025FC08B1FDF720FC0F4800900620CDE9F5
:102E300001047F200594CDE9030569460948FDF7A3
:102E4000C5FC08B1FDF710FC084800900C2001906B
:102E500069460448FDF7BAFC002801D0FDF704FCE0
:102E60000BB030BD280000200200300404006008D0
:102E700030B589B020216846FDF795FA24482349EA
:102E8000002401608902C0E9011404258561012143
:102E9000C460C0E90441047741770322026280F8EC
:102EA0002440C462046380F83810C46380F8404052
:102EB000FDF7C6FE08B1FDF7D7FB164800900620C7
:102EC000CDE901047F200594CDE90305694610484A
:102ED000FDF77CFC08B1FDF7C7FB0F4800900C2004
:102EE000019069460A48FDF771FC08B1FDF7BCFB8B
:102EF0000A4800901220019069460548FDF766FCDB
:102F0000002801D0FDF7B0FB09B030BD0001005032
:102F1000940000200008302E00209036001060320F
:102F200030B58BB0002408940994202168460A9497
:102F3000FDF739FA2848274904250160C901C0E98D
:102F4000011485610121C460C0E90441047741771F
:102F50000322026280F82440C462046380F83810BF
:102F6000C46380F84040FDF76BFE08B1FDF77CFBC1
:102F700008A919480894FDF779FB08B1FDF774FB1F
:102F8000164800900620CDE901047F200594CDE984
:102F9000030569461048FDF719FC08B1FDF764FB0D
:102FA0000F4800900C20019069460B48FDF70EFC7D
:102FB00008B1FDF759FB0B480090122001906946BB
:102FC0000548FDF703FC002801D0FDF74DFB0BB0D1
:102FD00030BD000000040050000100201000C010AF
:102FE000400020190400600830B589B020216846EF
:102FF000FDF7D9F919481849002401604FF4003150
:10300000C0E90114C46004250461C0E905450477E2
:1030100044770121016280F82440C462046380F88F
:103020003840C46380F84040FDF70AFE08B1FDF760
:103030001BFB0B4800900620CDE901047F2005947E
:10304000CDE9030569460548FDF7C0FB002801D01E
:10305000FDF70AFB09B030BD000500506C010020EF
:103060000010603230B589B020216846FDF79BF929
:1030700019481849002401604FF40031C0E90114D7
:10308000C46004250461C0E9054504774477012143
:10309000016280F82440C462046380F83840C4634D
:1030A00080F84040FDF7CCFD08B1FDF7DDFA0B4894
:1030B00000900620CDE901047F200594CDE90305A9
:1030C00069460548FDF782FB002801D0FDF7CCFAE0
:1030D00009B030BD00060050D801002002003004C5
:1030E0000D4808B5816C41F004018164816C01F0E8
:1030F00004010091816C41F001018164816C01F057
:1031000001010091816C41F002018164806C00F04A
:103110000200009008BD000000100240114810B5E8
:103120000F490160002141608160C16001744174F8
:1031300081741022426101220223C0E90623C0E902
:1031400008328262C262C0E90C218163C163FEF76A
:1031500049F9002803D0BDE81040FDF785BA10BD3D
:10316000006400406403002000B587B01421684665
:10317000FDF719F91E48C16C41F01001C164C16C22
:1031800001F010010591C16C41F00401C164C16CF2
:1031900001F004010591C16C41F02001C164C16CD2
:1031A00001F020010591C16C41F00101C164C16CC5
:1031B00001F001010591C16C41F00201C164C16CD3
:1031C00001F002010591C16C41F00801C164C06CBD
:1031D000694600F0080005904FF440400090002040
:1031E000019002900348FEF747FA07B000BD0000C7
:1031F000001002400004004810B598B00024149458
:1032000015941C210DA81694FDF7CDF834216846BD
:10321000FDF7C9F828482749C0E900145F21C0E933
:103220000241046144618461FFF784FB08B1FDF74A
:103230001BFA1494159414A91F481694FFF764F907
:1032400008B1FDF711FA60200D900A20CDE90E04B7
:1032500010941194129400220DA917481394FFF7AB
:10326000D7FA08B1FDF700FA50200E900C220DA9F4
:103270001148FFF7CDFA08B1FDF7F6F90220CDE9C4
:10328000024000940003CDE904400003CDE908406A
:103290000194069407940A940B94694606480C948A
:1032A000FFF7DEF808B1FDF7DFF90348FFF72EFA64
:1032B00018B010BD002C0140C803002010B58AB022
:1032C0000024079408941C2168460994FDF76BF8C4
:1032D0001F481E4901600821C0E901144BF67F31E7
:1032E000C0E903148461FFF725FB08B1FDF7BCF9C1
:1032F000079407A916480994FFF706F908B1FDF7E6
:10330000B3F96020CDE90004029400226946104818
:103310000494FFF77DFA08B1FDF7A6F95A20019051
:10332000042269460A48FFF773FA08B1FDF79CF9D1
:10333000082269460648FFF76BFA08B1FDF794F9D1
:103340000348FFF7E3F90AB010BD00000004004095
:103350001404002010B58AB00024079408941C219E
:1033600068460994FDF71FF81A48194901600A21B7
:10337000C0E901144BF68031C0E903148461FFF702
:10338000D9FA08B1FDF770F9079407A91148099413
:10339000FFF7BAF808B1FDF767F9602000905A20EE
:1033A000CDE90104002269460A480494FFF730FA87
:1033B00008B1FDF759F9042269460648FFF728FAD3
:1033C00008B1FDF751F90348FFF7A0F90AB010BDA5
:1033D0000008004060040020184810B5164901603C
:1033E0004FF4E1314160002181600C22C160C0E9ED
:1033F00004128161C161016241628162FFF7EFFBEA
:1034000008B1FDF731F900210C48FFF7C2FB08B104
:10341000FDF72AF900210948FFF795FB08B1FDF7F0
:1034200023F90648FFF770FB002803D0BDE81040E1
:10343000FDF71AB910BD000000380140AC040020AF
:10344000184810B5164901604FF4E1314160002180
:1034500081600C22C160C0E904128161C161016216
:1034600041628162FFF7BBFB08B1FDF7FDF8002167
:103470000C48FFF78EFB08B1FDF7F6F8002109486C
:10348000FFF761FB08B1FDF7EFF80648FFF73CFBDB
:10349000002803D0BDE81040FDF7E6B810BD0000DD
:1034A0000044004040050020184810B5164901604E
:1034B0004FF4E1314160002181600C22C160C0E91C
:1034C00004128161C161016241628162FFF787FB81
:1034D00008B1FDF7C9F800210C48FFF75AFB08B105
:1034E000FDF7C2F800210948FFF72DFB08B1FDF7F1
:1034F000BBF80648FFF708FB002803D0BDE81040E2
:10350000FDF7B2B810BD000000480040D40500200F
:10351000FEE7FEE770477047FEF7D8B910B594B0E4
:1035200038216846FCF73FFF14210EA8FCF73BFF4B
:103530004FF40070FEF74EFA0120009000040024C2
:10354000019007946846FEF775FD08B172B6FEE774
:103550000F200E900220CDE90F04119401210EA836
:103560001294FEF71DFC002801D072B6FEE714B0DD
:1035700010BD00000248016841F47001016070470D
:1035800088ED00E02DE9F04F02682E4B2E4E2F4FB4
:10359000DFF8BCC02F4C304D4FF0804B98420BD021
:1035A000584509D0B04207D0B84205D0604503D095
:1035B000A04201D0A84204D122F070084A6842EA31
:1035C0000802DFF89880DFF89890DFF898A098421A
:1035D00011D058450FD0B0420DD0B8420BD0604545
:1035E00009D0A04207D0404505D0484503D05045FA
:1035F00001D0A84203D122F44076CA6832434E6912
:1036000022F08002324302608A68C2620A688262E3
:10361000984209D0A04207D0404505D0484503D084
:10362000504501D0A84201D10969016301214161DE
:103630000169C90703D0016921F001010161BDE8F9
:10364000F08F0000002C0140000400400008004002
:10365000000C004000340140005001400040014097
:10366000004401400048014010B501F01F03012152
:10367000046A99408C430462016A9A4011430162D2
:1036800010BD10B501F00F030421046A99408C436A
:103690000462016A9A401143016210BD2DE9F047AE
:1036A000056A026A22F001020262436882691F4CC5
:1036B00025F0020522400C6822F0030214438A68B8
:1036C0001C4E2A431A4D1C4FDFF870C0DFF8709073
:1036D000DFF870A0A84209D0B04207D0B84205D0A8
:1036E000604503D0484501D0504506D122F0080876
:1036F000CA6842EA080222F00402A84209D0B04295
:1037000007D0B84205D0604503D0484501D05045A8
:1037100005D14D6923F440731D438B692B434360EE
:103720008461496841630262BDE8F0878FFFFEFF54
:10373000002C0140003401400040014000440140A1
:103740000048014000500140F0B5056A026A22F0CD
:1037500010020262426883691C4C1E4E23400C68B2
:1037600023F4407343EA042425F020038D681A4FA4
:1037700043EA0513164DA84203D0B04201D0B84227
:1037800007D1D1F80CC023F0800343EA0C1323F0D7
:103790004003A8420CD0B0420AD0104DA84207D036
:1037A0000F4DA84204D00F4DA84201D0B84207D116
:1037B0004D6922F4406242EA85028D6942EA85023F
:1037C00042608461496881630362F0BDFF8FFFFE40
:1037D000002C0140003401400050014000400140F5
:1037E0000044014000480140F0B5056A026A22F435
:1037F000807202624368C2691C4C1E4E22400C68F3
:1038000022F00302144325F400728D681A4F42EA35
:103810000522174DA84203D0B04201D0B84207D1CB
:10382000D1F80CC022F4006242EA0C2222F4806239
:10383000A8420CD0B0420AD0104DA84207D0104D7B
:10384000A84204D00F4DA84201D0B84207D14D691B
:1038500023F4405343EA05138D6943EA051343609B
:10386000C4614968C1630262F0BD00008FFFFEFFC2
:10387000002C014000340140005001400040014054
:103880000044014000480140F0B5056A026A22F494
:10389000805202624268C3691C4C1E4E23400C6871
:1038A00023F4407343EA042425F400538D681A4F2F
:1038B00043EA0533164DA84203D0B04201D0B842C6
:1038C00007D1D1F80CC023F4004343EA0C3323F4AE
:1038D0008043A8420CD0B0420AD0104DA84207D075
:1038E0000F4DA84204D00F4DA84201D0B84207D1D5
:1038F0004D6922F4404242EA85128D6942EA8512FE
:103900004260C461496801640362F0BDFF8FFFFE3D
:10391000002C0140003401400050014000400140B3
:10392000004401400048014030B5056A026A22F4B3
:10393000803202624268036D124C23400C681C43C3
:1039400025F400330D8943EA05430F4DA8420ED0FC
:103950000E4DA8420BD00E4DA84208D00D4DA842E6
:1039600005D00D4DA84202D00C4DA84204D14D699E
:1039700022F4803242EA052242600465496881648B
:10398000036230BD8FFFFEFF002C01400034014078
:103990000040014000440140004801400050014007
:1039A00030B5046A026A22F4801202624268036D32
:1039B000134D24F400142B400D6843EA05230D89B0
:1039C00044EA05540F4DA8420ED00F4DA8420BD02B
:1039D0000E4DA84208D00E4DA84205D00D4DA8426C
:1039E00002D00D4DA84204D14D6922F4802242EA52
:1039F0008522426003654968C164046230BD0000ED
:103A0000FF8FFFFE002C01400034014000400140C8
:103A100000440140004801400050014030B5416E73
:103A2000B9B1026891689268C1F342610B4B520FC1
:103A30009C5CE50003F10804A25CB5FBF2F2A0F87F
:103A40006A205A5C615CD200B2FBF1F1A0F8681008
:103A500030BD0121A0F86A10F8E7000062400008BC
:103A600090F82810090706D501684A68836B22F48C
:103A700000421A434A6090F82810C90706D001682E
:103A80004A68C36A22F400321A434A6090F8281048
:103A9000890706D501684A68036B22F480321A430D
:103AA0004A6090F82810490706D501684A68436BB8
:103AB00022F480221A434A6090F82810C90606D5DD
:103AC00001688A68C36B22F480521A438A6090F8B6
:103AD0002810890606D501688A68036C22F4005212
:103AE0001A438A6090F82810490611D501684A687F
:103AF000436C22F480121A434A60416CB1F5801F76
:103B000006D101684A68836C22F4C0021A434A60F5
:103B100090F82810090606D501684A68C06C22F49E
:103B2000002202434A6070472DE9F843002604460C
:103B3000C0F89060FDF7C4FE8046206800684FF032
:103B4000200500076FF07E4713D543460022290465
:103B50002046009700F0B4F958B1216851E8000FF1
:103B600020F0800041E80002002AF6D1C4F8885015
:103B700021E020680068400722D5434600224FF428
:103B800080012046009700F09BF9C8B1216851E8F8
:103B9000000F20F4907041E80002002AF6D120685E
:103BA000083050E8001F21F0010140E80012002A0F
:103BB000F5D1C4F88C5084F884600320BDE8F88304
:103BC000C4F88850C4F88C5044F86C6F6660267650
:103BD0000020F3E710B5026852E8001F21F490714D
:103BE00042E80013002BF6D10E4B0268083252E86F
:103BF000001F194042E80014002CF6D1C16E0129C3
:103C000008D1016851E8002F22F0100241E800239A
:103C1000002BF6D12021C0F88C100021C16641672D
:103C200010BD0000FEFFFFEF2DE9F04104460168E2
:103C300080682269E3691043626900251A431043D2
:103C4000DFF84CC20A68934B1A4002430A602068AE
:103C50004168E26821F44051114341602168A06944
:103C6000614501D0226A10438A688B4B1A40024397
:103C70008A602068C16A626A21F00F011143C16243
:103C80008649236886488B420DD1D0F8880010F011
:103C9000030006D0012867D0022854D0032851D150
:103CA00064E001204FE07F498B420BD1D0F88800BF
:103CB00010F00C0047D0042845D0082852D00C281A
:103CC00040D153E078498B420BD1D0F8880010F0F6
:103CD000300038D0102847D0202843D0302831D1A8
:103CE00044E072498B420BD1D0F8880010F0C0003C
:103CF00029D0402838D0802834D0C02822D135E0BF
:103D00006B498B420ED1D0F8880010F440701AD065
:103D1000B0F5807F28D0B0F5007F23D0B0F5407F8C
:103D200010D123E063450DD1D0F8880010F4406035
:103D300009D0B0F5806F17D0B0F5006F12D0B0F594
:103D4000406F13D010205B4A5B4F00264FF40041B8
:103D5000634539D160B102280DD004280DD0082860
:103D600031D10EE00220EEE70420ECE70820EAE77C
:103D7000FEF704F903E0114603E0FEF723F9010022
:103D80007BD0606A37F810206768B1FBF2F007EB70
:103D90004703834269D8B0EB073F66D80023084643
:103DA0001946FCF789FA090241EA10610202780813
:103DB000101871413A460023FCF77EFA3F4AA0F5FD
:103DC0004071914257D950E0E3694FF6EF788B424A
:103DD0002BD1092849D2DFE800F005080D48254815
:103DE00048480E00FEF7CAF801E0FEF7D9F80100D6
:103DF00001D142E01146606A37F81000B1FBF0F0E3
:103E00004100606801EB5001B1FBF0F1A1F110003D
:103E100040452AD84FF6F07201EA0200C1F3420190
:103E2000084328E0FEF7CEF8E1E709281DD2DFE8D5
:103E300000F005080D1C1E1C1C1C0E00FEF79EF851
:103E400001E0FEF7ADF8010001D116E01146606A0D
:103E500037F81000B1FBF0F1606801EB5001B1FBE5
:103E6000F0F0A0F11001414504D9012505E0FEF76D
:103E7000A9F8E8E780B22168C8600120A4F86A00C8
:103E800024F8680F2846E6602661BDE8F08100004E
:103E900000800040F369FFCFFFF4FF1100380140BC
:103EA000001002400044004000480040004C004028
:103EB000005000400024F4004A400008FFFC0F00BE
:103EC0002DE9F047994617460D4604464FF0000885
:103ED000089E33E0701C31D0FDF7F2FCA0EB090026
:103EE000B04218D8BEB120680168490726D5802D98
:103EF00024D0402D22D0C169C94309070DD408251B
:103F000005622046FFF766FEC4F8905084F884806E
:103F10000120BDE8F0870320FBE7C069C04300052E
:103F20000CD421684FF4006008622046FFF752FE6F
:103F30002020C4F8900084F88480ECE72068C069F1
:103F400035EA000004D00020B842C3D00020E0E7EA
:103F50000120F9E7FEE70907090E002804DB00F15C
:103F6000E02080F80014704700F00F0000F1E0201E
:103F700080F8141D70470000FDF7B0FCFFF7CEFA83
:103F8000FFF7F2F8FFF7ACF8FEF71CFFFEF770FF43
:103F9000FFF732F9FFF720FAFFF752FAFFF784FA3A
:103FA000FFF78CF9FFF7D6F9FFF71EF8FFF7B6F821
:103FB000FFF758F8FEF7B4FF02221A491A48FDF736
:103FC000D5F818490322091D1848FDF7CFF81549FF
:103FD00003220A311648FDF7C9F81648FEF756FBCA
:103FE00000211448FEF706FD00211248FEF7E8FA0A
:103FF0000C211048FEF7FEFC0C210E48FEF7E0FAFB
:1040000004210D48FEF7F6FC08210B48FEF7F2FCF0
:1040100000210A48FEF7EEFC04210848FEF7EAFCFE
:10402000FEE700000000002028000020940000208F
:1040300000010020C80300201404002060040020B8
:104040004FF04070E1EE100A7047010002000400DA
:10405000060008000A000C0010002000400080004C
:104060000001010101030701000008040204080126
:104070000101000000000000000001020304060727
:10408000080900000000010203040000AC40000821
:10409000000000202800000014020008D44000089E
:1040A00028000020A00C00003002000800000000E2
:1040B0000000000000000000000000000000000000
:1040C00000000000100000000100000000000000DF
:0440D0000024F400D4
:04000005080001D915
:00000001FF
