:020000040800F2
:10000000000002208D520008D5050008D705000821
:10001000D9050008DB050008DD0500080000000028
:10002000000000000000000000000000DF050008E4
:10003000E105000800000000E3050008E5050008F0
:10004000DD520008DD520008DD520008DD520008D4
:10005000DD520008DD520008DD520008DD520008C4
:10006000DD520008DD520008DD520008DD520008B4
:10007000DD520008DD520008DD520008DD520008A4
:10008000DD520008DD520008DD520008DD52000894
:10009000DD520008DD520008DD520008DD52000884
:1000A000DD520008DD520008DD520008DD52000874
:1000B000ED050008DD520008DD520008DD520008A1
:1000C000DD520008DD520008DD520008DD52000854
:1000D000DD520008DD520008DD520008DD52000844
:1000E000DD520008DD520008DD520008DD52000834
:1000F000DD520008DD520008DD520008DD52000824
:10010000DD520008DD520008FD050008DD52000840
:10011000DD520008DD520008DD520008DD52000803
:10012000DD520008DD520008DD520008DD520008F3
:10013000DD520008DD520008DD520008DD520008E3
:10014000DD520008DD520008DD520008000000000A
:10015000000000000000000000000000000000009F
:10016000000000000000000000000000DD52000858
:10017000DD520008DD520008DD520008DD520008A3
:10018000DD520008DD520008DD520008DD52000893
:10019000DD52000800000000DD520008DD520008BA
:1001A000DD520008DD520008DD520008DD52000873
:1001B000DD520008DD520008DD520008DD52000863
:1001C000DD520008DD520008DD520008DD52000853
:0801D000DD520008DD520008B9
:1001D80053B94AB9002908BF00281CBF4FF0FF31A6
:1001E8004FF0FF3000F00CB8ADF1080C6DE904CE0B
:1001F80005F09EF8DDF804E0DDE9022304B070475D
:10020800704700BF0348044B834202D0034B03B13D
:10021800184770470C0000200C0000200000000068
:100228000548064B1B1AD90F01EBA301491002D050
:10023800034B03B1184770470C0000200C00002046
:100248000000000010B5064C237843B9FFF7DAFF29
:10025800044B13B10448AFF300800123237010BD91
:100268000C00002000000000F455000808B5054BFC
:100278001BB105490548AFF30080BDE80840FFF70A
:10028800CFBF00BF0000000010000020F455000898
:1002980072B6FEE700B595B03822002106A805F031
:1002A8001AF80023019302930393049305934FF4E0
:1002B800007002F093F8022306934FF480720992BB
:1002C80040220A920D930E9304220F924B22109211
:1002D80011931293139306A801F0ECF880B90F2339
:1002E80001930323029300230393049305930421AA
:1002F8000DEB010001F094FB20B915B05DF804FB8B
:10030800FFF7C6FFFFF7C4FF2DE980488FB04FF015
:10031800FF430D93924F934B1F60BA1C924B1A6088
:10032800924C934B1C60934D934B1D60AA1C934BAE
:100338001A602A1D924B1A60043C924B1C60A21C46
:10034800914B1A60914E924B1E60B21C914B1A60F1
:1003580001F062F8FFF79EFF03F074FE04F084FAE0
:1003680003F0C8FE03F024FF04F07CFC04F08EFDCB
:1003780004F0C0FD04F0F2FD04F0E6FC04F03AFDE0
:1003880003F0E6FF04F092FA04F036F803F072FF87
:1003980004F0FAFA04F030FBDFF820B27F21584667
:1003A80000F0DAFEDFF818A27F21504600F0D4FEF4
:1003B800DFF810927F21484600F0CEFEDFF8088271
:1003C8007F21404600F0C8FE02223946584600F018
:1003D800D9FD03222946504600F0D4FD03222146C8
:1003E800484600F0CFFD02223146404600F0CAFDE3
:1003F800694C204602F092FA0021204602F09AFE4B
:100408000021204602F064FF0C21204602F092FEF3
:100418000C21204602F05CFF604C0421204602F0CB
:1004280089FE0821204602F085FE5D4C0021204609
:1004380002F080FE0421204602F07CFE594802F0BA
:10044800B3FA594802F0B0FA584803F0E3FD4FF404
:100458008073ADF808304FF48A7303930024049432
:1004680002210691099401944FF4A973009323463D
:1004780022464F4804F088FE01944FF49673009387
:100488002346224601214B4804F07EFE354B9B88CB
:1004980007EE903AF8EE677ACDED0C7A464C4FF4B9
:1004A8007A7304220CA9204603F0E8FA2E4B9B88A5
:1004B80007EE903AF8EE677ACDED0C7A4FF47A733E
:1004C80004220CA9204603F0D9FA294B9B8807EE91
:1004D800903AF8EE677ACDED0C7A4FF47A730422ED
:1004E8000CA9204603F0CAFA254B9B8807EE903AE0
:1004F800F8EE677ACDED0C7A4FF47A7304220CA9E2
:10050800204603F0BBFA1F4B9B8807EE903AF8EEA3
:10051800677ACDED0C7A4FF47A7304220CA9204641
:1005280003F0ACFA184B9B8807EE903AF8EE677A1E
:10053800CDED0C7A4FF47A7304220CA9204603F00F
:100548009DFA4FF47A7304220DA9204603F096FA17
:10055800114B1B6864225A6332221A6496E700BF63
:10056800B40000209800002090000020A80000207F
:1005780088000020AC0000208000002078000020C7
:10058800700000206800002060000020A00000200B
:100598005800002050000020F40500205C050020D1
:1005A80010050020A8050020C404002060040020D5
:1005B8003C0000202800002040060020F403002012
:1005C800880300201C030020B0020020FEE7FEE79D
:1005D800FEE7FEE7FEE770477047704708B500F092
:1005E8002BFF08BD08B5024802F02CFA08BD00BF71
:1005F800A805002008B5024802F024FA08BD00BF8B
:10060800C404002000B583B00B4B1A6E42F00102FF
:100618001A661A6E02F001020092009A9A6D42F070
:1006280080529A659B6D03F080530193019B01F002
:100638005BFF03B05DF804FB0010024010B43030DB
:100648000B0A9B0003F00C03C45801F01F014FF084
:100658001F0C0CFA01FC24EA0C0CC2F384628A40D9
:100668004CEA0202C2505DF8044B704710B41430D3
:100678004B0E9B0003F00403C458C1F304514FF020
:10068800070C0CFA01FC24EA0C0C8A404CEA020222
:10069800C2505DF8044B704730B583B00023019316
:1006A800002800F02B810446C36D13B323689A68B1
:1006B80012F0005F05D09A6822F0204222F03F0233
:1006C8009A602268936813F0805F1FD1936823F0C3
:1006D800104323F03F0343F080539360884B1B681B
:1006E8009B09884AA2FB03239B0901335B00019302
:1006F80009E003F0C5FE0023236684F85830D5E7E7
:10070800019B013B0193019B002BF9D1226893685F
:1007180013F0805F3DD1E36D43F01003E365236E72
:1007280043F0010323660120936813F0040300D00B
:100738000123E16D11F0100F40F0D980002B40F03B
:10074800D680E36D23F4817343F00203E365936875
:1007580013F0010F3ED1B2F1A04F1CD06A4B9A4260
:1007680019D06A4B996811F0010100D00121684B3A
:100778009B6813F0010300D001230B436549896886
:1007880011F0010100D001210B430CBF012300230C
:1007980012E00020C8E74FF0A043996811F001016A
:1007A80000D00121584B9B6813F0010300D00123AE
:1007B8000B430CBF0123002363B1B2F1A04F69D0F2
:1007C800514B9A4264D0544963688A6822F47C1277
:1007D80013438B60627FE36B43EA4233E26813435F
:1007E800A268134394F8242043EA0243012A53D011
:1007F800E26A22B102F47872216B0A43134321683A
:10080800CD68464A2A401A43CA602268136923F011
:100818004063616B0B4313612268936813F008030C
:1008280000D001232BBB237F94F83810490041EAFC
:100838008331D36823F4804323F002030B43D3604E
:10084800236973B32268136943F480331361226800
:10085800D2F8C0306FF30D0321690B43C2F8C030E2
:1008680094F84030012B29D02268136923F0010342
:1008780013616369012B31D02268136B23F00F03D6
:100888001363E36D23F0030343F00103E36533E0EF
:10089800234999E7224997E7A26A013A43EA424382
:1008A800A6E72268136923F4803313612268D2F81B
:1008B800C0306FF30D03C2F8C030D1E721680B696F
:1008C8006FF38A03626CA56C2A43E56C2A43256D95
:1008D8002A43134343F001030B61CAE721680B6BFA
:1008E80023F00F03226A013A13430B63C9E7E36D50
:1008F80043F01003E365012003B030BD0120FBE79E
:1009080008000020632D3E0500010050000400503F
:100918000005005000060050000700500740F0FF97
:10092800000300507047704708B5806AFFF7FBFF67
:1009380008BD704708B50346806AC26D12F0500FB3
:1009480030D1C36D43F40073C36503681A6812F0AD
:10095800080F14D0DA6812F4406F20D1DB6813F462
:10096800005F1CD1C36D23F48073C365C36D13F49A
:10097800805F14D1C36D43F00103C3650FE0DB68EA
:1009880013F0020F0BD1C36D23F48073C365C36DDD
:1009980013F4805F03D1C36D43F00103C365FFF710
:1009A800C1FF08BDC26D12F0100F04D1426D526B29
:1009B80018469047F5E7FFF7BCFFF2E708B5806AED
:1009C800C36D43F04003C365036E43F0040303663D
:1009D800FFF7AFFF08BD0000F0B583B00023019317
:1009E80090F85830012B00F0428204460D4601234E
:1009F80080F858300068836813F0040F09D0E36D5D
:100A080043F02003E3650120002384F8583003B045
:100A1800F0BD0A684968FFF711FE2068836813F083
:100A2800040300D00123866816F0080600D00126CA
:100A3800002B3ED1002E3CD1AA68B2F1004F78D0ED
:100A48002968FFF713FE2268536923F000435361B6
:100A580069692268D368C3F3C1035B0099402869B8
:100A6800042873D0603252F82070AB4B3B402F689B
:100A780007F0F84C41EA0C010B4343F0004342F8FD
:100A8800203023682869AA69603353F8201021F0C0
:100A980080710A4343F82020236829692A7F012AA4
:100AA80051D0603353F8212022F00072324343F8CA
:100AB80021202268936813F0010F16D12B68E8688B
:100AC800D2F8B010C3F3120621EA060100F01806A6
:100AD8009248F0400340C3F312030B43C2F8B0300E
:100AE800EA688F4B9A4200F099802B688D4A13422E
:100AF80000F0B7812268B2F1A04F00F050818A4916
:100B08008A4200F049818949896801F0E070884D7E
:100B1800AB4200F04681874DAB4200F04281864DE2
:100B2800AB4200F07181854DAB4200F08581002019
:100B38006AE700222968FFF799FD2268536943F0A4
:100B48000043536184E74FF00076AAE7136E116EF5
:100B5800C1F384612B68C3F3120080BBC3F38463C1
:100B6800994234D021684B6E4A6EC2F384622B6876
:100B7800C3F3120080BBC3F384639A4234D0216864
:100B88008B6E8A6EC2F384622B68C3F3120080BB3B
:100B9800C3F384639A4234D02168CB6ECA6EC2F321
:100BA80084622B68C3F3120080BBC3F384639A4248
:100BB8007FF47FAFCB6E23F00043CB6679E793FADF
:100BC800A3F313B1B3FA83F3CAE72023C8E7136E7C
:100BD80023F000431366C5E793FAA3F313B1B3FAFE
:100BE80083F3CAE72023C8E74B6E23F000434B6624
:100BF800C5E793FAA3F313B1B3FA83F3CAE7202343
:100C0800C8E78B6E23F000438B66C5E793FAA3F31E
:100C180013B1B3FA83F3CAE72023C8E720682B6827
:100C2800C3F3120626BB9A0E013202F01F02092AEC
:100C38008CBF00220122002A52D046BB990E0131F6
:100C4800890601F0F84176BB9F0E013707F01F07B0
:100C58000122BA401143AEBB9B0E013303F01F03C0
:100C680003EB43031B051943AA68FFF7FFFC3CE7A6
:100C780093FAA3F24AB1B2FA82F2013202F01F02E9
:100C8800092A8CBF00220122D5E72022F5E793FA32
:100C9800A3F131B1B1FA81F10131890601F0F841CE
:100CA800D1E72021F8E793FAA3F24AB1B2FA82F227
:100CB800013202F01F024FF0010C0CFA02F2C9E7F0
:100CC8002022F5E793FAA3F343B1B3FA83F3013390
:100CD80003F01F0303EB43031B05C4E72023F6E7D8
:100CE80076BB990E0131890601F0F841A6BB9F0E2B
:100CF800013707F01F070122BA401143DEBB9B0EE4
:100D0800013303F01F0303EB43031E3B1B0543F0B2
:100D180000731943A8E700BF00F0FF03FFFF0700B7
:100D280000007F40000008800001005000070050CC
:100D3800000021C31000C090000052C7000084CBFF
:100D480093FAA3F131B1B1FA81F10131890601F0C9
:100D5800F841CBE72021F8E793FAA3F24AB1B2FAB7
:100D680082F2013202F01F024FF0010C0CFA02F27B
:100D7800C3E72022F5E793FAA3F35BB1B3FA83F351
:100D8800013303F01F0303EB43031E3B1B0543F032
:100D98000073BEE72023F3E701F50071B4E6354997
:100DA800B2E611F4000F7FF4BAAEB2F1A04F04D04E
:100DB800314B9A4201D0002026E6B2F1A04F19D05B
:100DC8002E4B9A4214D02E4A40F40000936823F028
:100DD800E073184390602B4B1B689B092A4AA2FBBF
:100DE80003239B09013303EB43039B00019306E0B4
:100DF800204AE9E71F4AE7E7019B013B0193019B72
:100E0800002BF9D10020FFE511F0807F7FF48BAE35
:100E1800B2F1A04F0ED0194B9A4209D0184A40F0AF
:100E28008070936823F0E073184390600020EBE52E
:100E3800104AF4E70F4AF2E711F4800F13D10F4B71
:100E48009A4212D0B2F1A04F09D00D4940F4800364
:100E58008A6822F0E07213438B600020D4E50549CC
:100E6800F4E70020D0E50020CEE50020CCE5022004
:100E7800CDE500BF000300500006005000010050FF
:100E88000007005008000020632D3E0530B583B0F0
:100E98000023019303689A6812F0010F63D1044696
:100EA8009968324A114220D19A6822F0004222F011
:100EB8003F0242F001029A600368B3F1A04F20D0CC
:100EC8002B4A93421BD02B4B9B6813F4000F20D066
:100ED800294B1B689B09294AA2FB03239B09013361
:100EE80003EB43039B00019310E0C36D43F0100331
:100EF800C365036E43F001030366012034E0204B11
:100F0800E2E71F4BE0E7019B013B0193019B002BAC
:100F1800F9D100F09DFA054623681A6812F0010F0E
:100F28001FD19A6812F0010F07D19A6822F0004287
:100F380022F03F0242F001029A6000F089FA431B56
:100F4800022BE9D923681B6813F0010FE4D1E36D84
:100F580043F01003E365236E43F001032366012089
:100F680002E0002000E0002003B030BD3F00008018
:100F7800000100500007005008000020632D3E05C6
:100F8800000300502DE9F04104460F4690460068E2
:100F9800B0F1A04F6ED0444B984268D0434B9E6846
:100FA80006F01F06856815F0040F77D194F85830BD
:100FB800012B76D0012384F858303D4B984207D056
:100FC800092E66D840F22123F34013F0010F60D0B8
:100FD8002046FFF75BFF002857D1E36D23F47063C9
:100FE80023F0010343F48073E36523682E4A934298
:100FF80045D002F5806293423ED01A46934200D013
:101008001EB9E36D23F48013E365E36D13F4805F89
:1010180038D0236E23F006032366636D254ADA620F
:10102800636D254A1A63636D244A5A6323681C2238
:101038001A60002384F858302268536843F010037C
:1010480053602268D36843F00103D36021684346A4
:101058003A464031606D01F077F92268936823F0D1
:10106800004323F03F0343F00403936017E003F5C4
:10107800007394E7124B92E7A2F58072BEE74FF037
:10108800A042BBE700232366C7E7002384F8583053
:1010980005E0002384F85830012000E00220BDE874
:1010A800F0810220FBE700BF00010050000700505C
:1010B800000600503D09000831090008C50900086C
:1010C8000003005038B504460268936813F0020321
:1010D80000D00123916811F0010F39D0002B39D1CC
:1010E800936803F00D03012B09D0E36D43F010035F
:1010F800E365236E43F001032366012029E093682A
:1011080023F0004323F03F0343F002039360236876
:1011180003221A6000F09CF9054623689B6813F0C7
:10112800010F13D000F094F9401B0228F5D9236869
:101138009B6813F0010FF0D0E36D43F01003E365F3
:10114800236E43F001032366012002E0002000E043
:10115800002038BD0020FCE730B583B000230193A0
:1011680090F85830012B41D004460D46012380F8F1
:101178005830FFF7A7FF80BBE36D23F4885323F0B3
:10118800020343F00203E3652268936823F04043B7
:1011980023F03F0305F080452B4343F00043936061
:1011A80023689B68002B06DBE36D23F0030343F001
:1011B8000103E36515E0019B01330193019A0C4B90
:1011C8009A42EDD9E36D23F0120343F01003E3656F
:1011D800002384F85830012006E0E36D43F0100343
:1011E800E365002384F8583003B030BD0220FBE7E4
:1011F80001DE040090F85820012A00F0D68010B4CF
:101208009DB00346012280F85820002218921992B6
:101218000068B0F1A04F47D0654A904247D00022FD
:101228000192019A002A46D0926812F0040200D076
:101238000122846814F0040F40F0A780002A40F0CF
:10124800A480B0F1A04F42D05A4A90423CD05A4AAA
:10125800086800285CD0906820F460404C6893F8D7
:1012680038C044EA4C34204390601868B0F1A04F6D
:101278002FD0504CA0422CD04D48846814F0010463
:1012880000D001244D48806810F0010000D00120F2
:1012980020434B4CA46814F0010400D001242043DF
:1012A8000CBF0120002025E0424A0192B9E702F56F
:1012B80080720192B5E7DA6D42F02002DA65002209
:1012C80083F85820012068E002F50072C0E73D4A23
:1012D800BEE74FF0A040846814F0010400D0012458
:1012E8003448806810F0010000D0012020430CBF72
:1012F80001200020002854D0906820F4716020F06C
:101308000F000C688968214308439060002041E081
:10131800916821F4604191601968B1F1A04F1AD029
:101328002448814217D02249886810F0010000D073
:1013380001202249896811F0010100D001210143EF
:101348001F48806810F0010000D0012001430CBF45
:101358000121002110E04FF0A041886810F0010041
:1013680000D001201349896811F0010100D0012142
:1013780001430CBF01210021A9B1916821F47161D9
:1013880021F00F019160002004E0DA6D42F02002A4
:10139800DA650120002283F858201DB05DF8044B5F
:1013A80070470020F6E70020F4E70220704700BFEE
:1013B80000040050000100500007005000050050D4
:1013C8000006005000030050104B1B680BB90120A9
:1013D800704710B504464FF47A70B0FBF3F30C4A2B
:1013E8001068B0FBF3F001F0EFF868B90F2C01D9E1
:1013F80001200AE0002221464FF0FF3001F0D0F82A
:10140800044B1C60002000E0012010BD00000020FB
:10141800080000200400002010B5032001F0AEF8F9
:101428000F20FFF7D1FF10B10124204610BD04465C
:10143800FFF7E8F8F9E70000034A13680349096869
:101448000B441360704700BFB80000200000002064
:10145800014B1868704700BFB8000020124BDA68CB
:1014680002F00302DB68C3F303130133032A11D02C
:101478000E48B0FBF3F00C4BDB68C3F3062303FB09
:1014880000F0094BDB68C3F3416301335B00B0FB39
:10149800F3F070470648B0FBF3F0034BDB68C3F387
:1014A800062303FB00F0ECE7001002400024F400E0
:1014B800006CDC02002800F04F8270B582B0044650
:1014C800036813F0010F37D0A44A936803F00C03A4
:1014D800D26802F003020C2B23D0082B23D06368B8
:1014E800B3F5803F4ED0B3F5A02F51D09B4B1A686F
:1014F80022F480321A601A6822F480221A60636823
:10150800002B52D0FFF7A4FF0546944B1B6813F439
:10151800003F11D1FFF79CFF401B6428F5D9032039
:1015280023E2032AD9D18D4B1B6813F4003F03D063
:101538006368002B00F01282236813F0020F5DD05D
:10154800864A936803F00C03D26802F003020C2B5E
:101558003AD0042B3AD0E368002B75D07F4A136841
:1015680043F480731360FFF773FF05467B4B1B68DA
:1015780013F4806F5FD1FFF76BFF401B0228F5D98A
:101588000320F2E1754A136843F480331360B6E729
:1015980003F18043A3F53C331A6842F480221A60B1
:1015A8001A6842F480321A60A9E7FFF751FF05462E
:1015B8006A4B1B6813F4003FBED0FFF749FF401B7E
:1015C8006428F5D90320D0E1022AC2D1634B1B68F5
:1015D80013F4806F03D0E368002B00F0C1815F4AE9
:1015E800536823F0FE43216943EA016353605C4B6F
:1015F8001868FFF7E9FE002840F0B481236813F06B
:10160800080F4CD063699BB3544AD2F8943043F026
:101618000103C2F89430FFF71BFF05464F4BD3F880
:10162800943013F0020F3AD1FFF712FF401B022843
:10163800F4D9032099E1494A536823F0FE4321690C
:1016480043EA01635360D9E7444A136823F480737B
:101658001360FFF7FDFE0546404B1B6813F4806FCF
:10166800CCD0FFF7F5FE401B0228F5D903207CE11A
:101678003A4AD2F8943023F00103C2F89430FFF7C5
:10168800E7FE0546354BD3F8943013F0020F06D029
:10169800FFF7DEFE401B0228F4D9032065E123682A
:1016A80013F0040F00F081802C4B9B6D13F0805FCA
:1016B80036D12A4B9A6D42F080529A659B6D03F0A1
:1016C80080530193019B0125264B1B6813F4807FEF
:1016D80028D0A368012B39D0052B45D01F4BD3F850
:1016E800902022F00102C3F89020D3F8902022F035
:1016F8000402C3F89020A368002B43D0FFF7A8FE8C
:101708000646164BD3F8903013F0020F4CD1FFF772
:101718009FFE801B41F288339842F2D9032024E1CE
:101728000025D1E70F4A136843F480731360FFF76D
:101738008FFE06460B4B1B6813F4807FC9D1FFF759
:1017480087FE801B0228F5D903200EE1034AD2F850
:10175800903043F00103C2F89030CCE7001002400B
:101768000400002000700040884BD3F8902042F01D
:101778000402C3F89020D3F8902042F00102C3F885
:101788009020B8E7FFF764FE0646804BD3F8903008
:1017980013F0020F08D0FFF75BFE801B41F288337D
:1017A8009842F2D90320E0E0E5B9236813F0200F4E
:1017B80035D0A369E3B1754AD2F8983043F00103F4
:1017C800C2F89830FFF744FE0546704BD3F89830BE
:1017D80013F0020F23D1FFF73BFE401B0228F4D978
:1017E8000320C2E0694A936D23F080539365DCE7D8
:1017F800664AD2F8983023F00103C2F89830FFF710
:1018080027FE0546614BD3F8983013F0020F06D037
:10181800FFF71EFE401B0228F4D90320A5E0E36968
:10182800002B00F0A180594A926802F00C020C2AA1
:1018380064D0022B13D0554A136823F080731360C9
:10184800FFF706FE0446514B1B6813F0007F4ED08D
:10185800FFF7FEFD001B0228F5D9032085E04B4A5F
:10186800136823F080731360FFF7F2FD0546474BBA
:101878001B6813F0007F06D0FFF7EAFD401B022823
:10188800F5D9032071E0414AD36841491940236AD8
:10189800606A013843EA0013A06A43EA0023206B18
:1018A8004008013843EA4053606B4008013843EA76
:1018B8004063E06A43EAC0631943D160136843F0A8
:1018C80080731360D36843F08073D360FFF7C0FD63
:1018D80004462E4B1B6813F0007F06D1FFF7B8FDB6
:1018E800001B0228F5D903203FE000203DE0274AED
:1018F800D168284B0B40D360002036E0012B36D04E
:10190800224BDB6803F00301226A914231D103F0D4
:10191800F002616A0139B2EB011F2CD103F4FE42D7
:10192800A16AB2EB012F28D103F07842E16AB2EB49
:10193800C16F24D103F4C001226B5208013AB1EB04
:10194800425F1ED103F0C063626B5208013AB3EBE9
:10195800426F18D1002008E001207047012004E000
:10196800012002E0012000E0002002B070BD01204B
:10197800FBE70120F9E70120F7E70120F5E701205F
:10198800F3E70120F1E70120EFE700BF0010024074
:101998000C809F01FCFFEEFE1E4B9B6803F00C03BE
:1019A800042B33D01B4B9B6803F00C03082B2FD060
:1019B800184B9B6803F00C030C2B01D000207047D8
:1019C800144BDA6802F00302DB68C3F30313013334
:1019D800032A11D01048B0FBF3F00E4BDB68C3F3B9
:1019E800062303FB00F00B4BDB68C3F341630133B1
:1019F8005B00B0FBF3F070470848B0FBF3F0054B11
:101A0800DB68C3F3062303FB00F0ECE702487047EA
:101A180002487047001002400024F400006CDC0209
:101A2800002800F0E680F8B50C460546744B1B68A4
:101A380003F00F038B420BD2714A136823F00F0394
:101A48000B431360136803F00F038B4240F0D380FD
:101A58002E6816F001065FD06B68032B2FD0022B7F
:101A68004DD0684B1B6813F4806F00F0C680FFF7F9
:101A780093FF654B98424DD9624A936823F0F0036F
:101A880043F08003936080265E4A936823F0030343
:101A980069680B439360FFF7DBFC0746594B9B686B
:101AA80003F00C036A68B3EB820F35D0FFF7D0FC64
:101AB800C01B41F288339842F0D9032078E0514B9B
:101AC8001B6813F0007F01D1012071E0FFF7C6FC0D
:101AD8004D4B98421AD94B4B9B6813F0F00F05D029
:101AE8002E6816F00206CFD0AB688BB9454A9368CA
:101AF80023F0F00343F0800393608026C4E7414B52
:101B08001B6813F4003FB2D1012051E00026BBE767
:101B18000026B9E70026B7E72B6813F0020F48D074
:101B280013F0040F04D0374A936843F4E0639360DA
:101B38002B6813F0080F06D0324A936823F47C53BD
:101B480043F4E06393602F4A936823F0F003A96895
:101B58000B4393602A4B1B6803F00F03A34230D852
:101B68002B6813F0040F06D0264A936823F4E06329
:101B7800E9680B4393602B6813F0080F07D0214ADC
:101B8800936823F46053296943EAC1039360FFF71C
:101B980003FF1C4B9B68C3F303131C4AD35C03F07D
:101BA8001F03D8401A4B18601A4B1868FFF70CFC33
:101BB800F8BD802ECED1134A936823F0F0039360CA
:101BC800C8E70F4A136823F00F0323431360FFF796
:101BD8003FFC06460A4B1B6803F00F03A342BFD025
:101BE800FFF736FC801B41F288339842F2D9032074
:101BF800DEE7012070470120DAE70120D8E700BFBF
:101C0800002002400010024000B4C4043C56000802
:101C18000800002004000020014B1868704700BF2E
:101C28000800002008B5FFF7F7FF054B9B68C3F3D2
:101C38000223044AD35C03F01F03D84008BD00BF49
:101C4800001002403456000808B5FFF7E5FF054BC1
:101C58009B68C3F3C223044AD35C03F01F03D84034
:101C680008BD00BF0010024034560008F0B583B02C
:101C78000446036813F4002F6ED0354B9B6D13F0A8
:101C8800805F1ED1324B9A6D42F080529A659B6DEF
:101C980003F080530193019B01262E4A136843F4F5
:101CA80080731360FFF7D4FB05462A4B1B6813F4B7
:101CB800807F08D1FFF7CCFB401B0228F5D903250C
:101CC80002E00026E9E7002545BB214BD3F8903018
:101CD80013F4407315D0226D9A4212D01C4AD2F8E0
:101CE800903023F44073D2F8901041F48031C2F858
:101CF8009010D2F8901021F48031C2F89010C2F8F8
:101D0800903013F0010F10D145B9114AD2F8903034
:101D180023F44073216D0B43C2F89030EEB10C4AA6
:101D2800936D23F08053936517E0FFF791FB074607
:101D3800074BD3F8903013F0020FE5D1FFF788FB7B
:101D4800C01B41F288339842F2D90325DCE700BF73
:101D580000100240007000400025236813F0010FB6
:101D680008D09F4AD2F8883023F0030361680B43F8
:101D7800C2F88830236813F0020F08D0984AD2F8C6
:101D8800883023F00C03A1680B43C2F8883023681D
:101D980013F0040F08D0924AD2F8883023F03003A9
:101DA800E1680B43C2F88830236813F0080F08D0A5
:101DB8008B4AD2F8883023F0C00321690B43C2F85C
:101DC8008830236813F0100F08D0854AD2F888307D
:101DD80023F4407361690B43C2F88830236813F019
:101DE800200F08D07E4AD2F8883023F44063A169D6
:101DF8000B43C2F88830236813F0400F08D0784AA4
:101E0800D2F8883023F44053E1690B43C2F8883094
:101E1800236813F0800F08D0714AD2F8883023F471
:101E28004043216A0B43C2F88830236813F4807F4B
:101E380008D06B4AD2F8883023F44033616A0B43E8
:101E4800C2F88830236813F4003F08D0644AD2F8F7
:101E58009C3023F00303A16A0B43C2F89C3023682B
:101E680013F4007F08D05E4AD2F8883023F4402368
:101E7800E16A0B43C2F88830236813F4806F0CD0F2
:101E8800574AD2F8883023F44013216B0B43C2F829
:101E98008830236BB3F5801F79D0236813F4006F63
:101EA8000CD04F4AD2F8883023F44003616B0B43BF
:101EB800C2F88830636BB3F5800F6DD0236813F4D4
:101EC800805F0CD0464AD2F8883023F04073A16B6B
:101ED8000B43C2F88830A36BB3F1807F61D02368CD
:101EE80013F4005F0CD03E4AD2F8883023F04063E8
:101EF800E16B0B43C2F88830E36BB3F1006F55D048
:101F0800236813F4804F0CD0354AD2F8883023F078
:101F18004063216C0B43C2F88830236CB3F1006F27
:101F280049D0236813F4004F0CD02D4AD2F88830DA
:101F380023F04053616C0B43C2F88830636CB3F1F3
:101F4800805F3DD0236813F4803F0CD0244AD2F838
:101F5800883023F04043A16C0B43C2F88830A36C4F
:101F6800B3F1804F31D0236813F4802F0CD01C4A72
:101F7800D2F89C3023F44013E16C0B43C2F89C3038
:101F8800E36CB3F5001F25D0284603B0F0BDD36835
:101F980043F48013D36080E7D36843F48013D3609D
:101FA8008CE7D36843F48013D36098E7D36843F48D
:101FB8008013D360A4E7D36843F48013D360B0E7F9
:101FC800D36843F48033D360BCE7D36843F48033E9
:101FD800D360C8E7D36843F48013D360D4E700BF65
:101FE80000100240F0B583B0002362E085685E000F
:101FF8000324B44025EA0405CC68B4402C4384602B
:10200800456825EA0C054C68C4F300149C402C4331
:1020180044605FE0DD08083550F8254003F0070C00
:102028004FEA8C0C4FF00F0E0EFA0CFE24EA0E0E3F
:102038000C6904FA0CF444EA0E0440F8254060E008
:10204800052400E0002404FA0EF42C430CF1020CE1
:10205800554D45F82C40554CA568D44325EA020651
:102068004F6817F4801F01D042EA05064F4DAE6055
:10207800ED6804EA05064F6817F4001F01D042EA2C
:1020880005064A4DEE606D6804EA05064F6817F4C8
:10209800003F01D042EA0506444D6E602D682C4091
:1020A8004E6816F4803F01D042EA05043F4A1460A6
:1020B80001330A6832FA03F474D04FF0010C0CFAB9
:1020C80003FC1CEA0202F3D04C6804F00304013C50
:1020D800012C8BD94C6804F00304032C0CD0C46881
:1020E8005D004FF0030C0CFA05FC24EA0C0C8C681C
:1020F800AC4044EA0C04C4604C6804F00304022CAD
:1021080088D004684FEA430E4FF0030C0CFA0EFC1B
:1021180024EA0C0C4C6804F0030404FA0EF444EAB4
:102128000C0404604C6814F4403FC1D0204C256E68
:1021380045F001052566246E04F001040194019C14
:102148004FEA930C0CF10205174C54F8255003F094
:10215800030E4FEA8E0E0F2404FA0EF425EA040546
:10216800B0F1904F3FF46EAF124CA04212D004F57C
:102178008064A04210D004F58064A0420ED004F51B
:102188008064A0420CD004F58064A0423FF458AFAC
:10219800062458E7012456E7022454E7032452E7AB
:1021A800042450E703B0F0BD0000014000040140E2
:1021B80000100240000400480AB181617047816242
:1021C800704730B4C46C056D6560446D14B1846D9E
:1021D800C56D6560446C04F01F0C012404FA0CF40E
:1021E800056C6C60046863608368102B05D0036815
:1021F80099600368DA6030BC704703689A600368C6
:10220800D960F8E703680C4A934213D80B49DBB24C
:10221800083B0B4AA2FB0323426C22F003020A4448
:102228008264084AC264C3F30413012202FA03F366
:10223800036570470449EAE70704024000080240C2
:10224800CDCCCCCC80080240200802400379074A54
:102258001A4492004265064A8265013B03F01F0357
:10226800012202FA03F3C365704700BF3F820010E2
:1022780040090240002859D010B5044602682C4B8A
:102288009A423BD82B4B13442B49A1FB03131B0940
:102298009B004364294B0364022384F825301168AA
:1022A8006FF30E11A368E068034320690343606974
:1022B8000343A0690343E0690343206A03430B43D4
:1022C80013602046FFF79EFFA368B3F5804F20D028
:1022D800A36C22791A60E36C226D5A606368013B33
:1022E800032B19D900236365A365E3650020E06328
:1022F800012384F8253084F8240010BD104B1344C2
:102308000D49A1FB03131B099B0043640D4B036498
:10231800C2E700236360DBE72046FFF797FF636DA2
:1023280000221A60A36DE26D5A60DFE70120704752
:1023380007040240F8FFFDBFCDCCCCCC0000024022
:10234800F8FBFDBF0004024038B5044690F82400AD
:10235800012841D0012084F8240094F82500C0B257
:10236800012804D0002384F82430022038BD02203C
:1023780084F825000020E0632568286820F0010023
:1023880028602046FFF71DFF236BD3B1226813682E
:1023980043F00E031360A36C1A6812F4803F03D055
:1023A8001A6842F480721A60636D1BB11A6842F4AD
:1023B80080721A602268136843F0010313600020DA
:1023C800D4E72268136823F00403136022681368B3
:1023D80043F00A031360DEE70220C7E7002836D17E
:1023E8003E4B1B6803F4C063B3F5806F08D03B4ACB
:1023F800D2F8803023F48073C2F880300020704710
:10240800364AD2F8803023F48073C2F880301368DB
:1024180023F4C06343F400731360314B1B6832220A
:1024280002FB03F32F4AA2FB03239B0C013300E0BA
:10243800013B2A4A526912F4806F01D0002BF7D170
:10244800264B5B6913F4806F44D100207047B0F5C8
:10245800007F08D0214A136823F4C06343F48063E3
:102468001360002070471D4B1B6803F4C063B3F56D
:10247800806F08D0194AD2F8803043F48073C2F8CC
:10248800803000207047154AD2F8803043F48073BA
:10249800C2F88030136823F4C06343F400731360F8
:1024A8000F4B1B68322202FB03F30E4AA2FB0323E5
:1024B8009B0C013300E0013B084A526912F4806F1B
:1024C80001D0002BF7D1054B5B6913F4806F03D162
:1024D80000207047032070470320704700700040B9
:1024E8000800002083DE1B43024A936843F48043BC
:1024F8009360704700700040002807DB00F01F025F
:10250800400901239340024A42F82030704700BF37
:1025180000E100E0002808DB0901C9B200F16040D1
:1025280000F5614080F80013704700F00F000901C2
:10253800C9B2014B1954704714ED00E000B500F022
:102548000700C0F1070CBCF1040F28BF4FF0040CC2
:10255800031D062B0FD9C31E4FF0FF3E0EFA0CF0D9
:1025680021EA000199400EFA03FE22EA0E0241EA2E
:1025780002005DF804FB0023EEE70000074AD36879
:1025880023F4E0631B041B0C000200F4E060034327
:1025980043F0BF6343F40033D360704700ED00E0BD
:1025A80010B50446054BD868C0F30220FFF7C6FFF4
:1025B80001462046FFF7AEFF10BD00BF00ED00E06A
:1025C80008B5FFF799FF08BD0138B0F1807F0BD23D
:1025D8004FF0E0235861054AF02182F823100020CB
:1025E800986107221A6170470120704700ED00E0EA
:1025F80030B4026A036A23F0010303624468836902
:1026080023F4803323F073030D681D4322F0020284
:102618008B681343204A904213D002F5006290421F
:102628000FD002F5406290420BD002F580629042D2
:1026380007D002F58062904203D002F50062904212
:1026480005D123F00803CA681A4322F00403124A8A
:10265800904213D002F5006290420FD002F540621A
:1026680090420BD002F58062904207D002F580625A
:10267800904203D002F50062904205D124F44074E0
:102688004A6922438C691443446085614A684263FD
:10269800036230BC704700BF002C014030B4036AAD
:1026A800026A22F4807202624468C26922F48032AB
:1026B80022F073020D68154323F400738A6843EA15
:1026C80002231C4A904207D002F50062904203D0D0
:1026D80002F5E052904206D123F40063CA6843EA47
:1026E800022323F48063134A904213D002F5006258
:1026F80090420FD002F5406290420BD002F5806202
:10270800904207D002F58062904203D002F5006241
:10271800904207D124F440524C6942EA04128C6971
:1027280042EA04144460C5614A68C263036230BC6B
:10273800704700BF002C014030B4036A026A22F4DB
:10274800805202624468C26922F0807222F4E64232
:102758000D6842EA052223F400538D6843EA0533E5
:102768001B4DA84207D005F50065A84203D005F522
:10277800E055A84206D123F40043CD6843EA053367
:1027880023F48043124DA84213D005F50065A842F2
:102798000FD005F54065A8420BD005F58065A84225
:1027A80007D005F58065A84203D005F50065A84265
:1027B80007D124F4404C4C694CEA841C8C694CEADF
:1027C80084144460C2614A680264036230BC704782
:1027D800002C014030B4036A026A22F4803202629B
:1027E8004468026D22F4803222F070020D681543AD
:1027F80023F400338A6843EA0243114A904213D013
:1028080002F5006290420FD002F5406290420BD070
:1028180002F58062904207D002F58062904203D0B0
:1028280002F50062904204D124F480344A6944EAF3
:102838000224446005654A688264036230BC7047BC
:10284800002C014030B4036A026A22F4801202624A
:102858004468026D22F0807222F4E0420D6842EA78
:10286800052223F400138D6843EA0553114DA8424D
:1028780013D005F50065A8420FD005F54065A842BC
:102888000BD005F58065A84207D005F58065A842FC
:1028980003D005F50065A84204D124F480244D69CD
:1028A80044EA8524446002654A68C264036230BC15
:1028B800704700BF002C014010B4036A046A24F07A
:1028C80001040462846924F0F00C4CEA021223F03B
:1028D8000A030B43826103625DF8044B704710B42E
:1028E800036A046A24F010040462846924F4704CB6
:1028F8004CEA023223F0A00343EA01138261036227
:102908005DF8044B7047836823F4401323F0700389
:102918000B4343F0070383607047000090F83D3095
:10292800DBB2012B35D1022380F83D3003681C4A05
:10293800934220D0B3F1804F1DD0A2F59432934238
:1029480019D002F58062934215D002F58062934255
:1029580011D002F5943293420DD002F540629342B1
:1029680009D002F58052934205D01A6842F001025C
:102978001A600020704799680A4A0A40062A0AD055
:10298800B2F5803F09D01A6842F001021A600020AF
:10299800704701207047002070470020704700BF33
:1029A800002C01400700010090F83D30DBB2012BFC
:1029B8003AD1022380F83D300268D36843F001031E
:1029C800D36003681B4A934220D0B3F1804F1DD0D7
:1029D800A2F59432934219D002F58062934215D041
:1029E80002F58062934211D002F5943293420DD0E1
:1029F80002F54062934209D002F58052934205D015
:102A08001A6842F001021A600020704799680A4A61
:102A18000A40062A0AD0B2F5803F09D01A6842F067
:102A280001021A600020704701207047002070479B
:102A380000207047002C01400700010070477047D4
:102A48007047704770B505460368DE681C6914F066
:102A5800020F10D016F0020F0DD06FF002021A61AB
:102A68000123037703689B6913F0030F7CD0FFF7FA
:102A7800E6FF00232B7714F0040F12D016F0040F92
:102A88000FD02B686FF004021A6102232B772B6892
:102A98009B6913F4407F6DD02846FFF7D0FF0023D1
:102AA8002B7714F0080F12D016F0080F0FD02B68F0
:102AB8006FF008021A6104232B772B68DB6913F087
:102AC800030F5ED02846FFF7BAFF00232B7714F0D8
:102AD800100F12D016F0100F0FD02B686FF01002E5
:102AE8001A6108232B772B68DB6913F4407F4FD0DA
:102AF8002846FFF7A4FF00232B7714F0010F02D01C
:102B080016F0010F4BD114F4025F02D016F0800FBB
:102B18004DD114F4807F02D016F0800F4FD114F0FD
:102B2800400F02D016F0400F51D114F0200F02D000
:102B380016F0200F53D114F4801F02D016F4801F12
:102B480055D114F4001F02D016F4001F57D114F405
:102B5800800F02D016F4800F59D114F4000F02D060
:102B680016F4000F5BD170BDFFF768FF2846FFF72A
:102B780067FF7EE72846FFF761FF2846FFF760FFFB
:102B88008DE72846FFF75AFF2846FFF759FF9CE7CD
:102B98002846FFF753FF2846FFF752FFABE72B689D
:102BA8006FF001021A61284602F03EFBABE72B6882
:102BB8006FF402521A61284600F0B7FCA9E72B68A7
:102BC8006FF480721A61284600F0B0FCA7E72B6802
:102BD8006FF040021A612846FFF733FFA5E72B681C
:102BE8006FF020021A61284600F09EFCA3E72B68CC
:102BF8006FF480121A61284600F099FCA1E72B684F
:102C08006FF400121A61284600F092FC9FE72B68C7
:102C18006FF480021A61284600F08BFC9DE72B6850
:102C28006FF400021A61284600F084FC9BE700005C
:102C380003683A4A904216D0B0F1804F13D0A2F5FB
:102C4800943290420FD002F5806290420BD002F588
:102C58008062904207D002F59432904203D002F588
:102C6800E052904203D123F070034A6813432B4A81
:102C7800904222D0B0F1804F1FD0A2F594329042FA
:102C88001BD002F58062904217D002F58062904214
:102C980013D002F5943290420FD002F54062904270
:102CA8000BD002F58062904207D002F58062904214
:102CB80003D002F50062904203D123F44073CA683E
:102CC800134323F080034A69134303608B68C3628C
:102CD8000B688362114B984213D003F50063984246
:102CE8000FD003F5406398420BD003F580639842F8
:102CF80007D003F58063984203D003F50063984238
:102D080001D10B69036301234361036913F0010FC8
:102D180003D0036923F0010303617047002C0140CD
:102D280060B310B5044690F83D3013B3022384F81D
:102D38003D30214651F8040BFFF77AFF012384F850
:102D4800483084F83E3084F83F3084F8403084F8C6
:102D5800413084F8423084F8433084F8443084F8B1
:102D6800453084F8463084F8473084F83D300020F8
:102D780010BD80F83C3001F0ADFED7E70120704768
:102D880060B310B5044690F83D3013B3022384F8BD
:102D98003D30214651F8040BFFF74AFF012384F820
:102DA800483084F83E3084F83F3084F8403084F866
:102DB800413084F8423084F8433084F8443084F851
:102DC800453084F8463084F8473084F83D30002098
:102DD80010BD80F83C3001F047FED7E7012070476E
:102DE80030B4036A026A22F01002026244688269FF
:102DF80022F0807222F4E6420D6842EA052223F0AE
:102E080020038D6843EA05131B4DA84207D005F53A
:102E18000065A84203D005F5E055A84206D123F085
:102E28008003CD6843EA051323F04003124DA842FE
:102E380013D005F50065A8420FD005F54065A842F6
:102E48000BD005F58065A84207D005F58065A84236
:102E580003D005F50065A84207D124F4406C4C69FD
:102E68004CEA840C8C694CEA8404446082614A68A8
:102E78008263036230BC7047002C014038B590F87B
:102E88003C30012B00F0958004460D46012380F864
:102E98003C30142A00F28880DFE802F00B86868630
:102EA8001F86868634868686488686865D868686DA
:102EB80071000068FFF79CFB2268936943F00803E0
:102EC80093612268936923F00403936122689369EC
:102ED80029690B439361002067E00068FFF780FFD2
:102EE8002268936943F4006393612268936923F429
:102EF8008063936122689369296943EA0123936196
:102F0800002052E00068FFF7C9FB2268D36943F04C
:102F18000803D3612268D36923F00403D3612268CC
:102F2800D36929690B43D36100203EE00068FFF7AD
:102F380003FC2268D36943F40063D3612268D36930
:102F480023F48063D3612268D369296943EA0123A2
:102F5800D361002029E00068FFF73CFC2268136D6C
:102F680043F0080313652268136D23F00403136507
:102F78002268136D29690B431365002015E000686A
:102F8800FFF760FC2268136D43F400631365226841
:102F9800136D23F4806313652268136D296943EA6E
:102FA80001231365002000E00120002384F83C3051
:102FB80038BD0220FCE710B4846824F47F4C42EA50
:102FC80003220A4342EA0C0282605DF8044B704710
:102FD80090F83C30012B00F0958010B50446012391
:102FE80080F83C30022380F83D3002689068464BF8
:102FF800034093600B68702B5BD031D8502B72D094
:103008001FD8402B0AD1CA6849682068FFF754FCCA
:1030180040212068FFF777FC002029E06ED8202B9C
:1030280003D00AD80BB1102B05D119462068FFF739
:103038006AFC00201CE001201AE0302BF5D00120AA
:1030480016E0602B0AD1CA6849682068FFF747FC78
:1030580060212068FFF757FC002009E0012007E005
:10306800B3F5005F32D00AD8B3F5805F48D10020AD
:10307800012384F83D30002384F83C3010BD234AF6
:103088009342D2D00AD8B3F1101FCED0103A93424F
:10309800CBD0B3F5801FC8D00120E9E71C4A934282
:1030A800C3D020329342C0D0303A9342BDD00120E1
:1030B800DEE7CB684A6889682068FFF77CFF2268EA
:1030C800936843F0770393600020D1E7CB684A68A0
:1030D80089682068FFF76FFF2268936843F480438C
:1030E80093600020C4E7CA6849682068FFF7E4FBDA
:1030F80050212068FFF707FC0020B9E70120B7E757
:103108000120B5E7022070478800CEFF300010008C
:103118005000100001F01F014FF0010C0CFA01FCE7
:10312800036A23EA0C030362036A8A4013430362B7
:103138007047000010B5044610293DD8DFE801F0BB
:10314800093C3C3C203C3C3C273C3C3C2E3C3C3C29
:10315800350090F83E30DBB2013B18BF0123002B4D
:1031680040F09B80102900F28680DFE801F02C8473
:10317800848474848484788484847C8484848000B3
:1031880090F83F30DBB2013B18BF0123E7E790F826
:103198004030DBB2013B18BF0123E0E790F8413033
:1031A800DBB2013B18BF0123D9E790F84230DBB20C
:1031B800013B18BF0123D2E790F84330DBB2013B53
:1031C80018BF0123CBE7022384F83E300122206890
:1031D800FFF7A0FF2368344A934213D002F5006238
:1031E80093420FD002F5406293420BD002F5806201
:1031F800934207D002F58062934203D002F5006241
:10320800934203D15A6C42F400425A642368264A16
:10321800934234D0B3F1804F31D0A2F59432934227
:103228002DD002F58062934229D002F58062934244
:1032380025D002F59432934221D002F540629342A0
:103248001DD002F58052934219D01A6842F001024B
:103258001A60002022E0022384F83F30B6E70223F8
:1032680084F84030B2E7022384F84130AEE7022305
:1032780084F84230AAE7022384F84330A6E7996825
:103288000A4A0A40062A0AD0B2F5803F09D01A68CD
:1032980042F001021A60002000E0012010BD002069
:1032A800FCE70020FAE700BF002C014007000100FE
:1032B80001F00F014FF0040C0CFA01FC036A23EA39
:1032C8000C030362036A8A401343036270470000D9
:1032D80010B50446084600293BD194F84430DBB2C7
:1032E800013B18BF0123002B6AD100284AD10223D1
:1032F80084F84430042201462068FFF7D9FF226889
:10330800536C43F4004353642368304A934249D0D2
:10331800B3F1804F46D0A2F59432934242D002F5E1
:10332800806293423ED002F5806293423AD002F521
:103338009432934236D002F54062934232D002F57D
:10334800805293422ED01A6842F001021A6000207F
:1033580037E0042908D008290DD094F84730DBB2AB
:10336800013B18BF0123BEE794F84530DBB2013BAF
:1033780018BF0123B7E794F84630DBB2013B18BF0A
:103388000123B0E7042805D0082807D0022384F8D1
:103398004730AFE7022384F84530ABE7022384F8CF
:1033A8004630A7E799680A4A0A40062A0AD0B2F5C1
:1033B800803F09D01A6842F001021A60002000E03C
:1033C800012010BD0020FCE70020FAE7002C014096
:1033D8000700010090F83C20012A4CD030B4034685
:1033E800012280F83C20022280F83D2000684268D3
:1033F8008468224DA84207D005F50065A84203D08D
:1034080005F5E055A84203D122F470024D682A431D
:1034180022F0007222F070020D682A4342601A6896
:10342800164882421AD0B2F1804F17D0A0F59430D6
:10343800824213D000F5806082420FD000F5806090
:1034480082420BD000F59430824207D000F54060EC
:10345800824203D000F58050824204D124F08004D7
:10346800896821439160012283F83D20002083F878
:103478003C0030BC70470220704700BF002C014060
:1034880090F83C30012B4AD010B40246012380F852
:103498003C30CB6823F440738868034323F480638B
:1034A8004868034323F400630868034323F4805304
:1034B8000869034323F400534869034323F4804312
:1034C800086B034323F47023886943EA004323F01D
:1034D8008053C86903431068124CA04207D004F512
:1034E8000064A04203D004F5E054A04210D123F4B4
:1034F80070038C6A43EA045323F080730C6A2343F5
:1035080023F000734C6A234323F00053C96A0B432A
:103518004364002082F83C005DF8044B70470220A9
:10352800704700BF002C01407047704770477047D4
:10353800704770477047026852E8003F23F4907361
:1035480042E800310029F6D1026802F1080353E885
:10355800003F23F0805323F00103083242E8003192
:103568000029F1D1C36E012B06D02023C0F88C307E
:103578000023C36643677047026852E8003F23F0A0
:10358800100342E800310029F6D1EEE770B5044691
:1035980083680269134342691343C269134301688C
:1035A8000868964A02401A430A602268536823F45E
:1035B8004053E1680B435360A1692268904B9A42DB
:1035C80001D0236A1943936823F06E4323F43063D0
:1035D8000B4393602268D36A23F00F03616A0B439D
:1035E800D3622368874A934226D0874A934237D0CA
:1035F800864A93424DD0864A93425DD0854A93428B
:103608006CD07F4A93427ED010227D498B4200F0D5
:10361800B380E069B0F5004F00F00481082A00F299
:103628006F81DFE812F03201540130016D0157015A
:103638006D016D016D015A0102F55842D2F88820DA
:1036480002F00302032A09D8DFE802F00204720636
:103658000122DAE70422D8E70822D6E71022D4E7C5
:1036680002F5E632D2F8882002F00C020C2A0ED8B5
:10367800DFE802F0070D0D0D090D0D0D600D0D0DA4
:103688000B000022C1E70422BFE70822BDE7102291
:10369800BBE702F5E432D2F8882002F03002202A93
:1036A8004AD005D8002A49D0102A49D10422ACE7CB
:1036B800302A47D10822A8E702F5E232D2F888205A
:1036C80002F0C002802A3FD004D8FAB3402A3FD182
:1036D80004229AE7C02A3DD1082296E702F5E03293
:1036E800D2F8882002F44072B2F5007F34D005D8B1
:1036F800A2B3B2F5807F33D1042286E7B2F5407FCA
:1037080030D1082281E702F5C832D2F8882002F4C5
:103718004062B2F5006F27D005D83AB3B2F5806F92
:1037280026D1042271E7B2F5406F23D108226CE755
:1037380002226AE7022268E7022266E7002264E7BB
:10374800102262E7102260E702225EE700225CE7AF
:1037580010225AE7102258E7022256E7002254E7BF
:10376800102252E7102250E702224EE700224CE7CF
:1037780010224AE7102248E7082A00F2B180DFE861
:1037880002F008AF3BAF38AFAFAF05004FF40040D1
:1037980004E0FEF747FA002800F0A480626A1E4B96
:1037A80033F81220B0FBF2F3656805EB4501994246
:1037B80000F29A80B3EB053F00F29880002633466A
:1037C8003146FCF705FD090241EA106100026B0869
:1037D800C0182A46334641F10001FCF7F9FCA0F570
:1037E80040720E4B9A4200F283802368D8603046BC
:1037F80064E0FEF7D1F8CEE70948CFE7F369FFCFD9
:10380800008000400038014000440040004800406B
:10381800004C0040005000400C560008FFFC0F0010
:103828000024F400082A65D8DFE802F007270564B9
:103838002A6464640B00354803E0FEF7F3F90028B6
:103848005AD0626A324B33F81230B0FBF3F0626838
:10385800530803EB4003B3FBF2F3A3F110014FF657
:10386800EF7291424AD89AB222F00F02C3F3420390
:1038780013432268D360002020E0FEF7E5F9DEE775
:10388800FEF78AF8DBE7214803E0FEF7CBF90028CA
:1038980038D0626A1E4B33F81230B0FBF3F063681D
:1038A80000EB5300B0FBF3F0A0F110024FF6EF73FA
:1038B8009A4229D8236880B2D86000200123A4F84E
:1038C8006A30A4F8683000236367A36770BDFEF709
:1038D800BBF9DCE7FEF760F8D9E74FF40040D8E71A
:1038E8000120EBE70020E9E70120E7E70120E5E711
:1038F8000120E3E70120E1E70020DFE70120DDE721
:103908000120DBE70020D9E70120D7E70024F400F5
:103918000C560008836A13F0080F06D00268536833
:1039280023F40043816B0B435360836A13F0010F48
:1039380006D00268536823F40033C16A0B4353600E
:10394800836A13F0020F06D00268536823F48033A9
:10395800016B0B435360836A13F0040F06D00268AF
:10396800536823F48023416B0B435360836A13F03D
:10397800100F06D00268936823F48053C16B0B4381
:103988009360836A13F0200F06D00268936823F4CB
:103998000053016C0B439360836A13F0400F0AD005
:1039A8000268536823F48013416C0B435360436CE3
:1039B800B3F5801F0BD0836A13F0800F06D002681E
:1039C800536823F40023C16C0B43536070470268AB
:1039D800536823F4C003816C0B435360EBE72DE974
:1039E800F84305460E4617469946DDF820802B68B1
:1039F800DC6936EA04040CBF01240024BC4236D139
:103A0800B8F1FF3FF3D0FDF723FDA0EB09004045D7
:103A180030D8B8F1000F2FD02B681A6812F0040FB5
:103A2800E5D0802EE3D0402EE1D0DA6912F0080FFD
:103A380011D1DA6912F4006FD9D04FF400621A621A
:103A48002846FFF778FD2023C5F89030002385F835
:103A5800843003200CE008241C622846FFF76BFD25
:103A6800C5F89040002385F88430012000E000204C
:103A7800BDE8F8830320FBE70320F9E72DE9F041CF
:103A880082B01E46D0F88830202B5AD104460D4605
:103A98009046002959D00AB9012053E00023C0F804
:103AA80090302123C0F88830FDF7D2FC0746A4F8EF
:103AB8005480A4F85680A368B3F5805F02D04FF015
:103AC800000816E0236943B34FF0000811E02023F3
:103AD800C4F88830032035E038F8023B2268C3F385
:103AE80008039362B4F8562092B2013A92B2A4F84D
:103AF8005620B4F856309BB293B100963B4600224C
:103B080080212046FFF76BFF0028E0D1002DE3D08D
:103B180015F8012B23689A62E4E7A8460025E8E730
:103B280000963B46002240212046FFF758FF18B96F
:103B38002023C4F8883005E02023C4F88830032007
:103B480000E0022002B0BDE8F0810120FAE730B5BC
:103B580083B004460023C0F89030FDF779FC054691
:103B68002268126812F0080F10D123681B6813F03E
:103B7800040F28D12023C4F88830C4F88C300020E2
:103B8800E066206784F8840003B030BD6FF07E43A0
:103B98000093034600224FF400112046FFF71FFF51
:103BA8000028E2D0226852E8003F23F0800342E870
:103BB80000310029F6D12023C4F88830002384F886
:103BC80084300320E0E76FF07E4300932B46002209
:103BD8004FF480012046FFF702FF0028CAD0226870
:103BE80052E8003F23F4907342E800310029F6D1EF
:103BF800226802F1080353E8003F23F0010308326A
:103C080042E800310029F3D12023C4F88C30002386
:103C180084F884300320B7E778B310B50446D0F8A9
:103C280088300BB32423C4F888302268136823F043
:103C380001031360A36AE3B92046FFF7A7FC012834
:103C480011D02268536823F4904353602268936824
:103C580023F02A0393602268136843F0010313607A
:103C68002046FFF774FF10BD80F8843001F0ACF9EE
:103C7800D8E72046FFF74EFEDEE701207047000038
:103C8800436E2BB90123A0F86A30A0F8683070475A
:103C980030B403689A68C2F342629968490F094DC3
:103CA8006B5CDB00084C615C93FBF1F3A0F86A30B5
:103CB800AB5CDB00A25C93FBF2F3A0F8683030BC8D
:103CC800704700BF2C5600082456000890F884302E
:103CD800012B18D0012380F884302423C0F88830C1
:103CE80003681A68196821F00101196022F000526E
:103CF8000023436601680A602022C0F8882080F803
:103D08008430184670470220704738B590F88430E0
:103D1800012B1DD00446012380F884302423C0F8E9
:103D2800883003681D681A6822F001021A60026868
:103D3800936823F0604319439160FFF7A1FF23685C
:103D48001D602023C4F88830002084F8840038BD22
:103D58000220FCE738B590F88430012B1DD00446CA
:103D6800012380F884302423C0F8883003681D6854
:103D78001A6822F001021A600268936823F06063EF
:103D880019439160FFF77CFF23681D602023C4F866
:103D98008830002084F8840038BD0220FCE7000049
:103DA800034AD2F8883043F47003C2F88830704769
:103DB80000ED00E010B402681D4B9A4228D01D495E
:103DC8001D4B9A4226D00164D2F8803023F4F813B0
:103DD800446B43EA0443C2F8803001F17003436442
:103DE8000268D2F8803023F07063846B43EA04637E
:103DF800C2F8803001F1B003836401F5C473C36471
:103E080001F51873036501F51E7343650B4607E05A
:103E18000A49D5E701F5D461D5E7002243F8042B18
:103E280001F554729A42F8D85DF8044B704700BF08
:103E38000068004000A40040006C004050A700400B
:103E4800002800F0E38038B5044690F85C30D3B120
:103E58002268936923F010039361FDF7F9FA054688
:103E680023689A6912F0080F12D0FDF7F1FA401B87
:103E78000A28F5D9236E43F001032366032384F847
:103E88005C30012038BD80F85D3000F035FDDFE79B
:103E98009A6942F001029A61FDF7DAFA0546236849
:103EA8009A6912F0010F0DD1FDF7D2FA401B0A28CA
:103EB800F5D9236E43F001032366032384F85C30AD
:103EC8000120DFE79A6942F002029A612268504BAA
:103ED8009A4242D0237C012B45D02268936943F053
:103EE80040039361637C012B43D02268936923F4D8
:103EF80080439361A37C012B41D02268936943F4EA
:103F0800805393612268936923F44073A1680B433B
:103F180093612268936923F0A4039361226813696B
:103F280023F010031361E368012B2ED0002B31D04E
:103F3800022B54D02268936943F08003936122686E
:103F4800136943F010031361E368032B22D122683D
:103F5800936943F0200393611CE06268A3F58063D2
:103F6800C3F80025B6E72268936923F040039361FC
:103F7800B8E72268936943F480439361BAE72268FB
:103F8800936923F480539361BCE72268936943F0F3
:103F980004039361A3695A1EE369013B1B0243EAC8
:103FA8004263226A013A13436269013A216843EA8B
:103FB8000243CB61A368B3F5407F16D02268D2F8DC
:103FC800C030E16B0B43C2F8C0302046FFF7F2FE69
:103FD8000020A0652066012384F85C3052E722683F
:103FE800936943F020039361D4E7A36A013BE26A33
:103FF800013A43EA0223226B013A43EA0213626A56
:10400800013A216843EA0243CB60D7E701207047B1
:104018000064004090F85C30DBB2012B05D0036EE1
:1040280043F00403036601207047022380F85C30E4
:104038000268936923F0010393610023036618461D
:104048007047000030B58DB0002407940894099497
:104058000A940B94254BDA6C42F01002DA64DA6C9D
:1040680002F010020192019ADA6C42F00402DA645A
:10407800DA6C02F004020292029ADA6C42F0200230
:10408800DA64DA6C02F020020392039ADA6C42F0E6
:104098000102DA64DA6C02F001020492049ADA6C22
:1040A80042F00202DA64DA6C02F002020592059A22
:1040B800DA6C42F00802DA64DB6C03F0080306935A
:1040C800069B0B4D22464FF440412846FEF774F8F4
:1040D8004FF4404307930123089309940A9407A9CE
:1040E8002846FDF77FFF0DB030BD00BF001002402D
:1040F8000004004810B58CB0002409940A940B946D
:104108002022214601A801F0E6F826484FF0A043F6
:1041180003604FF4002343608460C460046101239A
:10412800436104228261047743770222026280F8A5
:104138002440C462046380F83830C46380F8404087
:10414800FCF7AAFA10BB0023099309A91548FDF743
:1041580051F8F0B9144B01930623029301230393FA
:104168007F230493042305930023069301A90D4894
:10417800FCF732FC80B90D4B01930C23029301A983
:104188000848FCF729FC50B90CB010BDFCF780F8C2
:10419800D9E7FCF77DF8DDE7FCF77AF8EBE7FCF701
:1041A80077F8F1E7F4030020020030040400600807
:1041B80000B589B020220021684601F08CF8284813
:1041C800284B03604FF40023436000238360C360DF
:1041D800036101224261042181610377427703214F
:1041E800016280F82430C362036380F83820C36317
:1041F80080F84030FCF750FA28BB1B4B009306238D
:104208000193012302937F23039304230493002340
:10421800059369461248FCF7DFFBB8B9134B0093C6
:104228000C23019369460E48FCF7D6FB88B9104B5E
:1042380000931223019369460948FCF7CDFB58B94E
:1042480009B05DF804FBFCF723F8D6E7FCF720F883
:10425800E4E7FCF71DF8EAE7FCF71AF8F0E700BF17
:1042680088030020000100500008302E00209036FE
:104278000010603210B58CB0002409940A940B9495
:104288002022214601A801F026F82C482C4B036077
:104298004FF4002343608460C460046101234361D8
:1042A80004228261047743770322026280F8244063
:1042B800C462046380F83830C46380F84040FCF777
:1042C800EBF900282BD10023099309A91B48FCF717
:1042D80091FF38BB1B4B01930623029301230393E1
:1042E8007F230493042305930023069301A913480D
:1042F800FCF772FBC8B9144B01930C23029301A974
:104308000E48FCF769FB98B9104B019312230293EE
:1043180001A90A48FCF760FB68B90CB010BDFBF7AF
:10432800B7FFD0E7FBF7B4FFD4E7FBF7B1FFE2E74D
:10433800FBF7AEFFE8E7FBF7ABFFEEE71C03002057
:10434800000400501000C01040002019040060084C
:1043580000B589B020220021684600F0BCFF224841
:10436800224B03604FF40023436000238360C36043
:1043780003610122426104218161037742770221AE
:10438800016280F82430C362036380F83820C36375
:1043980080F84030FCF780F9E0B9154B009306230C
:1043A8000193022302937F2303930423049300239E
:1043B800059369460C48FCF70FFB70B90D4B009349
:1043C8000C23019369460848FCF706FB40B909B07D
:1043D8005DF804FBFBF75CFFDFE7FBF759FFEDE750
:1043E800FBF756FFF3E700BFB002002000050050BE
:1043F8000800900C0010603200B589B0202200211E
:10440800684600F068FF1B481B4B03604FF400230D
:10441800436000238360C3600361436104228261B7
:10442800037743770122026280F82430C362036372
:1044380080F83830C36380F84030FCF72DF998B91C
:104448000E4B009306230193022302937F230393C9
:10445800042304930023059369460648FCF7BCFA35
:1044680028B909B05DF804FBFBF712FFE8E7FBF792
:104478000FFFF6E744020020000600500200300457
:10448800F0B5A9B0044600212391249125912691E5
:10449800279154220EA800F01EFF2368B3F1A04F05
:1044A80010D0904A93425CD08F4A934200F0C98062
:1044B8008E4A934200F036818D4A934200F09281F1
:1044C80029B0F0BD4FF400430E934FF000531F93F3
:1044D8000EA8FDF7CBFB002832D1864A13680133BA
:1044E8001360012B2FD0844BDA6C42F00102DA649E
:1044F800DB6C03F001030293029B032323932493B1
:104508000025259523A94FF09040FDF76BFD7B48CA
:104518007B4B0360052343608560C560802303618E
:104528004FF4807343614FF4806383612023C36138
:104538000562FDF79FFE88B9704B63659C62BFE713
:10454800FBF7A6FEC9E76C4BDA6C42F40052DA645A
:10455800DB6C03F400530193019BC4E7FBF798FE5F
:10456800EAE74FF400430E934FF000531F930EA851
:10457800FDF77CFB002853D15E4A136801331360B2
:10458800012B50D05C4BDA6C42F00102DA64DA6C31
:1045980002F001020492049ADA6C42F00402DA642E
:1045A800DA6C02F004020592059ADA6C42F0020213
:1045B800DA64DB6C03F002030693069B202623963D
:1045C800032724970025259523A94FF09040FDF750
:1045D80009FD23962497259523A94A48FDF702FD4E
:1045E800042323932497259523A94748FDF7FAFC2C
:1045F8004648474B0360242343608560C560802399
:1046080003614FF4807343614FF480638361C66133
:104618000562FDF72FFE88B93C4B63659C624FE746
:10462800FBF736FEA8E7344BDA6C42F40052DA6442
:10463800DB6C03F400530393039BA3E7FBF728FE0B
:10464800EAE74FF480330E934FF0004320930EA80F
:10465800FDF70CFB002833D12E4A13680133136091
:10466800012B30D0244BDA6C42F01002DA64DB6C98
:1046780003F010030893089B4FF4607323930323FC
:1046880024930025259523A92348FDF7ABFC23484F
:10469800234B0360252343608560C5608023036145
:1046A8004FF4807343614FF4806383612023C361B7
:1046B8000562FDF7DFFD88B9184B63659C62FFE66C
:1046C800FBF7E6FDC8E70C4BDA6C42F48042DA648B
:1046D800DB6C03F480430793079BC3E7FBF7D8FD24
:1046E800EAE700BF00010050000400500005005038
:1046F80000060050C000002000100240E401002025
:104708000804024000080048000400488401002012
:1047180008000240BC0000200010004824010020CE
:104728001C0002404FF480330E934FF00043209357
:104738000EA8FDF79BFA002843D1454A13680133B8
:104748001360012B40D0434BDA6C42F00202DA646A
:10475800DA6C02F002020A920A9ADA6C42F0080253
:10476800DA64DB6C03F008030B930B9B4FF4805364
:104778002393032724970025259523A93648FDF779
:1047880031FC4FF4807623962497259523A9334846
:10479800FDF728FC3248334B0360262343608560CD
:1047A800C5608023036146614FF4806383612023E1
:1047B800C3610562FDF75EFD88B9294B63659C629C
:1047C8007EE6FBF765FDB8E7224BDA6C42F48042DF
:1047D800DA64DB6C03F480430993099BB3E7FBF7C6
:1047E80057FDEAE74FF480330E934FF000432093D0
:1047F8000EA8FDF73BFAE0B9154A136801331360B8
:10480800012B19D0134BDA6C42F00102DA64DB6C2D
:1048180003F001030D930D9B4FF48073239303233F
:1048280024930023259323A94FF09040FDF7DAFB4A
:1048380046E6FBF72DFDDFE7064BDA6C42F48042D3
:10484800DA64DB6C03F480430C930C9BDAE700BF5B
:10485800BC0000200010024000040048000C004882
:10486800C40000203000024084B00F4B9A6C42F024
:1048780004029A649A6C02F004020192019A9A6CFA
:1048880042F001029A649A6C02F001020292029AC2
:104898009A6C42F002029A649B6C03F00203039341
:1048A800039B04B0704700BF0010024008B51048D1
:1048B800104B0360002343608360C3600374437438
:1048C80083740F224261012282610521C1610421A2
:1048D800016242628262C262026343638363C363AA
:1048E800FFF7AEFA00B908BDFBF7D2FCFBE700BF43
:1048F800600400200064004010B59CB0044600210C
:104908001791189119911A911B91542202A800F03D
:10491800E2FC22681A4B9A4201D01CB010BD4FF439
:10492800805302934FF00073109302A8FDF79EF98D
:1049380010BB144B9A6D42F000729A659A6D02F0A2
:1049480000720092009ADA6C42F00102DA64DB6CC1
:1049580003F001030193019B4FF4C0531793022303
:104968001893002319931A9309231B9317A94FF03F
:104978009040FDF737FBD0E7FBF78AFCD9E700BF8B
:10498800006400400010024000B589B00023049381
:1049980005930693079301930293039315484FF0E9
:1049A80080420260436083604FF4FA72C260036120
:1049B80080238361FEF7B4F990B94FF480530493D0
:1049C80004A90C48FEF704FB68B90023019303937C
:1049D80001A90848FEF7FEFC40B909B05DF804FBE0
:1049E800FBF756FCE9E7FBF753FCEEE7FBF750FC57
:1049F800F3E700BFA805002000B589B000230493A1
:104A08000593069307930193029303931448154A59
:104A18000260436083604FF47A72C260036180234E
:104A28008361FEF77DF990B94FF48053049304A98C
:104A38000B48FEF7CDFA68B900230193039301A947
:104A48000748FEF7C7FC40B909B05DF804FBFBF75F
:104A58001FFCE9E7FBF71CFCEEE7FBF719FCF3E7A3
:104A6800C4040020000C004084B00368154A934237
:104A780007D0154A93420FD0144A934217D004B076
:104A88007047134B1A6E42F400621A661B6E03F4E9
:104A980000630193019BF2E70D4B9A6D42F002020D
:104AA8009A659B6D03F002030293029BE7E7084BAC
:104AB8009A6D42F004029A659B6D03F00403039318
:104AC800039BDCE7002C0140000400400008004084
:104AD8000010024000B583B00368B3F1804F05D0E1
:104AE800164A934216D003B05DF804FB03F504336D
:104AF8009A6D42F001029A659B6D03F001030093E1
:104B0800009B002211461C20FDF74AFD1C20FDF7E2
:104B180057FDE8E70A4B9A6D42F008029A659B6DCB
:104B280003F008030193019B002211463220FDF790
:104B380037FD3220FDF744FDD5E700BF000C0040EB
:104B48000010024070B58AB00023059306930793BE
:104B58000893099303683C4A934207D03B4A93421F
:104B680048D03B4A934259D00AB070BD394BDA6CF1
:104B780042F00402DA64DA6C02F004020192019A4B
:104B8800DA6C42F01002DA64DB6C03F01003029373
:104B9800029B4FF4005305930225069504230993BD
:104BA8002D4E05A93046FDF71DFA012305930695FC
:104BB800002407940894099505A93046FDF712FAD0
:104BC8004FF480430593069507940894099506F5D4
:104BD800006605A93046FDF705FA4FF40043059332
:104BE8000695079408940623099305A93046FDF70E
:104BF800F9F9B9E7174BDA6C42F01002DA64DB6CAA
:104C080003F010030393039B1C23059302230693CD
:104C1800099305A91148FDF7E5F9A5E70D4BDA6CED
:104C280042F00802DA64DB6C03F008030493049B87
:104C38004FF44053059302230693099305A90848A6
:104C4800FDF7D0F990E700BF002C014000040040B8
:104C5800000800400010024000080048001000480A
:104C6800000C004810B598B00024159416941794B9
:104C78000E940F9410941194129413941494342253
:104C8800214601A800F027FB2D482E4B0360446005
:104C980084604FF49673C360046144618461FEF7D5
:104CA8006FF800283DD1002315931693179315A983
:104CB8002348FEF78FFB002836D160230E9300228D
:104CC8000F92109211921292139214920EA91C48EC
:104CD800FEF7D4F858BB4FF496730F930C220EA925
:104CE8001748FEF7CBF828BB0023019302930393E0
:104CF8001422049205934FF40052069207930893E6
:104D080009934FF000720A920B930C930D9301A92B
:104D18000B48FEF7B5FB80B90948FFF713FF18B039
:104D280010BDFBF7B5FABEE7FBF7B2FAC5E7FBF72C
:104D3800AFFAD0E7FBF7ACFAD6E7FBF7A9FAEBE74F
:104D4800F4050020002C014000B58BB00023079328
:104D58000893099300930193029303930493059393
:104D680006932248224A02600822426083604BF67A
:104D78007F32C26003618361FEF702F830BB002313
:104D88000793099307A91948FEF724FB08BB60237A
:104D98000093002201920292049269461348FEF79A
:104DA8006DF8C8B95A230193042269460F48FEF7E3
:104DB80065F8A0B9082269460C48FEF75FF888B97B
:104DC8000A48FFF7BFFE0BB05DF804FBFBF760FA7B
:104DD800D5E7FBF75DFADAE7FBF75AFAE2E7FBF704
:104DE80057FAE7E7FBF754FAEAE700BF5C0500204B
:104DF8000004004000B58BB0002307930893099383
:104E080000930193029303930493059306931D481B
:104E18001D4A02600A22426083604BF68032C260FB
:104E280003618361FDF7ACFFF8B900230793099389
:104E380007A91448FEF7CEFAD0B9602300935A2385
:104E4800019300220292049269460E48FEF716F872
:104E580088B9042269460B48FEF710F870B909486A
:104E6800FFF770FE0BB05DF804FBFBF711FADCE707
:104E7800FBF70EFAE1E7FBF70BFAEAE7FBF708FAAC
:104E8800EDE700BF100500200008004008B51748EE
:104E9800174B03604FF46123436000238360C360B2
:104EA80003610C2242618361C361036243628362CE
:104EB800FEF7B2FE70B900210C48FEF726FF60B974
:104EC80000210A48FEF746FF50B90848FEF7FEFEE3
:104ED80048B908BDFBF7DCF9EDE7FBF7D9F9EFE7CF
:104EE800FBF7D6F9F1E7FBF7D3F9F2E768070020FB
:104EF8000038014008B51748174B03604FF4612389
:104F0800436000238360C36003610C2242618361B4
:104F1800C361036243628362FEF77EFE70B90021BB
:104F28000C48FEF7F2FE60B900210A48FEF712FFAE
:104F380050B90848FEF7CAFE48B908BDFBF7A8F9FA
:104F4800EDE7FBF7A5F9EFE7FBF7A2F9F1E7FBF7C8
:104F58009FF9F2E7D40600200044004008B517483E
:104F6800174B0360174B436000238360C3600361E2
:104F78000C2242618361C361036243628362FEF76C
:104F88004BFE70B900210D48FEF7BFFE60B9002145
:104F98000A48FEF7DFFE50B90848FEF797FE48B901
:104FA80008BDFBF775F9EDE7FBF772F9EFE7FBF7DB
:104FB8006FF9F1E7FBF76CF9F2E700BF4006002054
:104FC800004800400094110010B5A0B0044600212C
:104FD8001B911C911D911E911F91542206A800F04F
:104FE8007AF92368454A934207D0454A934230D01C
:104FF800444A934257D020B010BD0123069306A817
:10500800FCF734FE10BB404B1A6E42F480421A661D
:105018001A6E02F480420092009ADA6C42F00102A1
:10502800DA64DB6C03F001030193019B4FF4C06366
:105038001B9302231C9300231D931E9307231F9386
:105048001BA94FF09040FCF7CDFFD4E7FBF720F900
:10505800D9E70223069306A8FCF708FE00BB2A4BF3
:105068009A6D42F400329A659A6D02F40032029207
:10507800029ADA6C42F00802DA64DB6C03F0080387
:105088000393039B60231B9302231C9300231D930C
:105098001E9307231F931BA91C48FCF7A3FFAAE72D
:1050A800FBF7F6F8DBE70423069306A8FCF7DEFD1A
:1050B80008BB154B9A6D42F480229A659A6D02F4EA
:1050C80080220492049ADA6C42F00402DA64DB6CFF
:1050D80003F004030593059B4FF440631B930223DD
:1050E8001C9300231D931E9307231F931BA9084895
:1050F800FCF778FF7FE7FBF7CBF8DAE700380140E9
:10510800004400400048004000100240000C0048E5
:105118000008004803681A888388A3EB9303920861
:1051280012FA83F3838070478B8807EE903AF8EE83
:10513800E77A30EE670ABCEEC00A10EE103A9BB26E
:10514800C3804189194489B24181028813FB02F264
:10515800B0F802C011FB0CF189B211FA82F2B0F872
:1051680004C00189591A11FB0CF111FA82F292B2AA
:1051780082810381C3899A4200D983818289038A03
:105188009A4200D283817047018042808380BDF8B3
:105198000030C381BDF8043003827047024B1B689E
:1051A800586300221A647047F405002008B50948BE
:1051B800FFF7B0FF0848FFF7ADFF0848FFF7AAFF61
:1051C8000748FFF7A7FF0748FFF7A4FF0648FFF7C0
:1051D800A1FF08BD98000020900000208800002052
:1051E80070000020680000206000002010B50A4C04
:1051F800B7EE000A09492046FFF796FFA38900EE9B
:10520800103A074CB8EE400A06492046FFF78CFFD3
:10521800A089FFF7C3FF10BD3C00002080000020DC
:10522800280000207800002010B50368134A934234
:1052380003D0B3F1804F10D010BD114C01224FF4B0
:1052480000412046FCF7B8FFFFF7D0FF00224FF4DB
:1052580000412046FCF7B0FFEEE7094C01224FF46D
:1052680080412046FCF7A8FFFFF7A0FF00224FF47B
:1052780080412046FCF7A0FFDEE700BF000C00409D
:10528800000400480D488546FEF78AFD0C480D4984
:105298000D4A002302E0D458C4500433C4188C4289
:1052A800F9D30A4A0A4C002301E013600432A242EF
:1052B800FBD300F019F8FBF727F8FEE700000220FF
:1052C800000000200C0000205C5600080C000020A4
:1052D800FC070020FEE702440346934200D17047D2
:1052E80003F8011BF9E7000070B50D4D0D4C641B68
:1052F800A4100026A64209D10B4D0C4C00F076F9FB
:10530800641BA4100026A64205D170BD55F8043BC5
:1053180098470136EEE755F8043B98470136F2E71F
:1053280054560008545600085456000858560008A9
:105338002DE9F047089D0E4604460F46002B4AD13A
:1053480094468C45B2FA82F260D942B1C2F1200388
:10535800974020FA03F30CFA02FC1F4394404FEAEB
:105368001C4E1FFA8CF6B7FBFEF1230C0EFB1177CF
:1053780043EA074301FB06F098420AD91CEB0303F2
:1053880001F1FF3780F01581984240F2128102390D
:1053980063441B1AA4B2B3FBFEF00EFB103344EABD
:1053A800034400FB06F6A6420AD91CEB040400F1EC
:1053B800FF3380F00081A64240F2FD806444023849
:1053C80040EA0140A41B00211DB1D4400023C5E9D7
:1053D8000043BDE8F0878B4205D90DB1C5E900014E
:1053E80000210846F5E7B3FA83F1002946D1B34214
:1053F80002D3824200F2F580841A66EB0302012090
:105408001746002DE5D0C5E90047E2E7002A40F03D
:105418009380A1EB0C034FEA1C471FFA8CFE012175
:10542800B3FBF7F607FB1630230C43EA00430EFBE9
:1054380006F0984208D91CEB030306F1FF3802D2A4
:10544800984200F2D08046461B1AA4B2B3FBF7F08C
:1054580007FB103344EA03440EFB00FEA64508D9B7
:105468001CEB040400F1FF3302D2A64500F2B6801B
:105478001846A4EB0E0440EA0640A5E7C1F1200750
:105488008B4022FA07FC4CEA030C06FA01FE20FACC
:1054980007F426FA07F344EA0E0400FA01F84FEA83
:1054A8001C404FEA1449B3FBF0FE1FFA8CF600FBD0
:1054B8001E3349EA03430EFB06F9994502FA01F245
:1054C8000BD91CEB03030EF1FF3A80F08580994558
:1054D80040F28280AEF1020E6344A3EB0909A4B244
:1054E800B9FBF0F300FB139944EA094403FB06F601
:1054F800A64208D91CEB040403F1FF3068D2A64287
:1055080066D9023B644443EA0E40A41BA0FB02E6B2
:10551800B4427346B14652D34FD05DB1B8EB0302E3
:1055280064EB090404FA07F722FA01F31F43CC409D
:10553800C5E9007400214CE7C2F1200120FA01F30B
:105548000CFA02FC26FA01F1964033434FEA1C4755
:105558001FFA8CFEB1FBF7F007FB1016190C41EA95
:10556800064100FB0EF68E4204FA02F408D91CEB41
:10557800010100F1FF382DD28E422BD90238614447
:10558800891B9BB2B1FBF7F607FB161143EA0143EF
:1055980006FB0EF1994208D91CEB030306F1FF380C
:1055A80014D2994212D9023E63445B1A46EA00417A
:1055B80036E73946EDE6184602E7F045ADD2BEEBD0
:1055C800020366EB0C060138B146A6E74646ECE74F
:1055D800034698E74046D3E7D6467EE76444023858
:1055E80047E708460DE7023E63442DE7F8B500BFDC
:1055F800F8BC08BC9E467047F8B500BFF8BC08BCAC
:045608009E46704703
:10560C00010002000400060008000A000C00100053
:10561C002000400080000001080402040801010180
:10562C000101010307010000000000000102030456
:10563C000000000000000000010203040607080936
:08564C00ECFCFF7F01000000EF
:0456540075020008D3
:045658004D020008F7
:0C565C0001000000100000000024F40019
:040000050800528D10
:00000001FF
