:020000040800F2
:1000000000000220B1470008190400081B04000882
:100010001D0400081F04000821040008000000005F
:1000200000000000000000000000000023040008A1
:100030002504000800000000270400082904000827
:10004000014800080148000801480008014800086C
:10005000014800080148000801480008014800085C
:10006000014800080148000801480008014800084C
:10007000014800080148000801480008014800083C
:10008000014800080148000801480008014800082C
:10009000014800080148000801480008014800081C
:1000A000014800080148000801480008014800080C
:1000B00001480008014800080148000801480008FC
:1000C00001480008014800080148000801480008EC
:1000D00001480008014800080148000801480008DC
:1000E00001480008014800080148000801480008CC
:1000F00001480008014800080148000801480008BC
:1001000001480008014800080148000801480008AB
:10011000014800080148000801480008014800089B
:10012000014800080148000801480008014800088B
:10013000014800080148000801480008014800087B
:1001400001480008014800080148000800000000BC
:10015000000000000000000000000000000000009F
:10016000000000000000000000000000014800083E
:10017000014800080148000801480008014800083B
:10018000014800080148000801480008014800082B
:10019000014800080000000001480008014800086C
:1001A000014800080148000801480008014800080B
:1001B00001480008014800080148000801480008FB
:1001C00001480008014800080148000801480008EB
:0801D000014800080148000885
:1001D80053B94AB9002908BF00281CBF4FF0FF31A6
:1001E8004FF0FF3000F00CB8ADF1080C6DE904CE0B
:1001F80004F030FBDDF804E0DDE9022304B07047C9
:10020800704700BF0348044B834202D0034B03B13D
:10021800184770470C0000200C0000200000000068
:100228000548064B1B1AD90F01EBA301491002D050
:10023800034B03B1184770470C0000200C00002046
:100248000000000010B5064C237843B9FFF7DAFF29
:10025800044B13B10448AFF300800123237010BD91
:100268000C00002000000000184B000808B5054BE2
:100278001BB105490548AFF30080BDE80840FFF70A
:10028800CFBF00BF0000000010000020184B00087E
:1002980072B6FEE700B595B03822002106A804F032
:1002A800ACFA0023019302930393049305934FF44C
:1002B800007001F027FF022306934FF48072099221
:1002C80040220A920D930E9304220F924B22109211
:1002D80011931293139306A800F082FF80B90F239D
:1002E80001930323029300230393049305930421AA
:1002F8000DEB010001F02AFA20B915B05DF804FBF6
:10030800FFF7C6FFFFF7C4FF00B58BB000F006FF8C
:10031800FFF7C0FF03F0BEFA03F094FE03F008FBFA
:1003280003F064FB03F0E4FF04F0F6F804F02AF9A4
:1003380004F05EF904F04EF804F0A2F803F024FC8F
:1003480003F0A2FE03F064FC03F0B0FB022226498E
:10035800264800F031FD03222549264800F02CFDEF
:1003680003222549254800F027FD254C204602F0A8
:1003780025F90021204602F009FB0021204602F061
:10038800D3FB0C21204602F001FB0C21204602F091
:10039800CBFB1C4C0421204602F0F8FA0821204629
:1003A80002F0F4FA184C0021204602F0EFFA04217A
:1003B800204602F0EBFA154803F02CFA4FF480734C
:1003C800ADF800304FF48A730193002302930222A0
:1003D80004920793642000F0C3FE6A4601A90B4803
:1003E80003F02FFAF6E700BF3800002018030020BA
:1003F80030000020AC02002028000020400200202D
:100408008004002034040020E80300208403002036
:10041800FEE7FEE7FEE7FEE7FEE770477047704736
:1004280008B500F08BFE08BD00B583B00B4B1A6E03
:1004380042F001021A661A6E02F001020092009A56
:100448009A6D42F080529A659B6D03F08053019338
:10045800019B01F0DDFE03B05DF804FB00100240D3
:1004680010B430300B0A9B0003F00C03C45801F0A1
:100478001F014FF01F0C0CFA01FC24EA0C0CC2F30C
:1004880084628A404CEA0202C2505DF8044B70470D
:1004980010B414304B0E9B0003F00403C458C1F38E
:1004A80004514FF0070C0CFA01FC24EA0C0C8A40AA
:1004B8004CEA0202C2505DF8044B704730B583B075
:1004C80000230193002800F032810446C36D13B362
:1004D80023689A6812F0005F05D09A6822F02042DB
:1004E80022F03F029A602268936813F0805F1FD160
:1004F800936823F0104323F03F0343F08053936045
:100508008C4B1B689B098C4AA2FB03239B09013374
:100518005B00019309E003F0BFFB0023236684F826
:100528005830D5E7019B013B0193019B002BF9D182
:100538002268936813F0805F3DD1E36D43F01003A8
:10054800E365236E43F0010323660120936813F0EB
:10055800040300D00123E16D11F0100F40F0E0809A
:10056800002B40F0DD80E36D23F4817343F0020338
:10057800E365936813F0010F3ED1B2F1A04F1CD090
:100588006E4B9A4219D06E4B996811F0010100D058
:1005980001216C4B9B6813F0010300D001230B432E
:1005A8006949896811F0010100D001210B430CBF92
:1005B8000123002312E00020C8E74FF0A043996808
:1005C80011F0010100D001215C4B9B6813F001037D
:1005D80000D001230B430CBF0123002363B1B2F108
:1005E800A04F6CD0554B9A4267D0584963688A68C7
:1005F80022F47C1213438B60627FE36B43EA42333D
:10060800E2681343A268134394F8242043EA0243A0
:10061800012A56D0E26A22B102F47872216B0A43A9
:1006280013432168CD684A4A2A401A43CA6022689F
:10063800136923F04063616B0B431361226893686D
:1006480013F0080300D0012343BB237F94F838102C
:10065800490041EA8331D36823F4804323F002033D
:100668000B43D3602369002B30D02268136943F40D
:10067800803313612268D2F8C03023F47F5323F00B
:100688003F0321690B43C2F8C03094F84030012B76
:100698002BD02268136923F0010313616369012BCE
:1006A80035D02268136B23F00F031363E36D23F037
:1006B800030343F00103E36537E0264996E725493C
:1006C80094E7A26A013A43EA4243A3E7226813691E
:1006D80023F4803313612268D2F8C03023F47F53A7
:1006E80023F03F03C2F8C030CFE721680B6923F439
:1006F800FF6323F00403626CA56C2A43E56C2A436C
:10070800256D2A43134343F001030B61C6E72168B3
:100718000B6B23F00F03226A013A13430B63C5E7FF
:10072800E36D43F01003E365012003B030BD012001
:10073800FBE700BF08000020632D3E0500010050C4
:10074800000400500005005000060050000700504B
:100758000740F0FF000300507047704708B5806AF3
:10076800FFF7FBFF08BD704708B50346806AC26DF6
:1007780012F0500F30D1C36D43F40073C3650368A2
:100788001A6812F0080F14D0DA6812F4406F20D1FA
:10079800DB6813F4005F1CD1C36D23F48073C36559
:1007A800C36D13F4805F14D1C36D43F00103C365B7
:1007B8000FE0DB6813F0020F0BD1C36D23F48073D5
:1007C800C365C36D13F4805F03D1C36D43F00103A8
:1007D800C365FFF7C1FF08BDC26D12F0100F04D149
:1007E800426D526B18469047F5E7FFF7BCFFF2E7FA
:1007F80008B5806AC36D43F04003C365036E43F0D8
:1008080004030366FFF7AFFF08BD0000F0B583B02F
:100818000023019390F85830012B00F042820446DF
:100828000D46012380F858300068836813F0040FE0
:1008380009D0E36D43F02003E3650120002384F829
:10084800583003B0F0BD0A684968FFF709FE206810
:10085800836813F0040300D00123866816F00806A5
:1008680000D00126002B3ED1002E3CD1AA68B2F15F
:10087800004F78D02968FFF70BFE2268536923F0F0
:100888000043536169692268D368C3F3C1035B00FD
:1008980099402869042873D0603252F82070AB4B15
:1008A8003B402F6807F0F84C41EA0C010B4343F03A
:1008B800004342F8203023682869AA69603353F856
:1008C800201021F080710A4343F820202368296909
:1008D8002A7F012A51D0603353F8212022F0007278
:1008E800324343F821202268936813F0010F16D190
:1008F8002B68E868D2F8B010C3F3120621EA0601A3
:1009080000F018069248F0400340C3F312030B436B
:10091800C2F8B030EA688F4B9A4200F099802B6891
:100928008D4A134200F0B7812268B2F1A04F00F05F
:1009380050818A498A4200F049818949896801F0D1
:10094800E070884DAB4200F04681874DAB4200F025
:100958004281864DAB4200F07181854DAB4200F07B
:10096800858100206AE700222968FFF791FD226847
:10097800536943F00043536184E74FF00076AAE7D8
:10098800136E116EC1F384612B68C3F3120080BB30
:10099800C3F38463994234D021684B6E4A6EC2F324
:1009A80084622B68C3F3120080BBC3F384639A424A
:1009B80034D021688B6E8A6EC2F384622B68C3F3CD
:1009C800120080BBC3F384639A4234D02168CB6E93
:1009D800CA6EC2F384622B68C3F3120080BBC3F3F0
:1009E80084639A427FF47FAFCB6E23F00043CB66DB
:1009F80079E793FAA3F313B1B3FA83F3CAE7202391
:100A0800C8E7136E23F000431366C5E793FAA3F310
:100A180013B1B3FA83F3CAE72023C8E74B6E23F078
:100A280000434B66C5E793FAA3F313B1B3FA83F314
:100A3800CAE72023C8E78B6E23F000438B66C5E71F
:100A480093FAA3F313B1B3FA83F3CAE72023C8E7F1
:100A580020682B68C3F3120626BB9A0E013202F0F7
:100A68001F02092A8CBF00220122002A52D046BB4D
:100A7800990E0131890601F0F84176BB9F0E0137C6
:100A880007F01F070122BA401143AEBB9B0E01338A
:100A980003F01F0303EB43031B051943AA68FFF781
:100AA800F7FC3CE793FAA3F24AB1B2FA82F20132B8
:100AB80002F01F02092A8CBF00220122D5E720225A
:100AC800F5E793FAA3F131B1B1FA81F10131890661
:100AD80001F0F841D1E72021F8E793FAA3F24AB1EF
:100AE800B2FA82F2013202F01F024FF0010C0CFA46
:100AF80002F2C9E72022F5E793FAA3F343B1B3FA68
:100B080083F3013303F01F0303EB43031B05C4E71F
:100B18002023F6E776BB990E0131890601F0F841EA
:100B2800A6BB9F0E013707F01F070122BA401143E9
:100B3800DEBB9B0E013303F01F0303EB43031E3B95
:100B48001B0543F000731943A8E700BF00F0FF033B
:100B5800FFFF070000007F400000088000010050F0
:100B680000070050000021C31000C090000052C7C9
:100B7800000084CB93FAA3F131B1B1FA81F10131CC
:100B8800890601F0F841CBE72021F8E793FAA3F2B0
:100B98004AB1B2FA82F2013202F01F024FF0010CA0
:100BA8000CFA02F2C3E72022F5E793FAA3F35BB14C
:100BB800B3FA83F3013303F01F0303EB43031E3B34
:100BC8001B0543F00073BEE72023F3E701F500712E
:100BD800B4E63549B2E611F4000F7FF4BAAEB2F1CB
:100BE800A04F04D0314B9A4201D0002026E6B2F142
:100BF800A04F19D02E4B9A4214D02E4A40F4000030
:100C0800936823F0E073184390602B4B1B689B0993
:100C18002A4AA2FB03239B09013303EB43039B00EE
:100C2800019306E0204AE9E71F4AE7E7019B013BF9
:100C38000193019B002BF9D10020FFE511F0807F83
:100C48007FF48BAEB2F1A04F0ED0194B9A4209D067
:100C5800184A40F08070936823F0E073184390605E
:100C68000020EBE5104AF4E70F4AF2E711F4800F91
:100C780013D10F4B9A4212D0B2F1A04F09D00D49AF
:100C880040F480038A6822F0E07213438B600020EE
:100C9800D4E50549F4E70020D0E50020CEE50020A2
:100CA800CCE50220CDE500BF00030050000600504F
:100CB800000100500007005008000020632D3E0589
:100CC80030B583B00023019303689A6812F0010FCE
:100CD80063D104469968324A114220D19A6822F0B9
:100CE800004222F03F0242F001029A600368B3F129
:100CF800A04F20D02B4A93421BD02B4B9B6813F458
:100D0800000F20D0294B1B689B09294AA2FB03230B
:100D18009B09013303EB43039B00019310E0C36D70
:100D280043F01003C365036E43F00103036601201B
:100D380034E0204BE2E71F4BE0E7019B013B0193C6
:100D4800019B002BF9D100F005FA054623681A68C3
:100D580012F0010F1FD19A6812F0010F07D19A689B
:100D680022F0004222F03F0242F001029A6000F0B5
:100D7800F1F9431B022BE9D923681B6813F0010F13
:100D8800E4D1E36D43F01003E365236E43F0010300
:100D98002366012002E0002000E0002003B030BDFF
:100DA8003F000080000100500007005008000020AC
:100DB800632D3E05000300502DE9F04104460F461F
:100DC80090460068B0F1A04F24D0444B98421ED002
:100DD800434B9E6806F01F06856815F0040F77D10F
:100DE80094F85830012B76D0012384F858303D4BC5
:100DF800984211D0092E05D840F22123F34013F070
:100E0800010F09D1002384F85830012061E003F56F
:100E18000073DEE7344BDCE72046FFF751FF00287C
:100E280052D1E36D23F4706323F0010343F480731C
:100E3800E3652368294A934240D002F580629342D1
:100E480039D01A46934200D01EB9E36D23F48013BB
:100E5800E365E36D13F4805F33D0236E23F006035C
:100E68002366636D214ADA62636D214A1A63636DF2
:100E7800204A5A6323681C221A60002384F85830D9
:100E88002268536843F0100353602268D36843F024
:100E98000103D360216843463A464031606D01F052
:100EA800E7F82268936823F0004323F03F0343F0F8
:100EB800040393600DE0A2F58072C3E74FF0A042EF
:100EC800C0E700232366CCE7002384F8583000E00D
:100ED8000220BDE8F0810220FBE700BF00010050BE
:100EE800000700500006005000030050710700087A
:100EF80065070008F907000890F85820012A00F053
:100F0800D68010B49DB00346012280F858200022F4
:100F1800189219920068B0F1A04F47D0654A9042E4
:100F280047D000220192019A002A46D0926812F016
:100F3800040200D00122846814F0040F40F0A78056
:100F4800002A40F0A480B0F1A04F42D05A4A904203
:100F58003CD05A4A086800285CD0906820F4604069
:100F68004C6893F838C044EA4C34204390601868C1
:100F7800B0F1A04F2FD0504CA0422CD04D488468DF
:100F880014F0010400D001244D48806810F00100DD
:100F980000D0012020434B4CA46814F0010400D079
:100FA800012420430CBF0120002025E0424A019281
:100FB800B9E702F580720192B5E7DA6D42F02002D6
:100FC800DA65002283F85820012068E002F50072F3
:100FD800C0E73D4ABEE74FF0A040846814F0010422
:100FE80000D001243448806810F0010000D00120AE
:100FF80020430CBF01200020002854D0906820F422
:10100800716020F00F000C688968214308439060E4
:10101800002041E0916821F4604191601968B1F1C4
:10102800A04F1AD02448814217D02249886810F06E
:10103800010000D001202249896811F0010100D087
:10104800012101431F48806810F0010000D00120F1
:1010580001430CBF0121002110E04FF0A041886836
:1010680010F0010000D001201349896811F0010136
:1010780000D0012101430CBF01210021A9B19168D1
:1010880021F4716121F00F019160002004E0DA6D14
:1010980042F02002DA650120002283F858201DB0B2
:1010A8005DF8044B70470020F6E70020F4E70220C3
:1010B800704700BF000400500001005000070050B6
:1010C800000500500006005000030050104B1B683C
:1010D8000BB90120704710B504464FF47A70B0FB85
:1010E800F3F30C4A1068B0FBF3F001F0EFF868B9BD
:1010F8000F2C01D901200AE0002221464FF0FF30D1
:1011080001F0D4F8044B1C60002000E0012010BD61
:1011180000000020080000200400002010B5032073
:1011280001F0B2F80F20FFF7D1FF10B101242046DB
:1011380010BD0446FFF778F9F9E70000034A136881
:10114800034909680B441360704700BF3C00002046
:1011580000000020014B1868704700BF3C000020C9
:1011680038B50446FFF7F6FF0546B4F1FF3F02D055
:10117800044B1B681C44FFF7EDFF401BA042FAD349
:1011880038BD00BF00000020124BDA6802F00302ED
:10119800DB68C3F303130133032A11D00E48B0FBF5
:1011A800F3F00C4BDB68C3F3062303FB00F0094B99
:1011B800DB68C3F3416301335B00B0FBF3F07047B6
:1011C8000648B0FBF3F0034BDB68C3F3062303FBCD
:1011D80000F0ECE7001002400024F400006CDC0290
:1011E800002800F04F8270B582B00446036813F0FF
:1011F800010F37D0A44A936803F00C03D26802F0B9
:1012080003020C2B23D0082B23D06368B3F5803F4F
:101218004ED0B3F5A02F51D09B4B1A6822F48032E0
:101228001A601A6822F480221A606368002B52D070
:10123800FFF790FF0546944B1B6813F4003F11D14C
:10124800FFF788FF401B6428F5D9032023E2032A0F
:10125800D9D18D4B1B6813F4003F03D06368002B72
:1012680000F01282236813F0020F5DD0864A93685B
:1012780003F00C03D26802F003020C2B3AD0042BC3
:101288003AD0E368002B75D07F4A136843F4807323
:101298001360FFF75FFF05467B4B1B6813F4806FF5
:1012A8005FD1FFF757FF401B0228F5D90320F2E171
:1012B800754A136843F480331360B6E703F180433B
:1012C800A3F53C331A6842F480221A601A6842F483
:1012D80080321A60A9E7FFF73DFF05466A4B1B6895
:1012E80013F4003FBED0FFF735FF401B6428F5D943
:1012F8000320D0E1022AC2D1634B1B6813F4806F2C
:1013080003D0E368002B00F0C1815F4A536823F0E3
:10131800FE43216943EA016353605C4B1868FFF799
:10132800D5FE002840F0B481236813F0080F4CD094
:1013380063699BB3544AD2F8943043F00103C2F86E
:101348009430FFF707FF05464F4BD3F8943013F05E
:10135800020F3AD1FFF7FEFE401B0228F4D9032002
:1013680099E1494A536823F0FE43216943EA01633E
:101378005360D9E7444A136823F480731360FFF776
:10138800E9FE0546404B1B6813F4806FCCD0FFF78D
:10139800E1FE401B0228F5D903207CE13A4AD2F845
:1013A800943023F00103C2F89430FFF7D3FE0546CA
:1013B800354BD3F8943013F0020F06D0FFF7CAFE6E
:1013C800401B0228F4D9032065E1236813F0040FB9
:1013D80000F081802C4B9B6D13F0805F36D12A4B37
:1013E8009A6D42F080529A659B6D03F08053019389
:1013F800019B0125264B1B6813F4807F28D0A36826
:10140800012B39D0052B45D01F4BD3F8902022F063
:101418000102C3F89020D3F8902022F00402C3F808
:101428009020A368002B43D0FFF794FE0646164B86
:10143800D3F8903013F0020F4CD1FFF78BFE801BCE
:1014480041F288339842F2D9032024E10025D1E7FC
:101458000F4A136843F480731360FFF77BFE064658
:101468000B4B1B6813F4807FC9D1FFF773FE801BF9
:101478000228F5D903200EE1034AD2F8903043F050
:101488000103C2F89030CCE70010024004000020AD
:1014980000700040884BD3F8902042F00402C3F853
:1014A8009020D3F8902042F00102C3F89020B8E7CA
:1014B800FFF750FE0646804BD3F8903013F0020F2A
:1014C80008D0FFF747FE801B41F288339842F2D9D3
:1014D8000320E0E0E5B9236813F0200F35D0A369B5
:1014E800E3B1754AD2F8983043F00103C2F8983056
:1014F800FFF730FE0546704BD3F8983013F0020F13
:1015080023D1FFF727FE401B0228F4D90320C2E0AD
:10151800694A936D23F080539365DCE7664AD2F8F5
:10152800983023F00103C2F89830FFF713FE054600
:10153800614BD3F8983013F0020F06D0FFF70AFE7C
:10154800401B0228F4D90320A5E0E369002B00F032
:10155800A180594A926802F00C020C2A64D0022B2E
:1015680013D0554A136823F080731360FFF7F2FD18
:101578000446514B1B6813F0007F4ED0FFF7EAFD7D
:10158800001B0228F5D9032085E04B4A136823F095
:1015980080731360FFF7DEFD0546474B1B6813F0A9
:1015A800007F06D0FFF7D6FD401B0228F5D903209F
:1015B80071E0414AD36841491940236A606A013899
:1015C80043EA0013A06A43EA0023206B400801386D
:1015D80043EA4053606B4008013843EA4063E06ADD
:1015E80043EAC0631943D160136843F08073136002
:1015F800D36843F08073D360FFF7ACFD04462E4BED
:101608001B6813F0007F06D1FFF7A4FD001B02281A
:10161800F5D903203FE000203DE0274AD168284B58
:101628000B40D360002036E0012B36D0224BDB681C
:1016380003F00301226A914231D103F0F002616A9A
:101648000139B2EB011F2CD103F4FE42A16AB2EBBF
:10165800012F28D103F07842E16AB2EBC16F24D19F
:1016680003F4C001226B5208013AB1EB425F1ED16C
:1016780003F0C063626B5208013AB3EB426F18D1B2
:10168800002008E001207047012004E0012002E06A
:10169800012000E0002002B070BD0120FBE701201E
:1016A800F9E70120F7E70120F5E70120F3E701203A
:1016B800F1E70120EFE700BF001002400C809F0116
:1016C800FCFFEEFE1E4B9B6803F00C03042B33D08B
:1016D8001B4B9B6803F00C03082B2FD0184B9B68FF
:1016E80003F00C030C2B01D000207047144BDA6870
:1016F80002F00302DB68C3F303130133032A11D09A
:101708001048B0FBF3F00E4BDB68C3F3062303FB72
:1017180000F00B4BDB68C3F3416301335B00B0FBA4
:10172800F3F070470848B0FBF3F0054BDB68C3F3F0
:10173800062303FB00F0ECE70248704702487047B5
:10174800001002400024F400006CDC02002800F0C5
:10175800E680F8B50C460546744B1B6803F00F038A
:101768008B420BD2714A136823F00F030B431360AB
:10177800136803F00F038B4240F0D3802E6816F0F5
:1017880001065FD06B68032B2FD0022B4DD0684B1E
:101798001B6813F4806F00F0C680FFF793FF654B5A
:1017A80098424DD9624A936823F0F00343F08003CE
:1017B800936080265E4A936823F0030369680B43AD
:1017C8009360FFF7C7FC0746594B9B6803F00C036F
:1017D8006A68B3EB820F35D0FFF7BCFCC01B41F23F
:1017E80088339842F0D9032078E0514B1B6813F0F6
:1017F800007F01D1012071E0FFF7C6FC4D4B9842F4
:101808001AD94B4B9B6813F0F00F05D02E6816F0D1
:101818000206CFD0AB688BB9454A936823F0F00332
:1018280043F0800393608026C4E7414B1B6813F4A0
:10183800003FB2D1012051E00026BBE70026B9E7FE
:101848000026B7E72B6813F0020F48D013F0040FF7
:1018580004D0374A936843F4E06393602B6813F02D
:10186800080F06D0324A936823F47C5343F4E063AC
:1018780093602F4A936823F0F003A9680B439360A1
:101888002A4B1B6803F00F03A34230D82B6813F0D0
:10189800040F06D0264A936823F4E063E9680B43F3
:1018A80093602B6813F0080F07D0214A936823F43C
:1018B8006053296943EAC1039360FFF703FF1C4B98
:1018C8009B68C3F303131C4AD35C03F01F03D8407F
:1018D8001A4B18601A4B1868FFF7F8FBF8BD802EF2
:1018E800CED1134A936823F0F0039360C8E70F4AF8
:1018F800136823F00F0323431360FFF72BFC0646FE
:101908000A4B1B6803F00F03A342BFD0FFF722FC6A
:10191800801B41F288339842F2D90320DEE7012088
:1019280070470120DAE70120D8E700BF0020024015
:101938000010024000B4C404604B000808000020F6
:1019480004000020014B1868704700BF0800002001
:1019580008B5FFF7F7FF054B9B68C3F30223044A5A
:10196800D35C03F01F03D84008BD00BF001002403D
:10197800584B000808B5FFF7E5FF054B9B68C3F314
:10198800C223044AD35C03F01F03D84008BD00BF3C
:1019980000100240584B0008F0B583B004460368B5
:1019A80013F4002F6ED0354B9B6D13F0805F1ED162
:1019B800324B9A6D42F080529A659B6D03F08053CA
:1019C8000193019B01262E4A136843F48073136028
:1019D800FFF7C0FB05462A4B1B6813F4807F08D12C
:1019E800FFF7B8FB401B0228F5D9032502E00026C3
:1019F800E9E7002545BB214BD3F8903013F4407339
:101A080015D0226D9A4212D01C4AD2F8903023F495
:101A18004073D2F8901041F48031C2F89010D2F897
:101A2800901021F48031C2F89010C2F8903013F071
:101A3800010F10D145B9114AD2F8903023F4407300
:101A4800216D0B43C2F89030EEB10C4A936D23F030
:101A58008053936517E0FFF77DFB0746074BD3F8E4
:101A6800903013F0020FE5D1FFF774FBC01B41F271
:101A780088339842F2D90325DCE700BF0010024002
:101A8800007000400025236813F0010F08D09F4A1A
:101A9800D2F8883023F0030361680B43C2F888301A
:101AA800236813F0020F08D0984AD2F8883023F040
:101AB8000C03A1680B43C2F88830236813F0040FA5
:101AC80008D0924AD2F8883023F03003E1680B43FB
:101AD800C2F88830236813F0080F08D08B4AD2F870
:101AE800883023F0C00321690B43C2F8883023688B
:101AF80013F0100F08D0854AD2F8883023F44073C9
:101B080061690B43C2F88830236813F0200F08D0AE
:101B18007E4AD2F8883023F44063A1690B43C2F8A7
:101B28008830236813F0400F08D0784AD2F88830FC
:101B380023F44053E1690B43C2F88830236813F05B
:101B4800800F08D0714AD2F8883023F44043216AC4
:101B58000B43C2F88830236813F4807F08D06B4A9F
:101B6800D2F8883023F44033616A0B43C2F88830D6
:101B7800236813F4003F08D0644AD2F89C3023F05D
:101B88000303A16A0B43C2F89C30236813F4007F57
:101B980008D05E4AD2F8883023F44023E16A0B4328
:101BA800C2F88830236813F4806F0CD0574AD2F8F3
:101BB800883023F44013216B0B43C2F88830236B21
:101BC800B3F5801F79D0236813F4006F0CD04F4A07
:101BD800D2F8883023F44003616B0B43C2F8883095
:101BE800636BB3F5800F6DD0236813F4805F0CD05E
:101BF800464AD2F8883023F04073A16B0B43C2F8F1
:101C08008830A36BB3F1807F61D0236813F4005F41
:101C18000CD03E4AD2F8883023F04063E16B0B4386
:101C2800C2F88830E36BB3F1006F55D0236813F422
:101C3800804F0CD0354AD2F8883023F04063216CAD
:101C48000B43C2F88830236CB3F1006F49D0236886
:101C580013F4004F0CD02D4AD2F8883023F04053AB
:101C6800616C0B43C2F88830636CB3F1805F3DD080
:101C7800236813F4803F0CD0244AD2F8883023F02C
:101C88004043A16C0B43C2F88830A36CB3F1804F7A
:101C980031D0236813F4802F0CD01C4AD2F89C3022
:101CA80023F44013E16C0B43C2F89C30E36CB3F5AA
:101CB800001F25D0284603B0F0BDD36843F4801335
:101CC800D36080E7D36843F48013D3608CE7D3688C
:101CD80043F48013D36098E7D36843F48013D36048
:101CE800A4E7D36843F48013D360B0E7D36843F420
:101CF8008033D360BCE7D36843F48033D360C8E74C
:101D0800D36843F48013D360D4E700BF00100240C7
:101D1800F0B583B0002362E085685E000324B44018
:101D280025EA0405CC68B4402C438460456825EA5C
:101D38000C054C68C4F300149C402C4344605FE0DD
:101D4800DD08083550F8254003F0070C4FEA8C0CE5
:101D58004FF00F0E0EFA0CFE24EA0E0E0C6904FA70
:101D68000CF444EA0E0440F8254060E0052400E045
:101D7800002404FA0EF42C430CF1020C554D45F8DE
:101D88002C40554CA568D44325EA02064F6817F441
:101D9800801F01D042EA05064F4DAE60ED6804EAA7
:101DA80005064F6817F4001F01D042EA05064A4DA0
:101DB800EE606D6804EA05064F6817F4003F01D02D
:101DC80042EA0506444D6E602D682C404E6816F4B4
:101DD800803F01D042EA05043F4A146001330A6893
:101DE80032FA03F474D04FF0010C0CFA03FC1CEA2D
:101DF8000202F3D04C6804F00304013C012C8BD997
:101E08004C6804F00304032C0CD0C4685D004FF048
:101E1800030C0CFA05FC24EA0C0C8C68AC4044EA70
:101E28000C04C4604C6804F00304022C88D00468D5
:101E38004FEA430E4FF0030C0CFA0EFC24EA0C0C8C
:101E48004C6804F0030404FA0EF444EA0C04046039
:101E58004C6814F4403FC1D0204C256E45F0010574
:101E68002566246E04F001040194019C4FEA930C4A
:101E78000CF10205174C54F8255003F0030E4FEAF5
:101E88008E0E0F2404FA0EF425EA0405B0F1904FE3
:101E98003FF46EAF124CA04212D004F58064A04209
:101EA80010D004F58064A0420ED004F58064A042EE
:101EB8000CD004F58064A0423FF458AF062458E7DC
:101EC800012456E7022454E7032452E7042450E788
:101ED80003B0F0BD000001400004014000100240C2
:101EE8000004004830B4C46C056D6560446D14B1DD
:101EF800846DC56D6560446C04F01F0C012404FA00
:101F08000CF4056C6C60046863608368102B05D062
:101F1800036899600368DA6030BC704703689A60A8
:101F28000368D960F8E7000003680C4A934213D8A5
:101F38000B49DBB2083B0B4AA2FB0323426C22F09D
:101F480003020A448264084AC264C3F304130122E8
:101F580002FA03F3036570470449EAE707040240FD
:101F680000080240CDCCCCCC8008024020080240BA
:101F78000379074A1A4492004265064A8265013B82
:101F880003F01F03012202FA03F3C365704700BF81
:101F98003F8200104009024000285BD010B504467B
:101FA80001682D4B99423DD82C4B0B442C4AA2FB7F
:101FB80003231B099B0043642A4B0364022384F810
:101FC80025300A6822F4FF4222F07002A368E06814
:101FD80003432069034360690343A0690343E0693D
:101FE8000343206A034313430B602046FFF79CFF1B
:101FF800A368B3F5804F20D0A36C22791A60E36CF4
:10200800226D5A606368013B032B19D9002363656D
:10201800A365E3650020E063012384F8253084F894
:10202800240010BD104B0B440D4AA2FB03231B09CF
:102038009B0043640D4B0364C0E700236360DBE748
:102048002046FFF795FF636D00221A60A36DE26DCD
:102058005A60DFE70120704707040240F8FFFDBF20
:10206800CDCCCCCC00000240F8FBFDBF0004024000
:1020780038B5044690F82400012841D0012084F89E
:10208800240094F82500C0B2012804D0002384F865
:102098002430022038BD022084F825000020E063A7
:1020A8002568286820F0010028602046FFF71AFFFD
:1020B800236BD3B12268136843F00E031360A36C3B
:1020C8001A6812F4803F03D01A6842F480721A60CA
:1020D800636D1BB11A6842F480721A602268136833
:1020E80043F0010313600020D4E72268136823F04B
:1020F800040313602268136843F00A031360DEE7E1
:102108000220C7E7002836D13E4B1B6803F4C063A2
:10211800B3F5806F08D03B4AD2F8803023F480733F
:10212800C2F8803000207047364AD2F8803023F455
:102138008073C2F88030136823F4C06343F40073DB
:102148001360314B1B68322202FB03F32F4AA2FBB8
:1021580003239B0C013300E0013B2A4A526912F425
:10216800806F01D0002BF7D1264B5B6913F4806F89
:1021780044D100207047B0F5007F08D0214A136889
:1021880023F4C06343F480631360002070471D4B41
:102198001B6803F4C063B3F5806F08D0194AD2F8FE
:1021A800803043F48073C2F8803000207047154AAD
:1021B800D2F8803043F48073C2F88030136823F477
:1021C800C06343F4007313600F4B1B68322202FB99
:1021D80003F30E4AA2FB03239B0C013300E0013BEF
:1021E800084A526912F4806F01D0002BF7D1054BD1
:1021F8005B6913F4806F03D1002070470320704798
:1022080003207047007000400800002083DE1B4355
:10221800024A936843F4804393607047007000401B
:10222800002808DB0901C9B200F1604000F56140EF
:1022380080F80013704700F00F000901C9B2014B84
:102248001954704714ED00E000B500F00700C0F124
:10225800070CBCF1040F28BF4FF0040C031D062B1C
:102268000FD9C31E4FF0FF3E0EFA0CF021EA000111
:1022780099400EFA03FE22EA0E0241EA02005DF8D6
:1022880004FB0023EEE70000074AD36823F4E06369
:102298001B041B0C000200F4E060034343F0BF631F
:1022A80043F40033D360704700ED00E010B50446F6
:1022B800054BD868C0F30220FFF7C6FF0146204649
:1022C800FFF7AEFF10BD00BF00ED00E00138B0F130
:1022D800807F0BD24FF0E0235861054AF02182F845
:1022E80023100020986107221A6170470120704767
:1022F80000ED00E030B4026A036A23F001030362D0
:102308004468836923F4803323F073030D681D4305
:1023180022F002028B681343204A904213D002F540
:10232800006290420FD002F5406290420BD002F555
:102338008062904207D002F58062904203D002F595
:102348000062904205D123F00803CA681A4322F0BC
:102358000403124A904213D002F5006290420FD053
:1023680002F5406290420BD002F58062904207D09D
:1023780002F58062904203D002F50062904205D1D6
:1023880024F440744A6922438C691443446085618B
:102398004A684263036230BC704700BF002C0140AA
:1023A80030B4036A026A22F4807202624468C26925
:1023B80022F4803222F073020D68154323F400736F
:1023C8008A6843EA02231C4A904207D002F5006259
:1023D800904203D002F5E052904206D123F4006304
:1023E800CA6843EA022323F48063134A904213D055
:1023F80002F5006290420FD002F5406290420BD085
:1024080002F58062904207D002F58062904203D0C4
:1024180002F50062904207D124F440524C6942EA26
:1024280004128C6942EA04144460C5614A68C263B4
:10243800036230BC704700BF002C014030B4036A0F
:10244800026A22F4805202624468C26922F08072F1
:1024580022F4E6420D6842EA052223F400538D680F
:1024680043EA05331B4DA84207D005F50065A8428D
:1024780003D005F5E055A84206D123F40043CD6802
:1024880043EA053323F48043124DA84213D005F5DF
:102498000065A8420FD005F54065A8420BD005F5A8
:1024A8008065A84207D005F58065A84203D005F5E8
:1024B8000065A84207D124F4404C4C694CEA841CBE
:1024C8008C694CEA84144460C2614A6802640362FD
:1024D80030BC7047002C014030B4036A026A22F411
:1024E800803202624468026D22F4803222F0700267
:1024F8000D68154323F400338A6843EA0243114AFE
:10250800904213D002F5006290420FD002F540626B
:1025180090420BD002F58062904207D002F58062AB
:10252800904203D002F50062904204D124F4803432
:102538004A6944EA0224446005654A688264036281
:1025480030BC7047002C014030B4036A026A22F4A0
:10255800801202624468026D22F0807222F4E04226
:102568000D6842EA052223F400138D6843EA0553F7
:10257800114DA84213D005F50065A8420FD005F506
:102588004065A8420BD005F58065A84207D005F53F
:102598008065A84203D005F50065A84204D124F45B
:1025A80080244D6944EA8524446002654A68C2640F
:1025B800036230BC704700BF002C014090F83D30EA
:1025C800DBB2012B35D1022380F83D3003681C4A69
:1025D800934220D0B3F1804F1DD0A2F5943293429C
:1025E80019D002F58062934215D002F580629342B9
:1025F80011D002F5943293420DD002F54062934215
:1026080009D002F58052934205D01A6842F00102BF
:102618001A600020704799680A4A0A40062A0AD0B8
:10262800B2F5803F09D01A6842F001021A60002012
:10263800704701207047002070470020704700BF96
:10264800002C01400700010003683A4A904216D066
:10265800B0F1804F13D0A2F5943290420FD002F51A
:10266800806290420BD002F58062904207D002F55A
:102678009432904203D002F5E052904203D123F005
:1026880070034A6813432B4A904222D0B0F1804F1E
:102698001FD0A2F5943290421BD002F5806290427E
:1026A80017D002F58062904213D002F5943290421E
:1026B8000FD002F5406290420BD002F58062904242
:1026C80007D002F58062904203D002F50062904282
:1026D80003D123F44073CA68134323F080034A6983
:1026E800134303608B68C3620B688362114B984283
:1026F80013D003F5006398420FD003F54063984266
:102708000BD003F58063984207D003F580639842A5
:1027180003D003F50063984201D10B6903630123D9
:102728004361036913F0010F03D0036923F0010328
:1027380003617047002C014060B310B5044690F85F
:102748003D3013B3022384F83D30214651F8040B81
:10275800FFF77AFF012384F8483084F83E3084F884
:102768003F3084F8403084F8413084F8423084F8AF
:10277800433084F8443084F8453084F8463084F88F
:10278800473084F83D30002010BD80F83C3001F01F
:10279800E9FCD7E70120704730B4036A026A22F0E7
:1027A800100202624468826922F0807222F4E642D2
:1027B8000D6842EA052223F020038D6843EA0513D9
:1027C8001B4DA84207D005F50065A84203D005F5C2
:1027D800E055A84206D123F08003CD6843EA0513EB
:1027E80023F04003124DA84213D005F50065A84216
:1027F8000FD005F54065A8420BD005F58065A842C5
:1028080007D005F58065A84203D005F50065A84204
:1028180007D124F4406C4C694CEA840C8C694CEA6E
:102828008404446082614A688263036230BC7047F2
:10283800002C014038B590F83C30012B00F0958011
:1028480004460D46012380F83C30142A00F28880A3
:10285800DFE802F00B8686861F86868634868686A3
:10286800488686865D86868671000068FFF742FD89
:102878002268936943F0080393612268936923F0FF
:10288800040393612268936929690B4393610020CB
:1028980067E00068FFF780FF2268936943F40063EC
:1028A80093612268936923F4806393612268936932
:1028B800296943EA01239361002052E00068FFF789
:1028C8006FFD2268D36943F00803D3612268D36996
:1028D80023F00403D3612268D36929690B43D361C8
:1028E80000203EE00068FFF7A9FD2268D36943F4A1
:1028F8000063D3612268D36923F48063D3612268BB
:10290800D369296943EA0123D361002029E00068DB
:10291800FFF7E2FD2268136D43F008031365226890
:10292800136D23F0040313652268136D29690B43A3
:102938001365002015E00068FFF706FE2268136D96
:1029480043F4006313652268136D23F480631365F1
:102958002268136D296943EA01231365002000E00A
:102968000120002384F83C3038BD0220FCE701F048
:102978001F014FF0010C0CFA01FC036A23EA0C0357
:102988000362036A8A4013430362704710B5044622
:1029980010293DD8DFE801F0093C3C3C203C3C3C98
:1029A800273C3C3C2E3C3C3C350090F83E30DBB2AA
:1029B800013B18BF0123002B40F09B80102900F237
:1029C8008680DFE801F02C8484847484848478848D
:1029D80084847C848484800090F83F30DBB2013B9F
:1029E80018BF0123E7E790F84030DBB2013B18BF7E
:1029F8000123E0E790F84130DBB2013B18BF012327
:102A0800D9E790F84230DBB2013B18BF0123D2E787
:102A180090F84330DBB2013B18BF0123CBE7022318
:102A280084F83E3001222068FFF7A1FF2368344A6A
:102A3800934213D002F5006293420FD002F5406230
:102A480093420BD002F58062934207D002F5806270
:102A5800934203D002F50062934203D15A6C42F4C8
:102A680000425A642368264A934234D0B3F1804F17
:102A780031D0A2F5943293422DD002F58062934270
:102A880029D002F58062934225D002F59432934210
:102A980021D002F5406293421DD002F58052934244
:102AA80019D01A6842F001021A60002022E00223BD
:102AB80084F83F30B6E7022384F84030B2E70223B7
:102AC80084F84130AEE7022384F84230AAE70223B3
:102AD80084F84330A6E799680A4A0A40062A0AD0C9
:102AE800B2F5803F09D01A6842F001021A6000204E
:102AF80000E0012010BD0020FCE70020FAE700BF3D
:102B0800002C01400700010001F00F014FF0040CF8
:102B18000CFA01FC036A23EA0C030362036A8A4085
:102B2800134303627047000010B5044608460029A5
:102B38003BD194F84430DBB2013B18BF0123002B92
:102B48006AD100284AD1022384F84430042201467D
:102B58002068FFF7D9FF2268536C43F4004353649D
:102B68002368304A934249D0B3F1804F46D0A2F54A
:102B78009432934242D002F5806293423ED002F5ED
:102B8800806293423AD002F59432934236D002F5ED
:102B98004062934232D002F5805293422ED01A6896
:102BA80042F001021A60002037E0042908D0082901
:102BB8000DD094F84730DBB2013B18BF0123BEE7C4
:102BC80094F84530DBB2013B18BF0123B7E794F80E
:102BD8004630DBB2013B18BF0123B0E7042805D01B
:102BE800082807D0022384F84730AFE7022384F887
:102BF8004530ABE7022384F84630A7E799680A4ACC
:102C08000A40062A0AD0B2F5803F09D01A6842F075
:102C180001021A60002000E0012010BD0020FCE73E
:102C28000020FAE7002C01400700010090F83C2042
:102C3800012A4CD030B40346012280F83C200222FD
:102C480080F83D20006842688468224DA84207D079
:102C580005F50065A84203D005F5E055A84203D163
:102C680022F470024D682A4322F0007222F07002AA
:102C78000D682A4342601A68164882421AD0B2F197
:102C8800804F17D0A0F59430824213D000F58060B1
:102C980082420FD000F5806082420BD000F594305C
:102CA800824207D000F54060824203D000F5805090
:102CB800824204D124F08004896821439160012272
:102CC80083F83D20002083F83C0030BC7047022088
:102CD800704700BF002C014090F83C30012B4AD0CF
:102CE80010B40246012380F83C30CB6823F44073CB
:102CF8008868034323F480634868034323F400632C
:102D08000868034323F480530869034323F40053FA
:102D18004869034323F48043086B034323F4702377
:102D2800886943EA004323F08053C8690343106865
:102D3800124CA04207D004F50064A04203D004F569
:102D4800E054A04210D123F470038C6A43EA045380
:102D580023F080730C6A234323F000734C6A2343E7
:102D680023F00053C96A0B434364002082F83C00F7
:102D78005DF8044B70470220704700BF002C0140EB
:102D8800026852E8003F23F4907342E800310029BA
:102D9800F6D1026802F1080353E8003F23F080539C
:102DA80023F00103083242E800310029F1D1C36E53
:102DB800012B06D02023C0F88C300023C36643675C
:102DC8007047026852E8003F23F0100342E80031E0
:102DD8000029F6D1EEE7000070B504460168836863
:102DE8000269134342691343C26913430868964A48
:102DF80002401A430A602268536823F44053E1688A
:102E08000B435360A1692268904B9A4201D0236A10
:102E18001943936823F06E4323F430630B439360A4
:102E28002268D36A23F00F03616A0B43D3622368D5
:102E3800874A934210D0874A934221D0864A9342C8
:102E480037D0864A93425CD0854A93426BD07F4AFA
:102E580093427DD010223AE002F55842D2F88820F9
:102E680002F00302032A09D8DFE802F00204870609
:102E780001222CE004222AE0082228E0102226E081
:102E880002F5E632D2F8882002F00C020C2A0ED89D
:102E9800DFE802F0070D0D0D090D0D0D750D0D0D77
:102EA8000B00002213E0042211E008220FE0102298
:102EB8000DE002F5E432D2F8882002F03002202A30
:102EC8005FD01AD8002A5ED0102A5ED104225F494A
:102ED8008B4276D0E069B0F5004F00F0C980082A2F
:102EE80000F23481DFE812F0F7001901F500320131
:102EF8001C013201320132011F01302A47D1082258
:102F0800E5E702F5E232D2F8882002F0C002802A12
:102F18003FD004D8FAB3402A3FD10422D7E7C02AC9
:102F28003DD10822D3E702F5E032D2F8882002F436
:102F38004072B2F5007F34D005D8A2B3B2F5807FD5
:102F480033D10422C3E7B2F5407F30D10822BEE76F
:102F580002F5C832D2F8882002F44062B2F5006F58
:102F680027D005D83AB3B2F5806F26D10422AEE750
:102F7800B2F5406F23D10822A9E70222A7E702226F
:102F8800A5E70222A3E70022A1E710229FE710226B
:102F98009DE702229BE7002299E7102297E710227B
:102FA80095E7022293E7002291E710228FE710228B
:102FB8008DE702228BE7002289E7102287E710229B
:102FC80085E7082A00F2B280DFE802F008B03BB0DB
:102FD80038B0B0B005004FF4004004E0FEF7B8FC8C
:102FE800002800F0A580626A1E4B33F81220B0FB5F
:102FF800F2F3656805EB4501994200F29B80B3EB5B
:10300800053F00F29980002633463146FDF7E0F887
:10301800090241EA106100026B08C0182A463346CB
:1030280041F10001FDF7D4F8A0F540720E4B9A4229
:1030380000F284802368D860304665E0FEF742FBE2
:10304800CEE70A48CFE700BFF369FFCF0080004012
:10305800003801400044004000480040004C004057
:1030680000500040304B0008FFFC0F000024F40023
:10307800082A65D8DFE802F0072705642A64646433
:103088000B00354803E0FEF763FC00285AD0626A5B
:10309800324B33F81230B0FBF3F06268530803EB9D
:1030A8004003B3FBF2F3A3F110014FF6EF72914224
:1030B8004AD89AB222F00F02C3F34203134322689C
:1030C800D360002020E0FEF755FCDEE7FEF7FAFAB1
:1030D800DBE7214803E0FEF73BFC002838D0626AB2
:1030E8001E4B33F81230B0FBF3F0636800EB53006B
:1030F800B0FBF3F0A0F110024FF6EF739A4229D813
:10310800236880B2D86000200123A4F86A30A4F8AC
:10311800683000236367A36770BDFEF72BFCDCE70C
:10312800FEF7D0FAD9E74FF40040D8E70120EBE7E3
:103138000020E9E70120E7E70120E5E70120E3E7D0
:103148000120E1E70020DFE70120DDE70120DBE7E0
:103158000020D9E70120D7E70024F400304B00080D
:10316800836A13F0080F06D00268536823F40043FB
:10317800816B0B435360836A13F0010F06D002681A
:10318800536823F40033C16A0B435360836A13F016
:10319800020F06D00268536823F48033016B0B4397
:1031A8005360836A13F0040F06D00268536823F44F
:1031B8008023416B0B435360836A13F0100F06D0D2
:1031C8000268936823F48053C16B0B439360836A4E
:1031D80013F0200F06D00268936823F40053016CA3
:1031E8000B439360836A13F0400F0AD00268536858
:1031F80023F48013416C0B435360436CB3F5801F79
:103208000BD0836A13F0800F06D00268536823F44A
:103218000023C16C0B43536070470268536823F462
:10322800C003816C0B435360EBE72DE9F843054677
:103238000E4617469946DDF820802B68DC6936EA89
:1032480004040CBF01240024BC4236D1B8F1FF3F6E
:10325800F3D0FDF77FFFA0EB0900404530D8B8F167
:10326800000F2FD02B681A6812F0040FE5D0802EBB
:10327800E3D0402EE1D0DA6912F0080F11D1DA69F3
:1032880012F4006FD9D04FF400621A622846FFF793
:1032980077FD2023C5F89030002385F8843003207B
:1032A8000CE008241C622846FFF76AFDC5F8904028
:1032B800002385F88430012000E00020BDE8F88371
:1032C8000320FBE70320F9E730B583B00446002369
:1032D800C0F89030FDF73EFF05462268126812F0EC
:1032E800080F10D123681B6813F0040F28D120237E
:1032F800C4F88830C4F88C300020E066206784F871
:10330800840003B030BD6FF07E4300930346002273
:103318004FF400112046FFF788FF0028E2D022680A
:1033280052E8003F23F0800342E800310029F6D13B
:103338002023C4F88830002384F884300320E0E791
:103348006FF07E4300932B4600224FF48001204605
:10335800FFF76BFF0028CAD0226852E8003F23F429
:10336800907342E800310029F6D1226802F108037F
:1033780053E8003F23F00103083242E800310029F6
:10338800F3D12023C4F88C30002384F88430032040
:10339800B7E778B310B50446D0F888300BB32423C8
:1033A800C4F888302268136823F001031360A36A05
:1033B800E3B92046FFF710FD012811D022685368B1
:1033C80023F4904353602268936823F02A039360A0
:1033D8002268136843F0010313602046FFF774FF67
:1033E80010BD80F8843001F039F9D8E72046FFF79E
:1033F800B7FEDEE701207047436E2BB90123A0F822
:103408006A30A0F86830704730B403689A68C2F32D
:1034180042629968490F094D6B5CDB00084C615C9E
:1034280093FBF1F3A0F86A30AB5CDB00A25C93FB82
:10343800F2F3A0F8683030BC704700BF504B00086A
:10344800484B000890F88430012B18D0012380F8ED
:1034580084302423C0F8883003681A68196821F07A
:103468000101196022F000520023436601680A60D6
:103478002022C0F8882080F884301846704702203F
:10348800704738B590F88430012B1DD004460123CD
:1034980080F884302423C0F8883003681D681A68CF
:1034A80022F001021A600268936823F0604319430E
:1034B8009160FFF7A1FF23681D602023C4F88830BE
:1034C800002084F8840038BD0220FCE738B590F865
:1034D8008430012B1DD00446012380F88430242336
:1034E800C0F8883003681D681A6822F001021A6063
:1034F8000268936823F0606319439160FFF77CFFCB
:1035080023681D602023C4F88830002084F88400D4
:1035180038BD0220FCE70000034AD2F8883043F4A3
:103528007003C2F88830704700ED00E010B40268FC
:103538001D4B9A4228D01D491D4B9A4226D0016442
:10354800D2F8803023F4F813446B43EA0443C2F8FA
:10355800803001F1700343640268D2F8803023F0B0
:103568007063846B43EA0463C2F8803001F1B003EE
:10357800836401F5C473C36401F51873036501F529
:103588001E7343650B4607E00A49D5E701F5D46188
:10359800D5E7002243F8042B01F554729A42F8D873
:1035A8005DF8044B704700BF0068004000A400406D
:1035B800006C004050A7004070B54C68ECB90D692C
:1035C8008C6825430C6845EA8445CC690E6A44EA50
:1035D80006648E6934434E693443CE6844EA06442F
:1035E800406D03EBC30300EBC30E40F83350CEF835
:1035F80004400EF1080E002019E00C698D6825437F
:103608000C68254345F08045DFE702EB000C9CF889
:1036180003409CF802301B0443EA04639CF8014011
:1036280043EA0423145C23434EF8043B0430CB687C
:10363800024CE35C8342E8D870BD00BF704B0008C1
:10364800002800F0E38038B5044690F85C30D3B128
:103658002268936923F010039361FDF77BFD05460B
:1036680023689A6912F0080F12D0FDF773FD401B0A
:103678000A28F5D9236E43F001032366032384F84F
:103688005C30012038BD80F85D3000F023FDDFE7B5
:103698009A6942F001029A61FDF75CFD05462368CC
:1036A8009A6912F0010F0DD1FDF754FD401B0A284D
:1036B800F5D9236E43F001032366032384F85C30B5
:1036C8000120DFE79A6942F002029A612268504BB2
:1036D8009A4242D0237C012B45D02268936943F05B
:1036E80040039361637C012B43D02268936923F4E0
:1036F80080439361A37C012B41D02268936943F4F2
:10370800805393612268936923F44073A1680B4343
:1037180093612268936923F0A40393612268136973
:1037280023F010031361E368012B2ED0002B31D056
:10373800022B54D02268936943F080039361226876
:10374800136943F010031361E368032B22D1226845
:10375800936943F0200393611CE06268A3F58063DA
:10376800C3F80025B6E72268936923F04003936104
:10377800B8E72268936943F480439361BAE7226803
:10378800936923F480539361BCE72268936943F0FB
:1037980004039361A3695A1EE369013B1B0243EAD0
:1037A8004263226A013A13436269013A216843EA93
:1037B8000243CB61A368B3F5407F16D02268D2F8E4
:1037C800C030E16B0B43C2F8C0302046FFF7AEFEB5
:1037D8000020A0652066012384F85C3052E7226847
:1037E800936943F020039361D4E7A36A013BE26A3B
:1037F800013A43EA0223226B013A43EA0213626A5E
:10380800013A216843EA0243CB60D7E701207047B9
:103818000064004090F85C30DBB2012B05D0036EE9
:1038280043F00403036601207047022380F85C30EC
:103838000268936923F00103936100230366184625
:10384800704738B5044690F85C30DBB2022B1BD1C8
:103858000368D3F8C40010F4001F05D0236E43F4A6
:1038680000732366012014E0D3F8C450C5F3014562
:103878002B462046FFF7A0FE22680123AB40C2F882
:10388800CC30A365002004E0036E43F00803036610
:10389800012038BD00B58DB0002307930893099324
:1038A8000A930B9303F1804303F50433DA6C42F077
:1038B8001002DA64DA6C02F010020192019ADA6CF2
:1038C80042F00402DA64DA6C02F004020292029A0C
:1038D800DA6C42F02002DA64DA6C02F02002039219
:1038E800039ADA6C42F00102DA64DA6C02F001023F
:1038F8000492049ADA6C42F00202DA64DA6C02F09A
:1039080002020592059ADA6C42F00802DA64DB6C6E
:1039180003F008030693069B4FF44043079307A957
:103928000248FEF7F5F90DB05DF804FB0004004805
:1039380010B58CB0002409940A940B9420222146D7
:1039480001A800F05AFF26484FF0A04303604FF447
:10395800A01343608460C4600461012343610422AE
:103968008261047743770222026280F82440C462AD
:10397800046380F83830C46380F84040FCF79EFD4B
:1039880010BB0023099309A91548FDF7B5FAF0B94A
:10399800144B019306230293002303937F2204927E
:1039A8000422059206930DEB02010D48FCF72EFF49
:1039B80080B90D4B01930C23029301A90848FCF729
:1039C80025FF50B90CB010BDFCF762FCD9E7FCF735
:1039D8005FFCDDE7FCF75CFCEBE7FCF759FCF1E783
:1039E80018030020020030040400600800B589B004
:1039F80020220021684600F000FF2748274B03607B
:103A08004FF4A013436000238360C3600361012265
:103A1800426104218161037742770321016280F8C2
:103A28002430C362036380F83820C36380F84030D1
:103A3800FCF744FD20BB1A4B009306230193002397
:103A480002937F2203920422049205936946124846
:103A5800FCF7DCFEB8B9134B00930C2301936946BD
:103A68000D48FCF7D3FE88B90F4B0093122301933E
:103A780069460948FCF7CAFE58B909B05DF804FB65
:103A8800FCF706FCD7E7FCF703FCE4E7FCF700FCCF
:103A9800EAE7FCF7FDFBF0E7AC020020000100506C
:103AA8000008302E002090360010603210B58CB01F
:103AB800002409940A940B942022214601A800F0BE
:103AC8009CFE2C482C4B03604FF4403343608460C9
:103AD800C46004610123436104228261047743774F
:103AE8000322026280F82440C462046380F83830FC
:103AF800C46380F84040FCF7E1FC00282BD1002388
:103B0800099309A91B48FDF7F7F938BB1B4B01932B
:103B180006230293002303937F2204920422059232
:103B280006930DEB02011348FCF770FEC8B9144B5D
:103B380001930C23029301A90E48FCF767FE98B97C
:103B4800104B01931223029301A90A48FCF75EFE69
:103B580068B90CB010BDFCF79BFBD0E7FCF798FBED
:103B6800D4E7FCF795FBE2E7FCF792FBE8E7FCF704
:103B78008FFBEEE740020020000400501000C01048
:103B8800400020190400600800B589B020220021F7
:103B9800684600F032FE1B481B4B03604FF440336D
:103BA800436000238360C360036143610422826130
:103BB800037743770122026280F82430C3620363EB
:103BC80080F83830C36380F84030FCF777FC90B950
:103BD8000E4B009306230193002302937F22039246
:103BE80004220492059369460648FCF70FFE28B99B
:103BF80009B05DF804FBFCF74BFBE9E7FCF748FB71
:103C0800F6E700BFD4010020000500500010603224
:103C180000B589B020220021684600F0EEFD1B485F
:103C28001B4B03604FF44033436000238360C36041
:103C380003614361042282610377437701220262B0
:103C480080F82430C362036380F83830C36380F897
:103C58004030FCF733FC90B90E4B009306230193D8
:103C6800002302937F22039204220492059369465B
:103C78000648FCF7CBFD28B909B05DF804FBFCF752
:103C880007FBE9E7FCF704FBF6E700BF6801002043
:103C98000006005002003004F0B5A9B00446002127
:103CA8002391249125912691279154220EA800F062
:103CB800A4FD2368B3F1A04F10D0904A93425CD082
:103CC8008F4A934200F0C9808E4A934200F03681B1
:103CD8008D4A934200F0798129B0F0BD4FF400433A
:103CE8000E934FF000531F930EA8FDF755FE0028C2
:103CF80032D1864A136801331360012B2FD0844BCD
:103D0800DA6C42F00102DA64DB6C03F0010302931F
:103D1800029B0323239324930025259523A94FF081
:103D28009040FDF7F5FF7B487B4B0360052343601C
:103D38008560C560802303614FF4807343614FF44D
:103D4800806383612023C3610562FEF725F988B982
:103D5800704B63659C62BFE7FCF79AFAC9E76C4B46
:103D6800DA6C42F40052DA64DB6C03F4005301931A
:103D7800019BC4E7FCF78CFAEAE74FF400430E9383
:103D88004FF000531F930EA8FDF706FE002853D1ED
:103D98005E4A136801331360012B50D05C4BDA6C18
:103DA80042F00102DA64DA6C02F001020492049A29
:103DB800DA6C42F00402DA64DA6C02F0040205926A
:103DC800059ADA6C42F00202DA64DB6C03F0020353
:103DD8000693069B202623960327249700252595DE
:103DE80023A94FF09040FDF793FF2396249725953C
:103DF80023A94A48FDF78CFF04232393249725958C
:103E080023A94748FDF784FF4648474B036024230E
:103E180043608560C560802303614FF4807343610C
:103E28004FF480638361C6610562FEF7B5F888B90F
:103E38003C4B63659C624FE7FCF72AFAA8E7344BD2
:103E4800DA6C42F40052DA64DB6C03F40053039337
:103E5800039BA3E7FCF71CFAEAE74FF480330E93C1
:103E68004FF0004320930EA8FDF796FD002833D1AC
:103E78002E4A136801331360012B30D0244BDA6CBF
:103E880042F01002DA64DB6C03F010030893089B1D
:103E98004FF460732393032324930025259523A9C6
:103EA8002348FDF735FF2348234B03602523436050
:103EB8008560C560802303614FF4807343614FF4CC
:103EC800806383612023C3610562FEF765F888B9C2
:103ED800184B63659C62FFE6FCF7DAF9C8E70C4B00
:103EE800DA6C42F48042DA64DB6C03F480430793B3
:103EF800079BC3E7FCF7CCF9EAE700BF00010050D5
:103F08000004005000050050000600504400002046
:103F18000010024008010020080402400008004880
:103F280000040048A80000200800024040000020CB
:103F380000100048480000201C0002404FF4803365
:103F48000E934FF0004320930EA8FDF725FD00289F
:103F58002DD1384A136801331360012B2AD0364B10
:103F6800DA6C42F00202DA64DA6C02F002020A92B7
:103F78000A9ADA6C42F00802DA64DB6C03F0080390
:103F88000B930B9B4FF48053239303252495002414
:103F9800259423A92948FDF7BBFE4FF4807323938A
:103FA8002495259423A92648FDF7B2FE94E6FCF74C
:103FB8006FF9CEE7204BDA6C42F48042DA64DB6CAE
:103FC80003F480430993099BC9E74FF480330E93A8
:103FD8004FF0004320930EA8FDF7DEFCE0B9154A28
:103FE800136801331360012B19D0134BDA6C42F0BC
:103FF8000102DA64DB6C03F001030D930D9B4FF4AF
:1040080080732393032324930023259323A94FF03C
:104018009040FDF77DFE5FE6FCF73AF9DFE7064BD7
:10402800DA6C42F48042DA64DB6C03F480430C936C
:104038000C9BDAE740000020001002400004004812
:10404800000C004884B00F4B9A6C42F004029A644A
:104058009A6C02F004020192019A9A6C42F00102F1
:104068009A649A6C02F001020292029A9A6C42F0E7
:1040780002029A649B6C03F002030393039B04B04F
:10408800704700BF0010024008B51048104B03608D
:10409800002343608360C3600374437483740F22F6
:1040A8004261012282610521C161042101624262EB
:1040B8008262C262026343638363C363FFF7C0FA29
:1040C80000B908BDFCF7E4F8FBE700BF8403002053
:1040D8000064004010B59CB0044600211791189167
:1040E80019911A911B91542202A800F086FB2268AC
:1040F8001A4B9A4201D01CB010BD4FF48053029362
:104108004FF00073109302A8FDF746FC10BB144B48
:104118009A6D42F000729A659A6D02F000720092F0
:10412800009ADA6C42F00102DA64DB6C03F00103F6
:104138000193019B4FF4C053179302231893002354
:1041480019931A9309231B9317A94FF09040FDF771
:10415800DFFDD0E7FCF79CF8D9E700BF006400401A
:104168000010024084B00368154A934207D0154AEC
:1041780093420FD0144A934217D004B07047134BA0
:104188001A6E42F400621A661B6E03F40063019310
:10419800019BF2E70D4B9A6D42F002029A659B6D06
:1041A80003F002030293029BE7E7084B9A6D42F083
:1041B80004029A659B6D03F004030393039BDCE7F9
:1041C800002C01400004004000080040001002409C
:1041D80070B58AB000230593069307930893099353
:1041E80003683C4A934207D03B4A934248D03B4A33
:1041F800934259D00AB070BD394BDA6C42F00402D0
:10420800DA64DA6C02F004020192019ADA6C42F084
:104218001002DA64DB6C03F010030293029B4FF484
:104228000053059302250695042309932D4E05A9ED
:104238003046FDF76DFD012305930695002407948C
:104248000894099505A93046FDF762FD4FF48043AF
:104258000593069507940894099506F5006605A93F
:104268003046FDF755FD4FF4004305930695079436
:1042780008940623099305A93046FDF749FDB9E7D7
:10428800174BDA6C42F01002DA64DB6C03F01003AF
:104298000393039B1C23059302230693099305A903
:1042A8001148FDF735FDA5E70D4BDA6C42F0080221
:1042B800DA64DB6C03F008030493049B4FF4405367
:1042C800059302230693099305A90848FDF720FDE5
:1042D80090E700BF002C01400004004000080040A7
:1042E800001002400008004800100048000C004878
:1042F80010B598B000241594169417940E940F9442
:10430800109411941294139414943422214601A801
:1043180000F073FA2D482E4B0360446084604FF41C
:104328009673C360046144618461FEF705FA00284E
:104338003DD1002315931693179315A92348FEF72B
:1043480075FC002836D160230E9364230F93002256
:10435800109211921292139214920EA91B48FEF712
:1043680069FA50BB50230F930C220EA91748FEF789
:1043780061FA28BB0023019302930393022204925B
:1043880005934FF4005206920793089309934FF050
:1043980000720A920B930C930D9301A90B48FEF738
:1043A8009BFC80B90948FFF713FF18B010BDFBF755
:1043B8006FFFBEE7FBF76CFFC5E7FBF769FFD1E7C7
:1043C800FBF766FFD6E7FBF763FFEBE78004002007
:1043D800002C014000B58BB0002307930893099384
:1043E8000093019302930393049305930693224841
:1043F800224A02600822426083604BF67F32C26024
:1044080003618361FEF798F930BB00230793099392
:1044180007A91948FEF70AFC08BB6023009300228D
:1044280001920292049269461348FEF703FAC8B94A
:104438005A230193042269460F48FEF7FBF9A0B9F5
:10444800082269460C48FEF7F5F988B90A48FFF7CB
:10445800BFFE0BB05DF804FBFBF71AFFD5E7FBF7CF
:1044680017FFDAE7FBF714FFE2E7FBF711FFE7E7CF
:10447800FBF70EFFEAE700BF340400200004004009
:1044880000B58BB000230793089309930093019319
:10449800029303930493059306931D481D4A0260F3
:1044A8000A22426083604BF68032C26003618361F6
:1044B800FEF742F9F8B900230793099307A91448AE
:1044C800FEF7B4FBD0B9602300935A23019300226E
:1044D8000292049269460E48FEF7ACF988B90422A4
:1044E80069460B48FEF7A6F970B90948FFF770FE50
:1044F8000BB05DF804FBFBF7CBFEDCE7FBF7C8FE6F
:10450800E1E7FBF7C5FEEAE7FBF7C2FEEDE700BF10
:10451800E80300200008004008B51748174B03605F
:10452800174B436000238360C36003610C22426120
:104538008361C361036243628362FEF72AFF70B935
:1045480000210D48FEF79DFF60B900210A48FEF7DB
:10455800BDFF50B90848FEF775FF48B908BDFBF71D
:1045680097FEEDE7FBF794FEEFE7FBF791FEF1E727
:10457800FBF78EFEF2E700BFF4050020003801408B
:104588000094110008B51748174B0360174B436098
:1045980000238360C36003610C2242618361C361AD
:1045A800036243628362FEF7F4FE70B900210D488E
:1045B800FEF767FF60B900210A48FEF787FF50B988
:1045C8000848FEF73FFF48B908BDFBF761FEEDE775
:1045D800FBF75EFEEFE7FBF75BFEF1E7FBF758FE44
:1045E800F2E700BF6005002000440040009411007D
:1045F80008B51748174B0360174B436000238360C7
:10460800C36003610C2242618361C3610362436238
:104618008362FEF7BEFE70B900210D48FEF731FF38
:1046280060B900210A48FEF751FF50B90848FEF763
:1046380009FF48B908BDFBF72BFEEDE7FBF728FE9D
:10464800EFE7FBF725FEF1E7FBF722FEF2E700BFF5
:10465800CC040020004800400094110010B5A0B020
:10466800044600211B911C911D911E911F915422FB
:1046780006A800F0C2F82368454A934207D0454A85
:10468800934230D0444A934257D020B010BD012302
:10469800069306A8FDF780F910BB404B1A6E42F44A
:1046A80080421A661A6E02F480420092009ADA6C0E
:1046B80042F00102DA64DB6C03F001030193019B11
:1046C8004FF4C0631B9302231C9300231D931E9376
:1046D80007231F931BA94FF09040FDF719FBD4E760
:1046E800FBF7D6FDD9E70223069306A8FDF754F990
:1046F80000BB2A4B9A6D42F400329A659A6D02F417
:1047080000320292029ADA6C42F00802DA64DB6C38
:1047180003F008030393039B60231B9302231C935A
:1047280000231D931E9307231F931BA91C48FDF705
:10473800EFFAAAE7FBF7ACFDDBE70423069306A82C
:10474800FDF72AF908BB154B9A6D42F480229A6549
:104758009A6D02F480220492049ADA6C42F0040200
:10476800DA64DB6C03F004030593059B4FF44063A4
:104778001B9302231C9300231D931E9307231F934F
:104788001BA90848FDF7C4FA7FE7FBF781FDDAE7C4
:10479800003801400044004000480040001002403A
:1047A800000C0048000800480D488546FEF7B4FE96
:1047B8000C480D490D4A002302E0D458C450043374
:1047C800C4188C42F9D30A4A0A4C002301E013604A
:1047D8000432A242FBD300F019F8FBF795FDFEE77F
:1047E80000000220000000200C000020904B000870
:1047F8000C00002088060020FEE70244034693428E
:1048080000D1704703F8011BF9E7000070B50D4DA2
:104818000D4C641BA4100026A64209D10B4D0C4C6C
:1048280000F076F9641BA4100026A64205D170BDDD
:1048380055F8043B98470136EEE755F8043B98478E
:104848000136F2E7884B0008884B0008884B0008BF
:104858008C4B00082DE9F047089D0E4604460F468C
:10486800002B4AD194468C45B2FA82F260D942B103
:10487800C2F12003974020FA03F30CFA02FC1F430D
:1048880094404FEA1C4E1FFA8CF6B7FBFEF1230C3E
:104898000EFB117743EA074301FB06F098420AD959
:1048A8001CEB030301F1FF3780F01581984240F2B9
:1048B8001281023963441B1AA4B2B3FBFEF00EFB4B
:1048C800103344EA034400FB06F6A6420AD91CEB5F
:1048D800040400F1FF3380F00081A64240F2FD801D
:1048E8006444023840EA0140A41B00211DB1D440B1
:1048F8000023C5E90043BDE8F0878B4205D90DB117
:10490800C5E9000100210846F5E7B3FA83F100295B
:1049180046D1B34202D3824200F2F580841A66EB94
:10492800030201201746002DE5D0C5E90047E2E75C
:10493800002A40F09380A1EB0C034FEA1C471FFAB2
:104948008CFE0121B3FBF7F607FB1630230C43EA74
:1049580000430EFB06F0984208D91CEB030306F14E
:10496800FF3802D2984200F2D08046461B1AA4B201
:10497800B3FBF7F007FB103344EA03440EFB00FED9
:10498800A64508D91CEB040400F1FF3302D2A64562
:1049980000F2B6801846A4EB0E0440EA0640A5E7EC
:1049A800C1F120078B4022FA07FC4CEA030C06FAF7
:1049B80001FE20FA07F426FA07F344EA0E0400FA87
:1049C80001F84FEA1C404FEA1449B3FBF0FE1FFA06
:1049D8008CF600FB1E3349EA03430EFB06F99945A2
:1049E80002FA01F20BD91CEB03030EF1FF3A80F037
:1049F8008580994540F28280AEF1020E6344A3EBB4
:104A08000909A4B2B9FBF0F300FB139944EA09447D
:104A180003FB06F6A64208D91CEB040403F1FF3099
:104A280068D2A64266D9023B644443EA0E40A41BFE
:104A3800A0FB02E6B4427346B14652D34FD05DB1F3
:104A4800B8EB030264EB090404FA07F722FA01F34E
:104A58001F43CC40C5E9007400214CE7C2F1200196
:104A680020FA01F30CFA02FC26FA01F196403343CE
:104A78004FEA1C471FFA8CFEB1FBF7F007FB101634
:104A8800190C41EA064100FB0EF68E4204FA02F4C4
:104A980008D91CEB010100F1FF382DD28E422BD929
:104AA80002386144891B9BB2B1FBF7F607FB16116C
:104AB80043EA014306FB0EF1994208D91CEB0303B4
:104AC80006F1FF3814D2994212D9023E63445B1AA8
:104AD80046EA004136E73946EDE6184602E7F04572
:104AE800ADD2BEEB020366EB0C060138B146A6E771
:104AF8004646ECE7034698E74046D3E7D6467EE7C6
:104B08006444023847E708460DE7023E63442DE750
:104B1800F8B500BFF8BC08BC9E467047F8B500BFA2
:084B2800F8BC08BC9E46704772
:104B3000010002000400060008000A000C0010003A
:104B40002000400080000001080402040801010167
:104B5000010101030701000000000000010203043D
:104B6000000000000000000001020304060708091D
:104B70000001020304050607080C10141820304039
:084B8000DCFCFF7F01000000D6
:044B880075020008AA
:044B8C004D020008CE
:0C4B900001000000100000000024F400F0
:04000005080047B1F7
:00000001FF
