:020000040800F2
:10000000000002209D510008B50D0008B70D000842
:10001000B90D0008BB0D0008BD0D00080000000070
:10002000000000000000000000000000BF0D0008FC
:10003000C10D000800000000C30D0008C50D000838
:10004000ED510008ED510008ED510008ED51000898
:10005000ED510008ED510008ED510008ED51000888
:10006000ED510008ED510008ED510008ED51000878
:10007000ED510008ED510008ED510008ED51000868
:10008000ED510008ED510008ED510008ED51000858
:10009000ED510008ED510008ED510008ED51000848
:1000A000ED510008ED510008ED510008ED51000838
:1000B000ED510008ED510008ED510008ED51000828
:1000C000ED510008ED510008ED510008ED51000818
:1000D000ED510008ED510008ED510008ED51000808
:1000E000ED510008ED510008ED510008ED510008F8
:1000F000ED510008ED510008ED510008ED510008E8
:10010000ED510008ED510008ED510008ED510008D7
:10011000ED510008ED510008ED510008ED510008C7
:10012000ED510008ED510008ED510008ED510008B7
:10013000ED510008ED510008ED510008ED510008A7
:10014000ED510008ED510008ED51000800000000DD
:10015000000000000000000000000000000000009F
:10016000000000000000000000000000ED51000849
:10017000ED510008ED510008ED510008ED51000867
:10018000ED510008ED510008ED510008ED51000857
:10019000ED51000800000000ED510008ED5100088D
:1001A000ED510008ED510008ED510008ED51000837
:1001B000ED510008ED510008ED510008ED51000827
:1001C000ED510008ED510008ED510008ED51000817
:0801D000ED510008ED5100089B
:1001E00001F0FF01102A2BDB10F0070F08D010F8E8
:1001F000013B013A8B422DD010F0070F42B3F6D1EC
:10020000F0B441EA012141EA014122F007047FF004
:1002100000070023F0E80256083C85EA010586EA5B
:10022000010685FA47F5A3FA87F586FA47F6A5FA97
:1002300087F68EB9EED1F0BC01F0FF0102F00702A3
:1002400032B110F8013B013A83EA010313B1F8D14E
:100250000020704701387047002D06BF354603382F
:10026000073815F0010F07D1013015F4807F02BF68
:10027000013015F4C03F0130F0BC0138704700BFB9
:1002800081F0004102E000BF83F0004330B54FEA47
:1002900041044FEA430594EA050F08BF90EA020FB4
:1002A0001FBF54EA000C55EA020C7FEA645C7FEA47
:1002B000655C00F0E2804FEA5454D4EB5555B8BF6A
:1002C0006D420CDD2C4480EA020281EA030382EADB
:1002D000000083EA010180EA020281EA0303362D6D
:1002E00088BF30BD11F0004F4FEA01314FF4801C40
:1002F0004CEA113102D0404261EB410113F0004F52
:100300004FEA03334CEA133302D0524263EB430308
:1003100094EA050F00F0A780A4F10104D5F1200EA6
:100320000DDB02FA0EFC22FA05F2801841F1000101
:1003300003FA0EF2801843FA05F359410EE0A5F1D5
:1003400020050EF1200E012A03FA0EFC28BF4CF006
:10035000020C43FA05F3C01851EBE37101F00045BC
:1003600007D54FF0000EDCF1000C7EEB00006EEBC9
:100370000101B1F5801F1BD3B1F5001F0CD3490853
:100380005FEA30004FEA3C0C04F101044FEA4452AA
:1003900012F5800F80F09A80BCF1004F08BF5FEA31
:1003A000500C50F1000041EB045141EA050130BD11
:1003B0005FEA4C0C404141EB0101013C28BFB1F523
:1003C000801FE9D291F0000F04BF01460020B1FA6E
:1003D00081F308BF2033A3F10B03B3F120020CDA41
:1003E0000C3208DD02F1140CC2F10C0201FA0CF01F
:1003F00021FA02F10CE002F11402D8BFC2F1200C84
:1004000001FA02F120FA0CFCDCBF41EA0C01904039
:10041000E41AA2BF01EB0451294330BD6FEA040482
:100420001F3C1CDA0C340EDC04F11404C4F120026D
:1004300020FA04F001FA02F340EA030021FA04F37F
:1004400045EA030130BDC4F10C04C4F1200220FAD6
:1004500002F001FA04F340EA0300294630BD21FA14
:1004600004F0294630BD94F0000F83F4801306BFDA
:1004700081F480110134013D4EE77FEA645C18BFCE
:100480007FEA655C29D094EA050F08BF90EA020F65
:1004900005D054EA000C04BF1946104630BD91EA5D
:1004A000030F1EBF0021002030BD5FEA545C05D160
:1004B0004000494128BF41F0004130BD14F580049F
:1004C0003CBF01F5801130BD01F0004545F0FE4113
:1004D00041F470014FF0000030BD7FEA645C1ABF48
:1004E000194610467FEA655C1CBF0B46024650EA7F
:1004F000013406BF52EA033591EA030F41F40021AB
:1005000030BD00BF90F0000F04BF0021704730B530
:100510004FF4806404F132044FF000054FF0000105
:1005200050E700BF90F0000F04BF0021704730B5C6
:100530004FF4806404F1320410F0004548BF40429B
:100540004FF000013EE700BF42004FEAE2014FEAF0
:1005500031014FEA02701FBF12F07F4393F07F4FCB
:1005600081F06051704732F07F4208BF704793F0CE
:100570007F4F04BF41F40021704730B54FF46074E1
:1005800001F0004521F000411CE700BF50EA0102E4
:1005900008BF704730B54FF000050AE050EA01028D
:1005A00008BF704730B511F0004502D5404261EBFD
:1005B00041014FF4806404F132045FEA915C3FF43E
:1005C000D8AE4FF003025FEADC0C18BF03325FEADB
:1005D000DC0C18BF033202EBDC02C2F1200300FA8C
:1005E00003FC20FA02F001FA03FE40EA0E0021FAB1
:1005F00002F11444BDE600BF70B54FF0FF0C4CF49F
:10060000E06C1CEA11541DBF1CEA135594EA0C0F50
:1006100095EA0C0F00F0DEF82C4481EA030621EA8B
:100620004C5123EA4C5350EA013518BF52EA0335C6
:1006300041F4801143F4801338D0A0FB02CE4FF078
:100640000005E1FB02E506F00042E0FB03E54FF0A8
:100650000006E1FB03569CF0000F18BF4EF0010EA0
:10066000A4F1FF04B6F5007F64F5407404D25FEA9C
:100670004E0E6D4146EB060642EAC62141EA55514F
:100680004FEAC52040EA5E504FEACE2EB4F1FD0C91
:1006900088BFBCF5E06F1ED8BEF1004F08BF5FEA0F
:1006A000500E50F1000041EB045170BD06F00046C1
:1006B00046EA010140EA020081EA0301B4EB5C046E
:1006C000C2BFD4EB0C0541EA045170BD41F4801166
:1006D0004FF0000E013C00F3AB8014F1360FDEBF8B
:1006E000002001F0004170BDC4F10004203C35DA67
:1006F0000C341BDC04F11404C4F1200500FA05F3EA
:1007000020FA04F001FA05F240EA020001F000428A
:1007100021F0004110EBD37021FA04F642EB060100
:100720005EEA430E08BF20EAD37070BDC4F10C042A
:10073000C4F1200500FA04F320FA05F001FA04F2EE
:1007400040EA020001F0004110EBD37041F10001DA
:100750005EEA430E08BF20EAD37070BDC4F12005E5
:1007600000FA05F24EEA020E20FA04F301FA05F24D
:1007700043EA020321FA04F001F0004121FA04F2F5
:1007800020EA020000EBD3705EEA430E08BF20EAC5
:10079000D37070BD94F0000F0FD101F000464000FF
:1007A00041EB010111F4801F08BF013CF7D041EA81
:1007B000060195F0000F18BF704703F00046520085
:1007C00043EB030313F4801F08BF013DF7D043EA56
:1007D0000603704794EA0C0F0CEA135518BF95EA0C
:1007E0000C0F0CD050EA410618BF52EA4306D1D193
:1007F00081EA030101F000414FF0000070BD50EAB2
:10080000410606BF1046194652EA430619D094EA3B
:100810000C0F02D150EA013613D195EA0C0F05D125
:1008200052EA03361CBF104619460AD181EA030179
:1008300001F0004141F0FE4141F470014FF0000031
:1008400070BD41F0FE4141F4780170BD70B54FF0CC
:10085000FF0C4CF4E06C1CEA11541DBF1CEA13554C
:1008600094EA0C0F95EA0C0F00F0A7F8A4EB05042E
:1008700081EA030E52EA03354FEA013100F0888025
:100880004FEA03334FF0805545EA131343EA1263EE
:100890004FEA022245EA111545EA10654FEA0026A3
:1008A0000EF000419D4208BF964244F1FD0404F55C
:1008B000407402D25B084FEA3202B61A65EB0305B8
:1008C0005B084FEA32024FF480104FF4002CB6EB75
:1008D000020E75EB030E22BFB61A754640EA0C00F5
:1008E0005B084FEA3202B6EB020E75EB030E22BF35
:1008F000B61A754640EA5C005B084FEA3202B6EB76
:10090000020E75EB030E22BFB61A754640EA9C0034
:100910005B084FEA3202B6EB020E75EB030E22BF04
:10092000B61A754640EADC0055EA060E18D04FEAC2
:10093000051545EA16754FEA06164FEAC30343EA62
:1009400052734FEAC2025FEA1C1CC0D111F4801F2F
:100950000BD141EA00014FF000004FF0004CB6E728
:1009600011F4801F04BF01430020B4F1FD0C88BFC7
:10097000BCF5E06F3FF6AFAEB5EB030C04BFB6EBD2
:10098000020C5FEA500C50F1000041EB045170BDC5
:100990000EF0004E4EEA113114EB5C04C2BFD4EBF2
:1009A0000C0541EA045170BD41F480114FF0000E76
:1009B000013C90E645EA060E8DE60CEA135594EAF2
:1009C0000C0F08BF95EA0C0F3FF43BAF94EA0C0FF5
:1009D0000AD150EA01347FF434AF95EA0C0F7FF46A
:1009E00025AF104619462CE795EA0C0F06D152EABE
:1009F00003353FF4FDAE1046194622E750EA4106A2
:100A000018BF52EA43067FF4C5AE50EA41047FF4B2
:100A10000DAF52EA43057FF4EBAE12E74FEA410215
:100A2000B2F1E04324BFB3F5001CDCF1FE5C0DD94C
:100A300001F0004C4FEAC0024CEA5070B2F1004F96
:100A400040EB830008BF20F00100704711F0804F99
:100A500021D113F13872BCBF01F00040704741F45E
:100A600080114FEA5252C2F11802C2F1200C10FA62
:100A70000CF320FA02F018BF40F001004FEAC12346
:100A80004FEAD32303FA0CFC40EA0C0023FA02F3EA
:100A90004FEA4303CCE77FEA625307D150EA0133C0
:100AA0001EBF4FF0FE4040F44000704701F0004090
:100AB00040F0FE4040F40000704700BF53B94AB90F
:100AC000002908BF00281CBF4FF0FF314FF0FF3056
:100AD00000F00CB8ADF1080C6DE904CE05F0EEFAAB
:100AE000DDF804E0DDE9022304B07047704700BF81
:100AF0000348044B834202D0034B03B118477047AD
:100B00006800002068000020000000000548064B37
:100B10001B1AD90F01EBA301491002D0034B03B1FB
:100B2000184770476800002068000020000000009F
:100B300010B5064C237843B9FFF7DAFF044B13B125
:100B40000448AFF300800123237010BD680000202B
:100B5000000000007863000808B5054B1BB105498B
:100B60000548AFF30080BDE80840FFF7CFBF00BFE6
:100B7000000000006C0000207863000872B6FEE7F9
:100B800000B595B03822002106A804F048FC0023E7
:100B9000019302930393049305934FF4007001F0C3
:100BA00079FF022306934FF48072099240220A9241
:100BB0000D930E9304220F924B22109211931293D5
:100BC000139306A800F0D6FF80B90F2301930323E7
:100BD0000293002303930493059304210DEB01007A
:100BE00001F07EFA20B915B05DF804FBFFF7C6FFEF
:100BF000FFF7C4FF00B58DB0594E5A4B9E60B21C32
:100C0000594B9A60594C5A4B9C605A4D5A4B9D60B7
:100C1000AA1C5A4B9A602A1D594B9A60043C594BA6
:100C20009C60A21C584B9A6000F042FFFFF7A8FF9F
:100C300003F0F6FA03F0CCFE03F040FB03F09CFB5C
:100C400004F01CF804F02EF904F060F904F092F9B5
:100C500004F086F804F0DAF803F05CFC03F0DAFE46
:100C600003F09CFC03F0E8FB02223146474800F009
:100C70006DFD03222946464800F068FD0322214607
:100C8000444800F063FD444C204602F05FF9002127
:100C9000204602F043FB0021204602F00DFC0C210F
:100CA000204602F03BFB0C21204602F005FC3B4CA9
:100CB0000421204602F032FB0821204602F02EFBE0
:100CC000374C0021204602F029FB0421204602F087
:100CD00025FB344803F08CFA4FF48073ADF80830EC
:100CE0004FF48A730393002304930222069209931C
:100CF0004FF47A730C222C492C4802F0ADFF40F6D9
:100D0000B83000F0F7FE174D284604F02DFA1648CB
:100D100004F02AFA164804F027FA174804F024FAD7
:100D2000164804F021FA164804F01EFA154804F09B
:100D30001BFA154804F018FA6C88230A8DF8043061
:100D40008DF80540E868FFF7FFFB02460B46214699
:100D5000174804F00FFB104B1B6801225A63CEE7C3
:100D600014010020F4000020E4000020080100200D
:100D7000D40000200C010020C4000020B40000209A
:100D8000A40000209400002084000020F403002030
:100D9000880300201C0300205C05002010050020B3
:100DA000C40400206004002090630008D0060020E6
:100DB000A0630008FEE7FEE7FEE7FEE7FEE77047F8
:100DC0007047704708B500F083FE08BD00B583B0DA
:100DD0000B4B1A6E42F001021A661A6E02F0010203
:100DE0000092009A9A6D42F080529A659B6D03F0D2
:100DF00080530193019B01F0D3FE03B05DF804FB27
:100E00000010024010B430300B0A9B0003F00C03BA
:100E1000C45801F01F014FF01F0C0CFA01FC24EA2A
:100E20000C0CC2F384628A404CEA0202C2505DF8A4
:100E3000044B704710B414304B0E9B0003F00403B6
:100E4000C458C1F304514FF0070C0CFA01FC24EA1A
:100E50000C0C8A404CEA0202C2505DF8044B704709
:100E600030B583B000230193002800F02B810446A5
:100E7000C36D13B323689A6812F0005F05D09A68B7
:100E800022F0204222F03F029A602268936813F019
:100E9000805F1FD1936823F0104323F03F0343F09A
:100EA00080539360884B1B689B09884AA2FB0323ED
:100EB0009B0901335B00019309E003F0B3FB0023BE
:100EC000236684F85830D5E7019B013B0193019BD1
:100ED000002BF9D12268936813F0805F3DD1E36D58
:100EE00043F01003E365236E43F001032366012002
:100EF000936813F0040300D00123E16D11F0100F8B
:100F000040F0D980002B40F0D680E36D23F481734C
:100F100043F00203E365936813F0010F3ED1B2F191
:100F2000A04F1CD06A4B9A4219D06A4B996811F0B5
:100F3000010100D00121684B9B6813F0010300D030
:100F400001230B436549896811F0010100D001219B
:100F50000B430CBF0123002312E00020C8E74FF031
:100F6000A043996811F0010100D00121584B9B6802
:100F700013F0010300D001230B430CBF0123002316
:100F800063B1B2F1A04F69D0514B9A4264D0544939
:100F900063688A6822F47C1213438B60627FE36B80
:100FA00043EA4233E2681343A268134394F82420CF
:100FB00043EA0243012A53D0E26A22B102F4787272
:100FC000216B0A4313432168CD68464A2A401A43DD
:100FD000CA602268136923F04063616B0B4313619D
:100FE0002268936813F0080300D001232BBB237FF2
:100FF00094F83810490041EA8331D36823F48043E0
:1010000023F002030B43D360236973B3226813698F
:1010100043F4803313612268D2F8C0306FF30D03BC
:1010200021690B43C2F8C03094F84030012B29D01D
:101030002268136923F0010313616369012B31D026
:101040002268136B23F00F031363E36D23F0030394
:1010500043F00103E36533E0234999E7224997E729
:10106000A26A013A43EA4243A6E72268136923F4DD
:10107000803313612268D2F8C0306FF30D03C2F8D9
:10108000C030D1E721680B696FF38A03626CA56CED
:101090002A43E56C2A43256D2A43134343F0010399
:1010A0000B61CAE721680B6B23F00F03226A013A38
:1010B00013430B63C9E7E36D43F01003E3650120BD
:1010C00003B030BD0120FBE708000020632D3E0582
:1010D00000010050000400500005005000060050C0
:1010E000000700500740F0FF0003005070477047B2
:1010F00008B5806AFFF7FBFF08BD704708B50346D7
:10110000806AC26D12F0500F30D1C36D43F400738A
:10111000C36503681A6812F0080F14D0DA6812F475
:10112000406F20D1DB6813F4005F1CD1C36D23F442
:101130008073C365C36D13F4805F14D1C36D43F036
:101140000103C3650FE0DB6813F0020F0BD1C36D21
:1011500023F48073C365C36D13F4805F03D1C36D43
:1011600043F00103C365FFF7C1FF08BDC26D12F074
:10117000100F04D1426D526B18469047F5E7FFF708
:10118000BCFFF2E708B5806AC36D43F04003C36556
:10119000036E43F004030366FFF7AFFF08BD0000D2
:1011A000F0B583B00023019390F85830012B00F084
:1011B000428204460D46012380F858300068836857
:1011C00013F0040F09D0E36D43F02003E365012021
:1011D000002384F8583003B0F0BD0A684968FFF76F
:1011E00011FE2068836813F0040300D00123866891
:1011F00016F0080600D00126002B3ED1002E3CD16F
:10120000AA68B2F1004F78D02968FFF713FE226870
:10121000536923F00043536169692268D368C3F3BB
:10122000C1035B0099402869042873D0603252F8EA
:101230002070AB4B3B402F6807F0F84C41EA0C01A3
:101240000B4343F0004342F8203023682869AA6921
:10125000603353F8201021F080710A4343F82020B6
:10126000236829692A7F012A51D0603353F821204D
:1012700022F00072324343F821202268936813F071
:10128000010F16D12B68E868D2F8B010C3F312062C
:1012900021EA060100F018069248F0400340C3F32B
:1012A00012030B43C2F8B030EA688F4B9A4200F049
:1012B00099802B688D4A134200F0B7812268B2F101
:1012C000A04F00F050818A498A4200F04981894943
:1012D000896801F0E070884DAB4200F04681874D8F
:1012E000AB4200F04281864DAB4200F07181854DEA
:1012F000AB4200F0858100206AE700222968FFF7F1
:1013000099FD2268536943F00043536184E74FF02D
:101310000076AAE7136E116EC1F384612B68C3F3E4
:10132000120080BBC3F38463994234D021684B6EB2
:101330004A6EC2F384622B68C3F3120080BBC3F30E
:1013400084639A4234D021688B6E8A6EC2F38462C1
:101350002B68C3F3120080BBC3F384639A4234D07A
:101360002168CB6ECA6EC2F384622B68C3F312008D
:1013700080BBC3F384639A427FF47FAFCB6E23F0CC
:101380000043CB6679E793FAA3F313B1B3FA83F37F
:10139000CAE72023C8E7136E23F000431366C5E7AE
:1013A00093FAA3F313B1B3FA83F3CAE72023C8E790
:1013B0004B6E23F000434B66C5E793FAA3F313B1DA
:1013C000B3FA83F3CAE72023C8E78B6E23F0004308
:1013D0008B66C5E793FAA3F313B1B3FA83F3CAE7B5
:1013E0002023C8E720682B68C3F3120626BB9A0E99
:1013F000013202F01F02092A8CBF00220122002ABA
:1014000052D046BB990E0131890601F0F84176BBF6
:101410009F0E013707F01F070122BA401143AEBBF0
:101420009B0E013303F01F0303EB43031B0519431A
:10143000AA68FFF7FFFC3CE793FAA3F24AB1B2FABD
:1014400082F2013202F01F02092A8CBF002201221F
:10145000D5E72022F5E793FAA3F131B1B1FA81F192
:101460000131890601F0F841D1E72021F8E793FA2C
:10147000A3F24AB1B2FA82F2013202F01F024FF037
:10148000010C0CFA02F2C9E72022F5E793FAA3F364
:1014900043B1B3FA83F3013303F01F0303EB4303B8
:1014A0001B05C4E72023F6E776BB990E01318906B8
:1014B00001F0F841A6BB9F0E013707F01F0701227C
:1014C000BA401143DEBB9B0E013303F01F0303EB55
:1014D00043031E3B1B0543F000731943A8E700BFFD
:1014E00000F0FF03FFFF070000007F4000000880BE
:1014F0000001005000070050000021C31000C09000
:10150000000052C7000084CB93FAA3F131B1B1FAC5
:1015100081F10131890601F0F841CBE72021F8E79C
:1015200093FAA3F24AB1B2FA82F2013202F01F0238
:101530004FF0010C0CFA02F2C3E72022F5E793FA10
:10154000A3F35BB1B3FA83F3013303F01F0303EB9F
:1015500043031E3B1B0543F00073BEE72023F3E764
:1015600001F50071B4E63549B2E611F4000F7FF4DD
:10157000BAAEB2F1A04F04D0314B9A4201D0002054
:1015800026E6B2F1A04F19D02E4B9A4214D02E4A23
:1015900040F40000936823F0E073184390602B4BF5
:1015A0001B689B092A4AA2FB03239B09013303EB17
:1015B00043039B00019306E0204AE9E71F4AE7E75F
:1015C000019B013B0193019B002BF9D10020FFE51A
:1015D00011F0807F7FF48BAEB2F1A04F0ED0194B8B
:1015E0009A4209D0184A40F08070936823F0E07363
:1015F000184390600020EBE5104AF4E70F4AF2E749
:1016000011F4800F13D10F4B9A4212D0B2F1A04FB8
:1016100009D00D4940F480038A6822F0E072134338
:101620008B600020D4E50549F4E70020D0E50020D8
:10163000CEE50020CCE50220CDE500BF0003005040
:101640000006005000010050000700500800002074
:10165000632D3E0530B583B00023019303689A687B
:1016600012F0010F63D104469968324A114220D129
:101670009A6822F0004222F03F0242F001029A6092
:101680000368B3F1A04F20D02B4A93421BD02B4BC1
:101690009B6813F4000F20D0294B1B689B09294A33
:1016A000A2FB03239B09013303EB43039B0001933C
:1016B00010E0C36D43F01003C365036E43F00103F4
:1016C0000366012034E0204BE2E71F4BE0E7019B7B
:1016D000013B0193019B002BF9D100F005FA05466F
:1016E00023681A6812F0010F1FD19A6812F0010FD7
:1016F00007D19A6822F0004222F03F0242F0010234
:101700009A6000F0F1F9431B022BE9D923681B68AA
:1017100013F0010FE4D1E36D43F01003E365236E92
:1017200043F001032366012002E0002000E00020D6
:1017300003B030BD3F0000800001005000070050A2
:1017400008000020632D3E05000300502DE9F04104
:1017500004460F4690460068B0F1A04F6ED0444B4F
:10176000984268D0434B9E6806F01F06856815F0C6
:10177000040F77D194F85830012B76D0012384F8E8
:1017800058303D4B984207D0092E66D840F22123AD
:10179000F34013F0010F60D02046FFF75BFF0028F5
:1017A00057D1E36D23F4706323F0010343F4807396
:1017B000E36523682E4A934245D002F58062934246
:1017C0003ED01A46934200D01EB9E36D23F4801335
:1017D000E365E36D13F4805F38D0236E23F00603D6
:1017E0002366636D254ADA62636D254A1A63636D69
:1017F000244A5A6323681C221A60002384F8583054
:101800002268536843F0100353602268D36843F0A2
:101810000103D360216843463A464031606D01F0D0
:10182000EFF82268936823F0004323F03F0343F06E
:101830000403936017E003F5007394E7124B92E7FB
:10184000A2F58072BEE74FF0A042BBE700232366FB
:10185000C7E7002384F8583005E0002384F85830A7
:10186000012000E00220BDE8F0810220FBE700BF7C
:10187000000100500007005000060050FD10000855
:10188000F1100008851100080003005090F858205E
:10189000012A00F0D68010B49DB00346012280F8E2
:1018A00058200022189219920068B0F1A04F47D03A
:1018B000654A904247D000220192019A002A46D000
:1018C000926812F0040200D00122846814F0040F20
:1018D00040F0A780002A40F0A480B0F1A04F42D091
:1018E0005A4A90423CD05A4A086800285CD0906816
:1018F00020F460404C6893F838C044EA4C342043EC
:1019000090601868B0F1A04F2FD0504CA0422CD05E
:101910004D48846814F0010400D001244D488068CB
:1019200010F0010000D0012020434B4CA46814F0BB
:10193000010400D0012420430CBF0120002025E039
:10194000424A0192B9E702F580720192B5E7DA6D79
:1019500042F02002DA65002283F85820012068E076
:1019600002F50072C0E73D4ABEE74FF0A040846830
:1019700014F0010400D001243448806810F0010004
:1019800000D0012020430CBF01200020002854D0AB
:10199000906820F4716020F00F000C688968214382
:1019A00008439060002041E0916821F4604191601B
:1019B0001968B1F1A04F1AD02448814217D02249AA
:1019C000886810F0010000D001202249896811F0D8
:1019D000010100D0012101431F48806810F001007F
:1019E00000D0012001430CBF0121002110E04FF085
:1019F000A041886810F0010000D0012013498968D7
:101A000011F0010100D0012101430CBF012100218F
:101A1000A9B1916821F4716121F00F01916000205A
:101A200004E0DA6D42F02002DA650120002283F83A
:101A300058201DB05DF8044B70470020F6E70020E9
:101A4000F4E70220704700BF00040050000100507E
:101A50000007005000050050000600500003005031
:101A6000104B1B680BB90120704710B504464FF4AA
:101A70007A70B0FBF3F30C4A1068B0FBF3F001F09E
:101A8000EDF868B90F2C01D901200AE000222146A7
:101A90004FF0FF3001F0D2F8044B1C60002000E052
:101AA000012010BD000000200800002004000020DC
:101AB00010B5032001F0B0F80F20FFF7D1FF10B1EF
:101AC0000124204610BD0446FFF780F9F9E7000025
:101AD000034A1368034909680B441360704700BF49
:101AE0001801002000000020014B1868704700BF5B
:101AF0001801002038B50446FFF7F6FF0546B4F19B
:101B0000FF3F02D0044B1B681C44FFF7EDFF401B56
:101B1000A042FAD338BD00BF00000020124BDA68A3
:101B200002F00302DB68C3F303130133032A11D06D
:101B30000E48B0FBF3F00C4BDB68C3F3062303FB4A
:101B400000F0094BDB68C3F3416301335B00B0FB7A
:101B5000F3F070470648B0FBF3F0034BDB68C3F3C8
:101B6000062303FB00F0ECE7001002400024F40021
:101B7000006CDC02002800F04F8270B582B0044691
:101B8000036813F0010F37D0A44A936803F00C03E5
:101B9000D26802F003020C2B23D0082B23D06368F9
:101BA000B3F5803F4ED0B3F5A02F51D09B4B1A68B0
:101BB00022F480321A601A6822F480221A60636864
:101BC000002B52D0FFF790FF0546944B1B6813F48F
:101BD000003F11D1FFF788FF401B6428F5D903208F
:101BE00023E2032AD9D18D4B1B6813F4003F03D0A5
:101BF0006368002B00F01282236813F0020F5DD09F
:101C0000864A936803F00C03D26802F003020C2B9F
:101C10003AD0042B3AD0E368002B75D07F4A136882
:101C200043F480731360FFF75FFF05467B4B1B682F
:101C300013F4806F5FD1FFF757FF401B0228F5D9DF
:101C40000320F2E1754A136843F480331360B6E76A
:101C500003F18043A3F53C331A6842F480221A60F2
:101C60001A6842F480321A60A9E7FFF73DFF054683
:101C70006A4B1B6813F4003FBED0FFF735FF401BD3
:101C80006428F5D90320D0E1022AC2D1634B1B6836
:101C900013F4806F03D0E368002B00F0C1815F4A2A
:101CA000536823F0FE43216943EA016353605C4BB0
:101CB0001868FFF7D5FE002840F0B481236813F0C0
:101CC000080F4CD063699BB3544AD2F8943043F068
:101CD0000103C2F89430FFF707FF05464F4BD3F8D6
:101CE000943013F0020F3AD1FFF7FEFE401B02289A
:101CF000F4D9032099E1494A536823F0FE4321694E
:101D000043EA01635360D9E7444A136823F48073BC
:101D10001360FFF7E9FE0546404B1B6813F4806F24
:101D2000CCD0FFF7E1FE401B0228F5D903207CE16F
:101D30003A4AD2F8943023F00103C2F89430FFF706
:101D4000D3FE0546354BD3F8943013F0020F06D07E
:101D5000FFF7CAFE401B0228F4D9032065E123687F
:101D600013F0040F00F081802C4B9B6D13F0805F0B
:101D700036D12A4B9A6D42F080529A659B6D03F0E2
:101D800080530193019B0125264B1B6813F4807F30
:101D900028D0A368012B39D0052B45D01F4BD3F891
:101DA000902022F00102C3F89020D3F8902022F076
:101DB0000402C3F89020A368002B43D0FFF794FEE1
:101DC0000646164BD3F8903013F0020F4CD1FFF7B4
:101DD0008BFE801B41F288339842F2D9032024E124
:101DE0000025D1E70F4A136843F480731360FFF7AF
:101DF0007BFE06460B4B1B6813F4807FC9D1FFF7AF
:101E000073FE801B0228F5D903200EE1034AD2F8A5
:101E1000903043F00103C2F89030CCE7001002404C
:101E20000400002000700040884BD3F8902042F05E
:101E30000402C3F89020D3F8902042F00102C3F8C6
:101E40009020B8E7FFF750FE0646804BD3F890305D
:101E500013F0020F08D0FFF747FE801B41F28833D2
:101E60009842F2D90320E0E0E5B9236813F0200F8F
:101E700035D0A369E3B1754AD2F8983043F0010335
:101E8000C2F89830FFF730FE0546704BD3F8983013
:101E900013F0020F23D1FFF727FE401B0228F4D9CD
:101EA0000320C2E0694A936D23F080539365DCE719
:101EB000664AD2F8983023F00103C2F89830FFF751
:101EC00013FE0546614BD3F8983013F0020F06D08D
:101ED000FFF70AFE401B0228F4D90320A5E0E369BE
:101EE000002B00F0A180594A926802F00C020C2AE3
:101EF00064D0022B13D0554A136823F0807313600B
:101F0000FFF7F2FD0446514B1B6813F0007F4ED0E3
:101F1000FFF7EAFD001B0228F5D9032085E04B4AB4
:101F2000136823F080731360FFF7DEFD0546474B0F
:101F30001B6813F0007F06D0FFF7D6FD401B022878
:101F4000F5D9032071E0414AD36841491940236A19
:101F5000606A013843EA0013A06A43EA0023206B59
:101F60004008013843EA4053606B4008013843EAB7
:101F70004063E06A43EAC0631943D160136843F0E9
:101F800080731360D36843F08073D360FFF7ACFDB8
:101F900004462E4B1B6813F0007F06D1FFF7A4FD0B
:101FA000001B0228F5D903203FE000203DE0274A2E
:101FB000D168284B0B40D360002036E0012B36D08F
:101FC000224BDB6803F00301226A914231D103F016
:101FD000F002616A0139B2EB011F2CD103F4FE4219
:101FE000A16AB2EB012F28D103F07842E16AB2EB8B
:101FF000C16F24D103F4C001226B5208013AB1EB46
:10200000425F1ED103F0C063626B5208013AB3EB2A
:10201000426F18D1002008E001207047012004E041
:10202000012002E0012000E0002002B070BD01208C
:10203000FBE70120F9E70120F7E70120F5E70120A0
:10204000F3E70120F1E70120EFE700BF00100240B5
:102050000C809F01FCFFEEFE1E4B9B6803F00C03FF
:10206000042B33D01B4B9B6803F00C03082B2FD0A1
:10207000184B9B6803F00C030C2B01D00020704719
:10208000144BDA6802F00302DB68C3F30313013375
:10209000032A11D01048B0FBF3F00E4BDB68C3F3FA
:1020A000062303FB00F00B4BDB68C3F341630133F2
:1020B0005B00B0FBF3F070470848B0FBF3F0054B52
:1020C000DB68C3F3062303FB00F0ECE7024870472C
:1020D00002487047001002400024F400006CDC024B
:1020E000002800F0E680F8B50C460546744B1B68E6
:1020F00003F00F038B420BD2714A136823F00F03D6
:102100000B431360136803F00F038B4240F0D3803E
:102110002E6816F001065FD06B68032B2FD0022BC0
:102120004DD0684B1B6813F4806F00F0C680FFF73A
:1021300093FF654B98424DD9624A936823F0F003B0
:1021400043F08003936080265E4A936823F0030384
:1021500069680B439360FFF7C7FC0746594B9B68C0
:1021600003F00C036A68B3EB820F35D0FFF7BCFCB9
:10217000C01B41F288339842F0D9032078E0514BDC
:102180001B6813F0007F01D1012071E0FFF7C6FC4E
:102190004D4B98421AD94B4B9B6813F0F00F05D06A
:1021A0002E6816F00206CFD0AB688BB9454A93680B
:1021B00023F0F00343F0800393608026C4E7414B93
:1021C0001B6813F4003FB2D1012051E00026BBE7A9
:1021D0000026B9E70026B7E72B6813F0020F48D0B6
:1021E00013F0040F04D0374A936843F4E06393601C
:1021F0002B6813F0080F06D0324A936823F47C53FF
:1022000043F4E06393602F4A936823F0F003A968D6
:102210000B4393602A4B1B6803F00F03A34230D893
:102220002B6813F0040F06D0264A936823F4E0636A
:10223000E9680B4393602B6813F0080F07D0214A1D
:10224000936823F46053296943EAC1039360FFF75D
:1022500003FF1C4B9B68C3F303131C4AD35C03F0BE
:102260001F03D8401A4B18601A4B1868FFF7F8FB89
:10227000F8BD802ECED1134A936823F0F00393600B
:10228000C8E70F4A136823F00F0323431360FFF7D7
:102290002BFC06460A4B1B6803F00F03A342BFD07A
:1022A000FFF722FC801B41F288339842F2D90320C9
:1022B000DEE7012070470120DAE70120D8E700BF00
:1022C000002002400010024000B4C404DC63000897
:1022D0000800002004000020014B1868704700BF70
:1022E0000800002008B5FFF7F7FF054B9B68C3F314
:1022F0000223044AD35C03F01F03D84008BD00BF8B
:1023000000100240D463000808B5FFF7E5FF054B55
:102310009B68C3F3C223044AD35C03F01F03D84075
:1023200008BD00BF00100240D4630008F0B583B0C0
:102330000446036813F4002F6ED0354B9B6D13F0E9
:10234000805F1ED1324B9A6D42F080529A659B6D30
:1023500003F080530193019B01262E4A136843F436
:1023600080731360FFF7C0FB05462A4B1B6813F40C
:10237000807F08D1FFF7B8FB401B0228F5D9032561
:1023800002E00026E9E7002545BB214BD3F8903059
:1023900013F4407315D0226D9A4212D01C4AD2F821
:1023A000903023F44073D2F8901041F48031C2F899
:1023B0009010D2F8901021F48031C2F89010C2F839
:1023C000903013F0010F10D145B9114AD2F8903076
:1023D00023F44073216D0B43C2F89030EEB10C4AE8
:1023E000936D23F08053936517E0FFF77DFB07465D
:1023F000074BD3F8903013F0020FE5D1FFF774FBD1
:10240000C01B41F288339842F2D90325DCE700BFB4
:1024100000100240007000400025236813F0010FF7
:1024200008D09F4AD2F8883023F0030361680B4339
:10243000C2F88830236813F0020F08D0984AD2F807
:10244000883023F00C03A1680B43C2F8883023685E
:1024500013F0040F08D0924AD2F8883023F03003EA
:10246000E1680B43C2F88830236813F0080F08D0E6
:102470008B4AD2F8883023F0C00321690B43C2F89D
:102480008830236813F0100F08D0854AD2F88830BE
:1024900023F4407361690B43C2F88830236813F05A
:1024A000200F08D07E4AD2F8883023F44063A16917
:1024B0000B43C2F88830236813F0400F08D0784AE5
:1024C000D2F8883023F44053E1690B43C2F88830D6
:1024D000236813F0800F08D0714AD2F8883023F4B3
:1024E0004043216A0B43C2F88830236813F4807F8D
:1024F00008D06B4AD2F8883023F44033616A0B432A
:10250000C2F88830236813F4003F08D0644AD2F838
:102510009C3023F00303A16A0B43C2F89C3023686C
:1025200013F4007F08D05E4AD2F8883023F44023A9
:10253000E16A0B43C2F88830236813F4806F0CD033
:10254000574AD2F8883023F44013216B0B43C2F86A
:102550008830236BB3F5801F79D0236813F4006FA4
:102560000CD04F4AD2F8883023F44003616B0B4300
:10257000C2F88830636BB3F5800F6DD0236813F415
:10258000805F0CD0464AD2F8883023F04073A16BAC
:102590000B43C2F88830A36BB3F1807F61D023680E
:1025A00013F4005F0CD03E4AD2F8883023F0406329
:1025B000E16B0B43C2F88830E36BB3F1006F55D089
:1025C000236813F4804F0CD0354AD2F8883023F0BA
:1025D0004063216C0B43C2F88830236CB3F1006F69
:1025E00049D0236813F4004F0CD02D4AD2F888301C
:1025F00023F04053616C0B43C2F88830636CB3F135
:10260000805F3DD0236813F4803F0CD0244AD2F879
:10261000883023F04043A16C0B43C2F88830A36C90
:10262000B3F1804F31D0236813F4802F0CD01C4AB3
:10263000D2F89C3023F44013E16C0B43C2F89C3079
:10264000E36CB3F5001F25D0284603B0F0BDD36876
:1026500043F48013D36080E7D36843F48013D360DE
:102660008CE7D36843F48013D36098E7D36843F4CE
:102670008013D360A4E7D36843F48013D360B0E73A
:10268000D36843F48033D360BCE7D36843F480332A
:10269000D360C8E7D36843F48013D360D4E700BFA6
:1026A00000100240F0B583B0002362E085685E0050
:1026B0000324B44025EA0405CC68B4402C4384606C
:1026C000456825EA0C054C68C4F300149C402C4373
:1026D00044605FE0DD08083550F8254003F0070C42
:1026E0004FEA8C0C4FF00F0E0EFA0CFE24EA0E0E81
:1026F0000C6904FA0CF444EA0E0440F8254060E04A
:10270000052400E0002404FA0EF42C430CF1020C22
:10271000554D45F82C40554CA568D44325EA020692
:102720004F6817F4801F01D042EA05064F4DAE6096
:10273000ED6804EA05064F6817F4001F01D042EA6D
:1027400005064A4DEE606D6804EA05064F6817F409
:10275000003F01D042EA0506444D6E602D682C40D2
:102760004E6816F4803F01D042EA05043F4A1460E7
:1027700001330A6832FA03F474D04FF0010C0CFAFA
:1027800003FC1CEA0202F3D04C6804F00304013C91
:10279000012C8BD94C6804F00304032C0CD0C468C2
:1027A0005D004FF0030C0CFA05FC24EA0C0C8C685D
:1027B000AC4044EA0C04C4604C6804F00304022CEE
:1027C00088D004684FEA430E4FF0030C0CFA0EFC5D
:1027D00024EA0C0C4C6804F0030404FA0EF444EAF6
:1027E0000C0404604C6814F4403FC1D0204C256EAA
:1027F00045F001052566246E04F001040194019C56
:102800004FEA930C0CF10205174C54F8255003F0D5
:10281000030E4FEA8E0E0F2404FA0EF425EA040587
:10282000B0F1904F3FF46EAF124CA04212D004F5BD
:102830008064A04210D004F58064A0420ED004F55C
:102840008064A0420CD004F58064A0423FF458AFED
:10285000062458E7012456E7022454E7032452E7EC
:10286000042450E703B0F0BD000001400004014023
:10287000001002400004004830B4C46C056D65606F
:10288000446D14B1846DC56D6560446C04F01F0C1B
:10289000012404FA0CF4056C6C60046863608368BE
:1028A000102B05D0036899600368DA6030BC70476C
:1028B00003689A600368D960F8E7000003680C4A6F
:1028C000934213D80B49DBB2083B0B4AA2FB03230C
:1028D000426C22F003020A448264084AC264C3F3D1
:1028E0000413012202FA03F3036570470449EAE77F
:1028F0000704024000080240CDCCCCCC8008024046
:10290000200802400379074A1A4492004265064AA9
:102910008265013B03F01F03012202FA03F3C36542
:10292000704700BF3F82001040090240002859D084
:1029300010B5044602682C4B9A423BD82B4B1344EB
:102940002B49A1FB03131B099B004364294B036420
:10295000022384F8253011686FF30E11A368E06834
:1029600003432069034360690343A0690343E069AB
:102970000343206A03430B4313602046FFF79EFF87
:10298000A368B3F5804F20D0A36C22791A60E36C62
:10299000226D5A606368013B032B19D900236365DC
:1029A000A365E3650020E063012384F8253084F803
:1029B000240010BD104B13440D49A1FB03131B0948
:1029C0009B0043640D4B0364C2E700236360DBE7B5
:1029D0002046FFF797FF636D00221A60A36DE26D3A
:1029E0005A60DFE70120704707040240F8FFFDBF8F
:1029F000CDCCCCCC00000240F8FBFDBF000402406F
:102A000038B5044690F82400012841D0012084F80C
:102A1000240094F82500C0B2012804D0002384F8D3
:102A20002430022038BD022084F825000020E06315
:102A30002568286820F0010028602046FFF71CFF69
:102A4000236BD3B12268136843F00E031360A36CA9
:102A50001A6812F4803F03D01A6842F480721A6038
:102A6000636D1BB11A6842F480721A6022681368A1
:102A700043F0010313600020D4E72268136823F0B9
:102A8000040313602268136843F00A031360DEE74F
:102A90000220C7E7002836D13E4B1B6803F4C06311
:102AA000B3F5806F08D03B4AD2F8803023F48073AE
:102AB000C2F8803000207047364AD2F8803023F4C4
:102AC0008073C2F88030136823F4C06343F400734A
:102AD0001360314B1B68322202FB03F32F4AA2FB27
:102AE00003239B0C013300E0013B2A4A526912F494
:102AF000806F01D0002BF7D1264B5B6913F4806FF8
:102B000044D100207047B0F5007F08D0214A1368F7
:102B100023F4C06343F480631360002070471D4BAF
:102B20001B6803F4C063B3F5806F08D0194AD2F86C
:102B3000803043F48073C2F8803000207047154A1B
:102B4000D2F8803043F48073C2F88030136823F4E5
:102B5000C06343F4007313600F4B1B68322202FB07
:102B600003F30E4AA2FB03239B0C013300E0013B5D
:102B7000084A526912F4806F01D0002BF7D1054B3F
:102B80005B6913F4806F03D1002070470320704706
:102B900003207047007000400800002083DE1B43C4
:102BA000024A936843F4804393607047007000408A
:102BB000002808DB0901C9B200F1604000F561405E
:102BC00080F80013704700F00F000901C9B2014BF3
:102BD0001954704714ED00E000B500F00700C0F193
:102BE000070CBCF1040F28BF4FF0040C031D062B8B
:102BF0000FD9C31E4FF0FF3E0EFA0CF021EA000180
:102C000099400EFA03FE22EA0E0241EA02005DF844
:102C100004FB0023EEE70000074AD36823F4E063D7
:102C20001B041B0C000200F4E060034343F0BF638D
:102C300043F40033D360704700ED00E010B5044664
:102C4000054BD868C0F30220FFF7C6FF01462046B7
:102C5000FFF7AEFF10BD00BF00ED00E00138B0F19E
:102C6000807F0BD24FF0E0235861054AF02182F8B3
:102C700023100020986107221A61704701207047D5
:102C800000ED00E030B4026A036A23F0010303623E
:102C90004468836923F4803323F073030D681D4374
:102CA00022F002028B681343204A904213D002F5AF
:102CB000006290420FD002F5406290420BD002F5C4
:102CC0008062904207D002F58062904203D002F504
:102CD0000062904205D123F00803CA681A4322F02B
:102CE0000403124A904213D002F5006290420FD0C2
:102CF00002F5406290420BD002F58062904207D00C
:102D000002F58062904203D002F50062904205D144
:102D100024F440744A6922438C69144344608561F9
:102D20004A684263036230BC704700BF002C014018
:102D300030B4036A026A22F4807202624468C26993
:102D400022F4803222F073020D68154323F40073DD
:102D50008A6843EA02231C4A904207D002F50062C7
:102D6000904203D002F5E052904206D123F4006372
:102D7000CA6843EA022323F48063134A904213D0C3
:102D800002F5006290420FD002F5406290420BD0F3
:102D900002F58062904207D002F58062904203D033
:102DA00002F50062904207D124F440524C6942EA95
:102DB00004128C6942EA04144460C5614A68C26323
:102DC000036230BC704700BF002C014030B4036A7E
:102DD000026A22F4805202624468C26922F0807260
:102DE00022F4E6420D6842EA052223F400538D687E
:102DF00043EA05331B4DA84207D005F50065A842FC
:102E000003D005F5E055A84206D123F40043CD6870
:102E100043EA053323F48043124DA84213D005F54D
:102E20000065A8420FD005F54065A8420BD005F516
:102E30008065A84207D005F58065A84203D005F556
:102E40000065A84207D124F4404C4C694CEA841C2C
:102E50008C694CEA84144460C2614A68026403626B
:102E600030BC7047002C014030B4036A026A22F47F
:102E7000803202624468026D22F4803222F07002D5
:102E80000D68154323F400338A6843EA0243114A6C
:102E9000904213D002F5006290420FD002F54062DA
:102EA00090420BD002F58062904207D002F580621A
:102EB000904203D002F50062904204D124F48034A1
:102EC0004A6944EA0224446005654A6882640362F0
:102ED00030BC7047002C014030B4036A026A22F40F
:102EE000801202624468026D22F0807222F4E04295
:102EF0000D6842EA052223F400138D6843EA055366
:102F0000114DA84213D005F50065A8420FD005F574
:102F10004065A8420BD005F58065A84207D005F5AD
:102F20008065A84203D005F50065A84204D124F4C9
:102F300080244D6944EA8524446002654A68C2647D
:102F4000036230BC704700BF002C014090F83D3058
:102F5000DBB2012B35D1022380F83D3003681C4AD7
:102F6000934220D0B3F1804F1DD0A2F5943293420A
:102F700019D002F58062934215D002F58062934227
:102F800011D002F5943293420DD002F54062934283
:102F900009D002F58052934205D01A6842F001022E
:102FA0001A600020704799680A4A0A40062A0AD027
:102FB000B2F5803F09D01A6842F001021A60002081
:102FC000704701207047002070470020704700BF05
:102FD000002C01400700010003683A4A904216D0D5
:102FE000B0F1804F13D0A2F5943290420FD002F589
:102FF000806290420BD002F58062904207D002F5C9
:103000009432904203D002F5E052904203D123F073
:1030100070034A6813432B4A904222D0B0F1804F8C
:103020001FD0A2F5943290421BD002F580629042EC
:1030300017D002F58062904213D002F5943290428C
:103040000FD002F5406290420BD002F580629042B0
:1030500007D002F58062904203D002F500629042F0
:1030600003D123F44073CA68134323F080034A69F1
:10307000134303608B68C3620B688362114B9842F1
:1030800013D003F5006398420FD003F540639842D4
:103090000BD003F58063984207D003F58063984214
:1030A00003D003F50063984201D10B690363012348
:1030B0004361036913F0010F03D0036923F0010397
:1030C00003617047002C014060B310B5044690F8CE
:1030D0003D3013B3022384F83D30214651F8040BF0
:1030E000FFF77AFF012384F8483084F83E3084F8F3
:1030F0003F3084F8403084F8413084F8423084F81E
:10310000433084F8443084F8453084F8463084F8FD
:10311000473084F83D30002010BD80F83C3001F08D
:10312000E7FCD7E70120704730B4036A026A22F057
:10313000100202624468826922F0807222F4E64240
:103140000D6842EA052223F020038D6843EA051347
:103150001B4DA84207D005F50065A84203D005F530
:10316000E055A84206D123F08003CD6843EA051359
:1031700023F04003124DA84213D005F50065A84284
:103180000FD005F54065A8420BD005F58065A84233
:1031900007D005F58065A84203D005F50065A84273
:1031A00007D124F4406C4C694CEA840C8C694CEADD
:1031B0008404446082614A688263036230BC704761
:1031C000002C014038B590F83C30012B00F0958080
:1031D00004460D46012380F83C30142A00F2888012
:1031E000DFE802F00B8686861F8686863486868612
:1031F000488686865D86868671000068FFF742FDF8
:103200002268936943F0080393612268936923F06D
:10321000040393612268936929690B439361002039
:1032200067E00068FFF780FF2268936943F400635A
:1032300093612268936923F48063936122689369A0
:10324000296943EA01239361002052E00068FFF7F7
:103250006FFD2268D36943F00803D3612268D36904
:1032600023F00403D3612268D36929690B43D36136
:1032700000203EE00068FFF7A9FD2268D36943F40F
:103280000063D3612268D36923F48063D361226829
:10329000D369296943EA0123D361002029E000684A
:1032A000FFF7E2FD2268136D43F0080313652268FF
:1032B000136D23F0040313652268136D29690B4312
:1032C0001365002015E00068FFF706FE2268136D05
:1032D00043F4006313652268136D23F48063136560
:1032E0002268136D296943EA01231365002000E079
:1032F0000120002384F83C3038BD0220FCE701F0B7
:103300001F014FF0010C0CFA01FC036A23EA0C03C5
:103310000362036A8A4013430362704710B5044690
:1033200010293DD8DFE801F0093C3C3C203C3C3C06
:10333000273C3C3C2E3C3C3C350090F83E30DBB218
:10334000013B18BF0123002B40F09B80102900F2A5
:103350008680DFE801F02C848484748484847884FB
:1033600084847C848484800090F83F30DBB2013B0D
:1033700018BF0123E7E790F84030DBB2013B18BFEC
:103380000123E0E790F84130DBB2013B18BF012395
:10339000D9E790F84230DBB2013B18BF0123D2E7F6
:1033A00090F84330DBB2013B18BF0123CBE7022387
:1033B00084F83E3001222068FFF7A1FF2368344AD9
:1033C000934213D002F5006293420FD002F540629F
:1033D00093420BD002F58062934207D002F58062DF
:1033E000934203D002F50062934203D15A6C42F437
:1033F00000425A642368264A934234D0B3F1804F86
:1034000031D0A2F5943293422DD002F580629342DE
:1034100029D002F58062934225D002F5943293427E
:1034200021D002F5406293421DD002F580529342B2
:1034300019D01A6842F001021A60002022E002232B
:1034400084F83F30B6E7022384F84030B2E7022325
:1034500084F84130AEE7022384F84230AAE7022321
:1034600084F84330A6E799680A4A0A40062A0AD037
:10347000B2F5803F09D01A6842F001021A600020BC
:1034800000E0012010BD0020FCE70020FAE700BFAB
:10349000002C01400700010001F00F014FF0040C67
:1034A0000CFA01FC036A23EA0C030362036A8A40F4
:1034B000134303627047000010B504460846002914
:1034C0003BD194F84430DBB2013B18BF0123002B01
:1034D0006AD100284AD1022384F8443004220146EC
:1034E0002068FFF7D9FF2268536C43F4004353640C
:1034F0002368304A934249D0B3F1804F46D0A2F5B9
:103500009432934242D002F5806293423ED002F55B
:10351000806293423AD002F59432934236D002F55B
:103520004062934232D002F5805293422ED01A6804
:1035300042F001021A60002037E0042908D008296F
:103540000DD094F84730DBB2013B18BF0123BEE732
:1035500094F84530DBB2013B18BF0123B7E794F87C
:103560004630DBB2013B18BF0123B0E7042805D089
:10357000082807D0022384F84730AFE7022384F8F5
:103580004530ABE7022384F84630A7E799680A4A3A
:103590000A40062A0AD0B2F5803F09D01A6842F0E4
:1035A00001021A60002000E0012010BD0020FCE7AD
:1035B0000020FAE7002C01400700010090F83C20B1
:1035C000012A4CD030B40346012280F83C2002226C
:1035D00080F83D20006842688468224DA84207D0E8
:1035E00005F50065A84203D005F5E055A84203D1D2
:1035F00022F470024D682A4322F0007222F0700219
:103600000D682A4342601A68164882421AD0B2F105
:10361000804F17D0A0F59430824213D000F580601F
:1036200082420FD000F5806082420BD000F59430CA
:10363000824207D000F54060824203D000F58050FE
:10364000824204D124F080048968214391600122E0
:1036500083F83D20002083F83C0030BC70470220F6
:10366000704700BF002C014090F83C30012B4AD03D
:1036700010B40246012380F83C30CB6823F4407339
:103680008868034323F480634868034323F400639A
:103690000868034323F480530869034323F4005369
:1036A0004869034323F48043086B034323F47023E6
:1036B000886943EA004323F08053C86903431068D4
:1036C000124CA04207D004F50064A04203D004F5D8
:1036D000E054A04210D123F470038C6A43EA0453EF
:1036E00023F080730C6A234323F000734C6A234356
:1036F00023F00053C96A0B434364002082F83C0066
:103700005DF8044B70470220704700BF002C014059
:10371000026852E8003F23F4907342E80031002928
:10372000F6D1026802F1080353E8003F23F080530A
:1037300023F00103083242E800310029F1D1C36EC1
:10374000012B06D02023C0F88C300023C3664367CA
:103750007047026852E8003F23F0100342E800314E
:103760000029F6D1EEE7000070B5044683680269CF
:10377000134342691343C269134301680868964AB8
:1037800002401A430A602268536823F44053E168F8
:103790000B435360A1692268904B9A4201D0236A7F
:1037A0001943936823F06E4323F430630B43936013
:1037B0002268D36A23F00F03616A0B43D362236844
:1037C000874A934226D0874A934237D0864A93420B
:1037D0004DD0864A93425DD0854A93426CD07F4A51
:1037E00093427ED010227D498B4200F0B380E06985
:1037F000B0F5004F00F00481082A00F26F81DFE885
:1038000012F03201540130016D0157016D016D015B
:103810006D015A0102F55842D2F8882002F00302E5
:10382000032A09D8DFE802F0020472060122DAE76F
:103830000422D8E70822D6E71022D4E702F5E632C0
:10384000D2F8882002F00C020C2A0ED8DFE802F031
:10385000070D0D0D090D0D0D600D0D0D0B00002256
:10386000C1E70422BFE70822BDE71022BBE702F54B
:10387000E432D2F8882002F03002202A4AD005D85B
:10388000002A49D0102A49D10422ACE7302A47D176
:103890000822A8E702F5E232D2F8882002F0C0023E
:1038A000802A3FD004D8FAB3402A3FD104229AE7B5
:1038B000C02A3DD1082296E702F5E032D2F88820EE
:1038C00002F44072B2F5007F34D005D8A2B3B2F54D
:1038D000807F33D1042286E7B2F5407F30D10822C1
:1038E00081E702F5C832D2F8882002F44062B2F5CE
:1038F000006F27D005D83AB3B2F5806F26D10422E5
:1039000071E7B2F5406F23D108226CE702226AE723
:10391000022268E7022266E7002264E7102262E7DB
:10392000102260E702225EE700225CE710225AE7DD
:10393000102258E7022256E7002254E7102252E7ED
:10394000102250E702224EE700224CE710224AE7FD
:10395000102248E7082A00F2B180DFE802F008AF41
:103960003BAF38AFAFAF05004FF4004004E0FEF7C7
:10397000B9FC002800F0A480626A1E4B33F81220C4
:10398000B0FBF2F3656805EB4501994200F29A80BD
:10399000B3EB053F00F29880002633463146FDF731
:1039A0008DF8090241EA106100026B08C0182A462E
:1039B000334641F10001FDF781F8A0F540720E4B4E
:1039C0009A4200F283802368D860304664E0FEF7B4
:1039D00043FBCEE70948CFE7F369FFCF0080004003
:1039E000003801400044004000480040004C0040C6
:1039F00000500040AC630008FFFC0F000024F400FE
:103A0000082A65D8DFE802F0072705642A646464A1
:103A10000B00354803E0FEF765FC00285AD0626AC7
:103A2000324B33F81230B0FBF3F06268530803EB0B
:103A30004003B3FBF2F3A3F110014FF6EF72914292
:103A40004AD89AB222F00F02C3F34203134322680A
:103A5000D360002020E0FEF757FCDEE7FEF7FCFA1B
:103A6000DBE7214803E0FEF73DFC002838D0626A1E
:103A70001E4B33F81230B0FBF3F0636800EB5300D9
:103A8000B0FBF3F0A0F110024FF6EF739A4229D881
:103A9000236880B2D86000200123A4F86A30A4F81B
:103AA000683000236367A36770BDFEF72DFCDCE779
:103AB000FEF7D2FAD9E74FF40040D8E70120EBE750
:103AC0000020E9E70120E7E70120E5E70120E3E73F
:103AD0000120E1E70020DFE70120DDE70120DBE74F
:103AE0000020D9E70120D7E70024F400AC630008E8
:103AF000836A13F0080F06D00268536823F400436A
:103B0000816B0B435360836A13F0010F06D0026888
:103B1000536823F40033C16A0B435360836A13F084
:103B2000020F06D00268536823F48033016B0B4305
:103B30005360836A13F0040F06D00268536823F4BD
:103B40008023416B0B435360836A13F0100F06D040
:103B50000268936823F48053C16B0B439360836ABC
:103B600013F0200F06D00268936823F40053016C11
:103B70000B439360836A13F0400F0AD002685368C6
:103B800023F48013416C0B435360436CB3F5801FE7
:103B90000BD0836A13F0800F06D00268536823F4B9
:103BA0000023C16C0B43536070470268536823F4D1
:103BB000C003816C0B435360EBE72DE9F8430546E6
:103BC0000E4617469946DDF820802B68DC6936EAF8
:103BD00004040CBF01240024BC4236D1B8F1FF3FDD
:103BE000F3D0FDF781FFA0EB0900404530D8B8F1D4
:103BF000000F2FD02B681A6812F0040FE5D0802E2A
:103C0000E3D0402EE1D0DA6912F0080F11D1DA6961
:103C100012F4006FD9D04FF400621A622846FFF701
:103C200077FD2023C5F89030002385F884300320E9
:103C30000CE008241C622846FFF76AFDC5F8904096
:103C4000002385F88430012000E00020BDE8F883DF
:103C50000320FBE70320F9E72DE9F04182B01E467F
:103C6000D0F88830202B5AD104460D4690460029C2
:103C700059D00AB9012053E00023C0F89030212325
:103C8000C0F88830FDF730FF0746A4F85480A4F848
:103C90005680A368B3F5805F02D04FF0000816E0AD
:103CA000236943B34FF0000811E02023C4F88830A3
:103CB000032035E038F8023B2268C3F3080393621F
:103CC000B4F8562092B2013A92B2A4F85620B4F851
:103CD00056309BB293B100963B460022802120468D
:103CE000FFF76BFF0028E0D1002DE3D015F8012B82
:103CF00023689A62E4E7A8460025E8E700963B4679
:103D0000002240212046FFF758FF18B92023C4F8AD
:103D1000883005E02023C4F88830032000E002202A
:103D200002B0BDE8F0810120FAE730B583B0044667
:103D30000023C0F89030FDF7D7FE054622681268D0
:103D400012F0080F10D123681B6813F0040F28D15C
:103D50002023C4F88830C4F88C300020E066206747
:103D600084F8840003B030BD6FF07E4300930346B7
:103D700000224FF400112046FFF71FFF0028E2D079
:103D8000226852E8003F23F0800342E80031002916
:103D9000F6D12023C4F88830002384F8843003202F
:103DA000E0E76FF07E4300932B4600224FF4800142
:103DB0002046FFF702FF0028CAD0226852E8003FE1
:103DC00023F4907342E800310029F6D1226802F111
:103DD000080353E8003F23F00103083242E80031B2
:103DE0000029F3D12023C4F88C30002384F88430D8
:103DF0000320B7E778B310B50446D0F888300BB38A
:103E00002423C4F888302268136823F00103136068
:103E1000A36AE3B92046FFF7A7FC012811D0226866
:103E2000536823F4904353602268936823F02A0375
:103E300093602268136843F0010313602046FFF784
:103E400074FF10BD80F8843001F0C8F8D8E7204630
:103E5000FFF74EFEDEE7012070470000436E2BB9EE
:103E60000123A0F86A30A0F86830704730B40368C6
:103E70009A68C2F342629968490F094D6B5CDB0096
:103E8000084C615C93FBF1F3A0F86A30AB5CDB009B
:103E9000A25C93FBF2F3A0F8683030BC704700BF1F
:103EA000CC630008C463000890F88430012B18D05C
:103EB000012380F884302423C0F8883003681A680E
:103EC000196821F00101196022F0005200234366B5
:103ED00001680A602022C0F8882080F884301846E3
:103EE00070470220704738B590F88430012B1DD000
:103EF0000446012380F884302423C0F88830036806
:103F00001D681A6822F001021A600268936823F0A3
:103F1000604319439160FFF7A1FF23681D602023D0
:103F2000C4F88830002084F8840038BD0220FCE703
:103F300038B590F88430012B1DD00446012380F859
:103F400084302423C0F8883003681D681A6822F082
:103F500001021A600268936823F06063194391605C
:103F6000FFF77CFF23681D602023C4F88830002001
:103F700084F8840038BD0220FCE70000034AD2F830
:103F8000883043F47003C2F88830704700ED00E0D9
:103F900010B402681D4B9A4228D01D491D4B9A420D
:103FA00026D00164D2F8803023F4F813446B43EA3E
:103FB0000443C2F8803001F1700343640268D2F810
:103FC000803023F07063846B43EA0463C2F880306E
:103FD00001F1B003836401F5C473C36401F5187380
:103FE000036501F51E7343650B4607E00A49D5E7F3
:103FF00001F5D461D5E7002243F8042B01F5547292
:104000009A42F8D85DF8044B704700BF0068004042
:1040100000A40040006C004050A70040002800F0C1
:10402000E38038B5044690F85C30D3B122689369D8
:1040300023F010039361FDF757FD054623689A6945
:1040400012F0080F12D0FDF74FFD401B0A28F5D9DA
:10405000236E43F001032366032384F85C300120C0
:1040600038BD80F85D3000F0FBFCDFE79A6942F074
:1040700001029A61FDF738FD054623689A6912F03E
:10408000010F0DD1FDF730FD401B0A28F5D9236E35
:1040900043F001032366032384F85C300120DFE74B
:1040A0009A6942F002029A612268504B9A4242D0C9
:1040B000237C012B45D02268936943F04003936130
:1040C000637C012B43D02268936923F4804393617E
:1040D000A37C012B41D02268936943F48053936100
:1040E0002268936923F44073A1680B4393612268AB
:1040F000936923F0A40393612268136923F01003EA
:104100001361E368012B2ED0002B31D0022B54D049
:104110002268936943F0800393612268136943F036
:1041200010031361E368032B22D12268936943F0E3
:10413000200393611CE06268A3F58063C3F8002547
:10414000B6E72268936923F040039361B8E72268D9
:10415000936943F480439361BAE72268936923F437
:1041600080539361BCE72268936943F00403936131
:10417000A3695A1EE369013B1B0243EA4263226AB8
:10418000013A13436269013A216843EA0243CB6171
:10419000A368B3F5407F16D02268D2F8C030E16B37
:1041A0000B43C2F8C0302046FFF7F2FE0020A065A6
:1041B0002066012384F85C3052E72268936943F05B
:1041C00020039361D4E7A36A013BE26A013A43EA20
:1041D0000223226B013A43EA0213626A013A216820
:1041E00043EA0243CB60D7E70120704700640040F8
:1041F00090F85C30DBB2012B05D0036E43F0040372
:10420000036601207047022380F85C3002689369DE
:1042100023F00103936100230366184670470000F2
:1042200000B58DB000230793089309930A930B936D
:1042300003F1804303F50433DA6C42F01002DA64D0
:10424000DA6C02F010020192019ADA6C42F0040278
:10425000DA64DA6C02F004020292029ADA6C42F03A
:104260002002DA64DA6C02F020020392039ADA6C1C
:1042700042F00102DA64DA6C02F001020492049A5C
:10428000DA6C42F00202DA64DA6C02F002020592A1
:10429000059ADA6C42F00802DA64DB6C03F008037A
:1042A0000693069B4FF44043079307A90248FEF785
:1042B000F9F90DB05DF804FB0004004810B58CB0AE
:1042C000002409940A940B942022214601A801F0AD
:1042D000A6F826484FF0A04303604FF4A0134360B4
:1042E0008460C46004610123436104228261047715
:1042F00043770222026280F82440C462046380F89B
:104300003830C46380F84040FCF7AAFD10BB00239E
:10431000099309A91548FDF7B9FAF0B9144B0193AF
:1043200006230293002303937F2204920422059222
:1043300006930DEB02010D48FCF732FF80B90D4BDF
:1043400001930C23029301A90848FCF729FF50B9F7
:104350000CB010BDFCF712FCD9E7FCF70FFCDDE751
:10436000FCF70CFCEBE7FCF709FCF1E7F403002099
:10437000020030040400600800B589B0202200214A
:10438000684601F04CF82748274B03604FF4A01310
:10439000436000238360C360036101224261042102
:1043A0008161037742770321016280F82430C36280
:1043B000036380F83820C36380F84030FCF750FD79
:1043C00020BB1A4B009306230193002302937F2204
:1043D000039204220492059369461248FCF7E0FE1A
:1043E000B8B9134B00930C23019369460D48FCF7B1
:1043F000D7FE88B90F4B00931223019369460948F1
:10440000FCF7CEFE58B909B05DF804FBFCF7B6FB2B
:10441000D7E7FCF7B3FBE4E7FCF7B0FBEAE7FCF710
:10442000ADFBF0E788030020000100500008302EAB
:10443000002090360010603210B58CB00024099432
:104440000A940B942022214601A800F0E8FF2C4892
:104450002C4B03604FF4403343608460C4600461BC
:1044600001234361042282610477437703220262BD
:1044700080F82440C462046380F83830C46380F854
:104480004040FCF7EDFC00282BD10023099309A93B
:104490001B48FDF7FBF938BB1B4B01930623029326
:1044A000002303937F2204920422059206930DEBCE
:1044B00002011348FCF774FEC8B9144B01930C2396
:1044C000029301A90E48FCF76BFE98B9104B0193BB
:1044D0001223029301A90A48FCF762FE68B90CB0E6
:1044E00010BDFCF74BFBD0E7FCF748FBD4E7FCF72B
:1044F00045FBE2E7FCF742FBE8E7FCF73FFBEEE7B2
:104500001C030020000400501000C01040002019BF
:104510000400600800B589B020220021684600F040
:104520007EFF1B481B4B03604FF440334360002366
:104530008360C36003614361042282610377437730
:104540000122026280F82430C362036380F83830AD
:10455000C36380F84030FCF783FC90B90E4B0093A6
:1045600006230193002302937F22039204220492E4
:10457000059369460648FCF713FE28B909B05DF8B3
:1045800004FBFCF7FBFAE9E7FCF7F8FAF6E700BFF3
:10459000B0020020000500500010603200B589B064
:1045A00020220021684600F03AFF1B481B4B0360A5
:1045B0004FF44033436000238360C3600361436171
:1045C00004228261037743770122026280F824305B
:1045D000C362036380F83830C36380F84030FCF76F
:1045E0003FFC90B90E4B00930623019300230293E6
:1045F0007F22039204220492059369460648FCF741
:10460000CFFD28B909B05DF804FBFCF7B7FAE9E77C
:10461000FCF7B4FAF6E700BF4402002000060050A1
:1046200002003004F0B5A9B0044600212391249182
:1046300025912691279154220EA800F0F0FE2368C0
:10464000B3F1A04F10D0904A93425CD08F4A93426E
:1046500000F0C9808E4A934200F036818D4A934221
:1046600000F0798129B0F0BD4FF400430E934FF074
:1046700000531F930EA8FDF759FE002832D1864A39
:10468000136801331360012B2FD0844BDA6C42F096
:104690000102DA64DB6C03F001030293029B032343
:1046A000239324930025259523A94FF09040FDF7EF
:1046B000F9FF7B487B4B0360052343608560C56041
:1046C000802303614FF4807343614FF480638361FF
:1046D0002023C3610562FEF729F988B9704B636531
:1046E0009C62BFE7FCF74AFAC9E76C4BDA6C42F40C
:1046F0000052DA64DB6C03F400530193019BC4E7BE
:10470000FCF73CFAEAE74FF400430E934FF00053F6
:104710001F930EA8FDF70AFE002853D15E4A1368C6
:1047200001331360012B50D05C4BDA6C42F0010274
:10473000DA64DA6C02F001020492049ADA6C42F054
:104740000402DA64DA6C02F004020592059ADA6C6B
:1047500042F00202DA64DB6C03F002030693069B6C
:1047600020262396032724970025259523A94FF07B
:104770009040FDF797FF23962497259523A94A4853
:10478000FDF790FF042323932497259523A94748F9
:10479000FDF788FF4648474B03602423436085604C
:1047A000C560802303614FF4807343614FF48063DD
:1047B0008361C6610562FEF7B9F888B93C4B636551
:1047C0009C624FE7FCF7DAF9A8E7344BDA6C42F465
:1047D0000052DA64DB6C03F400530393039BA3E7FA
:1047E000FCF7CCF9EAE74FF480330E934FF0004327
:1047F00020930EA8FDF79AFD002833D12E4A1368A6
:1048000001331360012B30D0244BDA6C42F01002DC
:10481000DA64DB6C03F010030893089B4FF46073B9
:104820002393032324930025259523A92348FDF7EB
:1048300039FF2348234B0360252343608560C5600F
:10484000802303614FF4807343614FF4806383617D
:104850002023C3610562FEF769F888B9184B6365C8
:104860009C62FFE6FCF78AF9C8E70C4BDA6C42F46D
:104870008042DA64DB6C03F480430793079BC3E751
:10488000FCF77CF9EAE700BF00010050000400508B
:1048900000050050000600502001002000100240DA
:1048A000E401002008040240000800480004004819
:1048B00084010020080002401C0100200010004874
:1048C000240100201C0002404FF480330E934FF06F
:1048D000004320930EA8FDF729FD00282DD1384A6A
:1048E000136801331360012B2AD0364BDA6C42F087
:1048F0000202DA64DA6C02F002020A920A9ADA6CB4
:1049000042F00802DA64DB6C03F008030B930B9BA4
:104910004FF480532393032524950024259423A941
:104920002948FDF7BFFE4FF4807323932495259407
:1049300023A92648FDF7B6FE94E6FCF71FF9CEE75B
:10494000204BDA6C42F48042DA64DB6C03F480437F
:104950000993099BC9E74FF480330E934FF000434E
:1049600020930EA8FDF7E2FCE0B9154A1368013365
:104970001360012B19D0134BDA6C42F00102DA6498
:10498000DB6C03F001030D930D9B4FF480732393B5
:10499000032324930023259323A94FF09040FDF790
:1049A00081FE5FE6FCF7EAF8DFE7064BDA6C42F4DB
:1049B0008042DA64DB6C03F480430C930C9BDAE7EF
:1049C0001C0100200010024000040048000C0048B8
:1049D00084B00F4B9A6C42F004029A649A6C02F015
:1049E00004020192019A9A6C42F001029A649A6C54
:1049F00002F001020292029A9A6C42F002029A6458
:104A00009B6C03F002030393039B04B0704700BF49
:104A10000010024008B51048104B036000234360AB
:104A20008360C3600374437483740F224261012264
:104A300082610521C1610421016242628262C26217
:104A4000026343638363C363FFF7E8FA00B908BDF9
:104A5000FCF794F8FBE700BF60040020006400400E
:104A600010B59CB0044600211791189119911A9124
:104A70001B91542202A800F0D2FC22681A4B9A42E1
:104A800001D01CB010BD4FF4805302934FF000735F
:104A9000109302A8FDF74AFC10BB144B9A6D42F02C
:104AA00000729A659A6D02F000720092009ADA6CB8
:104AB00042F00102DA64DB6C03F001030193019B15
:104AC0004FF4C053179302231893002319931A939A
:104AD00009231B9317A94FF09040FDF7E3FDD0E7A2
:104AE000FCF74CF8D9E700BF00640040001002401A
:104AF00084B00368154A934207D0154A93420FD0F9
:104B0000144A934217D004B07047134B1A6E42F404
:104B100000621A661B6E03F400630193019BF2E7C7
:104B20000D4B9A6D42F002029A659B6D03F00203F1
:104B30000293029BE7E7084B9A6D42F004029A65E4
:104B40009B6D03F004030393039BDCE7002C0140FF
:104B500000040040000800400010024070B58AB018
:104B600000230593069307930893099303683C4A2F
:104B7000934207D03B4A934248D03B4A934259D094
:104B80000AB070BD394BDA6C42F00402DA64DA6CB8
:104B900002F004020192019ADA6C42F01002DA6427
:104BA000DB6C03F010030293029B4FF40053059358
:104BB00002250695042309932D4E05A93046FDF7DD
:104BC00071FD012305930695002407940894099527
:104BD00005A93046FDF766FD4FF480430593069521
:104BE00007940894099506F5006605A93046FDF777
:104BF00059FD4FF400430593069507940894062346
:104C0000099305A93046FDF74DFDB9E7174BDA6C5E
:104C100042F01002DA64DB6C03F010030393039B91
:104C20001C23059302230693099305A91148FDF758
:104C300039FDA5E70D4BDA6C42F00802DA64DB6C53
:104C400003F008030493049B4FF44053059302239D
:104C50000693099305A90848FDF724FD90E700BFD6
:104C6000002C0140000400400008004000100240F9
:104C70000008004800100048000C004810B598B02B
:104C800000241594169417940E940F941094119474
:104C90001294139414943422214601A800F0BFFB0F
:104CA0002D482E4B0360446084604FF49673C360BC
:104CB000046144618461FEF707FA00283DD10023B6
:104CC00015931693179315A92348FEF777FC002830
:104CD00036D160230E9364230F9300221092119219
:104CE0001292139214920EA91B48FEF76BFA50BB56
:104CF00050230F930C220EA91748FEF763FA28BB26
:104D000000230193029303930222049205934FF42C
:104D1000005206920793089309934FF000720A928B
:104D20000B930C930D9301A90B48FEF79DFC80B9E2
:104D30000948FFF713FF18B010BDFBF71FFFBEE7D0
:104D4000FBF71CFFC5E7FBF719FFD1E7FBF716FFE1
:104D5000D6E7FBF713FFEBE75C050020002C0140D2
:104D600000B58BB000230793089309930093019338
:104D7000029303930493059306932248224A026008
:104D80000822426083604BF67F32C2600361836118
:104D9000FEF79AF930BB00230793099307A9194836
:104DA000FEF70CFC08BB60230093002201920292E4
:104DB000049269461348FEF705FAC8B95A230193CD
:104DC000042269460F48FEF7FDF9A0B9082269469A
:104DD0000C48FEF7F7F988B90A48FFF7BFFE0BB099
:104DE0005DF804FBFBF7CAFED5E7FBF7C7FEDAE781
:104DF000FBF7C4FEE2E7FBF7C1FEE7E7FBF7BEFE09
:104E0000EAE700BF100500200004004000B58BB0A9
:104E1000002307930893099300930193029303934C
:104E20000493059306931D481D4A02600A224260BE
:104E300083604BF68032C26003618361FEF744F900
:104E4000F8B900230793099307A91448FEF7B6FBA6
:104E5000D0B9602300935A23019300220292049256
:104E600069460E48FEF7AEF988B9042269460B4838
:104E7000FEF7A8F970B90948FFF770FE0BB05DF8AE
:104E800004FBFBF77BFEDCE7FBF778FEE1E7FBF7D3
:104E900075FEEAE7FBF772FEEDE700BFC4040020F1
:104EA0000008004008B51748174B03604FF4612312
:104EB000436000238360C36003610C22426183610D
:104EC000C361036243628362FEF794FF70B90021FD
:104ED0000C48FFF708F860B900210A48FFF728F8E6
:104EE00050B90848FEF7E0FF48B908BDFBF746FE99
:104EF000EDE7FBF743FEEFE7FBF740FEF1E7FBF7DB
:104F00003DFEF2E7D00600200038014008B5174802
:104F1000174B03604FF46123436000238360C36039
:104F200003610C2242618361C36103624362836255
:104F3000FEF760FF70B900210C48FEF7D4FF60B99E
:104F400000210A48FEF7F4FF50B90848FEF7ACFF0D
:104F500048B908BDFBF712FEEDE7FBF70FFEEFE7E0
:104F6000FBF70CFEF1E7FBF709FEF2E73C06002039
:104F70000044004008B51748174B03604FF4612305
:104F8000436000238360C36003610C22426183613C
:104F9000C361036243628362FEF72CFF70B9002194
:104FA0000C48FEF7A0FF60B900210A48FEF7C0FFD9
:104FB00050B90848FEF778FF48B908BDFBF7DEFD99
:104FC000EDE7FBF7DBFDEFE7FBF7D8FDF1E7FBF7DC
:104FD000D5FDF2E7A80500200048004010B5A0B0BC
:104FE000044600211B911C911D911E911F9154227A
:104FF00006A800F014FA2368454A934207D0454AB0
:10500000934230D0444A934257D020B010BD012380
:10501000069306A8FDF78AF910BB404B1A6E42F4BE
:1050200080421A661A6E02F480420092009ADA6C8C
:1050300042F00102DA64DB6C03F001030193019B8F
:105040004FF4C0631B9302231C9300231D931E93F4
:1050500007231F931BA94FF09040FDF723FBD4E7D4
:10506000FBF78CFDD9E70223069306A8FDF75EF94E
:1050700000BB2A4B9A6D42F400329A659A6D02F495
:1050800000320292029ADA6C42F00802DA64DB6CB7
:1050900003F008030393039B60231B9302231C93D9
:1050A00000231D931E9307231F931BA91C48FDF784
:1050B000F9FAAAE7FBF762FDDBE70423069306A8EB
:1050C000FDF734F908BB154B9A6D42F480229A65BE
:1050D0009A6D02F480220492049ADA6C42F004027F
:1050E000DA64DB6C03F004030593059B4FF4406323
:1050F0001B9302231C9300231D931E9307231F93CE
:105100001BA90848FDF7CEFA7FE7FBF737FDDAE782
:1051100000380140004400400048004000100240B8
:10512000000C00480008004808B507EE900AF8EEA9
:10513000677A17EE900AFBF707FA07A3D3E9002373
:10514000FBF75AFA06A3D3E90023FBF77FFBFBF733
:1051500065FC00EE100A08BD6666666666660A4073
:105160000000000000FEAF4010B50446037833B9DC
:1051700083681B8843809B00436001230370606841
:105180006388C01AA3681B8818446060C0F38F004E
:105190006080FFF7C9FF84ED030A10BD0D48854606
:1051A000FEF7ECFE0C480D490D4A002302E0D458EE
:1051B000C4500433C4188C42F9D30A4A0A4C002361
:1051C00001E013600432A242FBD300F077F9FBF751
:1051D00011FDFEE700000220000000206800002012
:1051E0003064000868000020B4080020FEE70000DA
:1051F000002310B50446C0E90033C0E904338360DE
:1052000081814366C2818361194608225C3000F0C7
:1052100006F90D4B63620D4BA3620D4BE3620D4B20
:1052200023630D4B24629C4206D003F16802944232
:1052300002D0D0339C4205D104F15800BDE81040A3
:1052400000F060B910BD00BF99530008BB530008BF
:10525000F35300081754000864070020024A03496A
:10526000034800F069B800BF0C000020A15D0008F1
:105270001C00002041680C4B994210B5044601D037
:1052800000F08EFDA168094B994202D0204600F043
:1052900087FDE168064B994204D02046BDE81040E6
:1052A00000F07EBD10BD00BF64070020CC070020C9
:1052B0003408002010B50B4B0B4C0C4A1A602046EA
:1052C00000220421FFF794FF04F168000122092164
:1052D000FFF78EFF04F1D0000222BDE8104012213A
:1052E000FFF786BF9C080020640700205D5200087D
:1052F000014800F008B900BFA5080020014800F0EF
:1053000003B900BFA508002010B50446FFF7F0FF61
:10531000236A1BB1BDE81040FFF7F0BF044B2362C6
:10532000044B1B68002BF5D1FFF7C4FFF2E700BF69
:10533000755200089C0800202DE9F843074688466E
:1053400014460026D4E90195B9F1010905D5246870
:10535000002CF7D13046BDE8F883AB89012B07D983
:10536000B5F90E30013303D029463846C04706430D
:105370006835E9E70FB407B5064904AB086853F888
:10538000042B8168019300F0E3F903B05DF804EBAE
:1053900004B070471800002010B50C46B1F90E108B
:1053A00000F068F80028ABBF636DA3891B1823F4D5
:1053B0008053ACBF6365A38110BD2DE9F0411F464A
:1053C0008B89DB0505460C46164605D5B1F90E104E
:1053D0000223002200F03CF8A389B4F90E1023F454
:1053E0008053A38132463B462846BDE8F04100F099
:1053F00053B810B50C46B1F90E1000F029F8431C53
:10540000A38915BF606523F4805343F48053A381BF
:1054100018BFA38110BDB1F90E1000F009B8024405
:105420000346934200D1704703F8011BF9E70000DF
:1054300038B5064D0023044608462B6000F000FEF8
:10544000431C02D12B6803B1236038BDA0080020A3
:1054500038B5074D04460846114600222A601A4610
:1054600000F006FE431C02D12B6803B1236038BD57
:10547000A008002038B5074D044608461146002212
:105480002A601A4600F0FCFD431C02D12B6803B1D0
:10549000236038BDA008002038B5074D04460846F3
:1054A000114600222A601A4600F000FE431C02D179
:1054B0002B6803B1236038BDA008002070B50D4DE6
:1054C0000D4C641BA4100026A64209D10B4D0C4CB8
:1054D00000F052FF641BA4100026A64205D170BD47
:1054E00055F8043B98470136EEE755F8043B9847DA
:1054F0000136F2E7286400082864000828640008E0
:105500002C640008704770477047000038B50546A6
:10551000002941D051F8043C0C1F002BB8BFE418FF
:1055200000F0E0F81D4A136833B963601460284640
:10553000BDE8384000F0DCB8A34208D92068211843
:105540008B4201BF19685B6809182160EDE71A46B4
:105550005B680BB1A342FAD911685018A0420BD175
:1055600020680144501883421160E0D118685B68DC
:10557000536008441060DAE702D90C232B60D6E7A9
:10558000206821188B4204BF19685B68636004BF00
:10559000091821605460CAE738BD00BFAC0800207C
:1055A00070B50F4E0C463168054611B900F0B4FCD9
:1055B00030602146284600F0AFFC431C03D14FF079
:1055C000FF34204670BDC41C24F00304A042F8D070
:1055D000211A284600F0A0FC0130F2D1EFE700BF0D
:1055E000A80800202DE9F843CD1C25F00305083557
:1055F0000C2D38BF0C25002D064601DBA94204D92D
:105600000C2333600020BDE8F883DFF8D48000F07D
:1056100069F8D8F800301C4644BB29463046FFF7ED
:10562000BFFF431C044658D1D8F800402746002F3E
:1056300043D1002C4BD023683946304604EB030994
:1056400000F06AFC814542D121686D1A2946304636
:10565000FFF7A6FF01303AD023682B442360D8F827
:1056600000305A6862BBC8F800700FE02268521B15
:1056700020D40B2A17D96119A342256018BF59609D
:10568000636808BFC8F8001062514B60304600F0F4
:105690002FF804F10B00231D20F00700C21A1CBFD5
:1056A0001B1AA350AFE76268A3420CBFC8F80020E2
:1056B0005A60EBE723466468AEE73C467F68B6E78E
:1056C0001A465B68A342FBD100235360DEE70C233C
:1056D0003360304600F00CF894E70560D6E700BF71
:1056E000AC0800200148FFF70EBF00BFA40800204F
:1056F0000148FFF709BF00BFA40800209368013BE1
:10570000002B10B4936008DA9469A34201DB0A29E4
:1057100003D15DF8044B00F06BBB1368581C10609C
:10572000197008465DF8044B7047F8B506460F46F9
:105730001446D518AC4201D1002007E014F8011B33
:105740003A463046FFF7DAFF431CF3D1F8BD0000BC
:105750002DE9F04F0D469DB014469846064618B107
:10576000036A0BB9FFF7D0FD6B6ED90705D4AB897F
:105770009A0502D4A86DFFF7C6FEAB891B0701D5B9
:105780002B699BB92946304600F070FB70B16B6EF7
:10579000DC0704D54FF0FF301DB0BDE8F08FAB89BA
:1057A0009805F7D4A86DFFF7AFFEF3E70023099340
:1057B00020238DF82930CDF80C803023DFF8AC8120
:1057C0008DF82A304FF0010923469A4613F8012B31
:1057D0000AB1252AF9D1BAEB040B0BD05B4622465D
:1057E00029463046FFF7A1FF013000F0A780099A53
:1057F0005A4409929AF80030002B00F09F80002351
:105800004FF0FF32CDE905230AF1010A0493079313
:105810008DF853301A935446052214F8011B53484F
:10582000FAF7DEFC049AD8B9D10644BF20238DF8DC
:105830005330130744BF2B238DF853309AF80030B0
:105840002A2B15D0079A544600204FF00A0C214607
:1058500011F8013B303B092B4BD9B0B1079214E052
:10586000A0EB080309FA03F313430493A246D2E71B
:10587000039B191D1B680391002BBBBF5B4242F0C9
:10588000020207930793B8BF049223782E2B0AD104
:1058900063782A2B32D1039B1A1D1B68039243EABB
:1058A000E37302340593DFF8D4A021780322504635
:1058B000FAF796FC38B1049BA0EB0A004022824024
:1058C00013430134049314F8011B29488DF8281060
:1058D0000622FAF785FC00283FD0264B1BBB039B12
:1058E000073323F0070308330393099B3B440993D1
:1058F0006AE70CFB02320C460120A8E700230134C2
:10590000059319464FF00A0C204610F8012B303A47
:10591000092A03D9002BC6D00591C4E70CFB01214D
:1059200004460123F0E703AB00932A46124B04A977
:105930003046AFF300800746781CD6D16B6ED9078E
:1059400005D4AB899A0502D4A86DFFF7DDFDAB89BC
:105950005B063FF51FAF09981EE703AB00932A468D
:10596000054B04A9304600F079F8E4E7EC63000841
:10597000F6630008000000002B570008F2630008DF
:105980002DE9F047164698468A680B69DDF82090A5
:105990009342B8BF1346336091F8432007460C4644
:1059A0000AB1013333602368990642BF336802337A
:1059B0003360256815F0060506D104F1190AE3687D
:1059C00032689B1AAB4226DC94F843302268003BD5
:1059D00018BF012392062BD404F1430241463846F6
:1059E000C84701301ED02368226903F00603042B48
:1059F00002BFE5683368ED1AA3680CBF25EAE575B8
:105A000000259342C4BF9B1AED1800261A34B542F4
:105A10001AD1002008E00123524641463846C847C3
:105A2000013003D14FF0FF30BDE8F0870135C6E704
:105A3000E1185A1C302081F84300224494F84510A4
:105A400082F843100233C7E7012322464146384615
:105A5000C8470130E6D00136D9E700002DE9FF47FD
:105A60000F7E0C9E782F914680460C469A4601F197
:105A7000430207D8622F0AD8002F00F0D180582F98
:105A800000F0B88004F1420684F842703AE0A7F1D1
:105A90006303152BF6D801A151F823F0F55A00083D
:105AA000095B0008855A0008855A0008855A0008D5
:105AB000855A0008095B0008855A0008855A0008C5
:105AC000855A0008855A0008075C0008335B000807
:105AD000C15B0008855A0008855A0008295C000847
