:020000040800F2
:100000000000022035530008490400084B04000892
:100010004D0400084F0400085104000800000000CF
:100020000000000000000000000000005304000871
:100030005504000800000000570400085904000897
:100040008553000885530008855300088553000830
:100050008553000885530008855300088553000820
:100060008553000885530008855300088553000810
:100070008553000885530008855300088553000800
:1000800085530008855300088553000885530008F0
:100090008553000861040008855300088553000853
:1000A00085530008855300088553000885530008D0
:1000B0007104000885530008855300088553000823
:1000C00085530008855300088553000885530008B0
:1000D00085530008855300088553000885530008A0
:1000E0008553000885530008855300088553000890
:1000F0008553000885530008855300088553000880
:1001000085530008855300088104000885530008C2
:10011000855300088553000885530008855300085F
:10012000855300088553000885530008855300084F
:10013000855300088553000885530008855300083F
:10014000855300088553000885530008000000000F
:10015000000000000000000000000000000000009F
:1001600000000000000000000000000085530008AF
:1001700085530008855300088553000885530008FF
:1001800085530008855300088553000885530008EF
:1001900085530008000000008553000885530008BF
:1001A00085530008855300088553000885530008CF
:1001B00085530008855300088553000885530008BF
:1001C00085530008855300088553000885530008AF
:0801D000855300088553000867
:1001D80053B94AB9002908BF00281CBF4FF0FF31A6
:1001E8004FF0FF3000F00CB8ADF1080C6DE904CE0B
:1001F80005F0F2F8DDF804E0DDE9022304B0704709
:10020800704700BF0348044B834202D0034B03B13D
:10021800184770470C0000200C0000200000000068
:100228000548064B1B1AD90F01EBA301491002D050
:10023800034B03B1184770470C0000200C00002046
:100248000000000010B5064C237843B9FFF7DAFF29
:10025800044B13B10448AFF300800123237010BD91
:100268000C000020000000009C56000808B5054B53
:100278001BB105490548AFF30080BDE80840FFF70A
:10028800CFBF00BF00000000100000209C560008EF
:1002980072B6FEE700B595B03822002106A805F031
:1002A8006EF80023019302930393049305934FF48C
:1002B800007001F071FD022306934FF480720992D9
:1002C80040220A920D930E9304220F924B22109211
:1002D80011931293139306A800F034FE80B90F23EC
:1002E80001930323029300230393049305930421AA
:1002F8000DEB010001F0DCF820B915B05DF804FB46
:10030800FFF7C6FFFFF7C4FF00B583B04FF0FF4308
:1003180001933A4B3A4A136002333A4A13603A4B14
:100328003A4A13603A4A3B490A60901C3A490860C5
:1003380004323A490A60043B394A13600233394AA5
:100348001360394B394A13600233394A136000F09D
:1003580097FDFFF79FFF03F065FC04F075F803F0C5
:10036800B9FC03F015FD04F073FA04F085FB04F002
:10037800B7FB04F0E9FB04F0DDFA04F031FB03F00D
:10038800D7FD04F083F803F027FE03F063FD04F0C3
:10039800F1F804F027F9274900230B604B6002228B
:1003A8008A600120C8600B6140F6FF724A61224AE8
:1003B8004FF4B374146053609360D0601361536159
:1003C8009361D36113621D4C204603F0E9FA20467D
:1003D80003F019FB06E04FF47A7000F073FD642017
:1003E80000F070FD42238DF800306A461249134828
:1003F80003F020FB0028EED1F1E700BF80010020C8
:100408005801002044010020740100203001002020
:10041800780100201C01002008010020F4000020C1
:10042800E0000020CC0000206C010020B800002073
:10043800A400002090050020A80500202C0500201D
:10044800FEE7FEE7FEE7FEE7FEE770477047704706
:1004580008B500F025FD08BD08B5024803F01EFBED
:1004680008BD00BF2C05002008B5024801F037FF81
:1004780008BD00BFB006002008B5024801F02FFFF4
:1004880008BD00BFCC05002000B583B00B4B1A6E29
:1004980042F001021A661A6E02F001020092009AF6
:1004A8009A6D42F080529A659B6D03F080530193D8
:1004B800019B01F0F7FC03B05DF804FB001002405B
:1004C80010B430300B0A9B0003F00C03C45801F041
:1004D8001F014FF01F0C0CFA01FC24EA0C0CC2F3AC
:1004E80084628A404CEA0202C2505DF8044B7047AD
:1004F80010B414304B0E9B0003F00403C458C1F32E
:1005080004514FF0070C0CFA01FC24EA0C0C8A4049
:100518004CEA0202C2505DF8044B704730B583B014
:1005280000230193002800F02B810446C36D13B308
:1005380023689A6812F0005F05D09A6822F020427A
:1005480022F03F029A602268936813F0805F1FD1FF
:10055800936823F0104323F03F0343F080539360E4
:10056800884B1B689B09884AA2FB03239B0901331C
:100578005B00019309E003F073FD0023236684F810
:100588005830D5E7019B013B0193019B002BF9D122
:100598002268936813F0805F3DD1E36D43F0100348
:1005A800E365236E43F0010323660120936813F08B
:1005B800040300D00123E16D11F0100F40F0D98041
:1005C800002B40F0D680E36D23F4817343F00203DF
:1005D800E365936813F0010F3ED1B2F1A04F1CD030
:1005E8006A4B9A4219D06A4B996811F0010100D000
:1005F8000121684B9B6813F0010300D001230B43D2
:100608006549896811F0010100D001210B430CBF35
:100618000123002312E00020C8E74FF0A0439968A7
:1006280011F0010100D00121584B9B6813F0010320
:1006380000D001230B430CBF0123002363B1B2F1A7
:10064800A04F69D0514B9A4264D0544963688A6874
:1006580022F47C1213438B60627FE36B43EA4233DC
:10066800E2681343A268134394F8242043EA024340
:10067800012A53D0E26A22B102F47872216B0A434C
:1006880013432168CD68464A2A401A43CA60226843
:10069800136923F04063616B0B431361226893680D
:1006A80013F0080300D001232BBB237F94F83810E4
:1006B800490041EA8331D36823F4804323F00203DD
:1006C8000B43D360236973B32268136943F48033FF
:1006D80013612268D2F8C0306FF30D0321690B4310
:1006E800C2F8C03094F84030012B29D02268136931
:1006F80023F0010313616369012B31D02268136B66
:1007080023F00F031363E36D23F0030343F00103A6
:10071800E36533E0234999E7224997E7A26A013A5A
:1007280043EA4243A6E72268136923F4803313613E
:100738002268D2F8C0306FF30D03C2F8C030D1E799
:1007480021680B696FF38A03626CA56C2A43E56C18
:100758002A43256D2A43134343F001030B61CAE77B
:1007680021680B6B23F00F03226A013A13430B63D2
:10077800C9E7E36D43F01003E365012003B030BD22
:100788000120FBE708000020632D3E050001005012
:1007980000040050000500500006005000070050FB
:1007A8000740F0FF00030050F0B583B00023019329
:1007B80090F85830012B00F0428204460D46012380
:1007C80080F858300068836813F0040F09D0E36D8F
:1007D80043F02003E3650120002384F8583003B078
:1007E800F0BD0A684968FFF76BFE2068836813F05C
:1007F800040300D00123866816F0080600D00126FD
:10080800002B3ED1002E3CD1AA68B2F1004F78D01F
:100818002968FFF76DFE2268536923F0004353618E
:1008280069692268D368C3F3C1035B0099402869EA
:10083800042873D0603252F82070AB4B3B402F68CD
:1008480007F0F84C41EA0C010B4343F0004342F82F
:10085800203023682869AA69603353F8201021F0F2
:1008680080710A4343F82020236829692A7F012AD6
:1008780051D0603353F8212022F00072324343F8FC
:1008880021202268936813F0010F16D12B68E868BD
:10089800D2F8B010C3F3120621EA060100F01806D8
:1008A8009248F0400340C3F312030B43C2F8B03040
:1008B800EA688F4B9A4200F099802B688D4A134260
:1008C80000F0B7812268B2F1A04F00F050818A4948
:1008D8008A4200F049818949896801F0E070884DB1
:1008E800AB4200F04681874DAB4200F04281864D15
:1008F800AB4200F07181854DAB4200F0858100204C
:100908006AE700222968FFF7F3FD2268536943F07C
:100918000043536184E74FF00076AAE7136E116E27
:10092800C1F384612B68C3F3120080BBC3F38463F3
:10093800994234D021684B6E4A6EC2F384622B68A8
:10094800C3F3120080BBC3F384639A4234D0216896
:100958008B6E8A6EC2F384622B68C3F3120080BB6D
:10096800C3F384639A4234D02168CB6ECA6EC2F353
:1009780084622B68C3F3120080BBC3F384639A427A
:100988007FF47FAFCB6E23F00043CB6679E793FA11
:10099800A3F313B1B3FA83F3CAE72023C8E7136EAE
:1009A80023F000431366C5E793FAA3F313B1B3FA30
:1009B80083F3CAE72023C8E74B6E23F000434B6656
:1009C800C5E793FAA3F313B1B3FA83F3CAE7202375
:1009D800C8E78B6E23F000438B66C5E793FAA3F351
:1009E80013B1B3FA83F3CAE72023C8E720682B685A
:1009F800C3F3120626BB9A0E013202F01F02092A1F
:100A08008CBF00220122002A52D046BB990E013128
:100A1800890601F0F84176BB9F0E013707F01F07E2
:100A28000122BA401143AEBB9B0E013303F01F03F2
:100A380003EB43031B051943AA68FFF759FD3CE77D
:100A480093FAA3F24AB1B2FA82F2013202F01F021B
:100A5800092A8CBF00220122D5E72022F5E793FA64
:100A6800A3F131B1B1FA81F10131890601F0F84100
:100A7800D1E72021F8E793FAA3F24AB1B2FA82F259
:100A8800013202F01F024FF0010C0CFA02F2C9E722
:100A98002022F5E793FAA3F343B1B3FA83F30133C2
:100AA80003F01F0303EB43031B05C4E72023F6E70A
:100AB80076BB990E0131890601F0F841A6BB9F0E5D
:100AC800013707F01F070122BA401143DEBB9B0E16
:100AD800013303F01F0303EB43031E3B1B0543F0E5
:100AE80000731943A8E700BF00F0FF03FFFF0700EA
:100AF80000007F40000008800001005000070050FF
:100B0800000021C31000C090000052C7000084CB31
:100B180093FAA3F131B1B1FA81F10131890601F0FB
:100B2800F841CBE72021F8E793FAA3F24AB1B2FAE9
:100B380082F2013202F01F024FF0010C0CFA02F2AD
:100B4800C3E72022F5E793FAA3F35BB1B3FA83F383
:100B5800013303F01F0303EB43031E3B1B0543F064
:100B68000073BEE72023F3E701F50071B4E63549C9
:100B7800B2E611F4000F7FF4BAAEB2F1A04F04D080
:100B8800314B9A4201D0002026E6B2F1A04F19D08D
:100B98002E4B9A4214D02E4A40F40000936823F05A
:100BA800E073184390602B4B1B689B092A4AA2FBF1
:100BB80003239B09013303EB43039B00019306E0E6
:100BC800204AE9E71F4AE7E7019B013B0193019BA4
:100BD800002BF9D10020FFE511F0807F7FF48BAE68
:100BE800B2F1A04F0ED0194B9A4209D0184A40F0E2
:100BF8008070936823F0E073184390600020EBE561
:100C0800104AF4E70F4AF2E711F4800F13D10F4BA3
:100C18009A4212D0B2F1A04F09D00D4940F4800396
:100C28008A6822F0E07213438B600020D4E50549FE
:100C3800F4E70020D0E50020CEE50020CCE5022036
:100C4800CDE500BF00030050000600500001005031
:100C58000007005008000020632D3E0590F858203A
:100C6800012A00F0D68010B49DB00346012280F816
:100C780058200022189219920068B0F1A04F47D06E
:100C8800654A904247D000220192019A002A46D034
:100C9800926812F0040200D00122846814F0040F54
:100CA80040F0A780002A40F0A480B0F1A04F42D0C5
:100CB8005A4A90423CD05A4A086800285CD090684A
:100CC80020F460404C6893F838C044EA4C34204320
:100CD80090601868B0F1A04F2FD0504CA0422CD093
:100CE8004D48846814F0010400D001244D48806800
:100CF80010F0010000D0012020434B4CA46814F0F0
:100D0800010400D0012420430CBF0120002025E06D
:100D1800424A0192B9E702F580720192B5E7DA6DAD
:100D280042F02002DA65002283F85820012068E0AA
:100D380002F50072C0E73D4ABEE74FF0A040846864
:100D480014F0010400D001243448806810F0010038
:100D580000D0012020430CBF01200020002854D0DF
:100D6800906820F4716020F00F000C6889682143B6
:100D780008439060002041E0916821F4604191604F
:100D88001968B1F1A04F1AD02448814217D02249DE
:100D9800886810F0010000D001202249896811F00C
:100DA800010100D0012101431F48806810F00100B3
:100DB80000D0012001430CBF0121002110E04FF0B9
:100DC800A041886810F0010000D00120134989680B
:100DD80011F0010100D0012101430CBF01210021C4
:100DE800A9B1916821F4716121F00F01916000208F
:100DF80004E0DA6D42F02002DA650120002283F86F
:100E080058201DB05DF8044B70470020F6E700201D
:100E1800F4E70220704700BF0004005000010050B2
:100E28000007005000050050000600500003005065
:100E3800104B1B680BB90120704710B504464FF4DE
:100E48007A70B0FBF3F30C4A1068B0FBF3F001F0D2
:100E580099F868B90F2C01D901200AE0002221462F
:100E68004FF0FF3001F07AF8044B1C60002000E0DE
:100E7800012010BD00000020080000200400002010
:100E880010B5032001F058F80F20FFF7D1FF10B17B
:100E98000124204610BD0446FFF7F6FAF9E70000E2
:100EA800034A1368034909680B441360704700BF7D
:100EB8008401002000000020014B1868704700BF23
:100EC8008401002038B50446FFF7F6FF0546B4F163
:100ED800FF3F02D0044B1B681C44FFF7EDFF401B8B
:100EE800A042FAD338BD00BF00000020124BDA68D8
:100EF80002F00302DB68C3F303130133032A11D0A2
:100F08000E48B0FBF3F00C4BDB68C3F3062303FB7E
:100F180000F0094BDB68C3F3416301335B00B0FBAE
:100F2800F3F070470648B0FBF3F0034BDB68C3F3FC
:100F3800062303FB00F0ECE7001002400024F40055
:100F4800006CDC02002800F04F8270B582B00446C5
:100F5800036813F0010F37D0A44A936803F00C0319
:100F6800D26802F003020C2B23D0082B23D063682D
:100F7800B3F5803F4ED0B3F5A02F51D09B4B1A68E4
:100F880022F480321A601A6822F480221A60636898
:100F9800002B52D0FFF790FF0546944B1B6813F4C3
:100FA800003F11D1FFF788FF401B6428F5D90320C3
:100FB80023E2032AD9D18D4B1B6813F4003F03D0D9
:100FC8006368002B00F01282236813F0020F5DD0D3
:100FD800864A936803F00C03D26802F003020C2BD4
:100FE8003AD0042B3AD0E368002B75D07F4A1368B7
:100FF80043F480731360FFF75FFF05467B4B1B6864
:1010080013F4806F5FD1FFF757FF401B0228F5D913
:101018000320F2E1754A136843F480331360B6E79E
:1010280003F18043A3F53C331A6842F480221A6026
:101038001A6842F480321A60A9E7FFF73DFF0546B7
:101048006A4B1B6813F4003FBED0FFF735FF401B07
:101058006428F5D90320D0E1022AC2D1634B1B686A
:1010680013F4806F03D0E368002B00F0C1815F4A5E
:10107800536823F0FE43216943EA016353605C4BE4
:101088001868FFF7D5FE002840F0B481236813F0F4
:10109800080F4CD063699BB3544AD2F8943043F09C
:1010A8000103C2F89430FFF707FF05464F4BD3F80A
:1010B800943013F0020F3AD1FFF7FEFE401B0228CE
:1010C800F4D9032099E1494A536823F0FE43216982
:1010D80043EA01635360D9E7444A136823F48073F1
:1010E8001360FFF7E9FE0546404B1B6813F4806F59
:1010F800CCD0FFF7E1FE401B0228F5D903207CE1A4
:101108003A4AD2F8943023F00103C2F89430FFF73A
:10111800D3FE0546354BD3F8943013F0020F06D0B2
:10112800FFF7CAFE401B0228F4D9032065E12368B3
:1011380013F0040F00F081802C4B9B6D13F0805F3F
:1011480036D12A4B9A6D42F080529A659B6D03F016
:1011580080530193019B0125264B1B6813F4807F64
:1011680028D0A368012B39D0052B45D01F4BD3F8C5
:10117800902022F00102C3F89020D3F8902022F0AA
:101188000402C3F89020A368002B43D0FFF794FE15
:101198000646164BD3F8903013F0020F4CD1FFF7E8
:1011A8008BFE801B41F288339842F2D9032024E158
:1011B8000025D1E70F4A136843F480731360FFF7E3
:1011C8007BFE06460B4B1B6813F4807FC9D1FFF7E3
:1011D80073FE801B0228F5D903200EE1034AD2F8DA
:1011E800903043F00103C2F89030CCE70010024081
:1011F8000400002000700040884BD3F8902042F093
:101208000402C3F89020D3F8902042F00102C3F8FA
:101218009020B8E7FFF750FE0646804BD3F8903091
:1012280013F0020F08D0FFF747FE801B41F2883306
:101238009842F2D90320E0E0E5B9236813F0200FC3
:1012480035D0A369E3B1754AD2F8983043F0010369
:10125800C2F89830FFF730FE0546704BD3F8983047
:1012680013F0020F23D1FFF727FE401B0228F4D901
:101278000320C2E0694A936D23F080539365DCE74D
:10128800664AD2F8983023F00103C2F89830FFF785
:1012980013FE0546614BD3F8983013F0020F06D0C1
:1012A800FFF70AFE401B0228F4D90320A5E0E369F2
:1012B800002B00F0A180594A926802F00C020C2A17
:1012C80064D0022B13D0554A136823F0807313603F
:1012D800FFF7F2FD0446514B1B6813F0007F4ED018
:1012E800FFF7EAFD001B0228F5D9032085E04B4AE9
:1012F800136823F080731360FFF7DEFD0546474B44
:101308001B6813F0007F06D0FFF7D6FD401B0228AC
:10131800F5D9032071E0414AD36841491940236A4D
:10132800606A013843EA0013A06A43EA0023206B8D
:101338004008013843EA4053606B4008013843EAEB
:101348004063E06A43EAC0631943D160136843F01D
:1013580080731360D36843F08073D360FFF7ACFDEC
:1013680004462E4B1B6813F0007F06D1FFF7A4FD3F
:10137800001B0228F5D903203FE000203DE0274A62
:10138800D168284B0B40D360002036E0012B36D0C3
:10139800224BDB6803F00301226A914231D103F04A
:1013A800F002616A0139B2EB011F2CD103F4FE424D
:1013B800A16AB2EB012F28D103F07842E16AB2EBBF
:1013C800C16F24D103F4C001226B5208013AB1EB7A
:1013D800425F1ED103F0C063626B5208013AB3EB5F
:1013E800426F18D1002008E001207047012004E076
:1013F800012002E0012000E0002002B070BD0120C1
:10140800FBE70120F9E70120F7E70120F5E70120D4
:10141800F3E70120F1E70120EFE700BF00100240E9
:101428000C809F01FCFFEEFE1E4B9B6803F00C0333
:10143800042B33D01B4B9B6803F00C03082B2FD0D5
:10144800184B9B6803F00C030C2B01D0002070474D
:10145800144BDA6802F00302DB68C3F303130133A9
:10146800032A11D01048B0FBF3F00E4BDB68C3F32E
:10147800062303FB00F00B4BDB68C3F34163013326
:101488005B00B0FBF3F070470848B0FBF3F0054B86
:10149800DB68C3F3062303FB00F0ECE70248704760
:1014A80002487047001002400024F400006CDC027F
:1014B800002800F0E680F8B50C460546744B1B681A
:1014C80003F00F038B420BD2714A136823F00F030A
:1014D8000B431360136803F00F038B4240F0D38073
:1014E8002E6816F001065FD06B68032B2FD0022BF5
:1014F8004DD0684B1B6813F4806F00F0C680FFF76F
:1015080093FF654B98424DD9624A936823F0F003E4
:1015180043F08003936080265E4A936823F00303B8
:1015280069680B439360FFF7C7FC0746594B9B68F4
:1015380003F00C036A68B3EB820F35D0FFF7BCFCED
:10154800C01B41F288339842F0D9032078E0514B10
:101558001B6813F0007F01D1012071E0FFF7C6FC82
:101568004D4B98421AD94B4B9B6813F0F00F05D09E
:101578002E6816F00206CFD0AB688BB9454A93683F
:1015880023F0F00343F0800393608026C4E7414BC7
:101598001B6813F4003FB2D1012051E00026BBE7DD
:1015A8000026B9E70026B7E72B6813F0020F48D0EA
:1015B80013F0040F04D0374A936843F4E063936050
:1015C8002B6813F0080F06D0324A936823F47C5333
:1015D80043F4E06393602F4A936823F0F003A9680B
:1015E8000B4393602A4B1B6803F00F03A34230D8C8
:1015F8002B6813F0040F06D0264A936823F4E0639F
:10160800E9680B4393602B6813F0080F07D0214A51
:10161800936823F46053296943EAC1039360FFF791
:1016280003FF1C4B9B68C3F303131C4AD35C03F0F2
:101638001F03D8401A4B18601A4B1868FFF7F8FBBD
:10164800F8BD802ECED1134A936823F0F00393603F
:10165800C8E70F4A136823F00F0323431360FFF70B
:101668002BFC06460A4B1B6803F00F03A342BFD0AE
:10167800FFF722FC801B41F288339842F2D90320FD
:10168800DEE7012070470120DAE70120D8E700BF34
:10169800002002400010024000B4C404E4560008D0
:1016A8000800002004000020014B1868704700BFA4
:1016B8000800002008B5FFF7F7FF054B9B68C3F348
:1016C8000223044AD35C03F01F03D84008BD00BFBF
:1016D80000100240DC56000808B5FFF7E5FF054B8F
:1016E8009B68C3F3C223044AD35C03F01F03D840AA
:1016F80008BD00BF00100240DC560008F0B583B0FA
:101708000446036813F4002F6ED0354B9B6D13F01D
:10171800805F1ED1324B9A6D42F080529A659B6D64
:1017280003F080530193019B01262E4A136843F46A
:1017380080731360FFF7C0FB05462A4B1B6813F440
:10174800807F08D1FFF7B8FB401B0228F5D9032595
:1017580002E00026E9E7002545BB214BD3F890308D
:1017680013F4407315D0226D9A4212D01C4AD2F855
:10177800903023F44073D2F8901041F48031C2F8CD
:101788009010D2F8901021F48031C2F89010C2F86D
:10179800903013F0010F10D145B9114AD2F89030AA
:1017A80023F44073216D0B43C2F89030EEB10C4A1C
:1017B800936D23F08053936517E0FFF77DFB074691
:1017C800074BD3F8903013F0020FE5D1FFF774FB05
:1017D800C01B41F288339842F2D90325DCE700BFE9
:1017E80000100240007000400025236813F0010F2C
:1017F80008D09F4AD2F8883023F0030361680B436E
:10180800C2F88830236813F0020F08D0984AD2F83B
:10181800883023F00C03A1680B43C2F88830236892
:1018280013F0040F08D0924AD2F8883023F030031E
:10183800E1680B43C2F88830236813F0080F08D01A
:101848008B4AD2F8883023F0C00321690B43C2F8D1
:101858008830236813F0100F08D0854AD2F88830F2
:1018680023F4407361690B43C2F88830236813F08E
:10187800200F08D07E4AD2F8883023F44063A1694B
:101888000B43C2F88830236813F0400F08D0784A19
:10189800D2F8883023F44053E1690B43C2F888300A
:1018A800236813F0800F08D0714AD2F8883023F4E7
:1018B8004043216A0B43C2F88830236813F4807FC1
:1018C80008D06B4AD2F8883023F44033616A0B435E
:1018D800C2F88830236813F4003F08D0644AD2F86D
:1018E8009C3023F00303A16A0B43C2F89C302368A1
:1018F80013F4007F08D05E4AD2F8883023F44023DE
:10190800E16A0B43C2F88830236813F4806F0CD067
:10191800574AD2F8883023F44013216B0B43C2F89E
:101928008830236BB3F5801F79D0236813F4006FD8
:101938000CD04F4AD2F8883023F44003616B0B4334
:10194800C2F88830636BB3F5800F6DD0236813F449
:10195800805F0CD0464AD2F8883023F04073A16BE0
:101968000B43C2F88830A36BB3F1807F61D0236842
:1019780013F4005F0CD03E4AD2F8883023F040635D
:10198800E16B0B43C2F88830E36BB3F1006F55D0BD
:10199800236813F4804F0CD0354AD2F8883023F0EE
:1019A8004063216C0B43C2F88830236CB3F1006F9D
:1019B80049D0236813F4004F0CD02D4AD2F8883050
:1019C80023F04053616C0B43C2F88830636CB3F169
:1019D800805F3DD0236813F4803F0CD0244AD2F8AE
:1019E800883023F04043A16C0B43C2F88830A36CC5
:1019F800B3F1804F31D0236813F4802F0CD01C4AE8
:101A0800D2F89C3023F44013E16C0B43C2F89C30AD
:101A1800E36CB3F5001F25D0284603B0F0BDD368AA
:101A280043F48013D36080E7D36843F48013D36012
:101A38008CE7D36843F48013D36098E7D36843F402
:101A48008013D360A4E7D36843F48013D360B0E76E
:101A5800D36843F48033D360BCE7D36843F480335E
:101A6800D360C8E7D36843F48013D360D4E700BFDA
:101A780000100240F0B583B0002362E085685E0084
:101A88000324B44025EA0405CC68B4402C438460A0
:101A9800456825EA0C054C68C4F300149C402C43A7
:101AA80044605FE0DD08083550F8254003F0070C76
:101AB8004FEA8C0C4FF00F0E0EFA0CFE24EA0E0EB5
:101AC8000C6904FA0CF444EA0E0440F8254060E07E
:101AD800052400E0002404FA0EF42C430CF1020C57
:101AE800554D45F82C40554CA568D44325EA0206C7
:101AF8004F6817F4801F01D042EA05064F4DAE60CB
:101B0800ED6804EA05064F6817F4001F01D042EAA1
:101B180005064A4DEE606D6804EA05064F6817F43D
:101B2800003F01D042EA0506444D6E602D682C4006
:101B38004E6816F4803F01D042EA05043F4A14601B
:101B480001330A6832FA03F474D04FF0010C0CFA2E
:101B580003FC1CEA0202F3D04C6804F00304013CC5
:101B6800012C8BD94C6804F00304032C0CD0C468F6
:101B78005D004FF0030C0CFA05FC24EA0C0C8C6891
:101B8800AC4044EA0C04C4604C6804F00304022C22
:101B980088D004684FEA430E4FF0030C0CFA0EFC91
:101BA80024EA0C0C4C6804F0030404FA0EF444EA2A
:101BB8000C0404604C6814F4403FC1D0204C256EDE
:101BC80045F001052566246E04F001040194019C8A
:101BD8004FEA930C0CF10205174C54F8255003F00A
:101BE800030E4FEA8E0E0F2404FA0EF425EA0405BC
:101BF800B0F1904F3FF46EAF124CA04212D004F5F2
:101C08008064A04210D004F58064A0420ED004F590
:101C18008064A0420CD004F58064A0423FF458AF21
:101C2800062458E7012456E7022454E7032452E720
:101C3800042450E703B0F0BD000001400004014057
:101C480000100240000400480AB1816170478162B7
:101C58007047000003680C4A934213D80B49DBB263
:101C6800083B0B4AA2FB0323426C22F003020A44FE
:101C78008264084AC264C3F30413012202FA03F31C
:101C8800036570470449EAE7070402400008024078
:101C9800CDCCCCCC80080240200802400379074A0A
:101CA8001A4492004265064A8265013B03F01F030D
:101CB800012202FA03F3C365704700BF3F82001098
:101CC80040090240002859D010B5044602682C4B40
:101CD8009A423BD82B4B13442B49A1FB03131B09F6
:101CE8009B004364294B0364022384F82530116860
:101CF8006FF30E11A368E06803432069034360692A
:101D08000343A0690343E0690343206A03430B4389
:101D180013602046FFF79EFFA368B3F5804F20D0DD
:101D2800A36C22791A60E36C226D5A606368013BE8
:101D3800032B19D900236365A365E3650020E063DD
:101D4800012384F8253084F8240010BD104B134477
:101D58000D49A1FB03131B099B0043640D4B03644E
:101D6800C2E700236360DBE72046FFF797FF636D58
:101D780000221A60A36DE26D5A60DFE70120704708
:101D880007040240F8FFFDBFCDCCCCCC00000240D8
:101D9800F8FBFDBF00040240002836D13E4B1B680B
:101DA80003F4C063B3F5806F08D03B4AD2F88030A3
:101DB80023F48073C2F8803000207047364AD2F886
:101DC800803023F48073C2F88030136823F4C06332
:101DD80043F400731360314B1B68322202FB03F398
:101DE8002F4AA2FB03239B0C013300E0013B2A4A44
:101DF800526912F4806F01D0002BF7D1264B5B6932
:101E080013F4806F44D100207047B0F5007F08D0EC
:101E1800214A136823F4C06343F4806313600020ED
:101E280070471D4B1B6803F4C063B3F5806F08D07F
:101E3800194AD2F8803043F48073C2F88030002009
:101E48007047154AD2F8803043F48073C2F8803066
:101E5800136823F4C06343F4007313600F4B1B68CB
:101E6800322202FB03F30E4AA2FB03239B0C01332D
:101E780000E0013B084A526912F4806F01D0002B40
:101E8800F7D1054B5B6913F4806F03D100207047CD
:101E980003207047032070470070004008000020AE
:101EA80083DE1B43024A936843F480439360704780
:101EB80000700040002807DB00F01F0240090123E2
:101EC8009340024A42F82030704700BF00E100E02A
:101ED800002808DB0901C9B200F1604000F5614043
:101EE80080F80013704700F00F000901C9B2014BD8
:101EF8001954704714ED00E000B500F00700C0F178
:101F0800070CBCF1040F28BF4FF0040C031D062B6F
:101F18000FD9C31E4FF0FF3E0EFA0CF021EA000164
:101F280099400EFA03FE22EA0E0241EA02005DF829
:101F380004FB0023EEE70000074AD36823F4E063BC
:101F48001B041B0C000200F4E060034343F0BF6372
:101F580043F40033D360704700ED00E010B5044649
:101F6800054BD868C0F30220FFF7C6FF014620469C
:101F7800FFF7AEFF10BD00BF00ED00E008B5FFF7AA
:101F880099FF08BD0138B0F1807F0BD24FF0E023F4
:101F98005861054AF02182F8231000209861072231
:101FA8001A6170470120704700ED00E030B4026A02
:101FB800036A23F0010303624468836923F48033CE
:101FC80023F073030D681D4322F002028B6813434C
:101FD800204A904213D002F5006290420FD002F5D9
:101FE800406290420BD002F58062904207D002F521
:101FF8008062904203D002F50062904205D123F03E
:102008000803CA681A4322F00403124A904213D004
:1020180002F5006290420FD002F5406290420BD068
:1020280002F58062904207D002F58062904203D0A8
:1020380002F50062904205D124F440744A692243B3
:102048008C691443446085614A684263036230BC0A
:10205800704700BF002C014030B4036A026A22F4C2
:10206800807202624468C26922F4803222F07302EC
:102078000D68154323F400738A6843EA02231C4A57
:10208800904207D002F50062904203D002F5E05278
:10209800904206D123F40063CA6843EA022323F47A
:1020A8008063134A904213D002F5006290420FD029
:1020B80002F5406290420BD002F58062904207D050
:1020C80002F58062904203D002F50062904207D187
:1020D80024F440524C6942EA04128C6942EA04141E
:1020E8004460C5614A68C263036230BC704700BF80
:1020F800002C014030B4036A026A22F48052026262
:102108004468C26922F0807222F4E6420D6842EA0D
:10211800052223F400538D6843EA05331B4DA8427A
:1021280007D005F50065A84203D005F5E055A8429B
:1021380006D123F40043CD6843EA053323F48043F2
:10214800124DA84213D005F50065A8420FD005F539
:102158004065A8420BD005F58065A84207D005F573
:102168008065A84203D005F50065A84207D124F48C
:10217800404C4C694CEA841C8C694CEA84144460D9
:10218800C2614A680264036230BC7047002C014097
:1021980030B4036A026A22F4803202624468026D33
:1021A80022F4803222F070020D68154323F40033C4
:1021B8008A6843EA0243114A904213D002F500624A
:1021C80090420FD002F5406290420BD002F5806237
:1021D800904207D002F58062904203D002F5006277
:1021E800904204D124F480344A6944EA02244460C9
:1021F80005654A688264036230BC7047002C014060
:1022080030B4036A026A22F4801202624468026DE2
:1022180022F0807222F4E0420D6842EA052223F49B
:1022280000138D6843EA0553114DA84213D005F5F4
:102238000065A8420FD005F54065A8420BD005F50A
:102248008065A84207D005F58065A84203D005F54A
:102258000065A84204D124F480244D6944EA852409
:10226800446002654A68C264036230BC704700BFBC
:10227800002C014010B4036A046A24F001040462CB
:10228800846924F0F00C4CEA021223F00A030B4391
:10229800826103625DF8044B704710B4036A046AF4
:1022A80024F010040462846924F4704C4CEA02326D
:1022B80023F0A00343EA0113826103625DF8044B33
:1022C8007047836823F4401323F070030B4343F0F3
:1022D800070383607047704770477047704770B551
:1022E80005460368DE681C6914F0020F10D016F06A
:1022F800020F0DD06FF002021A6101230377036801
:102308009B6913F0030F7CD0FFF7E6FF00232B77C0
:1023180014F0040F12D016F0040F0FD02B686FF0D2
:1023280004021A6102232B772B689B6913F4407F00
:102338006DD02846FFF7D0FF00232B7714F0080F45
:1023480012D016F0080F0FD02B686FF008021A6130
:1023580004232B772B68DB6913F0030F5ED0284624
:10236800FFF7BAFF00232B7714F0100F12D016F0E6
:10237800100F0FD02B686FF010021A6108232B770B
:102388002B68DB6913F4407F4FD02846FFF7A4FF82
:1023980000232B7714F0010F02D016F0010F4BD158
:1023A80014F4025F02D016F0800F4DD114F4807F30
:1023B80002D016F0800F4FD114F0400F02D016F063
:1023C800400F51D114F0200F02D016F0200F53D136
:1023D80014F4801F02D016F4801F55D114F4001F86
:1023E80002D016F4001F57D114F4800F02D016F44F
:1023F800800F59D114F4000F02D016F4000F5BD1EE
:1024080070BDFFF768FF2846FFF767FF7EE728469D
:10241800FFF761FF2846FFF760FF8DE72846FFF7C3
:102428005AFF2846FFF759FF9CE72846FFF753FF56
:102438002846FFF752FFABE72B686FF001021A61DD
:10244800284602F043FFABE72B686FF402521A618B
:10245800284600F056FDA9E72B686FF480721A61D0
:10246800284600F04FFDA7E72B686FF040021A617D
:102478002846FFF733FFA5E72B686FF020021A61A3
:10248800284600F03DFDA3E72B686FF480121A611F
:10249800284600F038FDA1E72B686FF400121A6196
:1024A800284600F031FD9FE72B686FF480021A611F
:1024B800284600F02AFD9DE72B686FF400021A6198
:1024C800284600F023FD9BE703683A4A904216D05D
:1024D800B0F1804F13D0A2F5943290420FD002F59C
:1024E800806290420BD002F58062904207D002F5DC
:1024F8009432904203D002F5E052904203D123F087
:1025080070034A6813432B4A904222D0B0F1804F9F
:102518001FD0A2F5943290421BD002F580629042FF
:1025280017D002F58062904213D002F5943290429F
:102538000FD002F5406290420BD002F580629042C3
:1025480007D002F58062904203D002F50062904203
:1025580003D123F44073CA68134323F080034A6904
:10256800134303608B68C3620B688362114B984204
:1025780013D003F5006398420FD003F540639842E7
:102588000BD003F58063984207D003F58063984227
:1025980003D003F50063984201D10B69036301235B
:1025A8004361036913F0010F03D0036923F00103AA
:1025B80003617047002C014060B310B5044690F8E1
:1025C8003D3013B3022384F83D30214651F8040B03
:1025D800FFF77AFF012384F8483084F83E3084F806
:1025E8003F3084F8403084F8413084F8423084F831
:1025F800433084F8443084F8453084F8463084F811
:10260800473084F83D30002010BD80F83C3002F09F
:1026180057F8D7E70120704760B310B5044690F823
:102628003D3013B3022384F83D30214651F8040BA2
:10263800FFF74AFF012384F8483084F83E3084F8D5
:102648003F3084F8403084F8413084F8423084F8D0
:10265800433084F8443084F8453084F8463084F8B0
:10266800473084F83D30002010BD80F83C3001F040
:10267800F1FFD7E70120704730B4036A026A22F0FD
:10268800100202624468826922F0807222F4E642F3
:102698000D6842EA052223F020038D6843EA0513FA
:1026A8001B4DA84207D005F50065A84203D005F5E3
:1026B800E055A84206D123F08003CD6843EA05130C
:1026C80023F04003124DA84213D005F50065A84237
:1026D8000FD005F54065A8420BD005F58065A842E6
:1026E80007D005F58065A84203D005F50065A84226
:1026F80007D124F4406C4C694CEA840C8C694CEA90
:102708008404446082614A688263036230BC704713
:10271800002C014038B590F83C30012B00F0958032
:1027280004460D46012380F83C30142A00F28880C4
:10273800DFE802F00B8686861F86868634868686C4
:10274800488686865D86868671000068FFF72EFCBF
:102758002268936943F0080393612268936923F020
:10276800040393612268936929690B4393610020EC
:1027780067E00068FFF780FF2268936943F400630D
:1027880093612268936923F4806393612268936953
:10279800296943EA01239361002052E00068FFF7AA
:1027A8005BFC2268D36943F00803D3612268D369CC
:1027B80023F00403D3612268D36929690B43D361E9
:1027C80000203EE00068FFF795FC2268D36943F4D7
:1027D8000063D3612268D36923F48063D3612268DC
:1027E800D369296943EA0123D361002029E00068FD
:1027F800FFF7CEFC2268136D43F0080313652268C7
:10280800136D23F0040313652268136D29690B43C4
:102818001365002015E00068FFF7F2FC2268136DCD
:1028280043F4006313652268136D23F48063136512
:102838002268136D296943EA01231365002000E02B
:102848000120002384F83C3038BD0220FCE710B496
:10285800846824F47F4C42EA03220A4342EA0C02C9
:1028680082605DF8044B704790F83C30012B00F013
:10287800958010B50446012380F83C30022380F887
:102888003D3002689068464B034093600B68702B9C
:102898005BD031D8502B72D01FD8402B0AD1CA68D0
:1028A80049682068FFF7E6FC40212068FFF709FD2A
:1028B800002029E06ED8202B03D00AD80BB1102BAA
:1028C80005D119462068FFF7FCFC00201CE0012018
:1028D8001AE0302BF5D0012016E0602B0AD1CA6827
:1028E80049682068FFF7D9FC60212068FFF7E9FCF8
:1028F800002009E0012007E0B3F5005F32D00AD8D4
:10290800B3F5805F48D10020012384F83D300023CF
:1029180084F83C3010BD234A9342D2D00AD8B3F190
:10292800101FCED0103A9342CBD0B3F5801FC8D039
:102938000120E9E71C4A9342C3D020329342C0D019
:10294800303A9342BDD00120DEE7CB684A688968F7
:102958002068FFF77CFF2268936843F07703936051
:102968000020D1E7CB684A6889682068FFF76FFFC5
:102978002268936843F4804393600020C4E7CA68E0
:1029880049682068FFF776FC50212068FFF799FC1A
:102998000020B9E70120B7E70120B5E7022070471A
:1029A8008800CEFF300010005000100001F01F0119
:1029B8004FF0010C0CFA01FC036A23EA0C030362D2
:1029C800036A8A40134303627047000010B5044647
:1029D80010293DD8DFE801F0093C3C3C203C3C3C58
:1029E800273C3C3C2E3C3C3C350090F83E30DBB26A
:1029F800013B18BF0123002B40F09B80102900F2F7
:102A08008680DFE801F02C8484847484848478844C
:102A180084847C848484800090F83F30DBB2013B5E
:102A280018BF0123E7E790F84030DBB2013B18BF3D
:102A38000123E0E790F84130DBB2013B18BF0123E6
:102A4800D9E790F84230DBB2013B18BF0123D2E747
:102A580090F84330DBB2013B18BF0123CBE70223D8
:102A680084F83E3001222068FFF7A0FF2368344A2B
:102A7800934213D002F5006293420FD002F54062F0
:102A880093420BD002F58062934207D002F5806230
:102A9800934203D002F50062934203D15A6C42F488
:102AA80000425A642368264A934234D0B3F1804FD7
:102AB80031D0A2F5943293422DD002F58062934230
:102AC80029D002F58062934225D002F594329342D0
:102AD80021D002F5406293421DD002F58052934204
:102AE80019D01A6842F001021A60002022E002237D
:102AF80084F83F30B6E7022384F84030B2E7022377
:102B080084F84130AEE7022384F84230AAE7022372
:102B180084F84330A6E799680A4A0A40062A0AD088
:102B2800B2F5803F09D01A6842F001021A6000200D
:102B380000E0012010BD0020FCE70020FAE700BFFC
:102B4800002C01400700010038B504460D4600225C
:102B58000068FFF72BFF23682C4A934213D002F535
:102B6800006293420FD002F5406293420BD002F507
:102B78008062934207D002F58062934203D002F547
:102B8800006293420DD1196A41F21112114208D123
:102B9800196A44F24442114203D15A6C22F40042A9
:102BA8005A642368196A41F21112114208D1196A4C
:102BB80044F24442114203D11A6822F001021A6019
:102BC800102D1FD8DFE805F0091E1E1E0E1E1E1E42
:102BD800121E1E1E161E1E1E1A00012384F83E30E9
:102BE800002038BD012384F83F30F9E7012384F839
:102BF8004030F5E7012384F84130F1E7012384F8F8
:102C08004230EDE7012384F84330E9E7002C014026
:102C180001F00F014FF0040C0CFA01FC036A23EADF
:102C28000C030362036A8A4013430362704700007F
:102C380010B50446084600293BD194F84430DBB26D
:102C4800013B18BF0123002B6AD100284AD1022377
:102C580084F84430042201462068FFF7D9FF22682F
:102C6800536C43F4004353642368304A934249D079
:102C7800B3F1804F46D0A2F59432934242D002F588
:102C8800806293423ED002F5806293423AD002F5C8
:102C98009432934236D002F54062934232D002F524
:102CA800805293422ED01A6842F001021A60002026
:102CB80037E0042908D008290DD094F84730DBB252
:102CC800013B18BF0123BEE794F84530DBB2013B56
:102CD80018BF0123B7E794F84630DBB2013B18BFB1
:102CE8000123B0E7042805D0082807D0022384F878
:102CF8004730AFE7022384F84530ABE7022384F876
:102D08004630A7E799680A4A0A40062A0AD0B2F567
:102D1800803F09D01A6842F001021A60002000E0E2
:102D2800012010BD0020FCE70020FAE7002C01403C
:102D38000700010038B504460D4600220068FFF779
:102D480067FF2368196A41F21112114208D1196A02
:102D580044F24442114203D15A6C22F400425A64AC
:102D68002368196A41F21112114208D1196A44F212
:102D78004442114203D11A6822F001021A6025B9AF
:102D8800012384F84430002038BD042D05D0082DD7
:102D980007D0012384F84730F5E7012384F845304C
:102DA800F1E7012384F84630EDE7000090F83C2075
:102DB800012A4CD030B40346012280F83C2002227C
:102DC80080F83D20006842688468224DA84207D0F8
:102DD80005F50065A84203D005F5E055A84203D1E2
:102DE80022F470024D682A4322F0007222F0700229
:102DF8000D682A4342601A68164882421AD0B2F116
:102E0800804F17D0A0F59430824213D000F580602F
:102E180082420FD000F5806082420BD000F59430DA
:102E2800824207D000F54060824203D000F580500E
:102E3800824204D124F080048968214391600122F0
:102E480083F83D20002083F83C0030BC7047022006
:102E5800704700BF002C014090F83C30012B4AD04D
:102E680010B40246012380F83C30CB6823F4407349
:102E78008868034323F480634868034323F40063AA
:102E88000868034323F480530869034323F4005379
:102E98004869034323F48043086B034323F47023F6
:102EA800886943EA004323F08053C86903431068E4
:102EB800124CA04207D004F50064A04203D004F5E8
:102EC800E054A04210D123F470038C6A43EA0453FF
:102ED80023F080730C6A234323F000734C6A234366
:102EE80023F00053C96A0B434364002082F83C0076
:102EF8005DF8044B70470220704700BF002C01406A
:102F0800704770477047704770477047704702684E
:102F180052E8003F23F4907342E800310029F6D1CB
:102F2800026802F1080353E8003F23F0805323F0BE
:102F38000103083242E800310029F1D1C36E012BA8
:102F480006D02023C0F88C300023C366436770473F
:102F5800026852E8003F23F0100342E800310029DC
:102F6800F6D1EEE770B504468368026913434269F7
:102F78001343C269134301680868964A02401A431A
:102F88000A602268536823F44053E1680B43536096
:102F9800A1692268904B9A4201D0236A1943936829
:102FA80023F06E4323F430630B4393602268D36AA3
:102FB80023F00F03616A0B43D3622368874A934265
:102FC80026D0874A934237D0864A93424DD0864AC4
:102FD80093425DD0854A93426CD07F4A93427ED01B
:102FE80010227D498B4200F0B380E069B0F5004FB4
:102FF80000F00481082A00F26F81DFE812F0320144
:10300800540130016D0157016D016D016D015A01C7
:1030180002F55842D2F8882002F00302032A09D8A0
:10302800DFE802F0020472060122DAE70422D8E798
:103038000822D6E71022D4E702F5E632D2F8882033
:1030480002F00C020C2A0ED8DFE802F0070D0D0D75
:10305800090D0D0D600D0D0D0B000022C1E70422B6
:10306800BFE70822BDE71022BBE702F5E432D2F839
:10307800882002F03002202A4AD005D8002A49D0F8
:10308800102A49D10422ACE7302A47D10822A8E700
:1030980002F5E232D2F8882002F0C002802A3FD03E
:1030A80004D8FAB3402A3FD104229AE7C02A3DD176
:1030B800082296E702F5E032D2F8882002F440723E
:1030C800B2F5007F34D005D8A2B3B2F5807F33D1F2
:1030D800042286E7B2F5407F30D1082281E702F565
:1030E800C832D2F8882002F44062B2F5006F27D0C7
:1030F80005D83AB3B2F5806F26D1042271E7B2F54C
:10310800406F23D108226CE702226AE7022268E7AF
:10311800022266E7002264E7102262E7102260E7D5
:1031280002225EE700225CE710225AE7102258E7E5
:10313800022256E7002254E7102252E7102250E7F5
:1031480002224EE700224CE710224AE7102248E705
:10315800082A00F2B180DFE802F008AF3BAF38AFD1
:10316800AFAF05004FF4004004E0FEF7A3FA0028D3
:1031780000F0A480626A1E4B33F81220B0FBF2F311
:10318800656805EB4501994200F29A80B3EB053F6B
:1031980000F29880002633463146FDF719F80902F7
:1031A80041EA106100026B08C0182A46334641F113
:1031B8000001FDF70DF8A0F540720E4B9A4200F29F
:1031C80083802368D860304664E0FEF72DF9CEE7A7
:1031D8000948CFE7F369FFCF00800040003801407D
:1031E8000044004000480040004C004000500040AF
:1031F800B4560008FFFC0F000024F400082A65D824
:10320800DFE802F0072705642A6464640B00354888
:1032180003E0FEF74FFA00285AD0626A324B33F8BF
:103228001230B0FBF3F06268530803EB4003B3FBC2
:10323800F2F3A3F110014FF6EF7291424AD89AB215
:1032480022F00F02C3F3420313432268D360002025
:1032580020E0FEF741FADEE7FEF7E6F8DBE7214873
:1032680003E0FEF727FA002838D0626A1E4B33F8CD
:103278001230B0FBF3F0636800EB5300B0FBF3F0DF
:10328800A0F110024FF6EF739A4229D8236880B252
:10329800D86000200123A4F86A30A4F8683000231D
:1032A8006367A36770BDFEF717FADCE7FEF7BCF8A3
:1032B800D9E74FF40040D8E70120EBE70020E9E721
:1032C8000120E7E70120E5E70120E3E70120E1E746
:1032D8000020DFE70120DDE70120DBE70020D9E758
:1032E8000120D7E70024F400B4560008836A13F0DD
:1032F800080F06D00268536823F40043816B0B4320
:103308005360836A13F0010F06D00268536823F4F0
:103318000033C16A0B435360836A13F0020F06D06F
:103328000268536823F48033016B0B435360836A4C
:1033380013F0040F06D00268536823F48023416B0E
:103348000B435360836A13F0100F06D0026893682A
:1033580023F48053C16B0B439360836A13F0200FEF
:1033680006D00268936823F40053016C0B43936002
:10337800836A13F0400F0AD00268536823F480135D
:10338800416C0B435360436CB3F5801F0BD0836AC9
:1033980013F0800F06D00268536823F40023C16C31
:1033A8000B43536070470268536823F4C003816C71
:1033B8000B435360EBE72DE9F84305460E461746E5
:1033C8009946DDF820802B68DC6936EA04040CBFD6
:1033D80001240024BC4236D1B8F1FF3FF3D0FDF7F9
:1033E8006BFDA0EB0900404530D8B8F1000F2FD095
:1033F8002B681A6812F0040FE5D0802EE3D0402E17
:10340800E1D0DA6912F0080F11D1DA6912F4006F0D
:10341800D9D04FF400621A622846FFF778FD2023BE
:10342800C5F89030002385F8843003200CE0082488
:103438001C622846FFF76BFDC5F89040002385F80D
:103448008430012000E00020BDE8F8830320FBE77A
:103458000320F9E730B583B004460023C0F8903064
:10346800FDF72AFD05462268126812F0080F10D1F0
:1034780023681B6813F0040F28D12023C4F8883070
:10348800C4F88C300020E066206784F8840003B01C
:1034980030BD6FF07E430093034600224FF40011C5
:1034A8002046FFF788FF0028E2D0226852E8003F54
:1034B80023F0800342E800310029F6D12023C4F824
:1034C8008830002384F884300320E0E76FF07E43DF
:1034D80000932B4600224FF480012046FFF76BFF34
:1034E8000028CAD0226852E8003F23F4907342E8CB
:1034F80000310029F6D1226802F1080353E8003FA1
:1035080023F00103083242E800310029F3D12023D7
:10351800C4F88C30002384F884300320B7E778B3EC
:1035280010B50446D0F888300BB32423C4F888308B
:103538002268136823F001031360A36AE3B92046E5
:10354800FFF710FD012811D02268536823F4904337
:1035580053602268936823F02A03936022681368F3
:1035680043F0010313602046FFF774FF10BD80F895
:10357800843001F01DFBD8E72046FFF7B7FEDEE7F1
:1035880001207047436E2BB90123A0F86A30A0F8D8
:103598006830704730B403689A68C2F34262996829
:1035A800490F094D6B5CDB00084C615C93FBF1F340
:1035B800A0F86A30AB5CDB00A25C93FBF2F3A0F8E6
:1035C800683030BC704700BFD4560008CC5600089D
:1035D80090F88430012B18D0012380F884302423FC
:1035E800C0F8883003681A68196821F00101196069
:1035F80022F000520023436601680A602022C0F8C6
:10360800882080F88430184670470220704738B503
:1036180090F88430012B1DD00446012380F88430B3
:103628002423C0F8883003681D681A6822F0010254
:103638001A600268936823F0604319439160FFF7AA
:10364800A1FF23681D602023C4F88830002084F877
:10365800840038BD0220FCE738B590F88430012B8F
:103668001DD00446012380F884302423C0F8883014
:1036780003681D681A6822F001021A6002689368DC
:1036880023F0606319439160FFF77CFF23681D6096
:103698002023C4F88830002084F8840038BD022034
:1036A800FCE70000034AD2F8883043F47003C2F8FC
:1036B8008830704700ED00E010B402681D4B9A4254
:1036C80028D01D491D4B9A4226D00164D2F880307B
:1036D80023F4F813446B43EA0443C2F8803001F141
:1036E800700343640268D2F8803023F07063846BFF
:1036F80043EA0463C2F8803001F1B003836401F542
:10370800C473C36401F51873036501F51E7343653B
:103718000B4607E00A49D5E701F5D461D5E7002251
:1037280043F8042B01F554729A42F8D85DF8044B1B
:10373800704700BF0068004000A40040006C0040D3
:1037480050A7004070B54C68ECB90D698C682543EA
:103758000C6845EA8445CC690E6A44EA06648E69B9
:1037680034434E693443CE6844EA0644406D03EB63
:10377800C30300EBC30E40F83350CEF804400EF1FB
:10378800080E002019E00C698D6825430C68254354
:1037980045F08045DFE702EB000C9CF803409CF8FD
:1037A80002301B0443EA04639CF8014043EA042303
:1037B800145C23434EF8043B0430CB68024CE35CB2
:1037C8008342E8D870BD00BFF4560008002800F016
:1037D800E38038B5044690F85C30D3B12268936929
:1037E80023F010039361FDF767FB054623689A6988
:1037F80012F0080F12D0FDF75FFB401B0A28F5D91D
:10380800236E43F001032366032384F85C30012010
:1038180038BD80F85D3000F05DFEDFE79A6942F060
:1038280001029A61FDF748FB054623689A6912F080
:10383800010F0DD1FDF740FB401B0A28F5D9236E77
:1038480043F001032366032384F85C300120DFE79B
:103858009A6942F002029A612268504B9A4242D019
:10386800237C012B45D02268936943F04003936180
:10387800637C012B43D02268936923F480439361CE
:10388800A37C012B41D02268936943F48053936150
:103898002268936923F44073A1680B4393612268FB
:1038A800936923F0A40393612268136923F010033A
:1038B8001361E368012B2ED0002B31D0022B54D09A
:1038C8002268936943F0800393612268136943F087
:1038D80010031361E368032B22D12268936943F034
:1038E800200393611CE06268A3F58063C3F8002598
:1038F800B6E72268936923F040039361B8E722682A
:10390800936943F480439361BAE72268936923F487
:1039180080539361BCE72268936943F00403936181
:10392800A3695A1EE369013B1B0243EA4263226A08
:10393800013A13436269013A216843EA0243CB61C1
:10394800A368B3F5407F16D02268D2F8C030E16B87
:103958000B43C2F8C0302046FFF7AEFE0020A0653A
:103968002066012384F85C3052E72268936943F0AB
:1039780020039361D4E7A36A013BE26A013A43EA70
:103988000223226B013A43EA0213626A013A216870
:1039980043EA0243CB60D7E7012070470064004048
:1039A80090F85C30013BDBB2012B05D9036E43F084
:1039B80002030366012070470B68A3B110B4CA68FC
:1039C8000B6943EA42724B698C6843EA8473406C22
:1039D800496800EBC10C40F83120CCF804300020D5
:1039E8005DF8044B70478A68CB68DB0643EA82734C
:1039F8000A6943EA02434A691343026C496842F878
:103A080021300020704790F85C30DBB2012B05D0E4
:103A1800036E43F00403036601207047022380F815
:103A28005C300268936923F0010393610023036605
:103A38001846704738B5044690F85C30DBB2022B64
:103A48001BD10368D3F8C40010F4001F05D0236EFF
:103A580043F400732366012014E0D3F8C450C5F37F
:103A680001452B462046FFF76DFE22680123AB4037
:103A7800C2F8CC30A365002004E0036E43F00803CD
:103A88000366012038BD704770477047704770471C
:103A98007047704770477047704770472DE9F84F77
:103AA800044603681A6D02F4E05A5A6D0AEA020ADB
:103AB8001A6D02F007095A6D09EA02091A6D02F037
:103AC80038085A6D08EA02081E6D06F471065A6D28
:103AD80016401F6D07F460275A6D1740D3F854B08D
:103AE8001D6D15F0400F02D01BF0400F41D115F4A9
:103AF800807F02D01BF4807F40D1BAF1000F4AD1F9
:103B0800B9F1000F4FD1B8F1000F54D115F4007F6F
:103B180002D01BF4007F56D115F0800F02D01BF0A5
:103B2800800F58D115F4005F02D01BF4005F5ED1FE
:103B380015F4004F02D01BF4004F60D115F4804FEC
:103B48000AD01BF4804F07D023684FF480421A65CF
:103B5800236E43F080032366002F58D126B12368D3
:103B68001E65236E33432366236E002B56D1BDE8B2
:103B7800F88F40221A65FFF78EFFB8E72368D3F85D
:103B8800D810D3F8E0204FF4807018651140204613
:103B9800FFF77EFFB1E72368C3F850A051462046DF
:103BA800FFF771FFACE72368C3F8509049462046F9
:103BB800FFF76AFFA7E72368C3F85080414620460D
:103BC800FFF763FFA2E723684FF400721A652046E7
:103BD800FFF75CFFA0E72368D3F8D410D3F8DC2004
:103BE8008020186511402046FFF751FF9AE72368A7
:103BF8004FF400521A652046FFF74BFF98E72368F9
:103C08004FF400421A652046FFF744FF96E7236801
:103C18001F6539462046FFF740FF9FE72046FFF71C
:103C28003BFFA4E730B58DB00024079408940994AD
:103C38000A940B94254BDA6C42F01002DA64DA6CC1
:103C480002F010020192019ADA6C42F00402DA647E
:103C5800DA6C02F004020292029ADA6C42F0200254
:103C6800DA64DA6C02F020020392039ADA6C42F00A
:103C78000102DA64DA6C02F001020492049ADA6C46
:103C880042F00202DA64DA6C02F002020592059A46
:103C9800DA6C42F00802DA64DB6C03F0080306937E
:103CA800069B0B4D22464FF440412846FDF7CCFFBA
:103CB8004FF4404307930123089309940A9407A9F2
:103CC8002846FDF7D7FE0DB030BD00BF00100240FA
:103CD8000004004810B58CB0002409940A940B9491
:103CE8002022214601A801F04AFB26484FF0A043B4
:103CF80003604FF4002343608460C46004610123BF
:103D0800436104228261047743770222026280F8C9
:103D18002440C462046380F83830C46380F84040AB
:103D2800FCF7FCFB10BB0023099309A91548FCF715
:103D380095FFF0B9144B01930623029302230393D2
:103D48007F230493042305930023069301A90D48B8
:103D5800FCF72AFD80B90D4B01930C23029301A9AE
:103D68000848FCF721FD50B90CB010BDFCF790FADB
:103D7800D9E7FCF78DFADDE7FCF78AFAEBE7FCF701
:103D880087FAF1E7C004002002003004040060084C
:103D980000B589B020220021684601F0F0FA2848D1
:103DA800284B03604FF40023436000238360C36003
:103DB8000361012242610421816103774277032173
:103DC800016280F82430C362036380F83820C3633B
:103DD80080F84030FCF7A2FB28BB1B4B009306235E
:103DE8000193022302937F23039304230493002364
:103DF800059369461248FCF7D7FCB8B9134B0093F2
:103E08000C23019369460E48FCF7CEFC88B9104B89
:103E180000931223019369460948FCF7C5FC58B979
:103E280009B05DF804FBFCF733FAD6E7FCF730FA83
:103E3800E4E7FCF72DFAEAE7FCF72AFAF0E700BF17
:103E480054040020000100500008302E0020903655
:103E58000010603210B58CB0002409940A940B94B9
:103E68002022214601A801F08AFA2C482C4B036035
:103E78004FF4002343608460C460046101234361FC
:103E880004228261047743770322026280F8244087
:103E9800C462046380F83830C46380F84040FCF79B
:103EA8003DFB00282BD10023099309A91B48FCF7E7
:103EB800D5FE38BB1B4B01930623029301230393C2
:103EC8007F230493042305930023069301A9134831
:103ED800FCF76AFCC8B9144B01930C23029301A99F
:103EE8000E48FCF761FC98B9104B0193122302931A
:103EF80001A90A48FCF758FC68B90CB010BDFCF7DA
:103F0800C7F9D0E7FCF7C4F9D4E7FCF7C1F9E2E751
:103F1800FCF7BEF9E8E7FCF7BBF9EEE7E803002099
:103F2800000400501000C010400020190400600870
:103F380000B589B020220021684601F020FA224805
:103F4800224B03604FF40023436000238360C36067
:103F580003610122426104218161037742770221D2
:103F6800016280F82430C362036380F83820C36399
:103F780080F84030FCF7D2FAE0B9154B00930623DD
:103F88000193022302937F230393042304930023C2
:103F9800059369460C48FCF707FC70B90D4B009374
:103FA8000C23019369460848FCF7FEFB40B909B0A9
:103FB8005DF804FBFCF76CF9DFE7FCF769F9EDE75E
:103FC800FCF766F9F3E700BF7C030020000500500A
:103FD8000800900C0010603200B589B02022002142
:103FE800684601F0CCF91B481B4B03604FF40023D3
:103FF800436000238360C3600361436104228261DC
:10400800037743770122026280F82430C362036396
:1040180080F83830C36380F84030FCF77FFA98B9ED
:104028000E4B009306230193022302937F230393ED
:10403800042304930023059369460648FCF7B4FB60
:1040480028B909B05DF804FBFCF722F9E8E7FCF7AA
:104058001FF9F6E7100300200006005002003004A4
:10406800F0B5A9B004460021239124912591269109
:10407800279154220EA801F082F92368B3F1A04FCA
:1040880010D0904A93425CD08F4A934200F0C98086
:104098008E4A934200F036818D4A934200F0928115
:1040A80029B0F0BD4FF400430E934FF000531F9317
:1040B8000EA8FDF723FB002832D1864A1368013386
:1040C8001360012B2FD0844BDA6C42F00102DA64C2
:1040D800DB6C03F001030293029B032323932493D5
:1040E8000025259523A94FF09040FDF7C3FC7B4898
:1040F8007B4B0360052343608560C56080230361B3
:104108004FF4807343614FF4806383612023C3615C
:104118000562FDF7D7FD88B9704B63659C62BFE700
:10412800FCF7B6F8C9E76C4BDA6C42F40052DA6473
:10413800DB6C03F400530193019BC4E7FCF7A8F878
:10414800EAE74FF400430E934FF000531F930EA875
:10415800FDF7D4FA002853D15E4A1368013313607F
:10416800012B50D05C4BDA6C42F00102DA64DA6C55
:1041780002F001020492049ADA6C42F00402DA6452
:10418800DA6C02F004020592059ADA6C42F0020237
:10419800DA64DB6C03F002030693069B2026239661
:1041A800032724970025259523A94FF09040FDF774
:1041B80061FC23962497259523A94A48FDF75AFCC4
:1041C800042323932497259523A94748FDF752FCF8
:1041D8004648474B0360242343608560C5608023BD
:1041E80003614FF4807343614FF480638361C66158
:1041F8000562FDF767FD88B93C4B63659C624FE734
:10420800FCF746F8A8E7344BDA6C42F40052DA645B
:10421800DB6C03F400530393039BA3E7FCF738F824
:10422800EAE74FF480330E934FF0004320930EA833
:10423800FDF764FA002833D12E4A1368013313605E
:10424800012B30D0244BDA6C42F01002DA64DB6CBC
:1042580003F010030893089B4FF460732393032320
:1042680024930025259523A92348FDF703FC23481B
:10427800234B0360252343608560C5608023036169
:104288004FF4807343614FF4806383612023C361DB
:104298000562FDF717FD88B9184B63659C62FFE658
:1042A800FBF7F6FFC8E70C4BDA6C42F48042DA649D
:1042B800DB6C03F480430793079BC3E7FBF7E8FF36
:1042C800EAE700BF0001005000040050000500505C
:1042D800000600508C01002000100240B0020020AF
:1042E800080402400008004800040048500200206A
:1042F800080002408801002000100048F00100205A
:104308001C0002404FF480330E934FF0004320937B
:104318000EA8FDF7F3F9002843D1454A1368013385
:104328001360012B40D0434BDA6C42F00202DA648E
:10433800DA6C02F002020A920A9ADA6C42F0080277
:10434800DA64DB6C03F008030B930B9B4FF4805388
:104358002393032724970025259523A93648FDF79D
:1043680089FB4FF4807623962497259523A9334813
:10437800FDF780FB3248334B03602623436085609A
:10438800C5608023036146614FF480638361202305
:10439800C3610562FDF796FC88B9294B63659C6289
:1043A8007EE6FBF775FFB8E7224BDA6C42F48042F1
:1043B800DA64DB6C03F480430993099BB3E7FBF7EA
:1043C80067FFEAE74FF480330E934FF000432093E2
:1043D8000EA8FDF793F9E0B9154A13680133136085
:1043E800012B19D0134BDA6C42F00102DA64DB6C52
:1043F80003F001030D930D9B4FF480732393032364
:1044080024930023259323A94FF09040FDF732FB16
:1044180046E6FBF73DFFDFE7064BDA6C42F48042E5
:10442800DA64DB6C03F480430C930C9BDAE700BF7F
:10443800880100200010024000040048000C0048D9
:10444800900100203000024084B00F4B9A6C42F07B
:1044580004029A649A6C02F004020192019A9A6C1E
:1044680042F001029A649A6C02F001020292029AE6
:104478009A6C42F002029A649B6C03F00203039365
:10448800039B04B0704700BF0010024008B50F48F6
:104498000F4B0360002343608360C360037443745D
:1044A80083740A224261012282610721C16101628B
:1044B80042628262C262026343638363C363FFF73B
:1044C80085F900B908BDFBF7E3FEFBE72C050020E2
:1044D8000064004010B59CB0044600211791189163
:1044E80019911A911B91542202A800F048FF2268E2
:1044F8001E4B9A4201D01CB010BD4FF4805302935A
:104508004FF00073109302A8FDF7F8F850BB184B52
:104518009A6D42F000729A659A6D02F000720092EC
:10452800009ADA6C42F00102DA64DB6C03F00103F2
:104538000193019B4FF4C05317930223189300244F
:1045480019941A9409231B9317A94FF09040FDF76B
:1045580091FA224621461520FDF700FD1520FDF7AA
:104568000DFDC8E7FBF794FED1E700BF00640040EB
:104578000010024000B589B0002304930593069308
:10458800079301930293039315484FF0804202600A
:10459800436083604FF4FA72C260036180238361D1
:1045A800FEF70AF890B94FF48053049304A90C4815
:1045B800FEF75AF968B900230193039301A9084843
:1045C800FEF7F4FB40B909B05DF804FBFBF760FEA9
:1045D800E9E7FBF75DFEEEE7FBF75AFEF3E700BFFE
:1045E800B006002000B589B0002304930593069314
:1045F80007930193029303931448154A026043609A
:10460800836040F2DC52C260036180238361FDF75E
:10461800D3FF90B94FF48053049304A90B48FEF7D5
:1046280023F968B900230193039301A90748FEF70A
:10463800BDFB40B909B05DF804FBFBF729FEE9E7CB
:10464800FBF726FEEEE7FBF723FEF3E7CC05002099
:10465800000C004084B00368154A934207D0154AFD
:1046680093420FD0144A934217D004B07047134BAB
:104678001A6E42F400621A661B6E03F4006301931B
:10468800019BF2E70D4B9A6D42F002029A659B6D11
:1046980003F002030293029BE7E7084B9A6D42F08E
:1046A80004029A659B6D03F004030393039BDCE704
:1046B800002C0140000400400008004000100240A7
:1046C80000B583B00368B3F1804F05D0164A934212
:1046D80016D003B05DF804FB03F504339A6D42F07D
:1046E80001029A659B6D03F001030093009B002271
:1046F80011461C20FDF732FC1C20FDF73FFCE8E7C3
:104708000A4B9A6D42F008029A659B6D03F0080304
:104718000193019B002211463220FDF71FFC322035
:10472800FDF72CFCD5E700BF000C0040001002404C
:1047380070B58AB0002305930693079308930993ED
:1047480003683C4A934207D03B4A934248D03B4ACD
:10475800934259D00AB070BD394BDA6C42F004026A
:10476800DA64DA6C02F004020192019ADA6C42F01F
:104778001002DA64DB6C03F010030293029B4FF41F
:104788000053059302250695042309932D4E05A988
:104798003046FDF76FF90123059306950024079429
:1047A8000894099505A93046FDF764F94FF480434C
:1047B8000593069507940894099506F5006605A9DA
:1047C8003046FDF757F94FF40043059306950794D3
:1047D80008940623099305A93046FDF74BF9B9E774
:1047E800174BDA6C42F01002DA64DB6C03F010034A
:1047F8000393039B1C23059302230693099305A99E
:104808001148FDF737F9A5E70D4BDA6C42F00802BD
:10481800DA64DB6C03F008030493049B4FF4405301
:10482800059302230693099305A90848FDF722F981
:1048380090E700BF002C0140000400400008004041
:10484800001002400008004800100048000C004812
:1048580010B598B000241594169417940E940F94DC
:10486800109411941294139414943422214601A89C
:1048780000F085FD2D482E4B0360446084604FF4A2
:104888009673C360046144618461FDF7C5FE002826
:104898003DD1002315931693179315A92348FEF7C6
:1048A80085FA002836D160230E9300220F921092C9
:1048B80011921292139214920EA91C48FDF72AFF26
:1048C80058BB4FF496730F930C220EA91748FDF7A7
:1048D80021FF28BB0023019302930393142204921F
:1048E80005934FF4005206920793089309934FF0EB
:1048F80000720A920B930C930D9301A90B48FEF7D3
:10490800ABFA80B90948FFF713FF18B010BDFBF7E1
:10491800BFFCBEE7FBF7BCFCC5E7FBF7B9FCD0E77B
:10492800FBF7B6FCD6E7FBF7B3FCEBE7FC06002089
:10493800002C014000B58BB000230793089309931E
:1049480000930193029303930493059306932248DB
:10495800224A02606322426083604BF68032C26062
:1049680003618361FDF758FE30BB00230793099369
:1049780007A91948FEF71AFA08BB6023009300221A
:1049880001920292049269461348FDF7C3FEC8B922
:104998005A230193042269460F48FDF7BBFEA0B9CC
:1049A800082269460C48FDF7B5FE88B90A48FFF7A2
:1049B800BFFE0BB05DF804FBFBF76AFCD5E7FBF71D
:1049C80067FCDAE7FBF764FCE2E7FBF761FCE7E783
:1049D800FBF75EFCEAE700BF640600200004004025
:1049E80000B58BB0002307930893099300930193B4
:1049F800029303930493059306931D481D4A02608E
:104A08000922426083604BF68032C2600361836191
:104A1800FDF702FEF8B900230793099307A9144884
:104A2800FEF7C4F9D0B9602300935A2301930022FA
:104A38000292049269460E48FDF76CFE88B904227A
:104A480069460B48FDF766FE70B90948FFF770FE26
:104A58000BB05DF804FBFBF71BFCDCE7FBF718FC6D
:104A6800E1E7FBF715FCEAE7FBF712FCEDE700BF0F
:104A7800180600200008004008B51748174B0360C7
:104A88004FF4E133436000238360C36003610C2269
:104A980042618361C361036243628362FEF73FFD43
:104AA80070B900210C48FEF7B2FD60B900210A4830
:104AB800FEF7D2FD50B90848FEF78AFD48B908BD8F
:104AC800FBF7E6FBEDE7FBF7E3FBEFE7FBF7E0FBC4
:104AD800F1E7FBF7DDFBF2E7D008002000380140E2
:104AE80008B51748174B03604FF4E13343600023C0
:104AF8008360C36003610C2242618361C361036206
:104B080043628362FEF70BFD70B900210C48FEF783
:104B18007EFD60B900210A48FEF79EFD50B908489D
:104B2800FEF756FD48B908BDFBF7B2FBEDE7FBF70A
:104B3800AFFBEFE7FBF7ACFBF1E7FBF7A9FBF2E70D
:104B48003C0800200044004008B51748174B036094
:104B58004FF4E133436000238360C36003610C2298
:104B680042618361C361036243628362FEF7D7FCDB
:104B780070B900210C48FEF74AFD60B900210A48C7
:104B8800FEF76AFD50B90848FEF722FD48B908BD8E
:104B9800FBF77EFBEDE7FBF77BFBEFE7FBF778FB2B
:104BA800F1E7FBF775FBF2E7A80700200048004093
:104BB80030B5A1B0044600211B911C911D911E9196
:104BC8001F91542206A800F0DAFB2368524A934248
:104BD80007D0524A934230D0514A934257D021B01D
:104BE80030BD0123069306A8FCF788FD10BB4D4B8A
:104BF8001A6E42F480421A661A6E02F480420092DB
:104C0800009ADA6C42F00102DA64DB6C03F001030B
:104C18000193019B4FF4C0631B9302231C93002351
:104C28001D931E9307231F931BA94FF09040FCF779
:104C380021FFD4E7FBF72CFBD9E70223069306A84C
:104C4800FCF75CFD00BB374B9A6D42F400329A6565
:104C58009A6D02F400320292029ADA6C42F008026B
:104C6800DA64DB6C03F008030393039B60231B9354
:104C780002231C9300231D931E9307231F931BA934
:104C88002948FCF7F7FEAAE7FBF702FBDBE704235A
:104C9800069306A8FCF732FD002836D1214B9A6D01
:104CA80042F480229A659A6D02F480220492049A52
:104CB800DA6C42F00402DA64DB6C03F00403059357
:104CC800059B4FF440631B9302231C9300251D95FD
:104CD8001E9507231F931BA91448FCF7CBFE144805
:104CE800144B03601D23436010238360C560802339
:104CF8000361456185612023C3610562FCF7E2FF1A
:104D080030B90B4BE3679C6269E7FBF7C1FAC5E76B
:104D1800FBF7BEFAF5E700BF003801400044004049
:104D28000048004000100240000C004800080048FD
:104D380048070020440002408B89D21A12B28281AF
:104D480090ED047A07EE902AF8EEE77AD0ED016A42
:104D580067EEA66A37EE267A80ED047AB0F91A3043
:104D680006EE903AF8EEE66AB4EEE67AF1EE10FA5C
:104D780025DDC0ED046A90ED007A67EE877A90ED44
:104D8800047A77EE877AD0ED026AB0F90E30D31A3A
:104D980007EE103AB8EEC77A27EE267A77EE877ACA
:104DA80077EE807AFDEEE77A17EE903A1BB28382AF
:104DB800C281B0F9162093420EDD828270475B42B1
:104DC80006EE903AF8EEE66AB4EEE67AF1EE10FAFC
:104DD800D1D5C0ED046ACEE7B0F91820934200DAC5
:104DE80082827047884201DB904212DD884201DCF2
:104DF80090420EDA884201DC914205DD884205DBEB
:104E0800914205DA104670470846704710467047C9
:104E180008467047884203DC904202DA1046704721
:104E28000846704703681A880A41838943FA01F1E2
:104E38005B1A12FA83F383817047000008B50621D4
:104E48000948FFF7EFFF04210848FFF7EBFF0221AD
:104E58000748FFF7E7FF02210648FFF7E3FF0421B1
:104E68000548FFF7DFFF08BD44010020300100209E
:104E7800A4000020E0000020F400002000230361CB
:104E880070470000024B1B68586316221A6470476B
:104E9800FC060020394B1B78012B00D070472DE908
:104EA800F04137498B8907EE103AB8EEC77ADFED43
:104EB800357A77EEC77AB1EE047A67EE877A324CA4
:104EC800A38900EE103AB8EEC00A304D30EE270A3A
:104ED80040F636122846FFF72FFFA38900EE103A56
:104EE800DFF8C4802A4EB8EE400A40F61C4241461C
:104EF8003046FFF721FFA38900EE103A254FB8EEA0
:104F0800400A4FF47A7241463846FFF715FFB7F961
:104F18001420B6F91410B5F91400FFF763FF024620
:104F280007EE900AF8EEE77A1B4DC5ED007A9FED83
:104F38001B0A27EE800A21461948FFF7FDFED5ED2A
:104F4800007AFDEEE77A002240F6932117EE903AB8
:104F580018B2FFF75FFF07EE900AF8EEE77AC5EDA3
:104F6800007A9FED107A67EE877AFDEEE77A17EE02
:104F7800903A18B2FFF786FFBDE8F0816809002073
:104F88004401002000601345F40000208800002040
:104F98006C000020500000202C000020295C8F3D70
:104FA80034000020CDCCCC3D3001002010B5094C98
:104FB80000212046FDF70AFD00212046FDF738FEB6
:104FC8000C212046FDF702FD0C212046FDF730FE9E
:104FD80010BD00BFFC06002010B5094C002120467A
:104FE800FDF7B2FD00212046FDF7A4FE0C21204666
:104FF800FDF7AAFD0C212046FDF79CFE10BD00BF61
:10500800FC060020034B1B68034A126802FB00F0F1
:10501800D86370476406002028000020034B1B68F3
:10502800C0EB001040019863704700BF18060020CD
:10503800034B1B68C0EB001040015863704700BF6A
:105048001806002008B5934B9B8907EE903AF8EEB6
:10505800E77A9FED917AF4EEC77AF1EE10FA13D55C
:105068008E4B9B8907EE903AF8EEE77A9FED8C7AA3
:10507800F4EEC77AF1EE10FA06D58A4A138801339E
:105088009BB21380632B1FD8874B9B891F3B9BB216
:10509800B3F57C6F2AD9834A138801339BB21380F6
:1050A800012B27D93C20FFF7B9FF3C20FFF7AAFFC7
:1050B8000020FFF7BDFFFFF78FFF7C4B04221A701B
:1050C800784B00221A8015E03C20FFF7A7FF3C2010
:1050D800FFF798FF0020FFF7ABFFFFF77DFF734B4B
:1050E80004221A706F4B00221A80CDE76D4A13888C
:1050F800013B13806C4B9B89A3F28B239BB240F638
:10510800E822934206D9674A138801339BB2138079
:105118001D2B09D8654B1B78013B042B1ED8DFE8F3
:1051280003F019435D7415003C20FFF777FF3C201E
:10513800FFF768FF0020FFF77BFFFFF74DFF5B4B92
:1051480004221A70574B00221A80E3E7514B9B89BF
:10515800012B0DD84F4B9B89322B16D8534B1B78FC
:10516800013B042B75D8DFE803F0757B7F836F0064
:105178003C20FFF747FF0020FFF750FF0020FFF714
:1051880057FF4A4B01221A70E4E7484B02221A7073
:105198000020FFF737FF0020FFF740FF3C20FFF714
:1051A80047FFFFF703FFD9E7414B9B89B3F50D6F25
:1051B800D4D23A4B9A8940F2FE739A42CED83B4BEE
:1051C80003221A70FFF708FF0020FFF731FF0020C5
:1051D800FFF724FF0020FFF715FFBFE7344B9B893B
:1051E800B3F50D6FBAD92D4B9B89B3F5006FB5D3C5
:1051F8002E4B01221A700020FFF710FF5020FFF7F6
:1052080001FF0020FFF714FFA8E72A4B1B88B3F51E
:10521800FA6FA3D3214B9B8907EE903AF8EEE77A11
:105228009FED1F7AF4EEC77AF1EE10FA96D51F4B70
:1052380001221A700020FFF7F1FE5020FFF7E2FE6E
:105248000020FFF7F5FE89E700231B4A1370194A6F
:10525800138008BD0023184A1370164A1380F8E714
:10526800154B01221A70F4E7134B00221A70F0E76D
:105278001248FFF703FE1248FFF700FE1148FFF738
:10528800FDFD1148FFF7FAFD0A4A13880133138020
:10529800DFE700BFF40000200080C5434401002080
:1052A8000060134564090020300100203000002010
:1052B800E00000206609002068090020880000201E
:1052C8006C000020500000203400002010B5036856
:1052D800144A934203D0B3F1804F12D010BD124C40
:1052E80001224FF480412046FCF7AEFCFFF7AAFEEE
:1052F800FFF7D0FD00224FF480412046FCF7A4FCC4
:10530800ECE7094C01224FF400412046FCF79CFCD5
:10531800FFF794FD00224FF400412046FCF794FC6F
:10532800DCE700BF000C0040000400480D4885463B
:10533800FEF7B8F90C480D490D4A002302E0D4588D
:10534800C4500433C4188C42F9D30A4A0A4C0023C7
:1053580001E013600432A242FBD300F019F8FAF717
:10536800D3FFFEE700000220000000200C00002010
:10537800145700080C0000206C090020FEE70244C6
:105388000346934200D1704703F8011BF9E7000078
:1053980070B50D4D0D4C641BA4100026A64209D112
:1053A8000B4D0C4C00F076F9641BA4100026A642A5
:1053B80005D170BD55F8043B98470136EEE755F81E
:1053C800043B98470136F2E70C5700080C570008D1
:1053D8000C570008105700082DE9F047089D0E46A5
:1053E80004460F46002B4AD194468C45B2FA82F205
:1053F80060D942B1C2F12003974020FA03F30CFAB6
:1054080002FC1F4394404FEA1C4E1FFA8CF6B7FB70
:10541800FEF1230C0EFB117743EA074301FB06F06C
:1054280098420AD91CEB030301F1FF3780F015817C
:10543800984240F21281023963441B1AA4B2B3FBAA
:10544800FEF00EFB103344EA034400FB06F6A642C6
:105458000AD91CEB040400F1FF3380F00081A64256
:1054680040F2FD806444023840EA0140A41B002158
:105478001DB1D4400023C5E90043BDE8F0878B4245
:1054880005D90DB1C5E9000100210846F5E7B3FAD1
:1054980083F1002946D1B34202D3824200F2F5805B
:1054A800841A66EB030201201746002DE5D0C5E9F2
:1054B8000047E2E7002A40F09380A1EB0C034FEA93
:1054C8001C471FFA8CFE0121B3FBF7F607FB1630C9
:1054D800230C43EA00430EFB06F0984208D91CEB64
:1054E800030306F1FF3802D2984200F2D080464604
:1054F8001B1AA4B2B3FBF7F007FB103344EA0344CA
:105508000EFB00FEA64508D91CEB040400F1FF338E
:1055180002D2A64500F2B6801846A4EB0E0440EA73
:105528000640A5E7C1F120078B4022FA07FC4CEAA8
:10553800030C06FA01FE20FA07F426FA07F344EAF8
:105548000E0400FA01F84FEA1C404FEA1449B3FB75
:10555800F0FE1FFA8CF600FB1E3349EA03430EFBEC
:1055680006F9994502FA01F20BD91CEB03030EF177
:10557800FF3A80F08580994540F28280AEF1020EB4
:105588006344A3EB0909A4B2B9FBF0F300FB139938
:1055980044EA094403FB06F6A64208D91CEB0404B6
:1055A80003F1FF3068D2A64266D9023B644443EA5D
:1055B8000E40A41BA0FB02E6B4427346B14652D388
:1055C8004FD05DB1B8EB030264EB090404FA07F7A6
:1055D80022FA01F31F43CC40C5E9007400214CE7CF
:1055E800C2F1200120FA01F30CFA02FC26FA01F1BB
:1055F800964033434FEA1C471FFA8CFEB1FBF7F085
:1056080007FB1016190C41EA064100FB0EF68E4204
:1056180004FA02F408D91CEB010100F1FF382DD27D
:105628008E422BD902386144891B9BB2B1FBF7F635
:1056380007FB161143EA014306FB0EF1994208D90C
:105648001CEB030306F1FF3814D2994212D9023E2B
:1056580063445B1A46EA004136E73946EDE61846E8
:1056680002E7F045ADD2BEEB020366EB0C0601384B
:10567800B146A6E74646ECE7034698E74046D3E737
:10568800D6467EE76444023847E708460DE7023EFF
:1056980063442DE7F8B500BFF8BC08BC9E467047C8
:0C56A800F8B500BFF8BC08BC9E46704777
:1056B400010002000400060008000A000C001000AB
:1056C40020004000800000010804020408010101D8
:1056D40001010103070100000000000001020304AE
:1056E400000000000000000001020304060708098E
:1056F4000001020304050607080C101418203040AA
:08570400DCFCFF7F0100000046
:04570C00750200081A
:045710004D0200083E
:0C57140001000000100000000024F40060
:040000050800533567
:00000001FF
