:020000040800F2
:1000000000000220CD670008350A0008370A000802
:10001000390A00083B0A00083D0A000800000000F9
:100020000000000000000000000000003F0A00087F
:10003000410A000800000000430A0008450A0008C1
:100040001D6800081D6800081D6800081D6800087C
:100050001D6800081D6800081D6800081D6800086C
:100060001D6800081D6800081D6800081D6800085C
:100070001D6800081D6800081D6800081D6800084C
:100080001D6800081D6800081D6800081D6800083C
:100090001D6800084D0A00081D6800081D6800085A
:1000A0001D6800081D6800081D6800081D6800081C
:1000B000790A00081D6800081D6800081D6800080E
:1000C0001D6800081D6800081D6800081D680008FC
:1000D0001D6800081D6800081D6800081D680008EC
:1000E0001D6800081D6800081D6800081D680008DC
:1000F0001D6800081D6800081D6800081D680008CC
:100100001D6800081D680008890A00081D680008AD
:100110001D6800081D680008990A00081D6800088D
:100120001D6800081D6800081D6800081D6800089B
:100130001D6800081D6800081D6800081D6800088B
:100140001D6800081D6800081D6800080000000008
:10015000000000000000000000000000000000009F
:100160000000000000000000000000001D68000802
:100170001D6800081D6800081D6800081D6800084B
:100180001D6800081D6800081D6800081D6800083B
:100190001D680008000000001D6800081D680008B8
:1001A0001D6800081D6800081D6800081D6800081B
:1001B0001D6800081D6800081D6800081D6800080B
:1001C0001D6800081D6800081D6800081D680008FB
:0801D0001D6800081D6800080D
:1001D80010B5054C237833B9044B13B10448AFF379
:1001E80000800123237010BD3000002000000000B3
:1001F8007868000808B5034B1BB103490348AFF3FF
:10020800008008BD00000000340000207868000865
:1002180053B94AB9002908BF00281CBF4FF0FF3165
:100228004FF0FF3000F074B9ADF1080C6DE904CE61
:1002380000F006F8DDF804E0DDE9022304B07047B9
:100248002DE9F047089D04468E46002B4DD18A4281
:10025800944669D9B2FA82F252B101FA02F3C2F1B4
:10026800200120FA01F10CFA02FC41EA030E944045
:100278004FEA1C48210CBEFBF8F61FFA8CF708FB66
:1002880016E341EA034306FB07F199420AD91CEB3E
:10029800030306F1FF3080F01F81994240F21C8170
:1002A800023E63445B1AA4B2B3FBF8F008FB1033B8
:1002B80044EA034400FB07F7A7420AD91CEB0404ED
:1002C80000F1FF3380F00A81A74240F207816444BD
:1002D800023840EA0640E41B00261DB1D440002342
:1002E800C5E900433146BDE8F0878B4209D9002DA6
:1002F80000F0EF800026C5E9000130463146BDE830
:10030800F087B3FA83F6002E4AD18B4202D3824299
:1003180000F2F980841A61EB030301209E46002D48
:10032800E0D0C5E9004EDDE702B9FFDEB2FA82F29D
:10033800002A40F09280A1EB0C014FEA1C471FFAFB
:100348008CFE0126200CB1FBF7F307FB131140EAE2
:1003580001410EFB03F0884208D91CEB010103F1AF
:10036800FF3802D2884200F2CB804346091AA4B271
:10037800B1FBF7F007FB101144EA01440EFB00FE45
:10038800A64508D91CEB040400F1FF3102D2A645AA
:1003980000F2BB800846A4EB0E0440EA03409CE749
:1003A800C6F12007B34022FA07FC4CEA030C20FAF6
:1003B80007F401FA06F31C43F9404FEA1C4900FA16
:1003C80006F3B1FBF9F8200C1FFA8CFE09FB181193
:1003D80040EA014108FB0EF0884202FA06F20BD906
:1003E8001CEB010108F1FF3A80F08880884240F256
:1003F8008580A8F102086144091AA4B2B1FBF9F09A
:1004080009FB101144EA014100FB0EFE8E4508D994
:100418001CEB010100F1FF346CD28E456AD9023819
:10042800614440EA0840A0FB0294A1EB0E01A142FE
:10043800C846A64656D353D05DB1B3EB080261EB6C
:100448000E0101FA07F722FA06F3F1401F43C5E946
:10045800007100263146BDE8F087C2F12003D8407C
:100468000CFA02FC21FA03F3914001434FEA1C47BE
:100478001FFA8CFEB3FBF7F007FB10360B0C43EAB0
:10048800064300FB0EF69E4204FA02F408D91CEB60
:10049800030300F1FF382FD29E422DD9023863445E
:1004A8009B1B89B2B3FBF7F607FB163341EA0341FE
:1004B80006FB0EF38B4208D91CEB010106F1FF384D
:1004C80016D28B4214D9023E6144C91A46EA004644
:1004D80038E72E46284605E70646E3E61846F8E6D6
:1004E8004B45A9D2B9EB020864EB0C0E0138A3E71F
:1004F8004646EAE7204694E74046D1E7D0467BE700
:10050800023B614432E7304609E76444023842E777
:10051800704700BF10B584B0114C6B46224640218D
:1005280004F098F92368B3F5327F01D004B010BD08
:10053800BDF80010A1F11E039BB25A2B03D8094B3A
:100548001888814204D1BDF80220074B1A70EDE7E4
:1005580005F08CFCBDF80020024B1A80F3E700BFC1
:1005680094010020D40100201001002072B6FEE79B
:1005780000B595B03822002106A806F071F90023CD
:10058800019302930393049305934FF4007002F0D0
:10059800ABF9022306934FF48072099240220A9223
:1005A8000D930E9304220F924B22109211931293E3
:1005B800139306A801F0F8F980B90F2301930323D8
:1005C8000293002303930493059304210DEB010088
:1005D80001F0A0FC20B915B05DF804FBFFF7C6FFD9
:1005E800FFF7C4FF2DE9F04F2DED048B95B04FF0C8
:1005F800FF431393DFF83C93A94BC3F8009009F12C
:100608000202A84B1A60A84D2A1DA84B1A60A84ED2
:10061800A84B1E60B21CA84B1A60321DA74B1A606B
:10062800A74B1D60AA1CA74B1A60A74FA74B1F60BA
:10063800BA1CA74B1A6001F055F9FFF799FF04F0AF
:100648000DFB04F02DFF04F071FB04F0CDFB05F069
:100658006DF905F075FA05F0A7FA05F0D9FA05F075
:10066800D7F905F021FA04F08FFC04F03BFF04F001
:10067800DFFC04F01BFC04F0A9FF04F0DFFF05F029
:1006880015F82D20934B1880934B40F66B221A8057
:10069800014605F0EBFB914B40F2C7221A6000249B
:1006A8005C609C604FF0010AC3F80CA01C615C619F
:1006B8009C61DC611C628A490C604C604FF0020846
:1006C800C1F80880C1F80CA04FF480730B6140F2A8
:1006D800FF734B61DFF860B2584604F047F858469C
:1006E80004F077F822465146584604F065F9DFF8D9
:1006F8004CB27F21584600F095FFDFF844A27F21D5
:10070800504600F08FFF7F21764800F08BFF7F2155
:10071800754800F087FF42464946584600F09CFE5F
:1007280003223146504600F097FE032229466D48C1
:1007380000F092FE424639466B4800F08DFE2422B6
:100748006A496B4803F04AFA6A4B05221A706A48EC
:1007580002F05CFB694802F09FFB05F05DFD0DAD02
:10076800674E0FCE0FC596E8030085E8030012E038
:1007780014AB03EB440333F91C1C322005F0FCFED8
:10078800322001F0D1F80021084605F0F5FE0520D9
:1007980001F0CAF80134012CEADD0021084605F011
:1007A800EBFE404805F046FC404805F043FC48484D
:1007B80005F040FC3A4805F03DFC414805F03AFC9C
:1007C8003E4805F037FCDFED4F8A9FED4F0A4FF4A6
:1007D8007A73002240F60431B0EE681AF0EE400A4F
:1007E8004A4805F04DFC9FED4A8A9FED4A9A9623A8
:1007F800002240F60431B0EE481AF0EE490AB0EE95
:10080800480A454805F03CFC9623002240F604318E
:10081800B0EE481AF0EE490AB0EE480A3F4805F033
:100828002FFC322341224FF48B71B0EE681ADFEDB2
:100838003C0AB0EE680A3B4805F022FC08AC3A4D89
:100848000FCD0FC42B682360002412E014AB03EB18
:10085800440333F9301C322005F08EFE322001F0BB
:1008680063F80021084605F087FE052001F05CF8D2
:100878000134092CEADD0021084605F07DFE2B48ED
:1008880002F00AFBFA2001F04FF801AC284D0FCD19
:100898000FC495E8070003C42280002465E000BF68
:1008A800640000208C000020C8010020780000208F
:1008B800C0010020800100205801002044010020D0
:1008C800300100206C010020D00100201C01002014
:1008D8004C000020D4010020D6010020A0050020F3
:1008E80088050020C40200203003002000000020FA
:1008F800780900206000002028060020A4070020B6
:10090800906800080000000017B75138A0000020C8
:1009180000000080ACC527B8D8000020BC0000202B
:1009280017B7D138F4000020A86800087406002022
:10093800BC680008BC010020C4050020EC010020B0
:100948005802002014AB03EB440333F94C1C32204B
:1009580005F012FE322000F0E7FF0021084605F0FE
:100968000BFE052000F0E0FF01340C2CEADD00212D
:10097800084605F001FE234802F08EFA40F2FF71A6
:10098800214B988905F070FB204C84ED000A204B20
:10099800988905F053FB84ED010A40F2FF711D4B65
:1009A800988905F061FB84ED020A1B4BB3F914002A
:1009B80080B205F043FB84ED030A184BB3F9140029
:1009C80080B205F03BFB84ED040A154BB3F9140023
:1009D80080B205F033FB84ED050A40F2FF71114B3C
:1009E800188805F041FB84ED060A0F4BD3ED007A19
:1009F800FCEEE77A17EE903A98B205F01FFB84ED0B
:100A0800070ABBE7580700207800002000000020F4
:100A1800440100208C000020BC000020A000002021
:100A2800D8000020D6010020D8010020FEE7FEE70C
:100A3800FEE7FEE7FEE770477047704708B500F02D
:100A480061FF08BD10B5084C01224FF480412046D3
:100A580001F02CFE054804F03CF800224FF48041D8
:100A6800204601F023FE10BD00100048C4050020F8
:100A780008B5024802F05EFA08BD00BF74060020FF
:100A880008B5024802F056FA08BD00BF5807002012
:100A980008B5024802F04EFA08BD00BFA4070020BE
:100AA80000B583B00B4B1A6E42F001021A661A6E3B
:100AB80002F001020092009A9A6D42F080529A6503
:100AC8009B6D03F080530193019B01F093FF03B0EA
:100AD8005DF804FB0010024030B583B00023019399
:100AE800002800F032810446C36D13B323689A6866
:100AF80012F0005F05D09A6822F0204222F03F02EF
:100B08009A602268936813F0805F1FD1936823F07E
:100B1800104323F03F0343F0805393608C4B1B68D2
:100B28009B098C4AA2FB03239B0901335B000193B9
:100B380009E004F0C1FA0023236684F85830D5E7A9
:100B4800019B013B0193019B002BF9D1226893681B
:100B580013F0805F3DD1E36D43F01003E365236E2E
:100B680043F0010323660120936813F0040300D0C7
:100B78000123E16D11F0100F40F0E080002B40F0F0
:100B8800DD80E36D23F4817343F00203E36593682A
:100B980013F0010F3ED1B2F1A04F1CD06E4B9A4218
:100BA80019D06E4B996811F0010100D001216C4BEE
:100BB8009B6813F0010300D001230B43694989683E
:100BC80011F0010100D001210B430CBF01230023C8
:100BD80012E00020C8E74FF0A0439B6813F0010320
:100BE80000D001235C49896811F0010100D001217E
:100BF8000B430CBF0123002363B1B2F1A04F6CD0AB
:100C0800554B9A4267D0584963688A6822F47C1227
:100C180013438B60627FE36B43EA4233E26813431A
:100C2800A268134394F8242043EA0243012A56D0C9
:100C3800E26A22B102F47872216B0A4313432168F5
:100C4800CD684A4A2A401343CB602268136923F0CF
:100C58004063616B0B4313612268936813F00803C8
:100C680000D0012343BB217F94F838305B0043EA6E
:100C78008131D36823F4804323F002030B43D3600C
:100C88002369002B30D02268136943F48033136141
:100C98002268D2F8C03023F47F5323F03F03216940
:100CA8000B43C2F8C03094F84030012B2BD0226897
:100CB800136923F0010313616369012B35D022689E
:100CC800136B23F00F031363E36D23F0030343F067
:100CD8000103E36537E0264996E7254994E7A26AC8
:100CE800013A43EA4243A3E72268136923F48033B5
:100CF80013612268D2F8C03023F47F5323F03F03F6
:100D0800C2F8C030CFE721680B6923F4FF6323F0F2
:100D18000403626CA56C2A43E56C2A43256D2A43BB
:100D2800134343F001030B61C6E721680B6B23F003
:100D38000F03226A013A13430B63C5E7E36D43F0DF
:100D48001003E365012003B030BD0120FBE700BFBD
:100D58002C000020632D3E050001005000040050C7
:100D68000005005000060050000700500740F0FF43
:100D7800000300507047704708B5806AFFF7FBFF13
:100D880008BD704708B50346806AC26D12F0500F5F
:100D980030D1C36D43F40073C36503681A6812F059
:100DA800080F14D0DA6812F4406F20D1DB6813F40E
:100DB800005F1CD1C36D23F48073C365C36D13F446
:100DC800805F14D1C36D43F00103C3650FE0DB6896
:100DD80013F0020F0BD1C36D23F48073C365C36D89
:100DE80013F4805F03D1C36D43F00103C365FFF7BC
:100DF800C1FF08BDC26D12F0100F04D1426D526BD5
:100E080018469047F5E7FFF7BCFFF2E708B5806A98
:100E1800C36D43F04003C365036E43F004030366E8
:100E2800FFF7AFFF08BD0000F0B583B000220192C4
:100E380090F85820012A00F084820346012280F8A5
:100E480058200568A86810F0040F09D0DA6D42F040
:100E58002002DA650120002283F8582003B0F0BD93
:100E68004C683035220A920002F00C02A85804F0AF
:100E78001F0E1F2404FA0EF420EA04000C68C4F3C1
:100E8800846C0CFA0EFC40EA0C00A85018688268C2
:100E980012F0040200D00122846814F0080400D083
:100EA8000124002A50D1002C4ED18F68B7F1004F91
:100EB80000F08B800E681430720E920002F004026B
:100EC8008558C6F3045E4FF0070C0CFA0EFC25EAB1
:100ED8000C0C07FA0EF54CEA0505855018684269AE
:100EE80022F0004242614D691868C268C2F3C1022B
:100EF800520005FA02F20E69042E7ED0603050F8D6
:100F08002670AD4D3D400F6807F0F8473A4315434A
:100F180045F0004540F826501A680E698869603225
:100F280052F8265025F08075284342F826001A68A2
:100F38000D69087F01285DD0603252F8250020F045
:100F48000070044342F825401868826812F0010FC7
:100F580017D10A68CD68D0F8B040C2F3120C24EA61
:100F68000C0405F0180C954D25FA0CF52A40C2F32F
:100F780012022243C0F8B020C868914A904200F09B
:100F8800A4800A688F490A4200F0D5811968B1F136
:100F9800A04F00F06E818C48814200F067818B4839
:100FA800806800F0E0748A4DAA4200F06481894D9F
:100FB800AA4200F06081884DAA4200F08F81874DD7
:100FC800AA4200F0A381002045E70D6814306A0E9C
:100FD800920002F004028658C5F30455072707FA61
:100FE80005F526EA050585501868426942F0004271
:100FF800426178E74FF000749EE7026E046EC4F316
:1010080084640A68C2F3120585BBC2F38462944201
:1010180034D01C68626E606EC0F384600A68C2F3E4
:10102800120585BBC2F38462904234D01C68A26E5C
:10103800A06EC0F384600A68C2F3120585BBC2F3D0
:101048008462904234D01C68E26EE06EC0F3846023
:101058000A68C2F3120585BBC2F3846290427FF42A
:1010680073AFE26E22F00042E2666DE792FAA2F2F6
:1010780012B1B2FA82F2CAE72022C8E7026E22F061
:1010880000420266C5E792FAA2F212B1B2FA82F2FF
:10109800CAE72022C8E7626E22F000426266C5E70E
:1010A80092FAA2F212B1B2FA82F2CAE72022C8E793
:1010B800A26E22F00042A266C5E792FAA2F212B12D
:1010C800B2FA82F2CAE72022C8E71C680A68C2F3AB
:1010D8001205002D38D1900E013000F01F000928AC
:1010E8008CBF0020012000287AD0002D3BD1900E23
:1010F8000130800600F0F840002D40D1960E0136F0
:1011080006F01F070126BE403043002D45D1920E40
:10111800013202F01F0202EB420212050243886804
:1011280004F11406550EAD0005F004057459C2F318
:1011380004524FF0070C0CFA02FC24EA0C0C904005
:101148004CEA000070511CE792FAA2F048B1B0FADC
:1011580080F0013000F01F0009288CBF002001201A
:10116800C1E72020F5E792FAA2F030B1B0FA80F09A
:101178000130800600F0F840BEE72020F8E792FA38
:10118800A2F646B1B6FA86F6013606F01F06012722
:1011980007FA06F6B8E72026F6E792FAA2F242B175
:1011A800B2FA82F2013202F01F0202EB4202120589
:1011B800B4E72022F6E700BF00F0FF03FFFF0700B7
:1011C80000007F4000000880000100500007005028
:1011D800000021C31000C090000052C7000084CB5B
:1011E800CDB9900E0130800600F0F840FDB9960E9A
:1011F800013606F01F070126BE4030432DBB920E74
:10120800013202F01F0202EB42021E3A120542F0BE
:101218000072024383E792FAA2F030B1B0FA80F08C
:101228000130800600F0F840E0E72020F8E792FA65
:10123800A2F646B1B6FA86F6013606F01F06012771
:1012480007FA06F6D9E72026F6E792FAA2F25AB18B
:10125800B2FA82F2013202F01F0202EB42021E3A97
:10126800120542F00072D4E72022F3E700F500707F
:1012780096E6354894E610F4000F7FF49CAEB1F181
:10128800A04F04D0314A914201D00020E3E5B1F1EA
:10129800A04F19D02E4A914214D02E4944F400048C
:1012A8008A6822F0E07214438C602B4A1268920913
:1012B8002A49A1FB02129209013202EB4202920072
:1012C800019206E02049E9E71F49E7E7019A013A58
:1012D8000192019A002AF9D10020BCE510F0807F24
:1012E8007FF46DAEB1F1A04F0ED0194A914209D0EA
:1012F800184944F080748A6822F0E07214438C60C4
:101308000020A8E51049F4E70F49F2E710F4800F30
:1013180013D10F4A914212D0B1F1A04F09D00D4814
:1013280044F48002816821F0E0710A438260002061
:1013380091E50548F4E700208DE500208BE50020C5
:1013480089E502208AE500BF00030050000600502E
:1013580000010050000700502C000020632D3E05BE
:1013680030B583B00023019303689A6812F0010F27
:1013780063D104469968324A114220D19A6822F012
:10138800004222F03F0242F001029A600368B3F182
:10139800A04F20D02B4A93421BD02B4B9B6813F4B1
:1013A800000F20D0294B1B689B09294AA2FB032365
:1013B8009B09013303EB43039B00019310E0C36DCA
:1013C80043F01003C365036E43F001030366012075
:1013D80034E0204BE2E71F4BE0E7019B013B019320
:1013E800019B002BF9D100F099FA054623681A6889
:1013F80012F0010F1FD19A6812F0010F07D19A68F5
:1014080022F0004222F03F0242F001029A6000F00E
:1014180085FA431B022BE9D923681B6813F0010FD7
:10142800E4D1E36D43F01003E365236E43F0010359
:101438002366012002E0002000E0002003B030BD58
:101448003F00008000010050000700502C000020E1
:10145800632D3E05000300502DE9F04104460F4678
:1014680090460068B0F1A04F21D0424B98421BD063
:10147800414B9E6806F01F06856815F0040F74D16D
:1014880094F85830012B73D0012384F858303B4B23
:1014980098420ED06EB1052E0BD0092E09D000232C
:1014A80084F85830012061E003F50073E1E7344B1C
:1014B800DFE72046FFF754FF002852D1E36D23F4FD
:1014C800706323F0010343F48073E3652368294ABA
:1014D800934240D002F58062934239D01A46934233
:1014E80000D01EB9E36D23F48013E365E36D13F4B4
:1014F800805F33D0236E23F006032366636D214A91
:10150800DA62636D204A1A63636D204A5A6323685E
:101518001C221A60002384F858302268536843F06C
:10152800100353602268D36843F00103D360216835
:1015380043463A464031606D01F08CF92268936861
:1015480023F0004323F03F0343F0040393600DE0CE
:10155800A2F58072C3E74FF0A042C0E700232366DC
:10156800CCE7002384F8583000E00220BDE8F08181
:101578000220FBE700010050000700500006005061
:10158800000300508D0D0008810D0008150E00089D
:1015980038B504460268936813F0020300D00123AB
:1015A800916811F0010F39D0002B39D1936803F0FD
:1015B8000D03012B09D0E36D43F01003E365236E9F
:1015C80043F001032366012029E0936823F00043D8
:1015D80023F03F0343F002039360236803221A6059
:1015E80000F09CF9054623689B6813F0010F13D09F
:1015F80000F094F9401B0228F5D923689B6813F082
:10160800010FF0D0E36D43F01003E365236E43F060
:1016180001032366012002E0002000E0002038BD1D
:101628000020FCE730B583B00023019390F85830D0
:10163800012B41D004460D46012380F85830FFF7AE
:10164800A7FF80BBE36D23F4885323F0020343F024
:101658000203E3652268936823F0404323F03F03C5
:1016680005F080452B4343F00043936023689B6853
:10167800002B06DBE36D23F0030343F00103E3656E
:1016880015E0019B01330193019A0C4B9A42EDD965
:10169800E36D23F0120343F01003E365002384F89D
:1016A8005830012006E0E36D43F01003E3650023A2
:1016B80084F8583003B030BD0220FBE701DE040097
:1016C80090F85820012A00F0D68010B49DB0034647
:1016D800012280F858200022189219920068B0F16F
:1016E800A04F47D0654A904247D000220192019A04
:1016F800002A46D0926812F0040200D001228468C1
:1017080014F0040F40F0A780002A40F0A480B0F144
:10171800A04F42D05A4A90423CD05A4A0868002802
:101728005CD0906820F460404C6893F838C044EA74
:101738004C34204390601868B0F1A04F2FD0504C23
:10174800A0422CD04D48846814F0010400D0012434
:101758004D48806810F0010000D0012020434B4C18
:10176800A46814F0010400D0012420430CBF012018
:10177800002025E0424A0192B9E702F58072019201
:10178800B5E7DA6D42F02002DA65002283F85820C6
:10179800012068E002F50072C0E73D4ABEE74FF05D
:1017A800A040806810F0010000D00120344CA468EB
:1017B80014F0010400D0012420430CBF01200020B4
:1017C800002854D0906820F4716020F00F000C6855
:1017D8008968214308439060002041E0916821F422
:1017E800604191601968B1F1A04F1AD02448814234
:1017F80017D02249886810F0010000D00120224942
:10180800896811F0010100D0012101431F48806857
:1018180010F0010000D0012001430CBF012100217C
:1018280010E04FF0A041896811F0010100D00121BA
:101838001348806810F0010000D0012001430CBF5C
:1018480001210021A9B1916821F4716121F00F01F2
:101858009160002004E0DA6D42F02002DA65012090
:10186800002283F858201DB05DF8044B7047002013
:10187800F6E70020F4E70220704700BF000400509C
:1018880000010050000700500005005000060050FD
:1018980000030050104B1B680BB90120704710B5AE
:1018A80004464FF47A70B0FBF3F30C4A1068B0FBAF
:1018B800F3F001F0FFF868B90F2C01D901200AE014
:1018C800002221464FF0FF3001F0AEF8044B1C60B7
:1018D800002000E0012010BD240000202C00002082
:1018E8002800002010B5032001F08CF80F20FFF726
:1018F800D1FF10B10124204610BD0446FFF7D0F8EF
:10190800F9E70000034A1368034909680B441360A8
:10191800704700BFE001002024000020014B186838
:10192800704700BFE001002038B50446FFF7F6FF16
:101938000546B4F1FF3F02D0044B1B681C44FFF777
:10194800EDFF401BA042FAD338BD00BF24000020A1
:10195800124BDA6802F00302D868C0F30310431C84
:10196800032A11D00E48B0FBF3F00C4BDB68C3F32D
:10197800062303FB00F0094BDB68C3F34163013323
:101988005B00B0FBF3F070470648B0FBF3F0034B85
:10199800DB68C3F3062303FB00F0ECE7001002400A
:1019A8000024F400006CDC02002800F04F8270B5BF
:1019B80082B00446036813F0010F37D0A44A936835
:1019C80003F00C03D26802F003020C2B23D0082B7F
:1019D80023D06368B3F5803F4ED0B3F5A02F51D024
:1019E8009B4B1A6822F480321A601A6822F480220B
:1019F8001A606368002B52D0FFF790FF0546944B9E
:101A08001B6813F4003F11D1FFF788FF401B6428BF
:101A1800F5D9032023E2032AD9D18D4B1B6813F48F
:101A2800003F03D06368002B00F01282236813F094
:101A3800020F5DD0864A936803F00C03D26802F067
:101A480003020C2B3AD0042B3AD0E368002B75D054
:101A58007F4A136843F480731360FFF75FFF0546FE
:101A68007B4B1B6813F4806F5FD1FFF757FF401B58
:101A78000228F5D90320F2E1754A136843F480334C
:101A88001360B6E703F18043A3F53C331A6842F4C8
:101A980080221A601A6842F480321A60A9E7FFF7B8
:101AA8003DFF05466A4B1B6813F4003FBED0FFF7A5
:101AB80035FF401B6428F5D90320D0E1022AC2D1A2
:101AC800634B1B6813F4806F03D0E368002B00F0AE
:101AD800C1815F4A536823F0FE43216943EA0163E9
:101AE80053605C4B1868FFF7D5FE002840F0B481BE
:101AF800236813F0080F4CD063699BB3544AD2F89B
:101B0800943043F00103C2F89430FFF707FF05460D
:101B18004F4BD3F8943013F0020F3AD1FFF7FEFE83
:101B2800401B0228F4D9032099E1494A536823F05D
:101B3800FE43216943EA01635360D9E7444A1368C5
:101B480023F480731360FFF7E9FE0546404B1B68DA
:101B580013F4806FCCD0FFF7E1FE401B0228F5D9C3
:101B680003207CE13A4AD2F8943023F00103C2F80A
:101B78009430FFF7D3FE0546354BD3F8943013F075
:101B8800020F06D0FFF7CAFE401B0228F4D9032033
:101B980065E1236813F0040F00F081802C4B9B6DE6
:101BA80013F0805F36D12A4B9A6D42F080529A65C5
:101BB8009B6D03F080530193019B0125264B1B6805
:101BC80013F4807F28D0A368012B39D0052B45D08A
:101BD8001F4BD3F8902022F00102C3F89020D3F8CD
:101BE800902022F00402C3F89020A368002B43D071
:101BF800FFF794FE0646164BD3F8903013F0020F09
:101C08004CD1FFF78BFE801B41F288339842F2D902
:101C1800032024E10025D1E70F4A136843F48073B9
:101C28001360FFF77BFE06460B4B1B6813F4807F9F
:101C3800C9D1FFF773FE801B0228F5D903200EE1F6
:101C4800034AD2F8903043F00103C2F89030CCE751
:101C5800001002402800002000700040884BD3F894
:101C6800902042F00402C3F89020D3F8902042F06C
:101C78000102C3F89020B8E7FFF750FE0646804BF4
:101C8800D3F8903013F0020F08D0FFF747FE801BFF
:101C980041F288339842F2D90320E0E0E5B923689D
:101CA80013F0200F35D0A369E3B1754AD2F8983004
:101CB80043F00103C2F89830FFF730FE0546704B39
:101CC800D3F8983013F0020F23D1FFF727FE401BFB
:101CD8000228F4D90320C2E0694A936D23F08053A7
:101CE8009365DCE7664AD2F8983023F00103C2F81E
:101CF8009830FFF713FE0546614BD3F8983013F080
:101D0800020F06D0FFF70AFE401B0228F4D9032071
:101D1800A5E0E369002B00F0A180594A926802F01F
:101D28000C020C2A64D0022B13D0554A136823F0F6
:101D380080731360FFF7F2FD0446514B1B6813F0E4
:101D4800007F4ED0FFF7EAFD001B0228F5D90320DB
:101D580085E04B4A136823F080731360FFF7DEFDBC
:101D68000546474B1B6813F0007F06D0FFF7D6FDEA
:101D7800401B0228F5D9032071E0414AD368414944
:101D88001940236A606A013843EA0013A06A43EAEB
:101D98000023206B4008013843EA4053606B400839
:101DA800013843EA4063E06A43EAC0630B43D36007
:101DB800136843F080731360D36843F08073D36073
:101DC800FFF7ACFD04462E4B1B6813F0007F06D1CD
:101DD800FFF7A4FD001B0228F5D903203FE00020EF
:101DE8003DE0274AD168284B0B40D360002036E0FD
:101DF800012B36D0224BDB6803F00301226A9142A3
:101E080031D103F0F002616A0139B2EB011F2CD124
:101E180003F4FE42A16AB2EB012F28D103F0784205
:101E2800E16AB2EBC16F24D103F4C001226B5208FE
:101E3800013AB1EB425F1ED103F0C063626B5208F6
:101E4800013AB3EB426F18D1002008E00120704737
:101E5800012004E0012002E0012000E0002002B09F
:101E680070BD0120FBE70120F9E70120F7E7012019
:101E7800F5E70120F3E70120F1E70120EFE700BFD4
:101E8800001002400C809F01FCFFEEFE1E4B9B6879
:101E980003F00C03042B33D01B4B9B6803F00C039B
:101EA800082B2FD0184B9B6803F00C030C2B01D088
:101EB80000207047144BDA6802F00302D868C0F3B8
:101EC8000310431C032A11D01048B0FBF3F00E4B4B
:101ED800DB68C3F3062303FB00F00B4BDB68C3F39B
:101EE800416301335B00B0FBF3F070470848B0FB77
:101EF800F3F0054BDB68C3F3062303FB00F0ECE7C4
:101F08000248704702487047001002400024F4005D
:101F1800006CDC02002800F0E680F8B50C460546A7
:101F2800744B1B6803F00F038B420BD2714A136882
:101F380023F00F030B431360136803F00F038B4266
:101F480040F0D3802E6816F001065FD06B68032B33
:101F58002FD0022B4DD0684B1B6813F4806F00F014
:101F6800C680FFF793FF654B98424DD9624A936844
:101F780023F0F00343F08003936080265E4A936861
:101F880023F0030369680B439360FFF7C7FC074618
:101F9800594B9B6803F00C036A68B3EB820F35D08A
:101FA800FFF7BCFCC01B41F288339842F0D90320EC
:101FB80078E0514B1B6813F0007F01D1012071E0DC
:101FC800FFF7C6FC4D4B98421AD94B4B9B6813F050
:101FD800F00F05D02E6816F00206CFD0AB688BB98B
:101FE800454A936823F0F00343F08003936080260A
:101FF800C4E7414B1B6813F4003FB2D1012051E004
:102008000026BBE70026B9E70026B7E72B6813F0E0
:10201800020F48D013F0040F04D0374A936843F4F2
:10202800E06393602B6813F0080F06D0324A936878
:1020380023F47C5343F4E06393602F4A936823F0BE
:10204800F003A9680B4393602A4B1B6803F00F0346
:10205800A34230D82B6813F0040F06D0264A9368A1
:1020680023F4E063E9680B4393602B6813F0080FCF
:1020780007D0214A936823F46053296943EAC103CE
:102088009360FFF703FF1C4B9B68C3F303131C4AC1
:10209800D35C03F01F03D8401A4B18601A4B18681A
:1020A800FFF7F8FBF8BD802ECED1134A936823F0D2
:1020B800F0039360C8E70F4A136823F00F03234324
:1020C8001360FFF72BFC06460A4B1B6803F00F034F
:1020D800A342BFD0FFF722FC801B41F2883398420D
:1020E800F2D90320DEE7012070470120DAE701205A
:1020F800D8E700BF002002400010024000B4C4042A
:10210800006900082C00002028000020014B1868F6
:10211800704700BF2C00002008B5FFF7F7FF054BFC
:102128009B68C3F30223044AD35C03F01F03D8401F
:1021380008BD00BF001002401069000808B5FFF78D
:10214800E5FF054B9B68C3F3C223044AD35C03F045
:102158001F03D84008BD00BF0010024010690008E6
:10216800F0B583B00446036813F4002F6ED0354BE6
:102178009B6D13F0805F1ED1324B9A6D42F08052F6
:102188009A659B6D03F080530193019B01262E4AAB
:10219800136843F480731360FFF7C0FB05462A4BAE
:1021A8001B6813F4807F08D1FFF7B8FB401B022897
:1021B800F5D9032502E00026E9E7002545BB214BB8
:1021C800D3F8903013F4407315D0226D9A4212D090
:1021D8001C4AD2F8903023F44073D2F8901041F49E
:1021E8008031C2F89010D2F8901021F48031C2F8F2
:1021F8009010C2F8903013F0010F10D145B9114A70
:10220800D2F8903023F44073216D0B43C2F890301C
:10221800EEB10C4A936D23F08053936517E0FFF7F6
:102228007DFB0746074BD3F8903013F0020FE5D13A
:10223800FFF774FBC01B41F288339842F2D903259B
:10224800DCE700BF00100240007000400025236852
:1022580013F0010F08D09F4AD2F8883023F0030307
:1022680061680B43C2F88830236813F0020F08D066
:10227800984AD2F8883023F00C03A1680B43C2F8BF
:102288008830236813F0040F08D0924AD2F88830B7
:1022980023F03003E1680B43C2F88830236813F059
:1022A800080F08D08B4AD2F8883023F0C003216980
:1022B8000B43C2F88830236813F0100F08D0854A02
:1022C800D2F8883023F4407361690B43C2F8883030
:1022D800236813F0200F08D07E4AD2F8883023F400
:1022E8004063A1690B43C2F88830236813F0400F9C
:1022F80008D0784AD2F8883023F44053E1690B4378
:10230800C2F88830236813F0800F08D0714AD2F8D9
:10231800883023F44043216A0B43C2F8883023688D
:1023280013F4807F08D06B4AD2F8883023F4403306
:10233800616A0B43C2F88830236813F4003F08D061
:10234800644AD2F89C3023F00303A16A0B43C2F815
:102358009C30236813F4007F08D05E4AD2F8883096
:1023680023F44023E16A0B43C2F88830236813F44E
:10237800806F0CD0574AD2F8883023F44013216B71
:102388000B43C2F88830236BB3F5801F79D02368DC
:1023980013F4006F0CD04F4AD2F8883023F440036E
:1023A800616B0B43C2F88830636BB3F5800F6DD057
:1023B800236813F4805F0CD0464AD2F8883023F0A3
:1023C8004073A16B0B43C2F88830A36BB3F1807FD5
:1023D80061D0236813F4005F0CD03E4AD2F88830ED
:1023E80023F04063E16B0B43C2F88830E36BB3F131
:1023F800006F55D0236813F4804F0CD0354AD2F8BB
:10240800883023F04063216C0B43C2F88830236C7A
:10241800B3F1006F49D0236813F4004F0CD02D4A54
:10242800D2F8883023F04053616C0B43C2F88830EF
:10243800636CB3F1805F3DD0236813F4803F0CD008
:10244800244AD2F8883023F04043A16C0B43C2F8E9
:102458008830A36CB3F1804F31D0236813F4802FF8
:102468000CD01C4AD2F89C3023F44013E16C0B4387
:10247800C2F89C30E36CB3F5001F25D0284603B0A2
:10248800F0BDD36843F48013D36080E7D36843F486
:102498008013D3608CE7D36843F48013D36098E744
:1024A800D36843F48013D360A4E7D36843F480135C
:1024B800D360B0E7D36843F48033D360BCE7D36814
:1024C80043F48033D360C8E7D36843F48013D36000
:1024D800D4E700BF00100240F0B583B0002362E0EB
:1024E80085685E000324B44025EA0405CC68B4403E
:1024F8002C438460446824EA0C0C4C68C4F3001430
:102508009C4044EA0C0444605EE0DD08083550F85D
:10251800256003F007044FEA840C0F2404FA0CF436
:1025280026EA040E0C6904FA0CF444EA0E0440F896
:10253800254060E0052400E0002404FA0EF42C4352
:102548000CF1020C554D45F82C40554CA568D44368
:1025580025EA02064F6817F4801F01D042EA0506F3
:102568004F4DAE60ED6804EA05064F6817F4001F8A
:1025780001D042EA05064A4DEE606D6804EA050698
:102588004F6817F4003F01D042EA0506444D6E60DB
:102598002D682C404E6816F4803F01D042EA0504AD
:1025A8003F4A146001330A6832FA03F474D04FF0DA
:1025B800010C0CFA03FC1CEA0202F3D04C6804F08C
:1025C8000304013C012C8BD94C6804F00304032C50
:1025D8000CD0C4685D004FF0030C0CFA05FC24EA2B
:1025E8000C0C8C68AC4044EA0C04C4604C6804F0E1
:1025F8000304022C89D004684FEA430E4FF0030C01
:102608000CFA0EFC24EA0C0C4C6804F0030404FADF
:102618000EF444EA0C0404604C6814F4403FC1D042
:10262800204C256E45F001052566246E04F0010452
:102638000194019C4FEA930C0CF10205174C54F8D5
:10264800255003F003044FEA840E0F2404FA0EF415
:1026580025EA0405B0F1904F3FF46EAF124CA0424A
:1026680012D004F58064A04210D004F58064A04222
:102678000ED004F58064A0420CD004F58064A0421A
:102688003FF458AF062458E7012456E7022454E7DC
:10269800032452E7042450E703B0F0BD00000140D2
:1026A8000004014000100240000400480AB18161A2
:1026B800704781627047436901EA030221EA030116
:1026C80041EA02418161704730B4C46C056D6560B0
:1026D800446D14B1846DC56D6560446C04F01F0CC5
:1026E800012404FA0CF4056C6C6004686360836868
:1026F800102B05D0036899600368DA6030BC704716
:1027080003689A600368D960F8E7000003680C4A18
:10271800934213D80B49DBB2083B0B4AA2FB0323B5
:10272800426C22F003020A448264084AC264C3F37A
:102738000413012202FA03F3036570470449EAE728
:102748000704024000080240CDCCCCCC80080240EF
:10275800200802400379074A1A4492004265064A53
:102768008265013B03F01F03012202FA03F3C365EC
:10277800704700BF3F8200104009024000285BD02C
:1027880010B5044601682D4B99423DD82C4B0B449B
:102798002C4AA2FB03231B099B0043642A4B0364B6
:1027A800022384F825300A6822F4FF4222F07002DE
:1027B800A368E06803432069034360690343A06991
:1027C8000343E0690343206A034313430B60204635
:1027D800FFF79CFFA368B3F5804F20D0A36C227944
:1027E8001A60E36C226D5A606368013B032B19D9A8
:1027F80000236365A365E3650020E063012384F893
:10280800253084F8240010BD104B0B440D4AA2FB60
:1028180003231B099B0043640D4B0364C0E700239B
:102828006360DBE72046FFF795FF636D00221A60BF
:10283800A36DE26D5A60DFE701207047070402408C
:10284800F8FFFDBFCDCCCCCC00000240F8FBFDBFAB
:102858000004024038B5044690F82400012841D00D
:10286800012084F8240094F82500C0B2012804D07F
:10287800002384F82430022038BD022084F8250083
:102888000020E0632568286820F0010028602046C1
:10289800FFF71AFF236BD3B12268136843F00E03C6
:1028A8001360A36C1A6812F4803F03D01A6842F4CC
:1028B80080721A60636D1BB11A6842F480721A60E4
:1028C8002268136843F0010313600020D4E72268EC
:1028D800136823F0040313602268136843F00A03A3
:1028E8001360DEE70220C7E7002836D13E4B1B689D
:1028F80003F4C063B3F5806F08D03B4AD2F8803048
:1029080023F48073C2F8803000207047364AD2F82A
:10291800803023F48073C2F88030136823F4C063D6
:1029280043F400731360314B1B68322202FB03F33C
:102938002F4AA2FB03239B0C013300E0013B2A4AE8
:10294800526912F4806F01D0002BF7D1264B5B69D6
:1029580013F4806F44D100207047B0F5007F08D091
:10296800214A136823F4C06343F480631360002092
:1029780070471D4B1B6803F4C063B3F5806F08D024
:10298800194AD2F8803043F48073C2F880300020AE
:102998007047154AD2F8803043F48073C2F880300B
:1029A800136823F4C06343F4007313600F4B1B6870
:1029B800322202FB03F30E4AA2FB03239B0C0133D2
:1029C80000E0013B084A526912F4806F01D0002BE5
:1029D800F7D1054B5B6913F4806F03D10020704772
:1029E8000320704703207047007000402C0000202F
:1029F80083DE1B43024A936843F480439360704725
:102A080000700040074AD36823F4E0631B041B0CE2
:102A1800000200F4E060034343F0BF6343F4003373
:102A2800D360704700ED00E000B5194BDB68C3F3D5
:102A38000223C3F1070CBCF1040F28BF4FF0040CAC
:102A480003F1040EBEF1060F18D9033B4FF0FF3E09
:102A58000EFA0CFC21EA0C0199400EFA03F322EA63
:102A68000303194300280BDB0901C9B200F16040D8
:102A780000F5614080F800135DF804FB0023E5E7EA
:102A880000F00F000901C9B2024B1954F4E700BF66
:102A980000ED00E014ED00E0002807DB00F01F0265
:102AA800400901239340024A42F82030704700BF92
:102AB80000E100E00138B0F1807F0BD24FF0E02355
:102AC8005861054AF02182F82310002098610722F6
:102AD8001A6170470120704700ED00E030B4036AC6
:102AE800026A22F0010202624568826922F4803299
:102AF80022F073020C68224323F002038C682343FC
:102B0800214CA04213D004F50064A0420FD004F574
:102B18004064A0420BD004F58064A04207D004F5BD
:102B28008064A04203D004F50064A04205D123F0DC
:102B38000803CC68234323F00403134CA04213D0AA
:102B480004F50064A0420FD004F54064A0420BD005
:102B580004F58064A04207D004F58064A04203D045
:102B680004F50064A04207D125F4407C4C6944EA8E
:102B78000C0C8D6945EA0C05456082614A68426320
:102B8800036230BC704700BF002C014030B4036AB8
:102B9800026A22F4807202624468C26922F48032B6
:102BA80022F073020D682A4323F400738D6843EA08
:102BB80005231C4DA84207D005F50065A84203D09F
:102BC80005F5E055A84206D123F40063CD6843EA31
:102BD800052323F48063134DA84213D005F500653F
:102BE800A8420FD005F54065A8420BD005F58065D1
:102BF800A84207D005F58065A84203D005F5006511
:102C0800A84207D124F4405C4C694CEA041C8C6946
:102C18004CEA04144460C2614A68C263036230BC6F
:102C2800704700BF002C014030B4036A026A22F4E6
:102C3800805202624468C26922F0807222F4E6423D
:102C48000D6842EA052223F400538D6843EA0533F0
:102C58001B4DA84207D005F50065A84203D005F52D
:102C6800E055A84206D123F40043CD6843EA053372
:102C780023F48043124DA84213D005F50065A842FD
:102C88000FD005F54065A8420BD005F58065A84230
:102C980007D005F58065A84203D005F50065A84270
:102CA80007D124F4404C4C694CEA841C8C694CEAEA
:102CB80084144460C2614A680264036230BC70478D
:102CC800002C014030B4036A026A22F480320262A6
:102CD8004468026D22F4803222F070020D682A43A3
:102CE80023F400338D6843EA0543114DA84213D0FD
:102CF80005F50065A8420FD005F54065A8420BD040
:102D080005F58065A84207D005F58065A84203D07F
:102D180005F50065A84204D124F480344D6944EADD
:102D28000524446002654A688264036230BC7047C7
:102D3800002C014030B4036A026A22F48012026255
:102D48004468026D22F0807222F4E0420D6842EA83
:102D5800052223F400138D6843EA0553114DA84258
:102D680013D005F50065A8420FD005F54065A842C7
:102D78000BD005F58065A84207D005F58065A84207
:102D880003D005F50065A84204D124F480244D69D8
:102D980044EA8524446002654A68C264036230BC20
:102DA800704700BF002C014010B4036A046A24F085
:102DB80001040462846924F0F00C4CEA021223F046
:102DC8000A030B43826103625DF8044B704710B439
:102DD800036A046A24F010040462846924F4704CC1
:102DE8004CEA023223F0A00343EA01138261036232
:102DF8005DF8044B7047836823F4401323F0700395
:102E08000B4343F0070383607047000090F83D30A0
:102E1800DBB2012B35D1022380F83D3003681C4A10
:102E2800934220D0B3F1804F1DD0A2F59432934243
:102E380019D002F58062934215D002F58062934260
:102E480011D002F5943293420DD002F540629342BC
:102E580009D002F58052934205D01A6842F0010267
:102E68001A600020704799680A4A0A40062A0AD060
:102E7800B2F5803F09D01A6842F001021A600020BA
:102E8800704701207047002070470020704700BF3E
:102E9800002C01400700010090F83D30DBB2012B07
:102EA8003AD1022380F83D300268D36843F0010329
:102EB800D36003681B4A934220D0B3F1804F1DD0E2
:102EC800A2F59432934219D002F58062934215D04C
:102ED80002F58062934211D002F5943293420DD0EC
:102EE80002F54062934209D002F58052934205D020
:102EF8001A6842F001021A600020704799680A4A6D
:102F08000A40062A0AD0B2F5803F09D01A6842F072
:102F180001021A60002070470120704700207047A6
:102F280000207047002C01400700010070477047DF
:102F38007047704770B505460368DE681C6914F071
:102F4800020F10D016F0020F0DD06FF002021A61B6
:102F58000123037703689B6913F0030F7CD0FFF705
:102F6800E6FF00232B7714F0040F12D016F0040F9D
:102F78000FD02B686FF004021A6102232B772B689D
:102F88009B6913F4407F6DD02846FFF7D0FF0023DC
:102F98002B7714F0080F12D016F0080F0FD02B68FB
:102FA8006FF008021A6104232B772B68DB6913F092
:102FB800030F5ED02846FFF7BAFF00232B7714F0E3
:102FC800100F12D016F0100F0FD02B686FF01002F0
:102FD8001A6108232B772B68DB6913F4407F4FD0E5
:102FE8002846FFF7A4FF00232B7714F0010F02D027
:102FF80016F0010F4BD114F4025F02D016F0800FC7
:103008004DD114F4807F02D016F0800F4FD114F008
:10301800400F02D016F0400F51D114F0200F02D00B
:1030280016F0200F53D114F4801F02D016F4801F1D
:1030380055D114F4001F02D016F4001F57D114F410
:10304800800F02D016F4800F59D114F4000F02D06B
:1030580016F4000F5BD170BDFFF768FF2846FFF735
:1030680067FF7EE72846FFF761FF2846FFF760FF06
:103078008DE72846FFF75AFF2846FFF759FF9CE7D8
:103088002846FFF753FF2846FFF752FFABE72B68A8
:103098006FF001021A61284603F04CFAABE72B687F
:1030A8006FF402521A61284600F04DFDA9E72B681B
:1030B8006FF480721A61284600F046FDA7E72B6876
:1030C8006FF040021A612846FFF733FFA5E72B6827
:1030D8006FF020021A61284600F034FDA3E72B6840
:1030E8006FF480121A61284600F02FFDA1E72B68C3
:1030F8006FF400121A61284600F028FD9FE72B683C
:103108006FF480021A61284600F021FD9DE72B68C4
:103118006FF400021A61284600F01AFD9BE70000D0
:1031280003683A4A904216D0B0F1804F13D0A2F506
:10313800943290420FD002F5806290420BD002F593
:103148008062904207D002F59432904203D002F593
:10315800E052904203D123F070034A6813432B4A8C
:10316800904222D0B0F1804F1FD0A2F59432904205
:103178001BD002F58062904217D002F5806290421F
:1031880013D002F5943290420FD002F5406290427B
:103198000BD002F58062904207D002F5806290421F
:1031A80003D002F50062904203D123F44073CA6849
:1031B800134323F080034A69134303608B68C36297
:1031C8000B688362114B984213D003F50063984251
:1031D8000FD003F5406398420BD003F58063984203
:1031E80007D003F58063984203D003F50063984243
:1031F80001D10B69036301234361036913F0010FD4
:1032080003D0036923F0010303617047002C0140D8
:1032180060B310B5044690F83D3013B3022384F828
:103228003D30214651F8040BFFF77AFF012384F85B
:10323800483084F83E3084F83F3084F8403084F8D1
:10324800413084F8423084F8433084F8443084F8BC
:10325800453084F8463084F8473084F83D30002003
:1032680010BD80F83C3002F081FAD7E701207047A2
:1032780060B310B5044690F83D3013B3022384F8C8
:103288003D30214651F8040BFFF74AFF012384F82B
:10329800483084F83E3084F83F3084F8403084F871
:1032A800413084F8423084F8433084F8443084F85C
:1032B800453084F8463084F8473084F83D300020A3
:1032C80010BD80F83C3002F01BFAD7E701207047A8
:1032D80030B4036A026A22F010020262446882690A
:1032E80022F0807222F4E6420D6842EA052223F0B9
:1032F80020038D6843EA05131B4DA84207D005F546
:103308000065A84203D005F5E055A84206D123F090
:103318008003CD6843EA051323F04003124DA84209
:1033280013D005F50065A8420FD005F54065A84201
:103338000BD005F58065A84207D005F58065A84241
:1033480003D005F50065A84207D124F4406C4C6908
:103358004CEA840C8C694CEA8404446082614A68B3
:103368008263036230BC7047002C014038B590F886
:103378003C30012B00F0958004460D46012380F86F
:103388003C30142A00F28880DFE802F00B8686863B
:103398001F86868634868686488686865D868686E5
:1033A80071000068FFF79AFB2268936943F00803ED
:1033B80093612268936923F00403936122689369F7
:1033C80029690B439361002067E00068FFF780FFDD
:1033D8002268936943F4006393612268936923F434
:1033E8008063936122689369296943EA01239361A1
:1033F800002052E00068FFF7C9FB2268D36943F058
:103408000803D3612268D36923F00403D3612268D7
:10341800D36929690B43D36100203EE00068FFF7B8
:1034280003FC2268D36943F40063D3612268D3693B
:1034380023F48063D3612268D369296943EA0123AD
:10344800D361002029E00068FFF73CFC2268136D77
:1034580043F0080313652268136D23F00403136512
:103468002268136D29690B431365002015E0006875
:10347800FFF760FC2268136D43F40063136522684C
:10348800136D23F4806313652268136D296943EA79
:1034980001231365002000E00120002384F83C305C
:1034A80038BD0220FCE710B4846824F47F4C42EA5B
:1034B80003220A4342EA0C0282605DF8044B70471B
:1034C80090F83C30012B00F0958010B5044601239C
:1034D80080F83C30022380F83D3002689068464B03
:1034E800034093600B68702B5BD031D8502B72D09F
:1034F8000CD9602B2AD1CA6849682068FFF767FC95
:1035080060212068FFF777FC002038E0402B0AD1C3
:10351800CA6849682068FFF747FC40212068FFF720
:103528006AFC00202BE061D8202B07D003D9302B70
:1035380004D0012023E00BB1102B05D119462068D7
:10354800FFF759FC00201AE0012018E0012016E0DE
:10355800B3F5005F32D00ED9284A9342EED015D980
:10356800274A9342EAD020329342E7D0303A934236
:10357800E4D0012003E0B3F5805F39D100200123B6
:1035880084F83D30002384F83C3010BDB3F1101F9F
:10359800D4D0103A9342D1D0B3F5801FCED00120B9
:1035A800EDE7CB684A6889682068FFF77CFF2268E6
:1035B800936843F0770393600020E0E7CB684A689C
:1035C80089682068FFF76FFF2268936843F4804397
:1035D80093600020D3E7CA6849682068FFF7E4FBD6
:1035E80050212068FFF707FC0020C8E70120C6E744
:1035F8000120C4E7022070478800CEFF3000100089
:103608005000100001F01F01012303FA01FC036AB6
:1036180023EA0C030362036A02FA01F10B43036213
:103628007047000010B504460846002953D194F8A5
:103638003E30DBB2013B18BF0123002B40F0A080D5
:10364800002873D1022384F83E3001220146206805
:10365800FFF7D8FF23684D4A934213D002F5006262
:1036680093420FD002F5406293420BD002F580627C
:10367800934207D002F58062934203D002F50062BC
:10368800934203D15A6C42F400425A6423683F4A79
:10369800934267D0B3F1804F64D0A2F5943293423D
:1036A80060D002F5806293425CD002F5806293425A
:1036B80058D002F59432934254D002F540629342B6
:1036C80050D002F5805293424CD01A6842F0010261
:1036D8001A60002055E004290CD0082911D00C29C3
:1036E80016D010291BD094F84330DBB2013B18BF29
:1036F8000123A2E794F83F30DBB2013B18BF012356
:103708009BE794F84030DBB2013B18BF012394E7F4
:1037180094F84130DBB2013B18BF01238DE794F8E0
:103728004230DBB2013B18BF012386E7042809D0E9
:1037380008280BD00C280DD010280FD0022384F8AD
:10374800433082E7022384F83F307EE7022384F87F
:1037580040307AE7022384F8413076E7022384F880
:10376800423072E799680A4A0A40062A0AD0B2F536
:10377800803F09D01A6842F001021A60002000E078
:10378800012010BD0020FCE70020FAE7002C0140D2
:103798000700010038B504460D4600220068FFF70F
:1037A80031FF23682A4A934213D002F500629342FC
:1037B8000FD002F5406293420BD002F5806293422B
:1037C80007D002F58062934203D002F5006293426B
:1037D8000DD1196A41F21112114208D1196A44F245
:1037E8004442114203D15A6C22F400425A642368BD
:1037F800196A41F21112114208D1196A44F244427D
:10380800114203D11A6822F001021A6025B9012376
:1038180084F83E30002038BD042D09D0082D0BD087
:103828000C2D0DD0102D0FD0012384F84330F1E773
:10383800012384F83F30EDE7012384F84030E9E7BD
:10384800012384F84130E5E7012384F84230E1E7B9
:10385800002C014001F00F01042303FA01FC036A64
:1038680023EA0C030362036A02FA01F10B430362C1
:103878007047000010B50446084600293BD194F86B
:103888004430DBB2013B18BF0123002B6AD100286A
:103898004AD1022384F84430042201462068FFF705
:1038A800D9FF2268536C43F4004353642368304AB9
:1038B800934249D0B3F1804F46D0A2F59432934257
:1038C80042D002F5806293423ED002F58062934274
:1038D8003AD002F59432934236D002F540629342D0
:1038E80032D002F5805293422ED01A6842F001027B
:1038F8001A60002037E0042908D008290DD094F870
:103908004730DBB2013B18BF0123BEE794F84530CE
:10391800DBB2013B18BF0123B7E794F84630DBB2AE
:10392800013B18BF0123B0E7042805D0082807D0B9
:10393800022384F84730AFE7022384F84530ABE729
:10394800022384F84630A7E799680A4A0A40062AFB
:103958000AD0B2F5803F09D01A6842F001021A6015
:10396800002000E0012010BD0020FCE70020FAE75D
:10397800002C01400700010038B504460D4600221E
:103988000068FFF767FF2368196A41F211121142B4
:1039980008D1196A44F24442114203D15A6C22F404
:1039A80000425A642368196A41F21112114208D17F
:1039B800196A44F24442114203D11A6822F0010202
:1039C8001A6025B9012384F84430002038BD042D3D
:1039D80005D0082D07D0012384F84730F5E70123E7
:1039E80084F84530F1E7012384F84630EDE700001C
:1039F80090F83C30012B4CD030B4012380F83C3097
:103A0800022380F83D30026853689468224DAA4228
:103A180007D005F50065AA4203D005F5E055AA428E
:103A280003D123F470034D682B4323F0007323F074
:103A380070030D682B4353600368174A93421AD0EA
:103A4800B3F1804F17D0A2F59432934213D002F508
:103A5800806293420FD002F5806293420BD002F548
:103A68009432934207D002F54062934203D002F5A4
:103A78008052934204D124F080048A6814439C60E5
:103A8800012380F83D30002380F83C30184630BCD4
:103A980070470220704700BF002C014090F83C306E
:103AA800012B4AD010B4012380F83C30CB6823F4B2
:103AB80040738A68134323F480634A68134323F4EA
:103AC80000630A68134323F480530A69134323F4F9
:103AD80000534A69134323F480430A6B134323F4C6
:103AE80070238A6943EA024323F08053CA69134367
:103AF8000268134CA24207D004F50064A24203D026
:103B080004F5E054A24210D123F470038C6A43EA0E
:103B1800045323F080730C6A234323F000734C6A28
:103B2800234323F00053C96A0B435364002380F8EE
:103B38003C3018465DF8044B70470220704700BFC0
:103B4800002C0140704770477047704770477047B6
:103B58007047026852E8003F23F0C00342E8003192
:103B68000029F6D1026802F1080353E8003F23F464
:103B78000003083242E800310029F3D12023C0F8BD
:103B880088307047026852E8003F23F4907342E897
:103B980000310029F6D1026802F1080353E8003F1A
:103BA80023F0805323F00103083242E80031002952
:103BB800F1D1C36E012B06D02023C0F88C3000232E
:103BC800C36643677047026852E8003F23F010035A
:103BD80042E800310029F6D1EEE700001346D0F89C
:103BE8008820202A3DD110B5044600293BD0002B5F
:103BF8003BD00165A0F85430A0F856300022C0F838
:103C080090202122C0F88820C26FCAB11849D16219
:103C1800C26F18491163C26F17495163C26F0021FF
:103C2800916302682832016DC06FFEF713FE38B148
:103C38001023C4F890302023C4F8883001200FE006
:103C4800236840221A62226802F1080353E8003F01
:103C580043F08003083242E800310029F3D1002004
:103C680010BD022070470120FAE70120F8E700BFE5
:103C7800873C0008D13C0008DD3C0008704708B5C7
:103C88000346806A1B681B6813F0200F18D10023B5
:103C9800A0F85630026802F1080353E8003F23F009
:103CA8008003083242E800310029F3D1026852E863
:103CB800003F43F0400342E800310029F6D108BD37
:103CC800FFF7DCFFFBE7704708B5806AFFF7FBFFEB
:103CD80008BD704738B5846AD4F88820D4F88C5069
:103CE80023689B6813F0800F01D0212A10D0236825
:103CF8009B6813F0400F01D0222D10D0D4F89030DB
:103D080043F01003C4F890302046FFF7E2FF38BDB7
:103D18000023A4F856302046FFF71BFFE7E70023EF
:103D2800A4F85E302046FFF72DFFE7E770B504469C
:103D3800016883680269134342691343C2691343E4
:103D48000868964A024013430B602268536823F4BC
:103D58004053E1680B435360A1692268904B9A4233
:103D680001D0236A1943936823F06E4323F4306328
:103D78000B4393602268D36A23F00F03616A0B43F5
:103D8800D3622368874A934210D0874A934221D04E
:103D9800864A934237D0864A93425CD0854A9342FA
:103DA8006BD07F4A93427DD010223AE002F5584208
:103DB800D2F8882002F00302032A09D8DFE802F0CB
:103DC8000204870601222CE004222AE0082228E0C7
:103DD800102226E002F5E632D2F8882002F00C0222
:103DE8000C2A0ED8DFE802F0070D0D0D090D0D0D98
:103DF800750D0D0D0B00002213E0042211E00822BE
:103E08000FE010220DE002F5E432D2F8882002F02B
:103E18003002202A5FD01AD8002A5ED0102A5ED13C
:103E280004225F498B4276D0E069B0F5004F00F07C
:103E3800C980082A00F23481DFE812F0F70019017E
:103E4800F50032011C013201320132011F01302A12
:103E580047D10822E5E702F5E232D2F8882002F0DD
:103E6800C002802A3FD004D8FAB3402A3FD10422A6
:103E7800D7E7C02A3DD10822D3E702F5E032D2F8CD
:103E8800882002F44072B2F5007F34D005D8A2B37E
:103E9800B2F5807F33D10422C3E7B2F5407F30D139
:103EA8000822BEE702F5C832D2F8882002F4406240
:103EB800B2F5006F27D005D83AB3B2F5806F26D196
:103EC8000422AEE7B2F5406F23D10822A9E7022207
:103ED800A7E70222A5E70222A3E70022A1E7102212
:103EE8009FE710229DE702229BE7002299E7102214
:103EF80097E7102295E7022293E7002291E7102224
:103F08008FE710228DE702228BE7002289E7102233
:103F180087E7102285E7082A00F2B280DFE802F07E
:103F280008B03BB038B0B0B005004FF4004004E032
:103F3800FEF7F2F8002800F0A580626A1E4B33F8FD
:103F48001220B0FBF2F3656805EB4501994200F2D7
:103F58009B80B3EB053F00F299800026334631463B
:103F6800FCF756F9090241EA106100026B08C01813
:103F78002A46334641F10001FCF74AF9A0F54072A0
:103F88000E4B9A4200F284802368D860304665E080
:103F9800FDF77CFFCEE70A48CFE700BFF369FFCF04
:103FA80000800040003801400044004000480040C4
:103FB800004C004000500040D8680008FFFC0F008B
:103FC8000024F400082A65D8DFE802F00727056412
:103FD8002A6464640B00354803E0FEF79DF8002866
:103FE8005AD0626A324B33F81230B0FBF3F0626891
:103FF800530803EB4000B0FBF2F0A0F110024FF6BB
:10400800EF739A424AD883B223F00F03C0F34200F9
:1040180018432368D860002020E0FEF78FF8DEE719
:10402800FDF734FFDBE7214803E0FEF775F80028C9
:1040380038D0626A1E4B33F81230B0FBF3F0636875
:1040480000EB5300B0FBF3F0A0F110024FF6EF7352
:104058009A4229D8236880B2D86000200123A4F8A6
:104068006A30A4F8683000236367A36770BDFEF761
:1040780065F8DCE7FDF70AFFD9E74FF40040D8E719
:104088000120EBE70020E9E70120E7E70120E5E769
:104098000120E3E70120E1E70020DFE70120DDE779
:1040A8000120DBE70020D9E70120D7E70024F4004E
:1040B800D8680008836A13F0080F06D002685368AE
:1040C80023F40043816B0B435360836A13F0010FA1
:1040D80006D00268536823F40033C16A0B43536067
:1040E800836A13F0020F06D00268536823F4803302
:1040F800016B0B435360836A13F0040F06D0026808
:10410800536823F48023416B0B435360836A13F095
:10411800100F06D00268936823F48053C16B0B43D9
:104128009360836A13F0200F06D00268936823F423
:104138000053016C0B439360836A13F0400F0AD05D
:104148000268536823F48013416C0B435360436C3B
:10415800B3F5801F0BD0836A13F0800F06D0026876
:10416800536823F40023C16C0B4353607047026803
:10417800536823F4C003816C0B435360EBE72DE9CC
:10418800F84305460E4617469946DDF820802C6808
:10419800E46936EA04030CBF4FF0010C4FF0000C41
:1041A800BC4536D1B8F1FF3FF1D0FDF7B7FBA0EB26
:1041B8000900404530D8B8F1000F2FD02B681A6895
:1041C80012F0040FE3D0802EE1D0402EDFD0DA6960
:1041D80012F0080F11D1DA6912F4006FD7D04FF43A
:1041E80000621A622846FFF7CDFC2023C5F89030FC
:1041F800002385F8843003200CE008241C6228463C
:10420800FFF7C0FCC5F89040002385F884300120F2
:1042180000E00020BDE8F8830320FBE70320F9E76E
:1042280030B583B004460023C0F89030FDF776FB24
:1042380005462268126812F0080F10D123681B681F
:1042480013F0040F28D12023C4F88830C4F88C3028
:104258000020E066206784F8840003B030BD6FF06A
:104268007E430093034600224FF400112046FFF7D7
:1042780086FF0028E2D0226852E8003F23F080033E
:1042880042E800310029F6D12023C4F88830002301
:1042980084F884300320E0E76FF07E4300932B46D8
:1042A80000224FF480012046FFF769FF0028CAD09A
:1042B800226852E8003F23F4907342E80031002955
:1042C800F6D1226802F1080353E8003F23F0010306
:1042D800083242E800310029F3D12023C4F88C3099
:1042E800002384F884300320B7E778B310B5044678
:1042F800D0F888300BB32423C4F8883022681368B8
:1043080023F001031360A36AE3B92046FFF70EFD0B
:10431800012811D02268536823F49043536022681F
:10432800936823F02A0393602268136843F001031B
:1043380013602046FFF774FF10BD80F8843001F049
:104348009BFCD8E72046FFF7B5FEDEE70120704763
:10435800436E2BB90123A0F86A30A0F86830704783
:1043680030B403689A68C2F342629968490F094DEC
:104378006B5CDB00084C615C93FBF1F3A0F86A30DE
:10438800AB5CDB00A25C93FBF2F3A0F8683030BCB6
:10439800704700BFF8680008F068000890F884309B
:1043A800012B18D0012380F884302423C0F88830EA
:1043B80003681A68196821F00101196022F0005297
:1043C8000023436601680A602022C0F8882080F82C
:1043D8008430184670470220704738B590F884300A
:1043E800012B1DD00446012380F884302423C0F813
:1043F800883003681D681A6822F001021A60026892
:10440800936823F0604319439160FFF7A1FF236885
:104418001D602023C4F88830002084F8840038BD4B
:104428000220FCE738B590F88430012B1DD00446F3
:10443800012380F884302423C0F8883003681D687D
:104448001A6822F001021A600268936823F0606318
:1044580019439160FFF77CFF23681D602023C4F88F
:104468008830002084F8840038BD0220FCE7000072
:10447800034AD2F8883043F47003C2F88830704792
:1044880000ED00E010B402681D4B9A4228D01D4987
:104498001D4B9A4226D00164D2F8803023F4F813D9
:1044A800446B43EA0443C2F8803001F1700343646B
:1044B8000268D2F8803023F07063846B43EA0463A7
:1044C800C2F8803001F1B003836401F5C473C3649A
:1044D80001F51873036501F51E7343650B4607E084
:1044E8000A49D5E701F5D461D5E7002243F8042B42
:1044F80001F554729A42F8D85DF8044B704700BF32
:104508000068004000A40040006C004050A7004034
:1045180070B54C68ECB90D698C6825430C6845EAA0
:104528008445CC690E6A44EA06648E6934434E6950
:104538003443CE6844EA0644406D03EBC30300EB02
:10454800C30E40F83350CEF804400EF1080E002098
:1045580019E00C698D6825430C68254345F08045B2
:10456800DFE702EB000C9CF803409CF802301B04C8
:1045780043EA04639CF8014043EA0423145C2343A0
:104588004EF8043B0430CB68024CE35C8342E8D825
:1045980070BD00BF18690008002800F0E38038B536
:1045A800044690F85C30D3B12268936923F0100375
:1045B8009361FDF7B3F9054623689A6912F0080F6D
:1045C80012D0FDF7ABF9401B0A28F5D9236E43F04A
:1045D80001032366032384F85C30012038BD80F88A
:1045E8005D3000F0A3FFDFE79A6942F001029A61AB
:1045F800FDF794F9054623689A6912F0010F0DD169
:10460800FDF78CF9401B0A28F5D9236E43F0010306
:104618002366032384F85C300120DFE79A6942F0BF
:1046280002029A612268504B9A4242D0237C012BA5
:1046380045D02268936943F040039361637C012B62
:1046480043D02268936923F480439361A37C012BB0
:1046580041D02268936943F4805393612268936937
:1046680023F44073A1680B4393612268936923F094
:10467800A40393612268136923F010031361E368AC
:10468800012B2ED0002B31D0022B54D022689369F5
:1046980043F0800393612268136943F010031361A8
:1046A800E368032B22D12268936943F020039361C6
:1046B8001CE06268A3F58063C3F80025B6E72268AA
:1046C800936923F040039361B8E72268936943F440
:1046D80080439361BAE72268936923F48053936116
:1046E800BCE72268936943F004039361A3695A1EE7
:1046F800E369013B1B0243EA4263226A013A13431E
:104708006269013A216843EA0243CB61A368B3F5C1
:10471800407F16D02268D2F8C030E16B0B43C2F854
:10472800C0302046FFF7AEFE0020A06520660123BA
:1047380084F85C3052E72268936943F02003936160
:10474800D4E7A36A013BE26A013A43EA0223226BF7
:10475800013A43EA0213626A013A216843EA0243D2
:10476800CB60D7E7012070470064004090F85C30C8
:10477800013BDBB2012B05D9036E43F0020303664C
:10478800012070470B68A3B110B4CA680B6943EAEB
:1047980042724B698C6843EA8473406C496800EB49
:1047A800C10C40F83120CCF8043000205DF8044BEF
:1047B80070478A68CB68DB0643EA82730A6943EA72
:1047C80002434A691343026C496842F821300020C9
:1047D800704790F85C30DBB2012B05D0036E43F0D4
:1047E8000403036601207047022380F85C300268E6
:1047F800936923F001039361002303661846704709
:1048080038B5044690F85C30DBB2022B1BD1036844
:10481800D3F8C40010F4001F05D0236E43F40073CE
:104828002366012014E0D3F8C450C5F301452B4694
:104838002046FFF76DFE22680123AB40C2F8CC305A
:10484800A365002004E0036E43F00803036601201B
:1048580038BD000070B590F85C40E4B2022C40F01E
:10486800A28040290BD00468D4F8985015F00F0F97
:104878002DD1036E43F480730366012098E0046829
:10488800D4F8905015F00F0F05D1036E43F48073E0
:10489800036601208CE0D4F89050C5F3006C15F045
:1048A800807F08D0D4F88050C5F3402C15F4007FE1
:1048B80001D04FF0010CD4F89040C4F301240CEB64
:1048C8000405846C05EBC50C04EBCC0C1AE0D4F899
:1048D8009850C5F3006C15F0807F08D0D4F880504C
:1048E800C5F3002C15F4807F01D04FF0010CD4F8EB
:1048F8009840C4F301240CEB0405C46C05EBC50C0B
:1049080004EBCC0CDCF8004004F08044546074BB29
:10491800DCF80040C4F38A441460DCF8004004F07A
:1049280000549460DCF8004004F000441461BCF8C2
:104938000440D461BCF8064004F00F04D460DCF8ED
:10494800044004F480145461DCF8044004F40014B6
:1049580094619CF8074004F07F041462DCF804407A
:10496800E40F54620CF1080E4FF0000C0BE0DCF879
:10497800004024F060441460CFE71EF80C4003F8B0
:104988000C400CF1010C0B4CD668A45D6445F4D8BE
:10499800402904D00368C3F89C50002008E003684D
:1049A800C3F89450F9E7036E43F008030366012047
:1049B80070BD00BF1869000890F85C30013BDBB29D
:1049C800012B05D9036E43F00203036601207047EB
:1049D80070B40468A36D11F0070602D013F0010F3C
:1049E80023D011F0380F02D013F0020F1DD011F4AC
:1049F800E07F02D013F0040F17D011F4F05F02D05B
:104A080013F0080F11D011F4604F02D013F0100FFB
:104A18000BD011F4403F02D013F0200F05D011F451
:104A28007C0F06D013F0400F03D1E56D45F001056A
:104A3800E56516B113F0010F23D111F0380F02D03C
:104A480013F0020F1DD111F4E07F02D013F0040F10
:104A580017D111F4F05F02D013F0080F11D111F43F
:104A6800604F02D013F0100F0BD111F4403F02D069
:104A780013F0200F05D111F47C0F07D013F0400F6D
:104A880004D00468E36D43F00203E36511F0800F7E
:104A980005D00468D4F8DC301343C4F8DC3011F4D2
:104AA800807F05D00468D4F8E0301A43C4F8E020C9
:104AB8000268536D19435165002070BC70477047F8
:104AC8007047704770477047704770477047704726
:104AD80070472DE9F84F044603681A6D02F4E05A4E
:104AE8005A6D0AEA020A1A6D02F007095A6D09EAB4
:104AF80002091A6D02F038085A6D08EA02081E6D9C
:104B080006F471065A6D16401F6D07F460275A6D3A
:104B18001740D3F854B01D6D15F0400F02D01BF0AC
:104B2800400F41D115F4807F02D01BF4807F40D123
:104B3800BAF1000F4AD1B9F1000F4FD1B8F1000F07
:104B480054D115F4007F02D01BF4007F56D115F024
:104B5800800F02D01BF0800F58D115F4005F02D0EF
:104B68001BF4005F5ED115F4004F02D01BF4004F18
:104B780060D115F4804F0AD01BF4804F07D023680A
:104B88004FF480421A65236E43F080032366002F9A
:104B980058D126B123681E65236E1E432666236EF0
:104BA800002B56D1BDE8F88F40221A65FFF78EFF1B
:104BB800B8E72368D3F8D810D3F8E0204FF4807012
:104BC800186511402046FFF77EFFB1E72368C3F858
:104BD80050A051462046FFF772FFACE72368C3F8A0
:104BE800509049462046FBF795FCA7E72368C3F891
:104BF800508041462046FFF763FFA2E723684FF441
:104C080000721A652046FFF75CFFA0E72368D3F817
:104C1800D410D3F8DC208020186511402046FFF717
:104C280051FF9AE723684FF400521A652046FFF7B0
:104C38004BFF98E723684FF400421A652046FFF7B8
:104C480044FF96E723681F6539462046FFF740FF73
:104C58009FE72046FFF73BFFA4E70000F0B58DB0C3
:104C680000240794089409940A940B942C4BDA6C4A
:104C780042F01002DA64DA6C02F010020192019A32
:104C8800DA6C42F00402DA64DA6C02F0040202928E
:104C9800029ADA6C42F02002DA64DA6C02F020023E
:104CA8000392039ADA6C42F00102DA64DA6C02F0D9
:104CB80001020492049ADA6C42F00202DA64DA6CB5
:104CC80002F002020592059ADA6C42F00802DA64F0
:104CD800DB6C03F008030693069B124F224608215B
:104CE8003846FDF7E3FC104D22464FF44041284674
:104CF800FDF7DCFC082307930126089609940A941B
:104D080007A93846FDF7E8FB4FF440430793089698
:104D180009940A9407A92846FDF7DEFB0DB0F0BDFB
:104D280000100240001000480004004810B58CB084
:104D3800002409940A940B942022214601A801F02A
:104D48008FFD26484FF0A04303604FF400234360D3
:104D58008460C46004610123436104228261047792
:104D680043770222026280F82440C462046380F818
:104D78003830C46380F84040FBF7AEFE10BB002318
:104D8800099309A91548FCF79BFCF0B9144B01934A
:104D980006230293022303937F230493042305939A
:104DA8000023069301A90D48FCF73EF880B90D4B86
:104DB80001930C23029301A90848FCF735F850B970
:104DC8000CB010BDFBF7D2FBD9E7FBF7CFFBDDE753
:104DD800FBF7CCFBEBE7FBF7C9FBF1E7EC010020A5
:104DE800020030040400600800B589B020220021C8
:104DF800684601F035FD2848284B03604FF400232E
:104E0800436000238360C36003610122426104217F
:104E18008161037742770321016280F82430C362FD
:104E2800036380F83820C36380F84030FBF754FEF2
:104E380028BB1B4B009306230193022302937F2375
:104E48000393042304930023059369461248FBF750
:104E5800EBFFB8B9134B00930C23019369460E4836
:104E6800FBF7E2FF88B9104B0093122301936946C0
:104E78000948FBF7D9FF58B909B05DF804FBFBF7FF
:104E880075FBD6E7FBF772FBE4E7FBF76FFBEAE796
:104E9800FBF76CFBF0E700BF580200200001005050
:104EA8000008302E002090360010603210B58CB00B
:104EB800002409940A940B942022214601A801F0A9
:104EC800CFFC2C482C4B03604FF4002343608460D4
:104ED800C46004610123436104228261047743773B
:104EE8000322026280F82440C462046380F83830E8
:104EF800C46380F84040FBF7EFFD00282BD1002366
:104F0800099309A91B48FCF7DBFB38BB1B4B019332
:104F180006230293012303937F2304930423059319
:104F28000023069301A91348FBF77EFFC8B9144B69
:104F380001930C23029301A90E48FBF775FF98B95A
:104F4800104B01931223029301A90A48FBF76CFF47
:104F580068B90CB010BDFBF709FBD0E7FBF706FBFF
:104F6800D4E7FBF703FBE2E7FBF700FBE8E7FBF717
:104F7800FDFAEEE7C4020020000400501000C01043
:104F8800400020190400600800B589B020220021E3
:104F9800684601F065FC2248224B03604FF4002369
:104FA800436000238360C3600361012242610421DE
:104FB8008161037742770221016280F82430C3625D
:104FC800036380F83820C36380F84030FBF784FD22
:104FD800E0B9154B009306230193022302937F2324
:104FE8000393042304930023059369460C48FBF7B5
:104FF8001BFF70B90D4B00930C23019369460848B9
:10500800FBF712FF40B909B05DF804FBFBF7AEFAF5
:10501800DFE7FBF7ABFAEDE7FBF7A8FAF3E700BF2A
:1050280030030020000500500800900C001060328A
:1050380000B589B020220021684601F011FC1B4808
:105048001B4B03604FF40023436000238360C3605D
:10505800036143610422826103774377012202627C
:1050680080F82430C362036380F83830C36380F863
:105078004030FBF731FD98B90E4B0093062301939E
:10508800022302937F2303930423049300230593AD
:1050980069460648FBF7C8FE28B909B05DF804FB65
:1050A800FBF764FAE8E7FBF761FAF6E79C030020F0
:1050B8000006005002003004F0B5A9B004460021F3
:1050C8002391249125912691279154220EA801F02D
:1050D800C7FB2368B3F1A04F10D0904A93425CD02D
:1050E8008F4A934200F0C9808E4A934200F036817D
:1050F8008D4A934200F0928129B0F0BD4FF40043ED
:105108000E934FF000531F930EA8FDF729F80028BF
:1051180032D1864A136801331360012B2FD0844B98
:10512800DA6C42F00102DA64DB6C03F001030293EB
:10513800029B0323239324930025259523A94FF04D
:105148009040FDF7C9F97B487B4B0360052343601A
:105158008560C560802303614FF4807343614FF419
:10516800806383612023C3610562FDF707FB88B96B
:10517800704B63659C62BFE7FBF7F8F9C9E76C4BB6
:10518800DA6C42F40052DA64DB6C03F400530193E6
:10519800019BC4E7FBF7EAF9EAE74FF400430E93F3
:1051A8004FF000531F930EA8FCF7DAFF002853D1E5
:1051B8005E4A136801331360012B50D05C4BDA6CE4
:1051C80042F00102DA64DA6C02F001020492049AF5
:1051D800DA6C42F00402DA64DA6C02F00402059236
:1051E800059ADA6C42F00202DA64DB6C03F002031F
:1051F8000693069B202623960327249700252595AA
:1052080023A94FF09040FDF767F923962497259539
:1052180023A94A48FDF760F9042323932497259589
:1052280023A94748FDF758F94648474B036024230C
:1052380043608560C560802303614FF480734361D8
:105248004FF480638361C6610562FDF797FA88B9F8
:105258003C4B63659C624FE7FBF788F9A8E7344B42
:10526800DA6C42F40052DA64DB6C03F40053039303
:10527800039BA3E7FBF77AF9EAE74FF480330E9331
:105288004FF0004320930EA8FCF76AFF002833D1A3
:105298002E4A136801331360012B30D0244BDA6C8B
:1052A80042F01002DA64DB6C03F010030893089BE9
:1052B8004FF460732393032324930025259523A992
:1052C8002348FDF709F92348234B0360252343604E
:1052D8008560C560802303614FF4807343614FF498
:1052E800806383612023C3610562FDF747FA88B9AB
:1052F800184B63659C62FFE6FBF738F9C8E70C4B6F
:10530800DA6C42F48042DA64DB6C03F4804307937E
:10531800079BC3E7FBF72AF9EAE700BF0001005043
:10532800000400500005005000060050E401002071
:105338000010024008040020080402400008004849
:10534800000400486804002008000240E80100202A
:1053580000100048C80400201C0002404FF48033AD
:105368000E934FF0004320930EA8FCF7F9FE002897
:1053780043D1454A136801331360012B40D0434B96
:10538800DA6C42F00202DA64DA6C02F002020A9283
:105398000A9ADA6C42F00802DA64DB6C03F008035C
:1053A8000B930B9B4FF480532393032724970025DB
:1053B800259523A93648FDF78FF84FF48076239674
:1053C8002497259523A93348FDF786F83248334BAF
:1053D8000360262343608560C560802303614661BE
:1053E8004FF4806383612023C3610562FDF7C6F92A
:1053F80088B9294B63659C627EE6FBF7B7F8B8E786
:10540800224BDA6C42F48042DA64DB6C03F48043AA
:105418000993099BB3E7FBF7A9F8EAE74FF4803350
:105428000E934FF0004320930EA8FCF799FEE0B9C5
:10543800154A136801331360012B19D0134BDA6C2A
:1054480042F00102DA64DB6C03F001030D930D9B5B
:105458004FF480732393032324930023259323A9D4
:105468004FF09040FDF738F846E6FBF77FF8DFE7A6
:10547800064BDA6C42F48042DA64DB6C03F4804356
:105488000C930C9BDAE700BFE801002000100240F3
:1054980000040048000C00482805002030000240A5
:1054A80084B00F4B9A6C42F004029A649A6C02F032
:1054B80004020192019A9A6C42F001029A649A6C71
:1054C80002F001020292029A9A6C42F002029A6475
:1054D8009B6C03F002030393039B04B0704700BF67
:1054E8000010024008B50F480F4B036000234360CB
:1054F8008360C3600374437483740A224261012287
:1055080082610721C161016242628262C2620263F2
:1055180043638363C363FFF73FF800B908BDFBF734
:1055280025F8FBE7C40500200064004010B59CB0D6
:10553800044600211791189119911A911B91542230
:1055480002A801F08DF922681E4B9A4201D01CB0C6
:1055580010BD4FF4805302934FF00073109302A8CC
:10556800FCF7FEFD50BB184B9A6D42F000729A652D
:105578009A6D02F000720092009ADA6C42F0010211
:10558800DA64DB6C03F001030193019B4FF4C05311
:10559800179302231893002419941A9409231B9330
:1055A80017A94FF09040FCF797FF22462146152097
:1055B800FDF73AFA1520FDF76FFAC8E7FAF7D6FFB4
:1055C800D1E700BF006400400010024000B589B078
:1055D800002304930593069307930193029303937F
:1055E80015484FF080420260436083604FF4FA72BE
:1055F800C260036180238361FDF70AFE90B94FF40E
:105608008053049304A90C48FDF75AFF68B9002396
:105618000193039301A90848FEF7EAF940B909B0D4
:105628005DF804FBFAF7A2FFE9E7FAF79FFFEEE758
:10563800FAF79CFFF3E700BF7406002000B589B0B5
:10564800002304930593069307930193029303930E
:105658001448154A02604360836040F2DC52C2601D
:10566800036180238361FDF7D3FD90B94FF4805324
:10567800049304A90B48FDF723FF68B9002301939D
:10568800039301A90748FEF7B3F940B909B05DF8DB
:1056980004FBFAF76BFFE9E7FAF768FFEEE7FAF7BA
:1056A80065FFF3E758070020000C004000B585B0FF
:1056B80000230193029303930F48104A026043F6B4
:1056C80097224260836040F2E733C360802383619E
:1056D800FDF79EFD50B900230193039301A90648E5
:1056E800FEF786F928B905B05DF804FBFAF73EFF26
:1056F800F1E7FAF73BFFF6E7A407002000100040A7
:1057080084B00368154A934207D0154A93420FD0D4
:10571800144A934217D004B07047134B1A6E42F4E0
:1057280000621A661B6E03F400630193019BF2E7A3
:105738000D4B9A6D42F002029A659B6D03F00203CD
:105748000293029BE7E7084B9A6D42F004029A65C0
:105758009B6D03F004030393039BDCE7002C0140DB
:1057680000040040000800400010024000B585B069
:105778000368B3F1804F08D0214A934219D0214AD7
:10578800934229D005B05DF804FB03F504339A6D04
:1057980042F001029A659B6D03F001030193019B9E
:1057A800002211461C20FDF73FF91C20FDF774F973
:1057B800E8E7154B9A6D42F008029A659B6D03F075
:1057C80008030293029B002211463220FDF72CF9B0
:1057D8003220FDF761F9D5E70B4B9A6D42F01002C4
:1057E8009A659B6D03F010030393039B00221146F7
:1057F8003620FDF719F93620FDF74EF9C2E700BF4C
:10580800000C0040001000400010024070B58AB043
:1058180000230593069307930893099303683C4A6A
:10582800934207D03B4A934248D03B4A934259D0CF
:105838000AB070BD394BDA6C42F00402DA64DA6CF3
:1058480002F004020192019ADA6C42F01002DA6462
:10585800DB6C03F010030293029B4FF40053059393
:1058680002250695042309932D4E05A93046FCF719
:1058780033FE01230593069500240794089409959F
:1058880005A93046FCF728FE4FF48043059306959A
:1058980007940894099506F5006605A93046FCF7B3
:1058A8001BFE4FF4004305930695079408940623BE
:1058B800099305A93046FCF70FFEB9E7174BDA6CD8
:1058C80042F01002DA64DB6C03F010030393039BCD
:1058D8001423059302230693099305A91148FCF79D
:1058E800FBFDA5E70D4BDA6C42F00802DA64DB6CCD
:1058F80003F008030493049B4FF4405305930223D9
:105908000693099305A90848FCF7E6FD90E700BF50
:10591800002C014000040040000800400010024034
:105928000008004800100048000C004810B598B066
:1059380000241594169417940E940F9410941194AF
:105948001294139414943422214601A800F088FF7D
:105958002D482E4B0360446084604FF49673C360F7
:10596800046144618461FDF783FC00283DD1002374
:1059780015931693179315A92348FEF739F80028AD
:1059880036D160230E9300220F9210921192129238
:10599800139214920EA91C48FDF7E8FC58BB4FF46B
:1059A80096730F930C220EA91748FDF7DFFC28BB4E
:1059B80000230193029303931422049205934FF456
:1059C800005206920793089309934FF000720A92C7
:1059D8000B930C930D9301A90B48FEF75FF880B960
:1059E8000948FFF713FF18B010BDFAF7BFFDBEE76F
:1059F800FAF7BCFDC5E7FAF7B9FDD0E7FAF7B6FD47
:105A0800D6E7FAF7B3FDEBE728060020002C0140A3
:105A180000B58BB000230793089309930093019373
:105A2800029303930493059306931D481D4A02604D
:105A38006322426083604BF68032C26003618361F7
:105A4800FDF716FC00BB00230793099307A9144828
:105A5800FDF7CEFFD8B9602300930022019202928D
:105A6800049269460E48FDF781FC98B95A230193C0
:105A7800082269460A48FDF779FC70B90848FFF71B
:105A8800C5FE0BB05DF804FBFAF770FDDBE7FAF72B
:105A98006DFDE0E7FAF76AFDE8E7FAF767FDEDE77D
:105AA800C00600200004004000B58BB00023079317
:105AB8000893099300930193029303930493059326
:105AC80006931D481D4A02600922426083604BF616
